{
	"contracts/SimpleSwapTP.sol": {
		"SimpleSwap": {
			"abi": [
				{
					"inputs": [],
					"stateMutability": "nonpayable",
					"type": "constructor"
				},
				{
					"anonymous": false,
					"inputs": [
						{
							"indexed": true,
							"internalType": "address",
							"name": "owner",
							"type": "address"
						},
						{
							"indexed": true,
							"internalType": "address",
							"name": "spender",
							"type": "address"
						},
						{
							"indexed": false,
							"internalType": "uint256",
							"name": "value",
							"type": "uint256"
						}
					],
					"name": "Approval",
					"type": "event"
				},
				{
					"anonymous": false,
					"inputs": [
						{
							"indexed": true,
							"internalType": "address",
							"name": "from",
							"type": "address"
						},
						{
							"indexed": true,
							"internalType": "address",
							"name": "to",
							"type": "address"
						},
						{
							"indexed": false,
							"internalType": "uint256",
							"name": "value",
							"type": "uint256"
						}
					],
					"name": "Transfer",
					"type": "event"
				},
				{
					"inputs": [],
					"name": "MINIMUM_LIQUIDITY",
					"outputs": [
						{
							"internalType": "uint256",
							"name": "",
							"type": "uint256"
						}
					],
					"stateMutability": "view",
					"type": "function"
				},
				{
					"inputs": [
						{
							"internalType": "address",
							"name": "tokenA",
							"type": "address"
						},
						{
							"internalType": "address",
							"name": "tokenB",
							"type": "address"
						},
						{
							"internalType": "uint256",
							"name": "amountADesired",
							"type": "uint256"
						},
						{
							"internalType": "uint256",
							"name": "amountBDesired",
							"type": "uint256"
						},
						{
							"internalType": "uint256",
							"name": "amountAMin",
							"type": "uint256"
						},
						{
							"internalType": "uint256",
							"name": "amountBMin",
							"type": "uint256"
						},
						{
							"internalType": "address",
							"name": "to",
							"type": "address"
						},
						{
							"internalType": "uint256",
							"name": "deadline",
							"type": "uint256"
						}
					],
					"name": "addLiquidity",
					"outputs": [
						{
							"internalType": "uint256",
							"name": "amountA",
							"type": "uint256"
						},
						{
							"internalType": "uint256",
							"name": "amountB",
							"type": "uint256"
						},
						{
							"internalType": "uint256",
							"name": "liquidityTokens",
							"type": "uint256"
						}
					],
					"stateMutability": "nonpayable",
					"type": "function"
				},
				{
					"inputs": [
						{
							"internalType": "address",
							"name": "",
							"type": "address"
						},
						{
							"internalType": "address",
							"name": "",
							"type": "address"
						}
					],
					"name": "allowance",
					"outputs": [
						{
							"internalType": "uint256",
							"name": "",
							"type": "uint256"
						}
					],
					"stateMutability": "view",
					"type": "function"
				},
				{
					"inputs": [
						{
							"internalType": "address",
							"name": "spender",
							"type": "address"
						},
						{
							"internalType": "uint256",
							"name": "amount",
							"type": "uint256"
						}
					],
					"name": "approve",
					"outputs": [
						{
							"internalType": "bool",
							"name": "",
							"type": "bool"
						}
					],
					"stateMutability": "nonpayable",
					"type": "function"
				},
				{
					"inputs": [
						{
							"internalType": "address",
							"name": "",
							"type": "address"
						}
					],
					"name": "balanceOf",
					"outputs": [
						{
							"internalType": "uint256",
							"name": "",
							"type": "uint256"
						}
					],
					"stateMutability": "view",
					"type": "function"
				},
				{
					"inputs": [],
					"name": "decimals",
					"outputs": [
						{
							"internalType": "uint8",
							"name": "",
							"type": "uint8"
						}
					],
					"stateMutability": "view",
					"type": "function"
				},
				{
					"inputs": [],
					"name": "name",
					"outputs": [
						{
							"internalType": "string",
							"name": "",
							"type": "string"
						}
					],
					"stateMutability": "view",
					"type": "function"
				},
				{
					"inputs": [
						{
							"internalType": "address",
							"name": "tokenA",
							"type": "address"
						},
						{
							"internalType": "address",
							"name": "tokenB",
							"type": "address"
						},
						{
							"internalType": "uint256",
							"name": "liquidityAmount",
							"type": "uint256"
						},
						{
							"internalType": "uint256",
							"name": "amountAMin",
							"type": "uint256"
						},
						{
							"internalType": "uint256",
							"name": "amountBMin",
							"type": "uint256"
						},
						{
							"internalType": "address",
							"name": "to",
							"type": "address"
						},
						{
							"internalType": "uint256",
							"name": "deadline",
							"type": "uint256"
						}
					],
					"name": "removeLiquidity",
					"outputs": [
						{
							"internalType": "uint256",
							"name": "amountA",
							"type": "uint256"
						},
						{
							"internalType": "uint256",
							"name": "amountB",
							"type": "uint256"
						}
					],
					"stateMutability": "nonpayable",
					"type": "function"
				},
				{
					"inputs": [
						{
							"internalType": "address",
							"name": "",
							"type": "address"
						},
						{
							"internalType": "address",
							"name": "",
							"type": "address"
						}
					],
					"name": "reserveA",
					"outputs": [
						{
							"internalType": "uint256",
							"name": "",
							"type": "uint256"
						}
					],
					"stateMutability": "view",
					"type": "function"
				},
				{
					"inputs": [
						{
							"internalType": "address",
							"name": "",
							"type": "address"
						},
						{
							"internalType": "address",
							"name": "",
							"type": "address"
						}
					],
					"name": "reserveB",
					"outputs": [
						{
							"internalType": "uint256",
							"name": "",
							"type": "uint256"
						}
					],
					"stateMutability": "view",
					"type": "function"
				},
				{
					"inputs": [
						{
							"internalType": "uint256",
							"name": "amountIn",
							"type": "uint256"
						},
						{
							"internalType": "uint256",
							"name": "amountOutMin",
							"type": "uint256"
						},
						{
							"internalType": "address[]",
							"name": "path",
							"type": "address[]"
						},
						{
							"internalType": "address",
							"name": "to",
							"type": "address"
						},
						{
							"internalType": "uint256",
							"name": "deadline",
							"type": "uint256"
						}
					],
					"name": "swapExactTokensForTokens",
					"outputs": [
						{
							"internalType": "uint256[]",
							"name": "amounts",
							"type": "uint256[]"
						}
					],
					"stateMutability": "nonpayable",
					"type": "function"
				},
				{
					"inputs": [],
					"name": "symbol",
					"outputs": [
						{
							"internalType": "string",
							"name": "",
							"type": "string"
						}
					],
					"stateMutability": "view",
					"type": "function"
				},
				{
					"inputs": [],
					"name": "totalSupply",
					"outputs": [
						{
							"internalType": "uint256",
							"name": "",
							"type": "uint256"
						}
					],
					"stateMutability": "view",
					"type": "function"
				},
				{
					"inputs": [
						{
							"internalType": "address",
							"name": "to",
							"type": "address"
						},
						{
							"internalType": "uint256",
							"name": "amount",
							"type": "uint256"
						}
					],
					"name": "transfer",
					"outputs": [
						{
							"internalType": "bool",
							"name": "",
							"type": "bool"
						}
					],
					"stateMutability": "nonpayable",
					"type": "function"
				},
				{
					"inputs": [
						{
							"internalType": "address",
							"name": "from",
							"type": "address"
						},
						{
							"internalType": "address",
							"name": "to",
							"type": "address"
						},
						{
							"internalType": "uint256",
							"name": "amount",
							"type": "uint256"
						}
					],
					"name": "transferFrom",
					"outputs": [
						{
							"internalType": "bool",
							"name": "",
							"type": "bool"
						}
					],
					"stateMutability": "nonpayable",
					"type": "function"
				}
			],
			"devdoc": {
				"kind": "dev",
				"methods": {},
				"title": "SimpleSwap",
				"version": 1
			},
			"evm": {
				"assembly": "    /* \"contracts/SimpleSwapTP.sol\":2899:8015  contract SimpleSwap is ERC20 {... */\n  mstore(0x40, 0xa0)\n    /* \"contracts/SimpleSwapTP.sol\":815:817  18 */\n  0x12\n    /* \"contracts/SimpleSwapTP.sol\":781:817  uint8 public immutable decimals = 18 */\n  0xff\n  and\n  0x80\n  swap1\n  0xff\n  and\n  dup2\n  mstore\n  pop\n    /* \"contracts/SimpleSwapTP.sol\":3134:3182  constructor() ERC20(\"Simple LP Token\", \"SLP\") {} */\n  callvalue\n  dup1\n  iszero\n  tag_1\n  jumpi\n  revert(0x00, 0x00)\ntag_1:\n  pop\n    /* \"contracts/SimpleSwapTP.sol\":1010:1124  constructor(string memory name_, string memory symbol_) {... */\n  mload(0x40)\n  dup1\n  0x40\n  add\n  0x40\n  mstore\n  dup1\n  0x0f\n  dup2\n  mstore\n  0x20\n  add\n  0x53696d706c65204c5020546f6b656e0000000000000000000000000000000000\n  dup2\n  mstore\n  pop\n  mload(0x40)\n  dup1\n  0x40\n  add\n  0x40\n  mstore\n  dup1\n  0x03\n  dup2\n  mstore\n  0x20\n  add\n  0x534c500000000000000000000000000000000000000000000000000000000000\n  dup2\n  mstore\n  pop\n    /* \"contracts/SimpleSwapTP.sol\":1084:1089  name_ */\n  dup2\n    /* \"contracts/SimpleSwapTP.sol\":1077:1081  name */\n  0x00\n    /* \"contracts/SimpleSwapTP.sol\":1077:1089  name = name_ */\n  swap1\n  dup2\n  tag_5\n  swap2\n  swap1\n  tag_6\n  jump\t// in\ntag_5:\n  pop\n    /* \"contracts/SimpleSwapTP.sol\":1109:1116  symbol_ */\n  dup1\n    /* \"contracts/SimpleSwapTP.sol\":1100:1106  symbol */\n  0x01\n    /* \"contracts/SimpleSwapTP.sol\":1100:1116  symbol = symbol_ */\n  swap1\n  dup2\n  tag_7\n  swap2\n  swap1\n  tag_6\n  jump\t// in\ntag_7:\n  pop\n    /* \"contracts/SimpleSwapTP.sol\":1010:1124  constructor(string memory name_, string memory symbol_) {... */\n  pop\n  pop\n    /* \"contracts/SimpleSwapTP.sol\":2899:8015  contract SimpleSwap is ERC20 {... */\n  jump(tag_9)\n    /* \"#utility.yul\":7:106   */\ntag_10:\n    /* \"#utility.yul\":59:65   */\n  0x00\n    /* \"#utility.yul\":93:98   */\n  dup2\n    /* \"#utility.yul\":87:99   */\n  mload\n    /* \"#utility.yul\":77:99   */\n  swap1\n  pop\n    /* \"#utility.yul\":7:106   */\n  swap2\n  swap1\n  pop\n  jump\t// out\n    /* \"#utility.yul\":112:292   */\ntag_11:\n    /* \"#utility.yul\":160:237   */\n  0x4e487b7100000000000000000000000000000000000000000000000000000000\n    /* \"#utility.yul\":157:158   */\n  0x00\n    /* \"#utility.yul\":150:238   */\n  mstore\n    /* \"#utility.yul\":257:261   */\n  0x41\n    /* \"#utility.yul\":254:255   */\n  0x04\n    /* \"#utility.yul\":247:262   */\n  mstore\n    /* \"#utility.yul\":281:285   */\n  0x24\n    /* \"#utility.yul\":278:279   */\n  0x00\n    /* \"#utility.yul\":271:286   */\n  revert\n    /* \"#utility.yul\":298:478   */\ntag_12:\n    /* \"#utility.yul\":346:423   */\n  0x4e487b7100000000000000000000000000000000000000000000000000000000\n    /* \"#utility.yul\":343:344   */\n  0x00\n    /* \"#utility.yul\":336:424   */\n  mstore\n    /* \"#utility.yul\":443:447   */\n  0x22\n    /* \"#utility.yul\":440:441   */\n  0x04\n    /* \"#utility.yul\":433:448   */\n  mstore\n    /* \"#utility.yul\":467:471   */\n  0x24\n    /* \"#utility.yul\":464:465   */\n  0x00\n    /* \"#utility.yul\":457:472   */\n  revert\n    /* \"#utility.yul\":484:804   */\ntag_13:\n    /* \"#utility.yul\":528:534   */\n  0x00\n    /* \"#utility.yul\":565:566   */\n  0x02\n    /* \"#utility.yul\":559:563   */\n  dup3\n    /* \"#utility.yul\":555:567   */\n  div\n    /* \"#utility.yul\":545:567   */\n  swap1\n  pop\n    /* \"#utility.yul\":612:613   */\n  0x01\n    /* \"#utility.yul\":606:610   */\n  dup3\n    /* \"#utility.yul\":602:614   */\n  and\n    /* \"#utility.yul\":633:651   */\n  dup1\n    /* \"#utility.yul\":623:704   */\n  tag_35\n  jumpi\n    /* \"#utility.yul\":689:693   */\n  0x7f\n    /* \"#utility.yul\":681:687   */\n  dup3\n    /* \"#utility.yul\":677:694   */\n  and\n    /* \"#utility.yul\":667:694   */\n  swap2\n  pop\n    /* \"#utility.yul\":623:704   */\ntag_35:\n    /* \"#utility.yul\":751:753   */\n  0x20\n    /* \"#utility.yul\":743:749   */\n  dup3\n    /* \"#utility.yul\":740:754   */\n  lt\n    /* \"#utility.yul\":720:738   */\n  dup2\n    /* \"#utility.yul\":717:755   */\n  sub\n    /* \"#utility.yul\":714:798   */\n  tag_36\n  jumpi\n    /* \"#utility.yul\":770:788   */\n  tag_37\n  tag_12\n  jump\t// in\ntag_37:\n    /* \"#utility.yul\":714:798   */\ntag_36:\n    /* \"#utility.yul\":535:804   */\n  pop\n    /* \"#utility.yul\":484:804   */\n  swap2\n  swap1\n  pop\n  jump\t// out\n    /* \"#utility.yul\":810:951   */\ntag_14:\n    /* \"#utility.yul\":859:863   */\n  0x00\n    /* \"#utility.yul\":882:885   */\n  dup2\n    /* \"#utility.yul\":874:885   */\n  swap1\n  pop\n    /* \"#utility.yul\":905:908   */\n  dup2\n    /* \"#utility.yul\":902:903   */\n  0x00\n    /* \"#utility.yul\":895:909   */\n  mstore\n    /* \"#utility.yul\":939:943   */\n  0x20\n    /* \"#utility.yul\":936:937   */\n  0x00\n    /* \"#utility.yul\":926:944   */\n  keccak256\n    /* \"#utility.yul\":918:944   */\n  swap1\n  pop\n    /* \"#utility.yul\":810:951   */\n  swap2\n  swap1\n  pop\n  jump\t// out\n    /* \"#utility.yul\":957:1050   */\ntag_15:\n    /* \"#utility.yul\":994:1000   */\n  0x00\n    /* \"#utility.yul\":1041:1043   */\n  0x20\n    /* \"#utility.yul\":1036:1038   */\n  0x1f\n    /* \"#utility.yul\":1029:1034   */\n  dup4\n    /* \"#utility.yul\":1025:1039   */\n  add\n    /* \"#utility.yul\":1021:1044   */\n  div\n    /* \"#utility.yul\":1011:1044   */\n  swap1\n  pop\n    /* \"#utility.yul\":957:1050   */\n  swap2\n  swap1\n  pop\n  jump\t// out\n    /* \"#utility.yul\":1056:1163   */\ntag_16:\n    /* \"#utility.yul\":1100:1108   */\n  0x00\n    /* \"#utility.yul\":1150:1155   */\n  dup3\n    /* \"#utility.yul\":1144:1148   */\n  dup3\n    /* \"#utility.yul\":1140:1156   */\n  shl\n    /* \"#utility.yul\":1119:1156   */\n  swap1\n  pop\n    /* \"#utility.yul\":1056:1163   */\n  swap3\n  swap2\n  pop\n  pop\n  jump\t// out\n    /* \"#utility.yul\":1169:1562   */\ntag_17:\n    /* \"#utility.yul\":1238:1244   */\n  0x00\n    /* \"#utility.yul\":1288:1289   */\n  0x08\n    /* \"#utility.yul\":1276:1286   */\n  dup4\n    /* \"#utility.yul\":1272:1290   */\n  mul\n    /* \"#utility.yul\":1311:1408   */\n  tag_42\n    /* \"#utility.yul\":1341:1407   */\n  0xffffffffffffffffffffffffffffffffffffffffffffffffffffffffffffffff\n    /* \"#utility.yul\":1330:1339   */\n  dup3\n    /* \"#utility.yul\":1311:1408   */\n  tag_16\n  jump\t// in\ntag_42:\n    /* \"#utility.yul\":1429:1468   */\n  tag_43\n    /* \"#utility.yul\":1459:1467   */\n  dup7\n    /* \"#utility.yul\":1448:1457   */\n  dup4\n    /* \"#utility.yul\":1429:1468   */\n  tag_16\n  jump\t// in\ntag_43:\n    /* \"#utility.yul\":1417:1468   */\n  swap6\n  pop\n    /* \"#utility.yul\":1501:1505   */\n  dup1\n    /* \"#utility.yul\":1497:1506   */\n  not\n    /* \"#utility.yul\":1490:1495   */\n  dup5\n    /* \"#utility.yul\":1486:1507   */\n  and\n    /* \"#utility.yul\":1477:1507   */\n  swap4\n  pop\n    /* \"#utility.yul\":1550:1554   */\n  dup1\n    /* \"#utility.yul\":1540:1548   */\n  dup7\n    /* \"#utility.yul\":1536:1555   */\n  and\n    /* \"#utility.yul\":1529:1534   */\n  dup5\n    /* \"#utility.yul\":1526:1556   */\n  or\n    /* \"#utility.yul\":1516:1556   */\n  swap3\n  pop\n    /* \"#utility.yul\":1245:1562   */\n  pop\n  pop\n    /* \"#utility.yul\":1169:1562   */\n  swap4\n  swap3\n  pop\n  pop\n  pop\n  jump\t// out\n    /* \"#utility.yul\":1568:1645   */\ntag_18:\n    /* \"#utility.yul\":1605:1612   */\n  0x00\n    /* \"#utility.yul\":1634:1639   */\n  dup2\n    /* \"#utility.yul\":1623:1639   */\n  swap1\n  pop\n    /* \"#utility.yul\":1568:1645   */\n  swap2\n  swap1\n  pop\n  jump\t// out\n    /* \"#utility.yul\":1651:1711   */\ntag_19:\n    /* \"#utility.yul\":1679:1682   */\n  0x00\n    /* \"#utility.yul\":1700:1705   */\n  dup2\n    /* \"#utility.yul\":1693:1705   */\n  swap1\n  pop\n    /* \"#utility.yul\":1651:1711   */\n  swap2\n  swap1\n  pop\n  jump\t// out\n    /* \"#utility.yul\":1717:1859   */\ntag_20:\n    /* \"#utility.yul\":1767:1776   */\n  0x00\n    /* \"#utility.yul\":1800:1853   */\n  tag_47\n    /* \"#utility.yul\":1818:1852   */\n  tag_48\n    /* \"#utility.yul\":1827:1851   */\n  tag_49\n    /* \"#utility.yul\":1845:1850   */\n  dup5\n    /* \"#utility.yul\":1827:1851   */\n  tag_18\n  jump\t// in\ntag_49:\n    /* \"#utility.yul\":1818:1852   */\n  tag_19\n  jump\t// in\ntag_48:\n    /* \"#utility.yul\":1800:1853   */\n  tag_18\n  jump\t// in\ntag_47:\n    /* \"#utility.yul\":1787:1853   */\n  swap1\n  pop\n    /* \"#utility.yul\":1717:1859   */\n  swap2\n  swap1\n  pop\n  jump\t// out\n    /* \"#utility.yul\":1865:1940   */\ntag_21:\n    /* \"#utility.yul\":1908:1911   */\n  0x00\n    /* \"#utility.yul\":1929:1934   */\n  dup2\n    /* \"#utility.yul\":1922:1934   */\n  swap1\n  pop\n    /* \"#utility.yul\":1865:1940   */\n  swap2\n  swap1\n  pop\n  jump\t// out\n    /* \"#utility.yul\":1946:2215   */\ntag_22:\n    /* \"#utility.yul\":2056:2095   */\n  tag_52\n    /* \"#utility.yul\":2087:2094   */\n  dup4\n    /* \"#utility.yul\":2056:2095   */\n  tag_20\n  jump\t// in\ntag_52:\n    /* \"#utility.yul\":2117:2208   */\n  tag_53\n    /* \"#utility.yul\":2166:2207   */\n  tag_54\n    /* \"#utility.yul\":2190:2206   */\n  dup3\n    /* \"#utility.yul\":2166:2207   */\n  tag_21\n  jump\t// in\ntag_54:\n    /* \"#utility.yul\":2158:2164   */\n  dup5\n    /* \"#utility.yul\":2151:2155   */\n  dup5\n    /* \"#utility.yul\":2145:2156   */\n  sload\n    /* \"#utility.yul\":2117:2208   */\n  tag_17\n  jump\t// in\ntag_53:\n    /* \"#utility.yul\":2111:2115   */\n  dup3\n    /* \"#utility.yul\":2104:2209   */\n  sstore\n    /* \"#utility.yul\":2022:2215   */\n  pop\n    /* \"#utility.yul\":1946:2215   */\n  pop\n  pop\n  pop\n  jump\t// out\n    /* \"#utility.yul\":2221:2294   */\ntag_23:\n    /* \"#utility.yul\":2266:2269   */\n  0x00\n    /* \"#utility.yul\":2287:2288   */\n  0x00\n    /* \"#utility.yul\":2280:2288   */\n  swap1\n  pop\n    /* \"#utility.yul\":2221:2294   */\n  swap1\n  jump\t// out\n    /* \"#utility.yul\":2300:2489   */\ntag_24:\n    /* \"#utility.yul\":2377:2409   */\n  tag_57\n  tag_23\n  jump\t// in\ntag_57:\n    /* \"#utility.yul\":2418:2483   */\n  tag_58\n    /* \"#utility.yul\":2476:2482   */\n  dup2\n    /* \"#utility.yul\":2468:2474   */\n  dup5\n    /* \"#utility.yul\":2462:2466   */\n  dup5\n    /* \"#utility.yul\":2418:2483   */\n  tag_22\n  jump\t// in\ntag_58:\n    /* \"#utility.yul\":2353:2489   */\n  pop\n    /* \"#utility.yul\":2300:2489   */\n  pop\n  pop\n  jump\t// out\n    /* \"#utility.yul\":2495:2681   */\ntag_25:\n    /* \"#utility.yul\":2555:2675   */\ntag_60:\n    /* \"#utility.yul\":2572:2575   */\n  dup2\n    /* \"#utility.yul\":2565:2570   */\n  dup2\n    /* \"#utility.yul\":2562:2576   */\n  lt\n    /* \"#utility.yul\":2555:2675   */\n  iszero\n  tag_62\n  jumpi\n    /* \"#utility.yul\":2626:2665   */\n  tag_63\n    /* \"#utility.yul\":2663:2664   */\n  0x00\n    /* \"#utility.yul\":2656:2661   */\n  dup3\n    /* \"#utility.yul\":2626:2665   */\n  tag_24\n  jump\t// in\ntag_63:\n    /* \"#utility.yul\":2599:2600   */\n  0x01\n    /* \"#utility.yul\":2592:2597   */\n  dup2\n    /* \"#utility.yul\":2588:2601   */\n  add\n    /* \"#utility.yul\":2579:2601   */\n  swap1\n  pop\n    /* \"#utility.yul\":2555:2675   */\n  jump(tag_60)\ntag_62:\n    /* \"#utility.yul\":2495:2681   */\n  pop\n  pop\n  jump\t// out\n    /* \"#utility.yul\":2687:3230   */\ntag_26:\n    /* \"#utility.yul\":2788:2790   */\n  0x1f\n    /* \"#utility.yul\":2783:2786   */\n  dup3\n    /* \"#utility.yul\":2780:2791   */\n  gt\n    /* \"#utility.yul\":2777:3223   */\n  iszero\n  tag_65\n  jumpi\n    /* \"#utility.yul\":2822:2860   */\n  tag_66\n    /* \"#utility.yul\":2854:2859   */\n  dup2\n    /* \"#utility.yul\":2822:2860   */\n  tag_14\n  jump\t// in\ntag_66:\n    /* \"#utility.yul\":2906:2935   */\n  tag_67\n    /* \"#utility.yul\":2924:2934   */\n  dup5\n    /* \"#utility.yul\":2906:2935   */\n  tag_15\n  jump\t// in\ntag_67:\n    /* \"#utility.yul\":2896:2904   */\n  dup2\n    /* \"#utility.yul\":2892:2936   */\n  add\n    /* \"#utility.yul\":3089:3091   */\n  0x20\n    /* \"#utility.yul\":3077:3087   */\n  dup6\n    /* \"#utility.yul\":3074:3092   */\n  lt\n    /* \"#utility.yul\":3071:3120   */\n  iszero\n  tag_68\n  jumpi\n    /* \"#utility.yul\":3110:3118   */\n  dup2\n    /* \"#utility.yul\":3095:3118   */\n  swap1\n  pop\n    /* \"#utility.yul\":3071:3120   */\ntag_68:\n    /* \"#utility.yul\":3133:3213   */\n  tag_69\n    /* \"#utility.yul\":3189:3211   */\n  tag_70\n    /* \"#utility.yul\":3207:3210   */\n  dup6\n    /* \"#utility.yul\":3189:3211   */\n  tag_15\n  jump\t// in\ntag_70:\n    /* \"#utility.yul\":3179:3187   */\n  dup4\n    /* \"#utility.yul\":3175:3212   */\n  add\n    /* \"#utility.yul\":3162:3173   */\n  dup3\n    /* \"#utility.yul\":3133:3213   */\n  tag_25\n  jump\t// in\ntag_69:\n    /* \"#utility.yul\":2792:3223   */\n  pop\n  pop\n    /* \"#utility.yul\":2777:3223   */\ntag_65:\n    /* \"#utility.yul\":2687:3230   */\n  pop\n  pop\n  pop\n  jump\t// out\n    /* \"#utility.yul\":3236:3353   */\ntag_27:\n    /* \"#utility.yul\":3290:3298   */\n  0x00\n    /* \"#utility.yul\":3340:3345   */\n  dup3\n    /* \"#utility.yul\":3334:3338   */\n  dup3\n    /* \"#utility.yul\":3330:3346   */\n  shr\n    /* \"#utility.yul\":3309:3346   */\n  swap1\n  pop\n    /* \"#utility.yul\":3236:3353   */\n  swap3\n  swap2\n  pop\n  pop\n  jump\t// out\n    /* \"#utility.yul\":3359:3528   */\ntag_28:\n    /* \"#utility.yul\":3403:3409   */\n  0x00\n    /* \"#utility.yul\":3436:3487   */\n  tag_73\n    /* \"#utility.yul\":3484:3485   */\n  0x00\n    /* \"#utility.yul\":3480:3486   */\n  not\n    /* \"#utility.yul\":3472:3477   */\n  dup5\n    /* \"#utility.yul\":3469:3470   */\n  0x08\n    /* \"#utility.yul\":3465:3478   */\n  mul\n    /* \"#utility.yul\":3436:3487   */\n  tag_27\n  jump\t// in\ntag_73:\n    /* \"#utility.yul\":3432:3488   */\n  not\n    /* \"#utility.yul\":3517:3521   */\n  dup1\n    /* \"#utility.yul\":3511:3515   */\n  dup4\n    /* \"#utility.yul\":3507:3522   */\n  and\n    /* \"#utility.yul\":3497:3522   */\n  swap2\n  pop\n    /* \"#utility.yul\":3410:3528   */\n  pop\n    /* \"#utility.yul\":3359:3528   */\n  swap3\n  swap2\n  pop\n  pop\n  jump\t// out\n    /* \"#utility.yul\":3533:3828   */\ntag_29:\n    /* \"#utility.yul\":3609:3613   */\n  0x00\n    /* \"#utility.yul\":3755:3784   */\n  tag_75\n    /* \"#utility.yul\":3780:3783   */\n  dup4\n    /* \"#utility.yul\":3774:3778   */\n  dup4\n    /* \"#utility.yul\":3755:3784   */\n  tag_28\n  jump\t// in\ntag_75:\n    /* \"#utility.yul\":3747:3784   */\n  swap2\n  pop\n    /* \"#utility.yul\":3817:3820   */\n  dup3\n    /* \"#utility.yul\":3814:3815   */\n  0x02\n    /* \"#utility.yul\":3810:3821   */\n  mul\n    /* \"#utility.yul\":3804:3808   */\n  dup3\n    /* \"#utility.yul\":3801:3822   */\n  or\n    /* \"#utility.yul\":3793:3822   */\n  swap1\n  pop\n    /* \"#utility.yul\":3533:3828   */\n  swap3\n  swap2\n  pop\n  pop\n  jump\t// out\n    /* \"#utility.yul\":3833:5228   */\ntag_6:\n    /* \"#utility.yul\":3950:3987   */\n  tag_77\n    /* \"#utility.yul\":3983:3986   */\n  dup3\n    /* \"#utility.yul\":3950:3987   */\n  tag_10\n  jump\t// in\ntag_77:\n    /* \"#utility.yul\":4052:4070   */\n  0xffffffffffffffff\n    /* \"#utility.yul\":4044:4050   */\n  dup2\n    /* \"#utility.yul\":4041:4071   */\n  gt\n    /* \"#utility.yul\":4038:4094   */\n  iszero\n  tag_78\n  jumpi\n    /* \"#utility.yul\":4074:4092   */\n  tag_79\n  tag_11\n  jump\t// in\ntag_79:\n    /* \"#utility.yul\":4038:4094   */\ntag_78:\n    /* \"#utility.yul\":4118:4156   */\n  tag_80\n    /* \"#utility.yul\":4150:4154   */\n  dup3\n    /* \"#utility.yul\":4144:4155   */\n  sload\n    /* \"#utility.yul\":4118:4156   */\n  tag_13\n  jump\t// in\ntag_80:\n    /* \"#utility.yul\":4203:4270   */\n  tag_81\n    /* \"#utility.yul\":4263:4269   */\n  dup3\n    /* \"#utility.yul\":4255:4261   */\n  dup3\n    /* \"#utility.yul\":4249:4253   */\n  dup6\n    /* \"#utility.yul\":4203:4270   */\n  tag_26\n  jump\t// in\ntag_81:\n    /* \"#utility.yul\":4297:4298   */\n  0x00\n    /* \"#utility.yul\":4321:4325   */\n  0x20\n    /* \"#utility.yul\":4308:4325   */\n  swap1\n  pop\n    /* \"#utility.yul\":4353:4355   */\n  0x1f\n    /* \"#utility.yul\":4345:4351   */\n  dup4\n    /* \"#utility.yul\":4342:4356   */\n  gt\n    /* \"#utility.yul\":4370:4371   */\n  0x01\n    /* \"#utility.yul\":4365:4983   */\n  dup2\n  eq\n  tag_83\n  jumpi\n    /* \"#utility.yul\":5027:5028   */\n  0x00\n    /* \"#utility.yul\":5044:5050   */\n  dup5\n    /* \"#utility.yul\":5041:5118   */\n  iszero\n  tag_84\n  jumpi\n    /* \"#utility.yul\":5093:5102   */\n  dup3\n    /* \"#utility.yul\":5088:5091   */\n  dup8\n    /* \"#utility.yul\":5084:5103   */\n  add\n    /* \"#utility.yul\":5078:5104   */\n  mload\n    /* \"#utility.yul\":5069:5104   */\n  swap1\n  pop\n    /* \"#utility.yul\":5041:5118   */\ntag_84:\n    /* \"#utility.yul\":5144:5211   */\n  tag_85\n    /* \"#utility.yul\":5204:5210   */\n  dup6\n    /* \"#utility.yul\":5197:5202   */\n  dup3\n    /* \"#utility.yul\":5144:5211   */\n  tag_29\n  jump\t// in\ntag_85:\n    /* \"#utility.yul\":5138:5142   */\n  dup7\n    /* \"#utility.yul\":5131:5212   */\n  sstore\n    /* \"#utility.yul\":5000:5222   */\n  pop\n    /* \"#utility.yul\":4335:5222   */\n  jump(tag_82)\n    /* \"#utility.yul\":4365:4983   */\ntag_83:\n    /* \"#utility.yul\":4417:4421   */\n  0x1f\n    /* \"#utility.yul\":4413:4422   */\n  not\n    /* \"#utility.yul\":4405:4411   */\n  dup5\n    /* \"#utility.yul\":4401:4423   */\n  and\n    /* \"#utility.yul\":4451:4488   */\n  tag_86\n    /* \"#utility.yul\":4483:4487   */\n  dup7\n    /* \"#utility.yul\":4451:4488   */\n  tag_14\n  jump\t// in\ntag_86:\n    /* \"#utility.yul\":4510:4511   */\n  0x00\n    /* \"#utility.yul\":4524:4732   */\ntag_87:\n    /* \"#utility.yul\":4538:4545   */\n  dup3\n    /* \"#utility.yul\":4535:4536   */\n  dup2\n    /* \"#utility.yul\":4532:4546   */\n  lt\n    /* \"#utility.yul\":4524:4732   */\n  iszero\n  tag_89\n  jumpi\n    /* \"#utility.yul\":4617:4626   */\n  dup5\n    /* \"#utility.yul\":4612:4615   */\n  dup10\n    /* \"#utility.yul\":4608:4627   */\n  add\n    /* \"#utility.yul\":4602:4628   */\n  mload\n    /* \"#utility.yul\":4594:4600   */\n  dup3\n    /* \"#utility.yul\":4587:4629   */\n  sstore\n    /* \"#utility.yul\":4668:4669   */\n  0x01\n    /* \"#utility.yul\":4660:4666   */\n  dup3\n    /* \"#utility.yul\":4656:4670   */\n  add\n    /* \"#utility.yul\":4646:4670   */\n  swap2\n  pop\n    /* \"#utility.yul\":4715:4717   */\n  0x20\n    /* \"#utility.yul\":4704:4713   */\n  dup6\n    /* \"#utility.yul\":4700:4718   */\n  add\n    /* \"#utility.yul\":4687:4718   */\n  swap5\n  pop\n    /* \"#utility.yul\":4561:4565   */\n  0x20\n    /* \"#utility.yul\":4558:4559   */\n  dup2\n    /* \"#utility.yul\":4554:4566   */\n  add\n    /* \"#utility.yul\":4549:4566   */\n  swap1\n  pop\n    /* \"#utility.yul\":4524:4732   */\n  jump(tag_87)\ntag_89:\n    /* \"#utility.yul\":4760:4766   */\n  dup7\n    /* \"#utility.yul\":4751:4758   */\n  dup4\n    /* \"#utility.yul\":4748:4767   */\n  lt\n    /* \"#utility.yul\":4745:4924   */\n  iszero\n  tag_90\n  jumpi\n    /* \"#utility.yul\":4818:4827   */\n  dup5\n    /* \"#utility.yul\":4813:4816   */\n  dup10\n    /* \"#utility.yul\":4809:4828   */\n  add\n    /* \"#utility.yul\":4803:4829   */\n  mload\n    /* \"#utility.yul\":4861:4909   */\n  tag_91\n    /* \"#utility.yul\":4903:4907   */\n  0x1f\n    /* \"#utility.yul\":4895:4901   */\n  dup10\n    /* \"#utility.yul\":4891:4908   */\n  and\n    /* \"#utility.yul\":4880:4889   */\n  dup3\n    /* \"#utility.yul\":4861:4909   */\n  tag_28\n  jump\t// in\ntag_91:\n    /* \"#utility.yul\":4853:4859   */\n  dup4\n    /* \"#utility.yul\":4846:4910   */\n  sstore\n    /* \"#utility.yul\":4768:4924   */\n  pop\n    /* \"#utility.yul\":4745:4924   */\ntag_90:\n    /* \"#utility.yul\":4970:4971   */\n  0x01\n    /* \"#utility.yul\":4966:4967   */\n  0x02\n    /* \"#utility.yul\":4958:4964   */\n  dup9\n    /* \"#utility.yul\":4954:4968   */\n  mul\n    /* \"#utility.yul\":4950:4972   */\n  add\n    /* \"#utility.yul\":4944:4948   */\n  dup9\n    /* \"#utility.yul\":4937:4973   */\n  sstore\n    /* \"#utility.yul\":4372:4983   */\n  pop\n  pop\n  pop\n    /* \"#utility.yul\":4335:5222   */\ntag_82:\n  pop\n    /* \"#utility.yul\":3925:5228   */\n  pop\n  pop\n  pop\n    /* \"#utility.yul\":3833:5228   */\n  pop\n  pop\n  jump\t// out\n    /* \"contracts/SimpleSwapTP.sol\":2899:8015  contract SimpleSwap is ERC20 {... */\ntag_9:\n  mload(0x80)\n  codecopy(0x00, dataOffset(sub_0), dataSize(sub_0))\n  0x00\n  assignImmutable(\"0x4569971f3d79dc8da7f8a6820be6cb8dc4a52bb0df6599b2aae7182111b63cd5\")\n  return(0x00, dataSize(sub_0))\nstop\n\nsub_0: assembly {\n        /* \"contracts/SimpleSwapTP.sol\":2899:8015  contract SimpleSwap is ERC20 {... */\n      mstore(0x40, 0x80)\n      callvalue\n      dup1\n      iszero\n      tag_1\n      jumpi\n      revert(0x00, 0x00)\n    tag_1:\n      pop\n      jumpi(tag_2, lt(calldatasize, 0x04))\n      shr(0xe0, calldataload(0x00))\n      dup1\n      0x95d89b41\n      gt\n      tag_18\n      jumpi\n      dup1\n      0xba9a7a56\n      gt\n      tag_19\n      jumpi\n      dup1\n      0xba9a7a56\n      eq\n      tag_14\n      jumpi\n      dup1\n      0xbaa2abde\n      eq\n      tag_15\n      jumpi\n      dup1\n      0xdd62ed3e\n      eq\n      tag_16\n      jumpi\n      dup1\n      0xe8e33700\n      eq\n      tag_17\n      jumpi\n      jump(tag_2)\n    tag_19:\n      dup1\n      0x95d89b41\n      eq\n      tag_10\n      jumpi\n      dup1\n      0x961e50d3\n      eq\n      tag_11\n      jumpi\n      dup1\n      0x9876077a\n      eq\n      tag_12\n      jumpi\n      dup1\n      0xa9059cbb\n      eq\n      tag_13\n      jumpi\n      jump(tag_2)\n    tag_18:\n      dup1\n      0x23b872dd\n      gt\n      tag_20\n      jumpi\n      dup1\n      0x23b872dd\n      eq\n      tag_6\n      jumpi\n      dup1\n      0x313ce567\n      eq\n      tag_7\n      jumpi\n      dup1\n      0x38ed1739\n      eq\n      tag_8\n      jumpi\n      dup1\n      0x70a08231\n      eq\n      tag_9\n      jumpi\n      jump(tag_2)\n    tag_20:\n      dup1\n      0x06fdde03\n      eq\n      tag_3\n      jumpi\n      dup1\n      0x095ea7b3\n      eq\n      tag_4\n      jumpi\n      dup1\n      0x18160ddd\n      eq\n      tag_5\n      jumpi\n    tag_2:\n      revert(0x00, 0x00)\n        /* \"contracts/SimpleSwapTP.sol\":729:747  string public name */\n    tag_3:\n      tag_21\n      tag_22\n      jump\t// in\n    tag_21:\n      mload(0x40)\n      tag_23\n      swap2\n      swap1\n      tag_24\n      jump\t// in\n    tag_23:\n      mload(0x40)\n      dup1\n      swap2\n      sub\n      swap1\n      return\n        /* \"contracts/SimpleSwapTP.sol\":1464:1678  function approve(address spender, uint256 amount) public override returns (bool) {... */\n    tag_4:\n      tag_25\n      0x04\n      dup1\n      calldatasize\n      sub\n      dup2\n      add\n      swap1\n      tag_26\n      swap2\n      swap1\n      tag_27\n      jump\t// in\n    tag_26:\n      tag_28\n      jump\t// in\n    tag_25:\n      mload(0x40)\n      tag_29\n      swap2\n      swap1\n      tag_30\n      jump\t// in\n    tag_29:\n      mload(0x40)\n      dup1\n      swap2\n      sub\n      swap1\n      return\n        /* \"contracts/SimpleSwapTP.sol\":824:859  uint256 public override totalSupply */\n    tag_5:\n      tag_31\n      tag_32\n      jump\t// in\n    tag_31:\n      mload(0x40)\n      tag_33\n      swap2\n      swap1\n      tag_34\n      jump\t// in\n    tag_33:\n      mload(0x40)\n      dup1\n      swap2\n      sub\n      swap1\n      return\n        /* \"contracts/SimpleSwapTP.sol\":1686:2152  function transferFrom(address from, address to, uint256 amount) public override returns (bool) {... */\n    tag_6:\n      tag_35\n      0x04\n      dup1\n      calldatasize\n      sub\n      dup2\n      add\n      swap1\n      tag_36\n      swap2\n      swap1\n      tag_37\n      jump\t// in\n    tag_36:\n      tag_38\n      jump\t// in\n    tag_35:\n      mload(0x40)\n      tag_39\n      swap2\n      swap1\n      tag_30\n      jump\t// in\n    tag_39:\n      mload(0x40)\n      dup1\n      swap2\n      sub\n      swap1\n      return\n        /* \"contracts/SimpleSwapTP.sol\":781:817  uint8 public immutable decimals = 18 */\n    tag_7:\n      tag_40\n      tag_41\n      jump\t// in\n    tag_40:\n      mload(0x40)\n      tag_42\n      swap2\n      swap1\n      tag_43\n      jump\t// in\n    tag_42:\n      mload(0x40)\n      dup1\n      swap2\n      sub\n      swap1\n      return\n        /* \"contracts/SimpleSwapTP.sol\":6452:7596  function swapExactTokensForTokens(... */\n    tag_8:\n      tag_44\n      0x04\n      dup1\n      calldatasize\n      sub\n      dup2\n      add\n      swap1\n      tag_45\n      swap2\n      swap1\n      tag_46\n      jump\t// in\n    tag_45:\n      tag_47\n      jump\t// in\n    tag_44:\n      mload(0x40)\n      tag_48\n      swap2\n      swap1\n      tag_49\n      jump\t// in\n    tag_48:\n      mload(0x40)\n      dup1\n      swap2\n      sub\n      swap1\n      return\n        /* \"contracts/SimpleSwapTP.sol\":868:921  mapping(address => uint256) public override balanceOf */\n    tag_9:\n      tag_50\n      0x04\n      dup1\n      calldatasize\n      sub\n      dup2\n      add\n      swap1\n      tag_51\n      swap2\n      swap1\n      tag_52\n      jump\t// in\n    tag_51:\n      tag_53\n      jump\t// in\n    tag_50:\n      mload(0x40)\n      tag_54\n      swap2\n      swap1\n      tag_34\n      jump\t// in\n    tag_54:\n      mload(0x40)\n      dup1\n      swap2\n      sub\n      swap1\n      return\n        /* \"contracts/SimpleSwapTP.sol\":754:774  string public symbol */\n    tag_10:\n      tag_55\n      tag_56\n      jump\t// in\n    tag_55:\n      mload(0x40)\n      tag_57\n      swap2\n      swap1\n      tag_24\n      jump\t// in\n    tag_57:\n      mload(0x40)\n      dup1\n      swap2\n      sub\n      swap1\n      return\n        /* \"contracts/SimpleSwapTP.sol\":2935:2998  mapping(address => mapping(address => uint256)) public reserveA */\n    tag_11:\n      tag_58\n      0x04\n      dup1\n      calldatasize\n      sub\n      dup2\n      add\n      swap1\n      tag_59\n      swap2\n      swap1\n      tag_60\n      jump\t// in\n    tag_59:\n      tag_61\n      jump\t// in\n    tag_58:\n      mload(0x40)\n      tag_62\n      swap2\n      swap1\n      tag_34\n      jump\t// in\n    tag_62:\n      mload(0x40)\n      dup1\n      swap2\n      sub\n      swap1\n      return\n        /* \"contracts/SimpleSwapTP.sol\":3005:3068  mapping(address => mapping(address => uint256)) public reserveB */\n    tag_12:\n      tag_63\n      0x04\n      dup1\n      calldatasize\n      sub\n      dup2\n      add\n      swap1\n      tag_64\n      swap2\n      swap1\n      tag_60\n      jump\t// in\n    tag_64:\n      tag_65\n      jump\t// in\n    tag_63:\n      mload(0x40)\n      tag_66\n      swap2\n      swap1\n      tag_34\n      jump\t// in\n    tag_66:\n      mload(0x40)\n      dup1\n      swap2\n      sub\n      swap1\n      return\n        /* \"contracts/SimpleSwapTP.sol\":1132:1456  function transfer(address to, uint256 amount) public override returns (bool) {... */\n    tag_13:\n      tag_67\n      0x04\n      dup1\n      calldatasize\n      sub\n      dup2\n      add\n      swap1\n      tag_68\n      swap2\n      swap1\n      tag_27\n      jump\t// in\n    tag_68:\n      tag_69\n      jump\t// in\n    tag_67:\n      mload(0x40)\n      tag_70\n      swap2\n      swap1\n      tag_30\n      jump\t// in\n    tag_70:\n      mload(0x40)\n      dup1\n      swap2\n      sub\n      swap1\n      return\n        /* \"contracts/SimpleSwapTP.sol\":3077:3125  uint256 public constant MINIMUM_LIQUIDITY = 1000 */\n    tag_14:\n      tag_71\n      tag_72\n      jump\t// in\n    tag_71:\n      mload(0x40)\n      tag_73\n      swap2\n      swap1\n      tag_34\n      jump\t// in\n    tag_73:\n      mload(0x40)\n      dup1\n      swap2\n      sub\n      swap1\n      return\n        /* \"contracts/SimpleSwapTP.sol\":5286:6375  function removeLiquidity(... */\n    tag_15:\n      tag_74\n      0x04\n      dup1\n      calldatasize\n      sub\n      dup2\n      add\n      swap1\n      tag_75\n      swap2\n      swap1\n      tag_76\n      jump\t// in\n    tag_75:\n      tag_77\n      jump\t// in\n    tag_74:\n      mload(0x40)\n      tag_78\n      swap3\n      swap2\n      swap1\n      tag_79\n      jump\t// in\n    tag_78:\n      mload(0x40)\n      dup1\n      swap2\n      sub\n      swap1\n      return\n        /* \"contracts/SimpleSwapTP.sol\":928:1001  mapping(address => mapping(address => uint256)) public override allowance */\n    tag_16:\n      tag_80\n      0x04\n      dup1\n      calldatasize\n      sub\n      dup2\n      add\n      swap1\n      tag_81\n      swap2\n      swap1\n      tag_60\n      jump\t// in\n    tag_81:\n      tag_82\n      jump\t// in\n    tag_80:\n      mload(0x40)\n      tag_83\n      swap2\n      swap1\n      tag_34\n      jump\t// in\n    tag_83:\n      mload(0x40)\n      dup1\n      swap2\n      sub\n      swap1\n      return\n        /* \"contracts/SimpleSwapTP.sol\":3234:5223  function addLiquidity(... */\n    tag_17:\n      tag_84\n      0x04\n      dup1\n      calldatasize\n      sub\n      dup2\n      add\n      swap1\n      tag_85\n      swap2\n      swap1\n      tag_86\n      jump\t// in\n    tag_85:\n      tag_87\n      jump\t// in\n    tag_84:\n      mload(0x40)\n      tag_88\n      swap4\n      swap3\n      swap2\n      swap1\n      tag_89\n      jump\t// in\n    tag_88:\n      mload(0x40)\n      dup1\n      swap2\n      sub\n      swap1\n      return\n        /* \"contracts/SimpleSwapTP.sol\":729:747  string public name */\n    tag_22:\n      0x00\n      dup1\n      sload\n      tag_90\n      swap1\n      tag_91\n      jump\t// in\n    tag_90:\n      dup1\n      0x1f\n      add\n      0x20\n      dup1\n      swap2\n      div\n      mul\n      0x20\n      add\n      mload(0x40)\n      swap1\n      dup2\n      add\n      0x40\n      mstore\n      dup1\n      swap3\n      swap2\n      swap1\n      dup2\n      dup2\n      mstore\n      0x20\n      add\n      dup3\n      dup1\n      sload\n      tag_92\n      swap1\n      tag_91\n      jump\t// in\n    tag_92:\n      dup1\n      iszero\n      tag_93\n      jumpi\n      dup1\n      0x1f\n      lt\n      tag_94\n      jumpi\n      0x0100\n      dup1\n      dup4\n      sload\n      div\n      mul\n      dup4\n      mstore\n      swap2\n      0x20\n      add\n      swap2\n      jump(tag_93)\n    tag_94:\n      dup3\n      add\n      swap2\n      swap1\n      0x00\n      mstore\n      keccak256(0x00, 0x20)\n      swap1\n    tag_95:\n      dup2\n      sload\n      dup2\n      mstore\n      swap1\n      0x01\n      add\n      swap1\n      0x20\n      add\n      dup1\n      dup4\n      gt\n      tag_95\n      jumpi\n      dup3\n      swap1\n      sub\n      0x1f\n      and\n      dup3\n      add\n      swap2\n    tag_93:\n      pop\n      pop\n      pop\n      pop\n      pop\n      dup2\n      jump\t// out\n        /* \"contracts/SimpleSwapTP.sol\":1464:1678  function approve(address spender, uint256 amount) public override returns (bool) {... */\n    tag_28:\n        /* \"contracts/SimpleSwapTP.sol\":1539:1543  bool */\n      0x00\n        /* \"contracts/SimpleSwapTP.sol\":1589:1595  amount */\n      dup2\n        /* \"contracts/SimpleSwapTP.sol\":1556:1565  allowance */\n      0x04\n        /* \"contracts/SimpleSwapTP.sol\":1556:1577  allowance[msg.sender] */\n      0x00\n        /* \"contracts/SimpleSwapTP.sol\":1566:1576  msg.sender */\n      caller\n        /* \"contracts/SimpleSwapTP.sol\":1556:1577  allowance[msg.sender] */\n      0xffffffffffffffffffffffffffffffffffffffff\n      and\n      0xffffffffffffffffffffffffffffffffffffffff\n      and\n      dup2\n      mstore\n      0x20\n      add\n      swap1\n      dup2\n      mstore\n      0x20\n      add\n      0x00\n      keccak256\n        /* \"contracts/SimpleSwapTP.sol\":1556:1586  allowance[msg.sender][spender] */\n      0x00\n        /* \"contracts/SimpleSwapTP.sol\":1578:1585  spender */\n      dup6\n        /* \"contracts/SimpleSwapTP.sol\":1556:1586  allowance[msg.sender][spender] */\n      0xffffffffffffffffffffffffffffffffffffffff\n      and\n      0xffffffffffffffffffffffffffffffffffffffff\n      and\n      dup2\n      mstore\n      0x20\n      add\n      swap1\n      dup2\n      mstore\n      0x20\n      add\n      0x00\n      keccak256\n        /* \"contracts/SimpleSwapTP.sol\":1556:1595  allowance[msg.sender][spender] = amount */\n      dup2\n      swap1\n      sstore\n      pop\n        /* \"contracts/SimpleSwapTP.sol\":1632:1639  spender */\n      dup3\n        /* \"contracts/SimpleSwapTP.sol\":1611:1648  Approval(msg.sender, spender, amount) */\n      0xffffffffffffffffffffffffffffffffffffffff\n      and\n        /* \"contracts/SimpleSwapTP.sol\":1620:1630  msg.sender */\n      caller\n        /* \"contracts/SimpleSwapTP.sol\":1611:1648  Approval(msg.sender, spender, amount) */\n      0xffffffffffffffffffffffffffffffffffffffff\n      and\n      0x8c5be1e5ebec7d5bd14f71427d1e84f3dd0314c0f7b2291e5b200ac8c7c3b925\n        /* \"contracts/SimpleSwapTP.sol\":1641:1647  amount */\n      dup5\n        /* \"contracts/SimpleSwapTP.sol\":1611:1648  Approval(msg.sender, spender, amount) */\n      mload(0x40)\n      tag_97\n      swap2\n      swap1\n      tag_34\n      jump\t// in\n    tag_97:\n      mload(0x40)\n      dup1\n      swap2\n      sub\n      swap1\n      log3\n        /* \"contracts/SimpleSwapTP.sol\":1666:1670  true */\n      0x01\n        /* \"contracts/SimpleSwapTP.sol\":1659:1670  return true */\n      swap1\n      pop\n        /* \"contracts/SimpleSwapTP.sol\":1464:1678  function approve(address spender, uint256 amount) public override returns (bool) {... */\n      swap3\n      swap2\n      pop\n      pop\n      jump\t// out\n        /* \"contracts/SimpleSwapTP.sol\":824:859  uint256 public override totalSupply */\n    tag_32:\n      sload(0x02)\n      dup2\n      jump\t// out\n        /* \"contracts/SimpleSwapTP.sol\":1686:2152  function transferFrom(address from, address to, uint256 amount) public override returns (bool) {... */\n    tag_38:\n        /* \"contracts/SimpleSwapTP.sol\":1775:1779  bool */\n      0x00\n        /* \"contracts/SimpleSwapTP.sol\":1819:1825  amount */\n      dup2\n        /* \"contracts/SimpleSwapTP.sol\":1800:1809  balanceOf */\n      0x03\n        /* \"contracts/SimpleSwapTP.sol\":1800:1815  balanceOf[from] */\n      0x00\n        /* \"contracts/SimpleSwapTP.sol\":1810:1814  from */\n      dup7\n        /* \"contracts/SimpleSwapTP.sol\":1800:1815  balanceOf[from] */\n      0xffffffffffffffffffffffffffffffffffffffff\n      and\n      0xffffffffffffffffffffffffffffffffffffffff\n      and\n      dup2\n      mstore\n      0x20\n      add\n      swap1\n      dup2\n      mstore\n      0x20\n      add\n      0x00\n      keccak256\n      sload\n        /* \"contracts/SimpleSwapTP.sol\":1800:1825  balanceOf[from] >= amount */\n      lt\n      iszero\n        /* \"contracts/SimpleSwapTP.sol\":1792:1868  require(balanceOf[from] >= amount, \"ERC20: transfer amount exceeds balance\") */\n      tag_99\n      jumpi\n      mload(0x40)\n      0x08c379a000000000000000000000000000000000000000000000000000000000\n      dup2\n      mstore\n      0x04\n      add\n      tag_100\n      swap1\n      tag_101\n      jump\t// in\n    tag_100:\n      mload(0x40)\n      dup1\n      swap2\n      sub\n      swap1\n      revert\n    tag_99:\n        /* \"contracts/SimpleSwapTP.sol\":1918:1924  amount */\n      dup2\n        /* \"contracts/SimpleSwapTP.sol\":1887:1896  allowance */\n      0x04\n        /* \"contracts/SimpleSwapTP.sol\":1887:1902  allowance[from] */\n      0x00\n        /* \"contracts/SimpleSwapTP.sol\":1897:1901  from */\n      dup7\n        /* \"contracts/SimpleSwapTP.sol\":1887:1902  allowance[from] */\n      0xffffffffffffffffffffffffffffffffffffffff\n      and\n      0xffffffffffffffffffffffffffffffffffffffff\n      and\n      dup2\n      mstore\n      0x20\n      add\n      swap1\n      dup2\n      mstore\n      0x20\n      add\n      0x00\n      keccak256\n        /* \"contracts/SimpleSwapTP.sol\":1887:1914  allowance[from][msg.sender] */\n      0x00\n        /* \"contracts/SimpleSwapTP.sol\":1903:1913  msg.sender */\n      caller\n        /* \"contracts/SimpleSwapTP.sol\":1887:1914  allowance[from][msg.sender] */\n      0xffffffffffffffffffffffffffffffffffffffff\n      and\n      0xffffffffffffffffffffffffffffffffffffffff\n      and\n      dup2\n      mstore\n      0x20\n      add\n      swap1\n      dup2\n      mstore\n      0x20\n      add\n      0x00\n      keccak256\n      sload\n        /* \"contracts/SimpleSwapTP.sol\":1887:1924  allowance[from][msg.sender] >= amount */\n      lt\n      iszero\n        /* \"contracts/SimpleSwapTP.sol\":1879:1958  require(allowance[from][msg.sender] >= amount, \"ERC20: insufficient allowance\") */\n      tag_102\n      jumpi\n      mload(0x40)\n      0x08c379a000000000000000000000000000000000000000000000000000000000\n      dup2\n      mstore\n      0x04\n      add\n      tag_103\n      swap1\n      tag_104\n      jump\t// in\n    tag_103:\n      mload(0x40)\n      dup1\n      swap2\n      sub\n      swap1\n      revert\n    tag_102:\n        /* \"contracts/SimpleSwapTP.sol\":2002:2008  amount */\n      dup2\n        /* \"contracts/SimpleSwapTP.sol\":1971:1980  allowance */\n      0x04\n        /* \"contracts/SimpleSwapTP.sol\":1971:1986  allowance[from] */\n      0x00\n        /* \"contracts/SimpleSwapTP.sol\":1981:1985  from */\n      dup7\n        /* \"contracts/SimpleSwapTP.sol\":1971:1986  allowance[from] */\n      0xffffffffffffffffffffffffffffffffffffffff\n      and\n      0xffffffffffffffffffffffffffffffffffffffff\n      and\n      dup2\n      mstore\n      0x20\n      add\n      swap1\n      dup2\n      mstore\n      0x20\n      add\n      0x00\n      keccak256\n        /* \"contracts/SimpleSwapTP.sol\":1971:1998  allowance[from][msg.sender] */\n      0x00\n        /* \"contracts/SimpleSwapTP.sol\":1987:1997  msg.sender */\n      caller\n        /* \"contracts/SimpleSwapTP.sol\":1971:1998  allowance[from][msg.sender] */\n      0xffffffffffffffffffffffffffffffffffffffff\n      and\n      0xffffffffffffffffffffffffffffffffffffffff\n      and\n      dup2\n      mstore\n      0x20\n      add\n      swap1\n      dup2\n      mstore\n      0x20\n      add\n      0x00\n      keccak256\n      0x00\n        /* \"contracts/SimpleSwapTP.sol\":1971:2008  allowance[from][msg.sender] -= amount */\n      dup3\n      dup3\n      sload\n      tag_105\n      swap2\n      swap1\n      tag_106\n      jump\t// in\n    tag_105:\n      swap3\n      pop\n      pop\n      dup2\n      swap1\n      sstore\n      pop\n        /* \"contracts/SimpleSwapTP.sol\":2038:2044  amount */\n      dup2\n        /* \"contracts/SimpleSwapTP.sol\":2019:2028  balanceOf */\n      0x03\n        /* \"contracts/SimpleSwapTP.sol\":2019:2034  balanceOf[from] */\n      0x00\n        /* \"contracts/SimpleSwapTP.sol\":2029:2033  from */\n      dup7\n        /* \"contracts/SimpleSwapTP.sol\":2019:2034  balanceOf[from] */\n      0xffffffffffffffffffffffffffffffffffffffff\n      and\n      0xffffffffffffffffffffffffffffffffffffffff\n      and\n      dup2\n      mstore\n      0x20\n      add\n      swap1\n      dup2\n      mstore\n      0x20\n      add\n      0x00\n      keccak256\n      0x00\n        /* \"contracts/SimpleSwapTP.sol\":2019:2044  balanceOf[from] -= amount */\n      dup3\n      dup3\n      sload\n      tag_107\n      swap2\n      swap1\n      tag_106\n      jump\t// in\n    tag_107:\n      swap3\n      pop\n      pop\n      dup2\n      swap1\n      sstore\n      pop\n        /* \"contracts/SimpleSwapTP.sol\":2072:2078  amount */\n      dup2\n        /* \"contracts/SimpleSwapTP.sol\":2055:2064  balanceOf */\n      0x03\n        /* \"contracts/SimpleSwapTP.sol\":2055:2068  balanceOf[to] */\n      0x00\n        /* \"contracts/SimpleSwapTP.sol\":2065:2067  to */\n      dup6\n        /* \"contracts/SimpleSwapTP.sol\":2055:2068  balanceOf[to] */\n      0xffffffffffffffffffffffffffffffffffffffff\n      and\n      0xffffffffffffffffffffffffffffffffffffffff\n      and\n      dup2\n      mstore\n      0x20\n      add\n      swap1\n      dup2\n      mstore\n      0x20\n      add\n      0x00\n      keccak256\n      0x00\n        /* \"contracts/SimpleSwapTP.sol\":2055:2078  balanceOf[to] += amount */\n      dup3\n      dup3\n      sload\n      tag_108\n      swap2\n      swap1\n      tag_109\n      jump\t// in\n    tag_108:\n      swap3\n      pop\n      pop\n      dup2\n      swap1\n      sstore\n      pop\n        /* \"contracts/SimpleSwapTP.sol\":2111:2113  to */\n      dup3\n        /* \"contracts/SimpleSwapTP.sol\":2096:2122  Transfer(from, to, amount) */\n      0xffffffffffffffffffffffffffffffffffffffff\n      and\n        /* \"contracts/SimpleSwapTP.sol\":2105:2109  from */\n      dup5\n        /* \"contracts/SimpleSwapTP.sol\":2096:2122  Transfer(from, to, amount) */\n      0xffffffffffffffffffffffffffffffffffffffff\n      and\n      0xddf252ad1be2c89b69c2b068fc378daa952ba7f163c4a11628f55a4df523b3ef\n        /* \"contracts/SimpleSwapTP.sol\":2115:2121  amount */\n      dup5\n        /* \"contracts/SimpleSwapTP.sol\":2096:2122  Transfer(from, to, amount) */\n      mload(0x40)\n      tag_110\n      swap2\n      swap1\n      tag_34\n      jump\t// in\n    tag_110:\n      mload(0x40)\n      dup1\n      swap2\n      sub\n      swap1\n      log3\n        /* \"contracts/SimpleSwapTP.sol\":2140:2144  true */\n      0x01\n        /* \"contracts/SimpleSwapTP.sol\":2133:2144  return true */\n      swap1\n      pop\n        /* \"contracts/SimpleSwapTP.sol\":1686:2152  function transferFrom(address from, address to, uint256 amount) public override returns (bool) {... */\n      swap4\n      swap3\n      pop\n      pop\n      pop\n      jump\t// out\n        /* \"contracts/SimpleSwapTP.sol\":781:817  uint8 public immutable decimals = 18 */\n    tag_41:\n      immutable(\"0x4569971f3d79dc8da7f8a6820be6cb8dc4a52bb0df6599b2aae7182111b63cd5\")\n      dup2\n      jump\t// out\n        /* \"contracts/SimpleSwapTP.sol\":6452:7596  function swapExactTokensForTokens(... */\n    tag_47:\n        /* \"contracts/SimpleSwapTP.sol\":6642:6663  uint[] memory amounts */\n      0x60\n        /* \"contracts/SimpleSwapTP.sol\":6699:6700  2 */\n      0x02\n        /* \"contracts/SimpleSwapTP.sol\":6684:6688  path */\n      dup6\n      dup6\n        /* \"contracts/SimpleSwapTP.sol\":6684:6695  path.length */\n      swap1\n      pop\n        /* \"contracts/SimpleSwapTP.sol\":6684:6700  path.length == 2 */\n      eq\n        /* \"contracts/SimpleSwapTP.sol\":6676:6732  require(path.length == 2, \"Only direct swaps supported\") */\n      tag_112\n      jumpi\n      mload(0x40)\n      0x08c379a000000000000000000000000000000000000000000000000000000000\n      dup2\n      mstore\n      0x04\n      add\n      tag_113\n      swap1\n      tag_114\n      jump\t// in\n    tag_113:\n      mload(0x40)\n      dup1\n      swap2\n      sub\n      swap1\n      revert\n    tag_112:\n        /* \"contracts/SimpleSwapTP.sol\":6770:6778  deadline */\n      dup2\n        /* \"contracts/SimpleSwapTP.sol\":6751:6766  block.timestamp */\n      timestamp\n        /* \"contracts/SimpleSwapTP.sol\":6751:6778  block.timestamp <= deadline */\n      gt\n      iszero\n        /* \"contracts/SimpleSwapTP.sol\":6743:6802  require(block.timestamp <= deadline, \"Transaction expired\") */\n      tag_115\n      jumpi\n      mload(0x40)\n      0x08c379a000000000000000000000000000000000000000000000000000000000\n      dup2\n      mstore\n      0x04\n      add\n      tag_116\n      swap1\n      tag_117\n      jump\t// in\n    tag_116:\n      mload(0x40)\n      dup1\n      swap2\n      sub\n      swap1\n      revert\n    tag_115:\n        /* \"contracts/SimpleSwapTP.sol\":6815:6830  address tokenIn */\n      0x00\n        /* \"contracts/SimpleSwapTP.sol\":6833:6837  path */\n      dup6\n      dup6\n        /* \"contracts/SimpleSwapTP.sol\":6838:6839  0 */\n      0x00\n        /* \"contracts/SimpleSwapTP.sol\":6833:6840  path[0] */\n      dup2\n      dup2\n      lt\n      tag_118\n      jumpi\n      tag_119\n      tag_120\n      jump\t// in\n    tag_119:\n    tag_118:\n      swap1\n      pop\n      0x20\n      mul\n      add\n      0x20\n      dup2\n      add\n      swap1\n      tag_121\n      swap2\n      swap1\n      tag_52\n      jump\t// in\n    tag_121:\n        /* \"contracts/SimpleSwapTP.sol\":6815:6840  address tokenIn = path[0] */\n      swap1\n      pop\n        /* \"contracts/SimpleSwapTP.sol\":6851:6867  address tokenOut */\n      0x00\n        /* \"contracts/SimpleSwapTP.sol\":6870:6874  path */\n      dup7\n      dup7\n        /* \"contracts/SimpleSwapTP.sol\":6875:6876  1 */\n      0x01\n        /* \"contracts/SimpleSwapTP.sol\":6870:6877  path[1] */\n      dup2\n      dup2\n      lt\n      tag_122\n      jumpi\n      tag_123\n      tag_120\n      jump\t// in\n    tag_123:\n    tag_122:\n      swap1\n      pop\n      0x20\n      mul\n      add\n      0x20\n      dup2\n      add\n      swap1\n      tag_124\n      swap2\n      swap1\n      tag_52\n      jump\t// in\n    tag_124:\n        /* \"contracts/SimpleSwapTP.sol\":6851:6877  address tokenOut = path[1] */\n      swap1\n      pop\n        /* \"contracts/SimpleSwapTP.sol\":6928:6929  0 */\n      0x00\n        /* \"contracts/SimpleSwapTP.sol\":6898:6906  reserveA */\n      0x05\n        /* \"contracts/SimpleSwapTP.sol\":6898:6915  reserveA[tokenIn] */\n      0x00\n        /* \"contracts/SimpleSwapTP.sol\":6907:6914  tokenIn */\n      dup5\n        /* \"contracts/SimpleSwapTP.sol\":6898:6915  reserveA[tokenIn] */\n      0xffffffffffffffffffffffffffffffffffffffff\n      and\n      0xffffffffffffffffffffffffffffffffffffffff\n      and\n      dup2\n      mstore\n      0x20\n      add\n      swap1\n      dup2\n      mstore\n      0x20\n      add\n      0x00\n      keccak256\n        /* \"contracts/SimpleSwapTP.sol\":6898:6925  reserveA[tokenIn][tokenOut] */\n      0x00\n        /* \"contracts/SimpleSwapTP.sol\":6916:6924  tokenOut */\n      dup4\n        /* \"contracts/SimpleSwapTP.sol\":6898:6925  reserveA[tokenIn][tokenOut] */\n      0xffffffffffffffffffffffffffffffffffffffff\n      and\n      0xffffffffffffffffffffffffffffffffffffffff\n      and\n      dup2\n      mstore\n      0x20\n      add\n      swap1\n      dup2\n      mstore\n      0x20\n      add\n      0x00\n      keccak256\n      sload\n        /* \"contracts/SimpleSwapTP.sol\":6898:6929  reserveA[tokenIn][tokenOut] > 0 */\n      gt\n        /* \"contracts/SimpleSwapTP.sol\":6898:6964  reserveA[tokenIn][tokenOut] > 0 && reserveB[tokenIn][tokenOut] > 0 */\n      dup1\n      iszero\n      tag_125\n      jumpi\n      pop\n        /* \"contracts/SimpleSwapTP.sol\":6963:6964  0 */\n      0x00\n        /* \"contracts/SimpleSwapTP.sol\":6933:6941  reserveB */\n      0x06\n        /* \"contracts/SimpleSwapTP.sol\":6933:6950  reserveB[tokenIn] */\n      0x00\n        /* \"contracts/SimpleSwapTP.sol\":6942:6949  tokenIn */\n      dup5\n        /* \"contracts/SimpleSwapTP.sol\":6933:6950  reserveB[tokenIn] */\n      0xffffffffffffffffffffffffffffffffffffffff\n      and\n      0xffffffffffffffffffffffffffffffffffffffff\n      and\n      dup2\n      mstore\n      0x20\n      add\n      swap1\n      dup2\n      mstore\n      0x20\n      add\n      0x00\n      keccak256\n        /* \"contracts/SimpleSwapTP.sol\":6933:6960  reserveB[tokenIn][tokenOut] */\n      0x00\n        /* \"contracts/SimpleSwapTP.sol\":6951:6959  tokenOut */\n      dup4\n        /* \"contracts/SimpleSwapTP.sol\":6933:6960  reserveB[tokenIn][tokenOut] */\n      0xffffffffffffffffffffffffffffffffffffffff\n      and\n      0xffffffffffffffffffffffffffffffffffffffff\n      and\n      dup2\n      mstore\n      0x20\n      add\n      swap1\n      dup2\n      mstore\n      0x20\n      add\n      0x00\n      keccak256\n      sload\n        /* \"contracts/SimpleSwapTP.sol\":6933:6964  reserveB[tokenIn][tokenOut] > 0 */\n      gt\n        /* \"contracts/SimpleSwapTP.sol\":6898:6964  reserveA[tokenIn][tokenOut] > 0 && reserveB[tokenIn][tokenOut] > 0 */\n    tag_125:\n        /* \"contracts/SimpleSwapTP.sol\":6890:6987  require(reserveA[tokenIn][tokenOut] > 0 && reserveB[tokenIn][tokenOut] > 0, \"Pool doesn't exist\") */\n      tag_126\n      jumpi\n      mload(0x40)\n      0x08c379a000000000000000000000000000000000000000000000000000000000\n      dup2\n      mstore\n      0x04\n      add\n      tag_127\n      swap1\n      tag_128\n      jump\t// in\n    tag_127:\n      mload(0x40)\n      dup1\n      swap2\n      sub\n      swap1\n      revert\n    tag_126:\n        /* \"contracts/SimpleSwapTP.sol\":7007:7014  tokenIn */\n      dup2\n        /* \"contracts/SimpleSwapTP.sol\":7000:7028  IERC20(tokenIn).transferFrom */\n      0xffffffffffffffffffffffffffffffffffffffff\n      and\n      0x23b872dd\n        /* \"contracts/SimpleSwapTP.sol\":7029:7039  msg.sender */\n      caller\n        /* \"contracts/SimpleSwapTP.sol\":7049:7053  this */\n      address\n        /* \"contracts/SimpleSwapTP.sol\":7056:7064  amountIn */\n      dup13\n        /* \"contracts/SimpleSwapTP.sol\":7000:7065  IERC20(tokenIn).transferFrom(msg.sender, address(this), amountIn) */\n      mload(0x40)\n      dup5\n      0xffffffff\n      and\n      0xe0\n      shl\n      dup2\n      mstore\n      0x04\n      add\n      tag_129\n      swap4\n      swap3\n      swap2\n      swap1\n      tag_130\n      jump\t// in\n    tag_129:\n      0x20\n      mload(0x40)\n      dup1\n      dup4\n      sub\n      dup2\n      0x00\n      dup8\n      gas\n      call\n      iszero\n      dup1\n      iszero\n      tag_132\n      jumpi\n      returndatacopy(0x00, 0x00, returndatasize)\n      revert(0x00, returndatasize)\n    tag_132:\n      pop\n      pop\n      pop\n      pop\n      mload(0x40)\n      returndatasize\n      not(0x1f)\n      0x1f\n      dup3\n      add\n      and\n      dup3\n      add\n      dup1\n      0x40\n      mstore\n      pop\n      dup2\n      add\n      swap1\n      tag_133\n      swap2\n      swap1\n      tag_134\n      jump\t// in\n    tag_133:\n      pop\n        /* \"contracts/SimpleSwapTP.sol\":7078:7092  uint reserveIn */\n      0x00\n        /* \"contracts/SimpleSwapTP.sol\":7095:7103  reserveA */\n      0x05\n        /* \"contracts/SimpleSwapTP.sol\":7095:7112  reserveA[tokenIn] */\n      0x00\n        /* \"contracts/SimpleSwapTP.sol\":7104:7111  tokenIn */\n      dup5\n        /* \"contracts/SimpleSwapTP.sol\":7095:7112  reserveA[tokenIn] */\n      0xffffffffffffffffffffffffffffffffffffffff\n      and\n      0xffffffffffffffffffffffffffffffffffffffff\n      and\n      dup2\n      mstore\n      0x20\n      add\n      swap1\n      dup2\n      mstore\n      0x20\n      add\n      0x00\n      keccak256\n        /* \"contracts/SimpleSwapTP.sol\":7095:7122  reserveA[tokenIn][tokenOut] */\n      0x00\n        /* \"contracts/SimpleSwapTP.sol\":7113:7121  tokenOut */\n      dup4\n        /* \"contracts/SimpleSwapTP.sol\":7095:7122  reserveA[tokenIn][tokenOut] */\n      0xffffffffffffffffffffffffffffffffffffffff\n      and\n      0xffffffffffffffffffffffffffffffffffffffff\n      and\n      dup2\n      mstore\n      0x20\n      add\n      swap1\n      dup2\n      mstore\n      0x20\n      add\n      0x00\n      keccak256\n      sload\n        /* \"contracts/SimpleSwapTP.sol\":7078:7122  uint reserveIn = reserveA[tokenIn][tokenOut] */\n      swap1\n      pop\n        /* \"contracts/SimpleSwapTP.sol\":7133:7148  uint reserveOut */\n      0x00\n        /* \"contracts/SimpleSwapTP.sol\":7151:7159  reserveB */\n      0x06\n        /* \"contracts/SimpleSwapTP.sol\":7151:7168  reserveB[tokenIn] */\n      0x00\n        /* \"contracts/SimpleSwapTP.sol\":7160:7167  tokenIn */\n      dup6\n        /* \"contracts/SimpleSwapTP.sol\":7151:7168  reserveB[tokenIn] */\n      0xffffffffffffffffffffffffffffffffffffffff\n      and\n      0xffffffffffffffffffffffffffffffffffffffff\n      and\n      dup2\n      mstore\n      0x20\n      add\n      swap1\n      dup2\n      mstore\n      0x20\n      add\n      0x00\n      keccak256\n        /* \"contracts/SimpleSwapTP.sol\":7151:7178  reserveB[tokenIn][tokenOut] */\n      0x00\n        /* \"contracts/SimpleSwapTP.sol\":7169:7177  tokenOut */\n      dup5\n        /* \"contracts/SimpleSwapTP.sol\":7151:7178  reserveB[tokenIn][tokenOut] */\n      0xffffffffffffffffffffffffffffffffffffffff\n      and\n      0xffffffffffffffffffffffffffffffffffffffff\n      and\n      dup2\n      mstore\n      0x20\n      add\n      swap1\n      dup2\n      mstore\n      0x20\n      add\n      0x00\n      keccak256\n      sload\n        /* \"contracts/SimpleSwapTP.sol\":7133:7178  uint reserveOut = reserveB[tokenIn][tokenOut] */\n      swap1\n      pop\n        /* \"contracts/SimpleSwapTP.sol\":7191:7205  uint amountOut */\n      0x00\n        /* \"contracts/SimpleSwapTP.sol\":7247:7255  amountIn */\n      dup12\n        /* \"contracts/SimpleSwapTP.sol\":7235:7244  reserveIn */\n      dup4\n        /* \"contracts/SimpleSwapTP.sol\":7235:7255  reserveIn + amountIn */\n      tag_135\n      swap2\n      swap1\n      tag_109\n      jump\t// in\n    tag_135:\n        /* \"contracts/SimpleSwapTP.sol\":7220:7230  reserveOut */\n      dup3\n        /* \"contracts/SimpleSwapTP.sol\":7209:7217  amountIn */\n      dup14\n        /* \"contracts/SimpleSwapTP.sol\":7209:7230  amountIn * reserveOut */\n      tag_136\n      swap2\n      swap1\n      tag_137\n      jump\t// in\n    tag_136:\n        /* \"contracts/SimpleSwapTP.sol\":7208:7256  (amountIn * reserveOut) / (reserveIn + amountIn) */\n      tag_138\n      swap2\n      swap1\n      tag_139\n      jump\t// in\n    tag_138:\n        /* \"contracts/SimpleSwapTP.sol\":7191:7256  uint amountOut = (amountIn * reserveOut) / (reserveIn + amountIn) */\n      swap1\n      pop\n        /* \"contracts/SimpleSwapTP.sol\":7288:7300  amountOutMin */\n      dup11\n        /* \"contracts/SimpleSwapTP.sol\":7275:7284  amountOut */\n      dup2\n        /* \"contracts/SimpleSwapTP.sol\":7275:7300  amountOut >= amountOutMin */\n      lt\n      iszero\n        /* \"contracts/SimpleSwapTP.sol\":7267:7331  require(amountOut >= amountOutMin, \"Insufficient output amount\") */\n      tag_140\n      jumpi\n      mload(0x40)\n      0x08c379a000000000000000000000000000000000000000000000000000000000\n      dup2\n      mstore\n      0x04\n      add\n      tag_141\n      swap1\n      tag_142\n      jump\t// in\n    tag_141:\n      mload(0x40)\n      dup1\n      swap2\n      sub\n      swap1\n      revert\n    tag_140:\n        /* \"contracts/SimpleSwapTP.sol\":7351:7359  tokenOut */\n      dup4\n        /* \"contracts/SimpleSwapTP.sol\":7344:7369  IERC20(tokenOut).transfer */\n      0xffffffffffffffffffffffffffffffffffffffff\n      and\n      0xa9059cbb\n        /* \"contracts/SimpleSwapTP.sol\":7370:7372  to */\n      dup10\n        /* \"contracts/SimpleSwapTP.sol\":7374:7383  amountOut */\n      dup4\n        /* \"contracts/SimpleSwapTP.sol\":7344:7384  IERC20(tokenOut).transfer(to, amountOut) */\n      mload(0x40)\n      dup4\n      0xffffffff\n      and\n      0xe0\n      shl\n      dup2\n      mstore\n      0x04\n      add\n      tag_143\n      swap3\n      swap2\n      swap1\n      tag_144\n      jump\t// in\n    tag_143:\n      0x20\n      mload(0x40)\n      dup1\n      dup4\n      sub\n      dup2\n      0x00\n      dup8\n      gas\n      call\n      iszero\n      dup1\n      iszero\n      tag_146\n      jumpi\n      returndatacopy(0x00, 0x00, returndatasize)\n      revert(0x00, returndatasize)\n    tag_146:\n      pop\n      pop\n      pop\n      pop\n      mload(0x40)\n      returndatasize\n      not(0x1f)\n      0x1f\n      dup3\n      add\n      and\n      dup3\n      add\n      dup1\n      0x40\n      mstore\n      pop\n      dup2\n      add\n      swap1\n      tag_147\n      swap2\n      swap1\n      tag_134\n      jump\t// in\n    tag_147:\n      pop\n        /* \"contracts/SimpleSwapTP.sol\":7428:7436  amountIn */\n      dup12\n        /* \"contracts/SimpleSwapTP.sol\":7397:7405  reserveA */\n      0x05\n        /* \"contracts/SimpleSwapTP.sol\":7397:7414  reserveA[tokenIn] */\n      0x00\n        /* \"contracts/SimpleSwapTP.sol\":7406:7413  tokenIn */\n      dup8\n        /* \"contracts/SimpleSwapTP.sol\":7397:7414  reserveA[tokenIn] */\n      0xffffffffffffffffffffffffffffffffffffffff\n      and\n      0xffffffffffffffffffffffffffffffffffffffff\n      and\n      dup2\n      mstore\n      0x20\n      add\n      swap1\n      dup2\n      mstore\n      0x20\n      add\n      0x00\n      keccak256\n        /* \"contracts/SimpleSwapTP.sol\":7397:7424  reserveA[tokenIn][tokenOut] */\n      0x00\n        /* \"contracts/SimpleSwapTP.sol\":7415:7423  tokenOut */\n      dup7\n        /* \"contracts/SimpleSwapTP.sol\":7397:7424  reserveA[tokenIn][tokenOut] */\n      0xffffffffffffffffffffffffffffffffffffffff\n      and\n      0xffffffffffffffffffffffffffffffffffffffff\n      and\n      dup2\n      mstore\n      0x20\n      add\n      swap1\n      dup2\n      mstore\n      0x20\n      add\n      0x00\n      keccak256\n      0x00\n        /* \"contracts/SimpleSwapTP.sol\":7397:7436  reserveA[tokenIn][tokenOut] += amountIn */\n      dup3\n      dup3\n      sload\n      tag_148\n      swap2\n      swap1\n      tag_109\n      jump\t// in\n    tag_148:\n      swap3\n      pop\n      pop\n      dup2\n      swap1\n      sstore\n      pop\n        /* \"contracts/SimpleSwapTP.sol\":7478:7487  amountOut */\n      dup1\n        /* \"contracts/SimpleSwapTP.sol\":7447:7455  reserveB */\n      0x06\n        /* \"contracts/SimpleSwapTP.sol\":7447:7464  reserveB[tokenIn] */\n      0x00\n        /* \"contracts/SimpleSwapTP.sol\":7456:7463  tokenIn */\n      dup8\n        /* \"contracts/SimpleSwapTP.sol\":7447:7464  reserveB[tokenIn] */\n      0xffffffffffffffffffffffffffffffffffffffff\n      and\n      0xffffffffffffffffffffffffffffffffffffffff\n      and\n      dup2\n      mstore\n      0x20\n      add\n      swap1\n      dup2\n      mstore\n      0x20\n      add\n      0x00\n      keccak256\n        /* \"contracts/SimpleSwapTP.sol\":7447:7474  reserveB[tokenIn][tokenOut] */\n      0x00\n        /* \"contracts/SimpleSwapTP.sol\":7465:7473  tokenOut */\n      dup7\n        /* \"contracts/SimpleSwapTP.sol\":7447:7474  reserveB[tokenIn][tokenOut] */\n      0xffffffffffffffffffffffffffffffffffffffff\n      and\n      0xffffffffffffffffffffffffffffffffffffffff\n      and\n      dup2\n      mstore\n      0x20\n      add\n      swap1\n      dup2\n      mstore\n      0x20\n      add\n      0x00\n      keccak256\n      0x00\n        /* \"contracts/SimpleSwapTP.sol\":7447:7487  reserveB[tokenIn][tokenOut] -= amountOut */\n      dup3\n      dup3\n      sload\n      tag_149\n      swap2\n      swap1\n      tag_106\n      jump\t// in\n    tag_149:\n      swap3\n      pop\n      pop\n      dup2\n      swap1\n      sstore\n      pop\n        /* \"contracts/SimpleSwapTP.sol\":7521:7522  2 */\n      0x02\n        /* \"contracts/SimpleSwapTP.sol\":7510:7523  new uint[](2) */\n      0xffffffffffffffff\n      dup2\n      gt\n      iszero\n      tag_150\n      jumpi\n      tag_151\n      tag_152\n      jump\t// in\n    tag_151:\n    tag_150:\n      mload(0x40)\n      swap1\n      dup1\n      dup3\n      mstore\n      dup1\n      0x20\n      mul\n      0x20\n      add\n      dup3\n      add\n      0x40\n      mstore\n      dup1\n      iszero\n      tag_153\n      jumpi\n      dup2\n      0x20\n      add\n      0x20\n      dup3\n      mul\n      dup1\n      calldatasize\n      dup4\n      calldatacopy\n      dup1\n      dup3\n      add\n      swap2\n      pop\n      pop\n      swap1\n      pop\n    tag_153:\n      pop\n        /* \"contracts/SimpleSwapTP.sol\":7500:7523  amounts = new uint[](2) */\n      swap6\n      pop\n        /* \"contracts/SimpleSwapTP.sol\":7547:7555  amountIn */\n      dup12\n        /* \"contracts/SimpleSwapTP.sol\":7534:7541  amounts */\n      dup7\n        /* \"contracts/SimpleSwapTP.sol\":7542:7543  0 */\n      0x00\n        /* \"contracts/SimpleSwapTP.sol\":7534:7544  amounts[0] */\n      dup2\n      mload\n      dup2\n      lt\n      tag_154\n      jumpi\n      tag_155\n      tag_120\n      jump\t// in\n    tag_155:\n    tag_154:\n      0x20\n      mul\n      0x20\n      add\n      add\n        /* \"contracts/SimpleSwapTP.sol\":7534:7555  amounts[0] = amountIn */\n      dup2\n      dup2\n      mstore\n      pop\n      pop\n        /* \"contracts/SimpleSwapTP.sol\":7579:7588  amountOut */\n      dup1\n        /* \"contracts/SimpleSwapTP.sol\":7566:7573  amounts */\n      dup7\n        /* \"contracts/SimpleSwapTP.sol\":7574:7575  1 */\n      0x01\n        /* \"contracts/SimpleSwapTP.sol\":7566:7576  amounts[1] */\n      dup2\n      mload\n      dup2\n      lt\n      tag_156\n      jumpi\n      tag_157\n      tag_120\n      jump\t// in\n    tag_157:\n    tag_156:\n      0x20\n      mul\n      0x20\n      add\n      add\n        /* \"contracts/SimpleSwapTP.sol\":7566:7588  amounts[1] = amountOut */\n      dup2\n      dup2\n      mstore\n      pop\n      pop\n        /* \"contracts/SimpleSwapTP.sol\":6665:7596  {... */\n      pop\n      pop\n      pop\n      pop\n      pop\n        /* \"contracts/SimpleSwapTP.sol\":6452:7596  function swapExactTokensForTokens(... */\n      swap7\n      swap6\n      pop\n      pop\n      pop\n      pop\n      pop\n      pop\n      jump\t// out\n        /* \"contracts/SimpleSwapTP.sol\":868:921  mapping(address => uint256) public override balanceOf */\n    tag_53:\n      mstore(0x20, 0x03)\n      dup1\n      0x00\n      mstore\n      keccak256(0x00, 0x40)\n      0x00\n      swap2\n      pop\n      swap1\n      pop\n      sload\n      dup2\n      jump\t// out\n        /* \"contracts/SimpleSwapTP.sol\":754:774  string public symbol */\n    tag_56:\n      0x01\n      dup1\n      sload\n      tag_158\n      swap1\n      tag_91\n      jump\t// in\n    tag_158:\n      dup1\n      0x1f\n      add\n      0x20\n      dup1\n      swap2\n      div\n      mul\n      0x20\n      add\n      mload(0x40)\n      swap1\n      dup2\n      add\n      0x40\n      mstore\n      dup1\n      swap3\n      swap2\n      swap1\n      dup2\n      dup2\n      mstore\n      0x20\n      add\n      dup3\n      dup1\n      sload\n      tag_159\n      swap1\n      tag_91\n      jump\t// in\n    tag_159:\n      dup1\n      iszero\n      tag_160\n      jumpi\n      dup1\n      0x1f\n      lt\n      tag_161\n      jumpi\n      0x0100\n      dup1\n      dup4\n      sload\n      div\n      mul\n      dup4\n      mstore\n      swap2\n      0x20\n      add\n      swap2\n      jump(tag_160)\n    tag_161:\n      dup3\n      add\n      swap2\n      swap1\n      0x00\n      mstore\n      keccak256(0x00, 0x20)\n      swap1\n    tag_162:\n      dup2\n      sload\n      dup2\n      mstore\n      swap1\n      0x01\n      add\n      swap1\n      0x20\n      add\n      dup1\n      dup4\n      gt\n      tag_162\n      jumpi\n      dup3\n      swap1\n      sub\n      0x1f\n      and\n      dup3\n      add\n      swap2\n    tag_160:\n      pop\n      pop\n      pop\n      pop\n      pop\n      dup2\n      jump\t// out\n        /* \"contracts/SimpleSwapTP.sol\":2935:2998  mapping(address => mapping(address => uint256)) public reserveA */\n    tag_61:\n      mstore(0x20, 0x05)\n      dup2\n      0x00\n      mstore\n      mstore(0x20, keccak256(0x00, 0x40))\n      dup1\n      0x00\n      mstore\n      keccak256(0x00, 0x40)\n      0x00\n      swap2\n      pop\n      swap2\n      pop\n      pop\n      sload\n      dup2\n      jump\t// out\n        /* \"contracts/SimpleSwapTP.sol\":3005:3068  mapping(address => mapping(address => uint256)) public reserveB */\n    tag_65:\n      mstore(0x20, 0x06)\n      dup2\n      0x00\n      mstore\n      mstore(0x20, keccak256(0x00, 0x40))\n      dup1\n      0x00\n      mstore\n      keccak256(0x00, 0x40)\n      0x00\n      swap2\n      pop\n      swap2\n      pop\n      pop\n      sload\n      dup2\n      jump\t// out\n        /* \"contracts/SimpleSwapTP.sol\":1132:1456  function transfer(address to, uint256 amount) public override returns (bool) {... */\n    tag_69:\n        /* \"contracts/SimpleSwapTP.sol\":1203:1207  bool */\n      0x00\n        /* \"contracts/SimpleSwapTP.sol\":1253:1259  amount */\n      dup2\n        /* \"contracts/SimpleSwapTP.sol\":1228:1237  balanceOf */\n      0x03\n        /* \"contracts/SimpleSwapTP.sol\":1228:1249  balanceOf[msg.sender] */\n      0x00\n        /* \"contracts/SimpleSwapTP.sol\":1238:1248  msg.sender */\n      caller\n        /* \"contracts/SimpleSwapTP.sol\":1228:1249  balanceOf[msg.sender] */\n      0xffffffffffffffffffffffffffffffffffffffff\n      and\n      0xffffffffffffffffffffffffffffffffffffffff\n      and\n      dup2\n      mstore\n      0x20\n      add\n      swap1\n      dup2\n      mstore\n      0x20\n      add\n      0x00\n      keccak256\n      sload\n        /* \"contracts/SimpleSwapTP.sol\":1228:1259  balanceOf[msg.sender] >= amount */\n      lt\n      iszero\n        /* \"contracts/SimpleSwapTP.sol\":1220:1302  require(balanceOf[msg.sender] >= amount, \"ERC20: transfer amount exceeds balance\") */\n      tag_164\n      jumpi\n      mload(0x40)\n      0x08c379a000000000000000000000000000000000000000000000000000000000\n      dup2\n      mstore\n      0x04\n      add\n      tag_165\n      swap1\n      tag_101\n      jump\t// in\n    tag_165:\n      mload(0x40)\n      dup1\n      swap2\n      sub\n      swap1\n      revert\n    tag_164:\n        /* \"contracts/SimpleSwapTP.sol\":1338:1344  amount */\n      dup2\n        /* \"contracts/SimpleSwapTP.sol\":1313:1322  balanceOf */\n      0x03\n        /* \"contracts/SimpleSwapTP.sol\":1313:1334  balanceOf[msg.sender] */\n      0x00\n        /* \"contracts/SimpleSwapTP.sol\":1323:1333  msg.sender */\n      caller\n        /* \"contracts/SimpleSwapTP.sol\":1313:1334  balanceOf[msg.sender] */\n      0xffffffffffffffffffffffffffffffffffffffff\n      and\n      0xffffffffffffffffffffffffffffffffffffffff\n      and\n      dup2\n      mstore\n      0x20\n      add\n      swap1\n      dup2\n      mstore\n      0x20\n      add\n      0x00\n      keccak256\n      0x00\n        /* \"contracts/SimpleSwapTP.sol\":1313:1344  balanceOf[msg.sender] -= amount */\n      dup3\n      dup3\n      sload\n      tag_166\n      swap2\n      swap1\n      tag_106\n      jump\t// in\n    tag_166:\n      swap3\n      pop\n      pop\n      dup2\n      swap1\n      sstore\n      pop\n        /* \"contracts/SimpleSwapTP.sol\":1372:1378  amount */\n      dup2\n        /* \"contracts/SimpleSwapTP.sol\":1355:1364  balanceOf */\n      0x03\n        /* \"contracts/SimpleSwapTP.sol\":1355:1368  balanceOf[to] */\n      0x00\n        /* \"contracts/SimpleSwapTP.sol\":1365:1367  to */\n      dup6\n        /* \"contracts/SimpleSwapTP.sol\":1355:1368  balanceOf[to] */\n      0xffffffffffffffffffffffffffffffffffffffff\n      and\n      0xffffffffffffffffffffffffffffffffffffffff\n      and\n      dup2\n      mstore\n      0x20\n      add\n      swap1\n      dup2\n      mstore\n      0x20\n      add\n      0x00\n      keccak256\n      0x00\n        /* \"contracts/SimpleSwapTP.sol\":1355:1378  balanceOf[to] += amount */\n      dup3\n      dup3\n      sload\n      tag_167\n      swap2\n      swap1\n      tag_109\n      jump\t// in\n    tag_167:\n      swap3\n      pop\n      pop\n      dup2\n      swap1\n      sstore\n      pop\n        /* \"contracts/SimpleSwapTP.sol\":1415:1417  to */\n      dup3\n        /* \"contracts/SimpleSwapTP.sol\":1394:1426  Transfer(msg.sender, to, amount) */\n      0xffffffffffffffffffffffffffffffffffffffff\n      and\n        /* \"contracts/SimpleSwapTP.sol\":1403:1413  msg.sender */\n      caller\n        /* \"contracts/SimpleSwapTP.sol\":1394:1426  Transfer(msg.sender, to, amount) */\n      0xffffffffffffffffffffffffffffffffffffffff\n      and\n      0xddf252ad1be2c89b69c2b068fc378daa952ba7f163c4a11628f55a4df523b3ef\n        /* \"contracts/SimpleSwapTP.sol\":1419:1425  amount */\n      dup5\n        /* \"contracts/SimpleSwapTP.sol\":1394:1426  Transfer(msg.sender, to, amount) */\n      mload(0x40)\n      tag_168\n      swap2\n      swap1\n      tag_34\n      jump\t// in\n    tag_168:\n      mload(0x40)\n      dup1\n      swap2\n      sub\n      swap1\n      log3\n        /* \"contracts/SimpleSwapTP.sol\":1444:1448  true */\n      0x01\n        /* \"contracts/SimpleSwapTP.sol\":1437:1448  return true */\n      swap1\n      pop\n        /* \"contracts/SimpleSwapTP.sol\":1132:1456  function transfer(address to, uint256 amount) public override returns (bool) {... */\n      swap3\n      swap2\n      pop\n      pop\n      jump\t// out\n        /* \"contracts/SimpleSwapTP.sol\":3077:3125  uint256 public constant MINIMUM_LIQUIDITY = 1000 */\n    tag_72:\n        /* \"contracts/SimpleSwapTP.sol\":3121:3125  1000 */\n      0x03e8\n        /* \"contracts/SimpleSwapTP.sol\":3077:3125  uint256 public constant MINIMUM_LIQUIDITY = 1000 */\n      dup2\n      jump\t// out\n        /* \"contracts/SimpleSwapTP.sol\":5286:6375  function removeLiquidity(... */\n    tag_77:\n        /* \"contracts/SimpleSwapTP.sol\":5514:5526  uint amountA */\n      0x00\n        /* \"contracts/SimpleSwapTP.sol\":5528:5540  uint amountB */\n      0x00\n        /* \"contracts/SimpleSwapTP.sol\":5580:5588  deadline */\n      dup3\n        /* \"contracts/SimpleSwapTP.sol\":5561:5576  block.timestamp */\n      timestamp\n        /* \"contracts/SimpleSwapTP.sol\":5561:5588  block.timestamp <= deadline */\n      gt\n      iszero\n        /* \"contracts/SimpleSwapTP.sol\":5553:5612  require(block.timestamp <= deadline, \"Transaction expired\") */\n      tag_170\n      jumpi\n      mload(0x40)\n      0x08c379a000000000000000000000000000000000000000000000000000000000\n      dup2\n      mstore\n      0x04\n      add\n      tag_171\n      swap1\n      tag_117\n      jump\t// in\n    tag_171:\n      mload(0x40)\n      dup1\n      swap2\n      sub\n      swap1\n      revert\n    tag_170:\n        /* \"contracts/SimpleSwapTP.sol\":5641:5647  tokenB */\n      dup8\n        /* \"contracts/SimpleSwapTP.sol\":5631:5647  tokenA != tokenB */\n      0xffffffffffffffffffffffffffffffffffffffff\n      and\n        /* \"contracts/SimpleSwapTP.sol\":5631:5637  tokenA */\n      dup10\n        /* \"contracts/SimpleSwapTP.sol\":5631:5647  tokenA != tokenB */\n      0xffffffffffffffffffffffffffffffffffffffff\n      and\n      sub\n        /* \"contracts/SimpleSwapTP.sol\":5623:5668  require(tokenA != tokenB, \"Identical tokens\") */\n      tag_172\n      jumpi\n      mload(0x40)\n      0x08c379a000000000000000000000000000000000000000000000000000000000\n      dup2\n      mstore\n      0x04\n      add\n      tag_173\n      swap1\n      tag_174\n      jump\t// in\n    tag_173:\n      mload(0x40)\n      dup1\n      swap2\n      sub\n      swap1\n      revert\n    tag_172:\n        /* \"contracts/SimpleSwapTP.sol\":5712:5727  liquidityAmount */\n      dup7\n        /* \"contracts/SimpleSwapTP.sol\":5687:5696  balanceOf */\n      0x03\n        /* \"contracts/SimpleSwapTP.sol\":5687:5708  balanceOf[msg.sender] */\n      0x00\n        /* \"contracts/SimpleSwapTP.sol\":5697:5707  msg.sender */\n      caller\n        /* \"contracts/SimpleSwapTP.sol\":5687:5708  balanceOf[msg.sender] */\n      0xffffffffffffffffffffffffffffffffffffffff\n      and\n      0xffffffffffffffffffffffffffffffffffffffff\n      and\n      dup2\n      mstore\n      0x20\n      add\n      swap1\n      dup2\n      mstore\n      0x20\n      add\n      0x00\n      keccak256\n      sload\n        /* \"contracts/SimpleSwapTP.sol\":5687:5727  balanceOf[msg.sender] >= liquidityAmount */\n      lt\n      iszero\n        /* \"contracts/SimpleSwapTP.sol\":5679:5752  require(balanceOf[msg.sender] >= liquidityAmount, \"Not enough LP tokens\") */\n      tag_175\n      jumpi\n      mload(0x40)\n      0x08c379a000000000000000000000000000000000000000000000000000000000\n      dup2\n      mstore\n      0x04\n      add\n      tag_176\n      swap1\n      tag_177\n      jump\t// in\n    tag_176:\n      mload(0x40)\n      dup1\n      swap2\n      sub\n      swap1\n      revert\n    tag_175:\n        /* \"contracts/SimpleSwapTP.sol\":5765:5778  uint totalLiq */\n      0x00\n        /* \"contracts/SimpleSwapTP.sol\":5781:5792  totalSupply */\n      sload(0x02)\n        /* \"contracts/SimpleSwapTP.sol\":5765:5792  uint totalLiq = totalSupply */\n      swap1\n      pop\n        /* \"contracts/SimpleSwapTP.sol\":5862:5870  totalLiq */\n      dup1\n        /* \"contracts/SimpleSwapTP.sol\":5834:5842  reserveA */\n      0x05\n        /* \"contracts/SimpleSwapTP.sol\":5834:5850  reserveA[tokenA] */\n      0x00\n        /* \"contracts/SimpleSwapTP.sol\":5843:5849  tokenA */\n      dup13\n        /* \"contracts/SimpleSwapTP.sol\":5834:5850  reserveA[tokenA] */\n      0xffffffffffffffffffffffffffffffffffffffff\n      and\n      0xffffffffffffffffffffffffffffffffffffffff\n      and\n      dup2\n      mstore\n      0x20\n      add\n      swap1\n      dup2\n      mstore\n      0x20\n      add\n      0x00\n      keccak256\n        /* \"contracts/SimpleSwapTP.sol\":5834:5858  reserveA[tokenA][tokenB] */\n      0x00\n        /* \"contracts/SimpleSwapTP.sol\":5851:5857  tokenB */\n      dup12\n        /* \"contracts/SimpleSwapTP.sol\":5834:5858  reserveA[tokenA][tokenB] */\n      0xffffffffffffffffffffffffffffffffffffffff\n      and\n      0xffffffffffffffffffffffffffffffffffffffff\n      and\n      dup2\n      mstore\n      0x20\n      add\n      swap1\n      dup2\n      mstore\n      0x20\n      add\n      0x00\n      keccak256\n      sload\n        /* \"contracts/SimpleSwapTP.sol\":5816:5831  liquidityAmount */\n      dup10\n        /* \"contracts/SimpleSwapTP.sol\":5816:5858  liquidityAmount * reserveA[tokenA][tokenB] */\n      tag_178\n      swap2\n      swap1\n      tag_137\n      jump\t// in\n    tag_178:\n        /* \"contracts/SimpleSwapTP.sol\":5815:5870  (liquidityAmount * reserveA[tokenA][tokenB]) / totalLiq */\n      tag_179\n      swap2\n      swap1\n      tag_139\n      jump\t// in\n    tag_179:\n        /* \"contracts/SimpleSwapTP.sol\":5805:5870  amountA = (liquidityAmount * reserveA[tokenA][tokenB]) / totalLiq */\n      swap3\n      pop\n        /* \"contracts/SimpleSwapTP.sol\":5938:5946  totalLiq */\n      dup1\n        /* \"contracts/SimpleSwapTP.sol\":5910:5918  reserveB */\n      0x06\n        /* \"contracts/SimpleSwapTP.sol\":5910:5926  reserveB[tokenA] */\n      0x00\n        /* \"contracts/SimpleSwapTP.sol\":5919:5925  tokenA */\n      dup13\n        /* \"contracts/SimpleSwapTP.sol\":5910:5926  reserveB[tokenA] */\n      0xffffffffffffffffffffffffffffffffffffffff\n      and\n      0xffffffffffffffffffffffffffffffffffffffff\n      and\n      dup2\n      mstore\n      0x20\n      add\n      swap1\n      dup2\n      mstore\n      0x20\n      add\n      0x00\n      keccak256\n        /* \"contracts/SimpleSwapTP.sol\":5910:5934  reserveB[tokenA][tokenB] */\n      0x00\n        /* \"contracts/SimpleSwapTP.sol\":5927:5933  tokenB */\n      dup12\n        /* \"contracts/SimpleSwapTP.sol\":5910:5934  reserveB[tokenA][tokenB] */\n      0xffffffffffffffffffffffffffffffffffffffff\n      and\n      0xffffffffffffffffffffffffffffffffffffffff\n      and\n      dup2\n      mstore\n      0x20\n      add\n      swap1\n      dup2\n      mstore\n      0x20\n      add\n      0x00\n      keccak256\n      sload\n        /* \"contracts/SimpleSwapTP.sol\":5892:5907  liquidityAmount */\n      dup10\n        /* \"contracts/SimpleSwapTP.sol\":5892:5934  liquidityAmount * reserveB[tokenA][tokenB] */\n      tag_180\n      swap2\n      swap1\n      tag_137\n      jump\t// in\n    tag_180:\n        /* \"contracts/SimpleSwapTP.sol\":5891:5946  (liquidityAmount * reserveB[tokenA][tokenB]) / totalLiq */\n      tag_181\n      swap2\n      swap1\n      tag_139\n      jump\t// in\n    tag_181:\n        /* \"contracts/SimpleSwapTP.sol\":5881:5946  amountB = (liquidityAmount * reserveB[tokenA][tokenB]) / totalLiq */\n      swap2\n      pop\n        /* \"contracts/SimpleSwapTP.sol\":5978:5988  amountAMin */\n      dup7\n        /* \"contracts/SimpleSwapTP.sol\":5967:5974  amountA */\n      dup4\n        /* \"contracts/SimpleSwapTP.sol\":5967:5988  amountA >= amountAMin */\n      lt\n      iszero\n        /* \"contracts/SimpleSwapTP.sol\":5959:6009  require(amountA >= amountAMin, \"Amount A too low\") */\n      tag_182\n      jumpi\n      mload(0x40)\n      0x08c379a000000000000000000000000000000000000000000000000000000000\n      dup2\n      mstore\n      0x04\n      add\n      tag_183\n      swap1\n      tag_184\n      jump\t// in\n    tag_183:\n      mload(0x40)\n      dup1\n      swap2\n      sub\n      swap1\n      revert\n    tag_182:\n        /* \"contracts/SimpleSwapTP.sol\":6039:6049  amountBMin */\n      dup6\n        /* \"contracts/SimpleSwapTP.sol\":6028:6035  amountB */\n      dup3\n        /* \"contracts/SimpleSwapTP.sol\":6028:6049  amountB >= amountBMin */\n      lt\n      iszero\n        /* \"contracts/SimpleSwapTP.sol\":6020:6070  require(amountB >= amountBMin, \"Amount B too low\") */\n      tag_185\n      jumpi\n      mload(0x40)\n      0x08c379a000000000000000000000000000000000000000000000000000000000\n      dup2\n      mstore\n      0x04\n      add\n      tag_186\n      swap1\n      tag_187\n      jump\t// in\n    tag_186:\n      mload(0x40)\n      dup1\n      swap2\n      sub\n      swap1\n      revert\n    tag_185:\n        /* \"contracts/SimpleSwapTP.sol\":6083:6117  _burn(msg.sender, liquidityAmount) */\n      tag_188\n        /* \"contracts/SimpleSwapTP.sol\":6089:6099  msg.sender */\n      caller\n        /* \"contracts/SimpleSwapTP.sol\":6101:6116  liquidityAmount */\n      dup10\n        /* \"contracts/SimpleSwapTP.sol\":6083:6088  _burn */\n      tag_189\n        /* \"contracts/SimpleSwapTP.sol\":6083:6117  _burn(msg.sender, liquidityAmount) */\n      jump\t// in\n    tag_188:\n        /* \"contracts/SimpleSwapTP.sol\":6158:6165  amountA */\n      dup3\n        /* \"contracts/SimpleSwapTP.sol\":6130:6138  reserveA */\n      0x05\n        /* \"contracts/SimpleSwapTP.sol\":6130:6146  reserveA[tokenA] */\n      0x00\n        /* \"contracts/SimpleSwapTP.sol\":6139:6145  tokenA */\n      dup13\n        /* \"contracts/SimpleSwapTP.sol\":6130:6146  reserveA[tokenA] */\n      0xffffffffffffffffffffffffffffffffffffffff\n      and\n      0xffffffffffffffffffffffffffffffffffffffff\n      and\n      dup2\n      mstore\n      0x20\n      add\n      swap1\n      dup2\n      mstore\n      0x20\n      add\n      0x00\n      keccak256\n        /* \"contracts/SimpleSwapTP.sol\":6130:6154  reserveA[tokenA][tokenB] */\n      0x00\n        /* \"contracts/SimpleSwapTP.sol\":6147:6153  tokenB */\n      dup12\n        /* \"contracts/SimpleSwapTP.sol\":6130:6154  reserveA[tokenA][tokenB] */\n      0xffffffffffffffffffffffffffffffffffffffff\n      and\n      0xffffffffffffffffffffffffffffffffffffffff\n      and\n      dup2\n      mstore\n      0x20\n      add\n      swap1\n      dup2\n      mstore\n      0x20\n      add\n      0x00\n      keccak256\n      0x00\n        /* \"contracts/SimpleSwapTP.sol\":6130:6165  reserveA[tokenA][tokenB] -= amountA */\n      dup3\n      dup3\n      sload\n      tag_190\n      swap2\n      swap1\n      tag_106\n      jump\t// in\n    tag_190:\n      swap3\n      pop\n      pop\n      dup2\n      swap1\n      sstore\n      pop\n        /* \"contracts/SimpleSwapTP.sol\":6204:6211  amountB */\n      dup2\n        /* \"contracts/SimpleSwapTP.sol\":6176:6184  reserveB */\n      0x06\n        /* \"contracts/SimpleSwapTP.sol\":6176:6192  reserveB[tokenA] */\n      0x00\n        /* \"contracts/SimpleSwapTP.sol\":6185:6191  tokenA */\n      dup13\n        /* \"contracts/SimpleSwapTP.sol\":6176:6192  reserveB[tokenA] */\n      0xffffffffffffffffffffffffffffffffffffffff\n      and\n      0xffffffffffffffffffffffffffffffffffffffff\n      and\n      dup2\n      mstore\n      0x20\n      add\n      swap1\n      dup2\n      mstore\n      0x20\n      add\n      0x00\n      keccak256\n        /* \"contracts/SimpleSwapTP.sol\":6176:6200  reserveB[tokenA][tokenB] */\n      0x00\n        /* \"contracts/SimpleSwapTP.sol\":6193:6199  tokenB */\n      dup12\n        /* \"contracts/SimpleSwapTP.sol\":6176:6200  reserveB[tokenA][tokenB] */\n      0xffffffffffffffffffffffffffffffffffffffff\n      and\n      0xffffffffffffffffffffffffffffffffffffffff\n      and\n      dup2\n      mstore\n      0x20\n      add\n      swap1\n      dup2\n      mstore\n      0x20\n      add\n      0x00\n      keccak256\n      0x00\n        /* \"contracts/SimpleSwapTP.sol\":6176:6211  reserveB[tokenA][tokenB] -= amountB */\n      dup3\n      dup3\n      sload\n      tag_191\n      swap2\n      swap1\n      tag_106\n      jump\t// in\n    tag_191:\n      swap3\n      pop\n      pop\n      dup2\n      swap1\n      sstore\n      pop\n        /* \"contracts/SimpleSwapTP.sol\":6239:6245  tokenA */\n      dup10\n        /* \"contracts/SimpleSwapTP.sol\":6232:6255  IERC20(tokenA).transfer */\n      0xffffffffffffffffffffffffffffffffffffffff\n      and\n      0xa9059cbb\n        /* \"contracts/SimpleSwapTP.sol\":6256:6258  to */\n      dup7\n        /* \"contracts/SimpleSwapTP.sol\":6260:6267  amountA */\n      dup6\n        /* \"contracts/SimpleSwapTP.sol\":6232:6268  IERC20(tokenA).transfer(to, amountA) */\n      mload(0x40)\n      dup4\n      0xffffffff\n      and\n      0xe0\n      shl\n      dup2\n      mstore\n      0x04\n      add\n      tag_192\n      swap3\n      swap2\n      swap1\n      tag_144\n      jump\t// in\n    tag_192:\n      0x20\n      mload(0x40)\n      dup1\n      dup4\n      sub\n      dup2\n      0x00\n      dup8\n      gas\n      call\n      iszero\n      dup1\n      iszero\n      tag_194\n      jumpi\n      returndatacopy(0x00, 0x00, returndatasize)\n      revert(0x00, returndatasize)\n    tag_194:\n      pop\n      pop\n      pop\n      pop\n      mload(0x40)\n      returndatasize\n      not(0x1f)\n      0x1f\n      dup3\n      add\n      and\n      dup3\n      add\n      dup1\n      0x40\n      mstore\n      pop\n      dup2\n      add\n      swap1\n      tag_195\n      swap2\n      swap1\n      tag_134\n      jump\t// in\n    tag_195:\n        /* \"contracts/SimpleSwapTP.sol\":6224:6290  require(IERC20(tokenA).transfer(to, amountA), \"Transfer A failed\") */\n      tag_196\n      jumpi\n      mload(0x40)\n      0x08c379a000000000000000000000000000000000000000000000000000000000\n      dup2\n      mstore\n      0x04\n      add\n      tag_197\n      swap1\n      tag_198\n      jump\t// in\n    tag_197:\n      mload(0x40)\n      dup1\n      swap2\n      sub\n      swap1\n      revert\n    tag_196:\n        /* \"contracts/SimpleSwapTP.sol\":6316:6322  tokenB */\n      dup9\n        /* \"contracts/SimpleSwapTP.sol\":6309:6332  IERC20(tokenB).transfer */\n      0xffffffffffffffffffffffffffffffffffffffff\n      and\n      0xa9059cbb\n        /* \"contracts/SimpleSwapTP.sol\":6333:6335  to */\n      dup7\n        /* \"contracts/SimpleSwapTP.sol\":6337:6344  amountB */\n      dup5\n        /* \"contracts/SimpleSwapTP.sol\":6309:6345  IERC20(tokenB).transfer(to, amountB) */\n      mload(0x40)\n      dup4\n      0xffffffff\n      and\n      0xe0\n      shl\n      dup2\n      mstore\n      0x04\n      add\n      tag_199\n      swap3\n      swap2\n      swap1\n      tag_144\n      jump\t// in\n    tag_199:\n      0x20\n      mload(0x40)\n      dup1\n      dup4\n      sub\n      dup2\n      0x00\n      dup8\n      gas\n      call\n      iszero\n      dup1\n      iszero\n      tag_201\n      jumpi\n      returndatacopy(0x00, 0x00, returndatasize)\n      revert(0x00, returndatasize)\n    tag_201:\n      pop\n      pop\n      pop\n      pop\n      mload(0x40)\n      returndatasize\n      not(0x1f)\n      0x1f\n      dup3\n      add\n      and\n      dup3\n      add\n      dup1\n      0x40\n      mstore\n      pop\n      dup2\n      add\n      swap1\n      tag_202\n      swap2\n      swap1\n      tag_134\n      jump\t// in\n    tag_202:\n        /* \"contracts/SimpleSwapTP.sol\":6301:6367  require(IERC20(tokenB).transfer(to, amountB), \"Transfer B failed\") */\n      tag_203\n      jumpi\n      mload(0x40)\n      0x08c379a000000000000000000000000000000000000000000000000000000000\n      dup2\n      mstore\n      0x04\n      add\n      tag_204\n      swap1\n      tag_205\n      jump\t// in\n    tag_204:\n      mload(0x40)\n      dup1\n      swap2\n      sub\n      swap1\n      revert\n    tag_203:\n        /* \"contracts/SimpleSwapTP.sol\":5542:6375  {... */\n      pop\n        /* \"contracts/SimpleSwapTP.sol\":5286:6375  function removeLiquidity(... */\n      swap8\n      pop\n      swap8\n      swap6\n      pop\n      pop\n      pop\n      pop\n      pop\n      pop\n      jump\t// out\n        /* \"contracts/SimpleSwapTP.sol\":928:1001  mapping(address => mapping(address => uint256)) public override allowance */\n    tag_82:\n      mstore(0x20, 0x04)\n      dup2\n      0x00\n      mstore\n      mstore(0x20, keccak256(0x00, 0x40))\n      dup1\n      0x00\n      mstore\n      keccak256(0x00, 0x40)\n      0x00\n      swap2\n      pop\n      swap2\n      pop\n      pop\n      sload\n      dup2\n      jump\t// out\n        /* \"contracts/SimpleSwapTP.sol\":3234:5223  function addLiquidity(... */\n    tag_87:\n        /* \"contracts/SimpleSwapTP.sol\":3488:3500  uint amountA */\n      0x00\n        /* \"contracts/SimpleSwapTP.sol\":3502:3514  uint amountB */\n      0x00\n        /* \"contracts/SimpleSwapTP.sol\":3516:3536  uint liquidityTokens */\n      0x00\n        /* \"contracts/SimpleSwapTP.sol\":3576:3584  deadline */\n      dup4\n        /* \"contracts/SimpleSwapTP.sol\":3557:3572  block.timestamp */\n      timestamp\n        /* \"contracts/SimpleSwapTP.sol\":3557:3584  block.timestamp <= deadline */\n      gt\n      iszero\n        /* \"contracts/SimpleSwapTP.sol\":3549:3608  require(block.timestamp <= deadline, \"Transaction expired\") */\n      tag_207\n      jumpi\n      mload(0x40)\n      0x08c379a000000000000000000000000000000000000000000000000000000000\n      dup2\n      mstore\n      0x04\n      add\n      tag_208\n      swap1\n      tag_117\n      jump\t// in\n    tag_208:\n      mload(0x40)\n      dup1\n      swap2\n      sub\n      swap1\n      revert\n    tag_207:\n        /* \"contracts/SimpleSwapTP.sol\":3637:3643  tokenB */\n      dup10\n        /* \"contracts/SimpleSwapTP.sol\":3627:3643  tokenA != tokenB */\n      0xffffffffffffffffffffffffffffffffffffffff\n      and\n        /* \"contracts/SimpleSwapTP.sol\":3627:3633  tokenA */\n      dup12\n        /* \"contracts/SimpleSwapTP.sol\":3627:3643  tokenA != tokenB */\n      0xffffffffffffffffffffffffffffffffffffffff\n      and\n      sub\n        /* \"contracts/SimpleSwapTP.sol\":3619:3664  require(tokenA != tokenB, \"Identical tokens\") */\n      tag_209\n      jumpi\n      mload(0x40)\n      0x08c379a000000000000000000000000000000000000000000000000000000000\n      dup2\n      mstore\n      0x04\n      add\n      tag_210\n      swap1\n      tag_174\n      jump\t// in\n    tag_210:\n      mload(0x40)\n      dup1\n      swap2\n      sub\n      swap1\n      revert\n    tag_209:\n        /* \"contracts/SimpleSwapTP.sol\":3677:3691  uint reserveA_ */\n      0x00\n        /* \"contracts/SimpleSwapTP.sol\":3694:3702  reserveA */\n      0x05\n        /* \"contracts/SimpleSwapTP.sol\":3694:3710  reserveA[tokenA] */\n      0x00\n        /* \"contracts/SimpleSwapTP.sol\":3703:3709  tokenA */\n      dup14\n        /* \"contracts/SimpleSwapTP.sol\":3694:3710  reserveA[tokenA] */\n      0xffffffffffffffffffffffffffffffffffffffff\n      and\n      0xffffffffffffffffffffffffffffffffffffffff\n      and\n      dup2\n      mstore\n      0x20\n      add\n      swap1\n      dup2\n      mstore\n      0x20\n      add\n      0x00\n      keccak256\n        /* \"contracts/SimpleSwapTP.sol\":3694:3718  reserveA[tokenA][tokenB] */\n      0x00\n        /* \"contracts/SimpleSwapTP.sol\":3711:3717  tokenB */\n      dup13\n        /* \"contracts/SimpleSwapTP.sol\":3694:3718  reserveA[tokenA][tokenB] */\n      0xffffffffffffffffffffffffffffffffffffffff\n      and\n      0xffffffffffffffffffffffffffffffffffffffff\n      and\n      dup2\n      mstore\n      0x20\n      add\n      swap1\n      dup2\n      mstore\n      0x20\n      add\n      0x00\n      keccak256\n      sload\n        /* \"contracts/SimpleSwapTP.sol\":3677:3718  uint reserveA_ = reserveA[tokenA][tokenB] */\n      swap1\n      pop\n        /* \"contracts/SimpleSwapTP.sol\":3729:3743  uint reserveB_ */\n      0x00\n        /* \"contracts/SimpleSwapTP.sol\":3746:3754  reserveB */\n      0x06\n        /* \"contracts/SimpleSwapTP.sol\":3746:3762  reserveB[tokenA] */\n      0x00\n        /* \"contracts/SimpleSwapTP.sol\":3755:3761  tokenA */\n      dup15\n        /* \"contracts/SimpleSwapTP.sol\":3746:3762  reserveB[tokenA] */\n      0xffffffffffffffffffffffffffffffffffffffff\n      and\n      0xffffffffffffffffffffffffffffffffffffffff\n      and\n      dup2\n      mstore\n      0x20\n      add\n      swap1\n      dup2\n      mstore\n      0x20\n      add\n      0x00\n      keccak256\n        /* \"contracts/SimpleSwapTP.sol\":3746:3770  reserveB[tokenA][tokenB] */\n      0x00\n        /* \"contracts/SimpleSwapTP.sol\":3763:3769  tokenB */\n      dup14\n        /* \"contracts/SimpleSwapTP.sol\":3746:3770  reserveB[tokenA][tokenB] */\n      0xffffffffffffffffffffffffffffffffffffffff\n      and\n      0xffffffffffffffffffffffffffffffffffffffff\n      and\n      dup2\n      mstore\n      0x20\n      add\n      swap1\n      dup2\n      mstore\n      0x20\n      add\n      0x00\n      keccak256\n      sload\n        /* \"contracts/SimpleSwapTP.sol\":3729:3770  uint reserveB_ = reserveB[tokenA][tokenB] */\n      swap1\n      pop\n        /* \"contracts/SimpleSwapTP.sol\":3800:3801  0 */\n      0x00\n        /* \"contracts/SimpleSwapTP.sol\":3787:3796  reserveA_ */\n      dup3\n        /* \"contracts/SimpleSwapTP.sol\":3787:3801  reserveA_ == 0 */\n      eq\n        /* \"contracts/SimpleSwapTP.sol\":3787:3819  reserveA_ == 0 && reserveB_ == 0 */\n      dup1\n      iszero\n      tag_211\n      jumpi\n      pop\n        /* \"contracts/SimpleSwapTP.sol\":3818:3819  0 */\n      0x00\n        /* \"contracts/SimpleSwapTP.sol\":3805:3814  reserveB_ */\n      dup2\n        /* \"contracts/SimpleSwapTP.sol\":3805:3819  reserveB_ == 0 */\n      eq\n        /* \"contracts/SimpleSwapTP.sol\":3787:3819  reserveA_ == 0 && reserveB_ == 0 */\n    tag_211:\n        /* \"contracts/SimpleSwapTP.sol\":3783:4873  if (reserveA_ == 0 && reserveB_ == 0) {... */\n      iszero\n      tag_212\n      jumpi\n        /* \"contracts/SimpleSwapTP.sol\":3846:3860  amountADesired */\n      dup11\n        /* \"contracts/SimpleSwapTP.sol\":3836:3860  amountA = amountADesired */\n      swap5\n      pop\n        /* \"contracts/SimpleSwapTP.sol\":3885:3899  amountBDesired */\n      dup10\n        /* \"contracts/SimpleSwapTP.sol\":3875:3899  amountB = amountBDesired */\n      swap4\n      pop\n        /* \"contracts/SimpleSwapTP.sol\":3932:3955  sqrt(amountA * amountB) */\n      tag_213\n        /* \"contracts/SimpleSwapTP.sol\":3947:3954  amountB */\n      dup5\n        /* \"contracts/SimpleSwapTP.sol\":3937:3944  amountA */\n      dup7\n        /* \"contracts/SimpleSwapTP.sol\":3937:3954  amountA * amountB */\n      tag_214\n      swap2\n      swap1\n      tag_137\n      jump\t// in\n    tag_214:\n        /* \"contracts/SimpleSwapTP.sol\":3932:3936  sqrt */\n      tag_215\n        /* \"contracts/SimpleSwapTP.sol\":3932:3955  sqrt(amountA * amountB) */\n      jump\t// in\n    tag_213:\n        /* \"contracts/SimpleSwapTP.sol\":3914:3955  liquidityTokens = sqrt(amountA * amountB) */\n      swap3\n      pop\n        /* \"contracts/SimpleSwapTP.sol\":3121:3125  1000 */\n      0x03e8\n        /* \"contracts/SimpleSwapTP.sol\":3978:3993  liquidityTokens */\n      dup4\n        /* \"contracts/SimpleSwapTP.sol\":3978:4014  liquidityTokens >= MINIMUM_LIQUIDITY */\n      lt\n      iszero\n        /* \"contracts/SimpleSwapTP.sol\":3970:4049  require(liquidityTokens >= MINIMUM_LIQUIDITY, \"Insufficient initial liquidity\") */\n      tag_216\n      jumpi\n      mload(0x40)\n      0x08c379a000000000000000000000000000000000000000000000000000000000\n      dup2\n      mstore\n      0x04\n      add\n      tag_217\n      swap1\n      tag_218\n      jump\t// in\n    tag_217:\n      mload(0x40)\n      dup1\n      swap2\n      sub\n      swap1\n      revert\n    tag_216:\n        /* \"contracts/SimpleSwapTP.sol\":3783:4873  if (reserveA_ == 0 && reserveB_ == 0) {... */\n      jump(tag_219)\n    tag_212:\n        /* \"contracts/SimpleSwapTP.sol\":4082:4095  uint totalLiq */\n      0x00\n        /* \"contracts/SimpleSwapTP.sol\":4098:4109  totalSupply */\n      sload(0x02)\n        /* \"contracts/SimpleSwapTP.sol\":4082:4109  uint totalLiq = totalSupply */\n      swap1\n      pop\n        /* \"contracts/SimpleSwapTP.sol\":4126:4145  uint amountBOptimal */\n      0x00\n        /* \"contracts/SimpleSwapTP.sol\":4179:4188  reserveA_ */\n      dup4\n        /* \"contracts/SimpleSwapTP.sol\":4166:4175  reserveB_ */\n      dup4\n        /* \"contracts/SimpleSwapTP.sol\":4149:4163  amountADesired */\n      dup15\n        /* \"contracts/SimpleSwapTP.sol\":4149:4175  amountADesired * reserveB_ */\n      tag_220\n      swap2\n      swap1\n      tag_137\n      jump\t// in\n    tag_220:\n        /* \"contracts/SimpleSwapTP.sol\":4148:4188  (amountADesired * reserveB_) / reserveA_ */\n      tag_221\n      swap2\n      swap1\n      tag_139\n      jump\t// in\n    tag_221:\n        /* \"contracts/SimpleSwapTP.sol\":4126:4188  uint amountBOptimal = (amountADesired * reserveB_) / reserveA_ */\n      swap1\n      pop\n        /* \"contracts/SimpleSwapTP.sol\":4225:4239  amountBDesired */\n      dup12\n        /* \"contracts/SimpleSwapTP.sol\":4207:4221  amountBOptimal */\n      dup2\n        /* \"contracts/SimpleSwapTP.sol\":4207:4239  amountBOptimal <= amountBDesired */\n      gt\n        /* \"contracts/SimpleSwapTP.sol\":4203:4694  if (amountBOptimal <= amountBDesired) {... */\n      tag_222\n      jumpi\n        /* \"contracts/SimpleSwapTP.sol\":4286:4296  amountBMin */\n      dup10\n        /* \"contracts/SimpleSwapTP.sol\":4268:4282  amountBOptimal */\n      dup2\n        /* \"contracts/SimpleSwapTP.sol\":4268:4296  amountBOptimal >= amountBMin */\n      lt\n      iszero\n        /* \"contracts/SimpleSwapTP.sol\":4260:4322  require(amountBOptimal >= amountBMin, \"Insufficient B amount\") */\n      tag_223\n      jumpi\n      mload(0x40)\n      0x08c379a000000000000000000000000000000000000000000000000000000000\n      dup2\n      mstore\n      0x04\n      add\n      tag_224\n      swap1\n      tag_225\n      jump\t// in\n    tag_224:\n      mload(0x40)\n      dup1\n      swap2\n      sub\n      swap1\n      revert\n    tag_223:\n        /* \"contracts/SimpleSwapTP.sol\":4351:4365  amountADesired */\n      dup13\n        /* \"contracts/SimpleSwapTP.sol\":4341:4365  amountA = amountADesired */\n      swap7\n      pop\n        /* \"contracts/SimpleSwapTP.sol\":4394:4408  amountBOptimal */\n      dup1\n        /* \"contracts/SimpleSwapTP.sol\":4384:4408  amountB = amountBOptimal */\n      swap6\n      pop\n        /* \"contracts/SimpleSwapTP.sol\":4203:4694  if (amountBOptimal <= amountBDesired) {... */\n      jump(tag_226)\n    tag_222:\n        /* \"contracts/SimpleSwapTP.sol\":4449:4468  uint amountAOptimal */\n      0x00\n        /* \"contracts/SimpleSwapTP.sol\":4502:4511  reserveB_ */\n      dup4\n        /* \"contracts/SimpleSwapTP.sol\":4489:4498  reserveA_ */\n      dup6\n        /* \"contracts/SimpleSwapTP.sol\":4472:4486  amountBDesired */\n      dup15\n        /* \"contracts/SimpleSwapTP.sol\":4472:4498  amountBDesired * reserveA_ */\n      tag_227\n      swap2\n      swap1\n      tag_137\n      jump\t// in\n    tag_227:\n        /* \"contracts/SimpleSwapTP.sol\":4471:4511  (amountBDesired * reserveA_) / reserveB_ */\n      tag_228\n      swap2\n      swap1\n      tag_139\n      jump\t// in\n    tag_228:\n        /* \"contracts/SimpleSwapTP.sol\":4449:4511  uint amountAOptimal = (amountBDesired * reserveA_) / reserveB_ */\n      swap1\n      pop\n        /* \"contracts/SimpleSwapTP.sol\":4556:4566  amountAMin */\n      dup12\n        /* \"contracts/SimpleSwapTP.sol\":4538:4552  amountAOptimal */\n      dup2\n        /* \"contracts/SimpleSwapTP.sol\":4538:4566  amountAOptimal >= amountAMin */\n      lt\n      iszero\n        /* \"contracts/SimpleSwapTP.sol\":4530:4592  require(amountAOptimal >= amountAMin, \"Insufficient A amount\") */\n      tag_229\n      jumpi\n      mload(0x40)\n      0x08c379a000000000000000000000000000000000000000000000000000000000\n      dup2\n      mstore\n      0x04\n      add\n      tag_230\n      swap1\n      tag_231\n      jump\t// in\n    tag_230:\n      mload(0x40)\n      dup1\n      swap2\n      sub\n      swap1\n      revert\n    tag_229:\n        /* \"contracts/SimpleSwapTP.sol\":4621:4635  amountAOptimal */\n      dup1\n        /* \"contracts/SimpleSwapTP.sol\":4611:4635  amountA = amountAOptimal */\n      swap8\n      pop\n        /* \"contracts/SimpleSwapTP.sol\":4664:4678  amountBDesired */\n      dup13\n        /* \"contracts/SimpleSwapTP.sol\":4654:4678  amountB = amountBDesired */\n      swap7\n      pop\n        /* \"contracts/SimpleSwapTP.sol\":4430:4694  {... */\n      pop\n        /* \"contracts/SimpleSwapTP.sol\":4203:4694  if (amountBOptimal <= amountBDesired) {... */\n    tag_226:\n        /* \"contracts/SimpleSwapTP.sol\":4710:4719  uint liq1 */\n      0x00\n        /* \"contracts/SimpleSwapTP.sol\":4745:4754  reserveA_ */\n      dup5\n        /* \"contracts/SimpleSwapTP.sol\":4733:4741  totalLiq */\n      dup4\n        /* \"contracts/SimpleSwapTP.sol\":4723:4730  amountA */\n      dup10\n        /* \"contracts/SimpleSwapTP.sol\":4723:4741  amountA * totalLiq */\n      tag_232\n      swap2\n      swap1\n      tag_137\n      jump\t// in\n    tag_232:\n        /* \"contracts/SimpleSwapTP.sol\":4722:4754  (amountA * totalLiq) / reserveA_ */\n      tag_233\n      swap2\n      swap1\n      tag_139\n      jump\t// in\n    tag_233:\n        /* \"contracts/SimpleSwapTP.sol\":4710:4754  uint liq1 = (amountA * totalLiq) / reserveA_ */\n      swap1\n      pop\n        /* \"contracts/SimpleSwapTP.sol\":4769:4778  uint liq2 */\n      0x00\n        /* \"contracts/SimpleSwapTP.sol\":4804:4813  reserveB_ */\n      dup5\n        /* \"contracts/SimpleSwapTP.sol\":4792:4800  totalLiq */\n      dup5\n        /* \"contracts/SimpleSwapTP.sol\":4782:4789  amountB */\n      dup10\n        /* \"contracts/SimpleSwapTP.sol\":4782:4800  amountB * totalLiq */\n      tag_234\n      swap2\n      swap1\n      tag_137\n      jump\t// in\n    tag_234:\n        /* \"contracts/SimpleSwapTP.sol\":4781:4813  (amountB * totalLiq) / reserveB_ */\n      tag_235\n      swap2\n      swap1\n      tag_139\n      jump\t// in\n    tag_235:\n        /* \"contracts/SimpleSwapTP.sol\":4769:4813  uint liq2 = (amountB * totalLiq) / reserveB_ */\n      swap1\n      pop\n        /* \"contracts/SimpleSwapTP.sol\":4846:4861  min(liq1, liq2) */\n      tag_236\n        /* \"contracts/SimpleSwapTP.sol\":4850:4854  liq1 */\n      dup3\n        /* \"contracts/SimpleSwapTP.sol\":4856:4860  liq2 */\n      dup3\n        /* \"contracts/SimpleSwapTP.sol\":4846:4849  min */\n      tag_237\n        /* \"contracts/SimpleSwapTP.sol\":4846:4861  min(liq1, liq2) */\n      jump\t// in\n    tag_236:\n        /* \"contracts/SimpleSwapTP.sol\":4828:4861  liquidityTokens = min(liq1, liq2) */\n      swap7\n      pop\n        /* \"contracts/SimpleSwapTP.sol\":4067:4873  {... */\n      pop\n      pop\n      pop\n      pop\n        /* \"contracts/SimpleSwapTP.sol\":3783:4873  if (reserveA_ == 0 && reserveB_ == 0) {... */\n    tag_219:\n        /* \"contracts/SimpleSwapTP.sol\":4900:4906  tokenA */\n      dup13\n        /* \"contracts/SimpleSwapTP.sol\":4893:4920  IERC20(tokenA).transferFrom */\n      0xffffffffffffffffffffffffffffffffffffffff\n      and\n      0x23b872dd\n        /* \"contracts/SimpleSwapTP.sol\":4921:4931  msg.sender */\n      caller\n        /* \"contracts/SimpleSwapTP.sol\":4941:4945  this */\n      address\n        /* \"contracts/SimpleSwapTP.sol\":4948:4955  amountA */\n      dup9\n        /* \"contracts/SimpleSwapTP.sol\":4893:4956  IERC20(tokenA).transferFrom(msg.sender, address(this), amountA) */\n      mload(0x40)\n      dup5\n      0xffffffff\n      and\n      0xe0\n      shl\n      dup2\n      mstore\n      0x04\n      add\n      tag_238\n      swap4\n      swap3\n      swap2\n      swap1\n      tag_130\n      jump\t// in\n    tag_238:\n      0x20\n      mload(0x40)\n      dup1\n      dup4\n      sub\n      dup2\n      0x00\n      dup8\n      gas\n      call\n      iszero\n      dup1\n      iszero\n      tag_240\n      jumpi\n      returndatacopy(0x00, 0x00, returndatasize)\n      revert(0x00, returndatasize)\n    tag_240:\n      pop\n      pop\n      pop\n      pop\n      mload(0x40)\n      returndatasize\n      not(0x1f)\n      0x1f\n      dup3\n      add\n      and\n      dup3\n      add\n      dup1\n      0x40\n      mstore\n      pop\n      dup2\n      add\n      swap1\n      tag_241\n      swap2\n      swap1\n      tag_134\n      jump\t// in\n    tag_241:\n        /* \"contracts/SimpleSwapTP.sol\":4885:4978  require(IERC20(tokenA).transferFrom(msg.sender, address(this), amountA), \"Transfer A failed\") */\n      tag_242\n      jumpi\n      mload(0x40)\n      0x08c379a000000000000000000000000000000000000000000000000000000000\n      dup2\n      mstore\n      0x04\n      add\n      tag_243\n      swap1\n      tag_198\n      jump\t// in\n    tag_243:\n      mload(0x40)\n      dup1\n      swap2\n      sub\n      swap1\n      revert\n    tag_242:\n        /* \"contracts/SimpleSwapTP.sol\":5004:5010  tokenB */\n      dup12\n        /* \"contracts/SimpleSwapTP.sol\":4997:5024  IERC20(tokenB).transferFrom */\n      0xffffffffffffffffffffffffffffffffffffffff\n      and\n      0x23b872dd\n        /* \"contracts/SimpleSwapTP.sol\":5025:5035  msg.sender */\n      caller\n        /* \"contracts/SimpleSwapTP.sol\":5045:5049  this */\n      address\n        /* \"contracts/SimpleSwapTP.sol\":5052:5059  amountB */\n      dup8\n        /* \"contracts/SimpleSwapTP.sol\":4997:5060  IERC20(tokenB).transferFrom(msg.sender, address(this), amountB) */\n      mload(0x40)\n      dup5\n      0xffffffff\n      and\n      0xe0\n      shl\n      dup2\n      mstore\n      0x04\n      add\n      tag_244\n      swap4\n      swap3\n      swap2\n      swap1\n      tag_130\n      jump\t// in\n    tag_244:\n      0x20\n      mload(0x40)\n      dup1\n      dup4\n      sub\n      dup2\n      0x00\n      dup8\n      gas\n      call\n      iszero\n      dup1\n      iszero\n      tag_246\n      jumpi\n      returndatacopy(0x00, 0x00, returndatasize)\n      revert(0x00, returndatasize)\n    tag_246:\n      pop\n      pop\n      pop\n      pop\n      mload(0x40)\n      returndatasize\n      not(0x1f)\n      0x1f\n      dup3\n      add\n      and\n      dup3\n      add\n      dup1\n      0x40\n      mstore\n      pop\n      dup2\n      add\n      swap1\n      tag_247\n      swap2\n      swap1\n      tag_134\n      jump\t// in\n    tag_247:\n        /* \"contracts/SimpleSwapTP.sol\":4989:5082  require(IERC20(tokenB).transferFrom(msg.sender, address(this), amountB), \"Transfer B failed\") */\n      tag_248\n      jumpi\n      mload(0x40)\n      0x08c379a000000000000000000000000000000000000000000000000000000000\n      dup2\n      mstore\n      0x04\n      add\n      tag_249\n      swap1\n      tag_205\n      jump\t// in\n    tag_249:\n      mload(0x40)\n      dup1\n      swap2\n      sub\n      swap1\n      revert\n    tag_248:\n        /* \"contracts/SimpleSwapTP.sol\":5123:5130  amountA */\n      dup5\n        /* \"contracts/SimpleSwapTP.sol\":5095:5103  reserveA */\n      0x05\n        /* \"contracts/SimpleSwapTP.sol\":5095:5111  reserveA[tokenA] */\n      0x00\n        /* \"contracts/SimpleSwapTP.sol\":5104:5110  tokenA */\n      dup16\n        /* \"contracts/SimpleSwapTP.sol\":5095:5111  reserveA[tokenA] */\n      0xffffffffffffffffffffffffffffffffffffffff\n      and\n      0xffffffffffffffffffffffffffffffffffffffff\n      and\n      dup2\n      mstore\n      0x20\n      add\n      swap1\n      dup2\n      mstore\n      0x20\n      add\n      0x00\n      keccak256\n        /* \"contracts/SimpleSwapTP.sol\":5095:5119  reserveA[tokenA][tokenB] */\n      0x00\n        /* \"contracts/SimpleSwapTP.sol\":5112:5118  tokenB */\n      dup15\n        /* \"contracts/SimpleSwapTP.sol\":5095:5119  reserveA[tokenA][tokenB] */\n      0xffffffffffffffffffffffffffffffffffffffff\n      and\n      0xffffffffffffffffffffffffffffffffffffffff\n      and\n      dup2\n      mstore\n      0x20\n      add\n      swap1\n      dup2\n      mstore\n      0x20\n      add\n      0x00\n      keccak256\n      0x00\n        /* \"contracts/SimpleSwapTP.sol\":5095:5130  reserveA[tokenA][tokenB] += amountA */\n      dup3\n      dup3\n      sload\n      tag_250\n      swap2\n      swap1\n      tag_109\n      jump\t// in\n    tag_250:\n      swap3\n      pop\n      pop\n      dup2\n      swap1\n      sstore\n      pop\n        /* \"contracts/SimpleSwapTP.sol\":5169:5176  amountB */\n      dup4\n        /* \"contracts/SimpleSwapTP.sol\":5141:5149  reserveB */\n      0x06\n        /* \"contracts/SimpleSwapTP.sol\":5141:5157  reserveB[tokenA] */\n      0x00\n        /* \"contracts/SimpleSwapTP.sol\":5150:5156  tokenA */\n      dup16\n        /* \"contracts/SimpleSwapTP.sol\":5141:5157  reserveB[tokenA] */\n      0xffffffffffffffffffffffffffffffffffffffff\n      and\n      0xffffffffffffffffffffffffffffffffffffffff\n      and\n      dup2\n      mstore\n      0x20\n      add\n      swap1\n      dup2\n      mstore\n      0x20\n      add\n      0x00\n      keccak256\n        /* \"contracts/SimpleSwapTP.sol\":5141:5165  reserveB[tokenA][tokenB] */\n      0x00\n        /* \"contracts/SimpleSwapTP.sol\":5158:5164  tokenB */\n      dup15\n        /* \"contracts/SimpleSwapTP.sol\":5141:5165  reserveB[tokenA][tokenB] */\n      0xffffffffffffffffffffffffffffffffffffffff\n      and\n      0xffffffffffffffffffffffffffffffffffffffff\n      and\n      dup2\n      mstore\n      0x20\n      add\n      swap1\n      dup2\n      mstore\n      0x20\n      add\n      0x00\n      keccak256\n      0x00\n        /* \"contracts/SimpleSwapTP.sol\":5141:5176  reserveB[tokenA][tokenB] += amountB */\n      dup3\n      dup3\n      sload\n      tag_251\n      swap2\n      swap1\n      tag_109\n      jump\t// in\n    tag_251:\n      swap3\n      pop\n      pop\n      dup2\n      swap1\n      sstore\n      pop\n        /* \"contracts/SimpleSwapTP.sol\":5189:5215  _mint(to, liquidityTokens) */\n      tag_252\n        /* \"contracts/SimpleSwapTP.sol\":5195:5197  to */\n      dup8\n        /* \"contracts/SimpleSwapTP.sol\":5199:5214  liquidityTokens */\n      dup5\n        /* \"contracts/SimpleSwapTP.sol\":5189:5194  _mint */\n      tag_253\n        /* \"contracts/SimpleSwapTP.sol\":5189:5215  _mint(to, liquidityTokens) */\n      jump\t// in\n    tag_252:\n        /* \"contracts/SimpleSwapTP.sol\":3538:5223  {... */\n      pop\n      pop\n        /* \"contracts/SimpleSwapTP.sol\":3234:5223  function addLiquidity(... */\n      swap9\n      pop\n      swap9\n      pop\n      swap9\n      swap6\n      pop\n      pop\n      pop\n      pop\n      pop\n      pop\n      jump\t// out\n        /* \"contracts/SimpleSwapTP.sol\":2342:2605  function _burn(address from, uint256 amount) internal {... */\n    tag_189:\n        /* \"contracts/SimpleSwapTP.sol\":2434:2440  amount */\n      dup1\n        /* \"contracts/SimpleSwapTP.sol\":2415:2424  balanceOf */\n      0x03\n        /* \"contracts/SimpleSwapTP.sol\":2415:2430  balanceOf[from] */\n      0x00\n        /* \"contracts/SimpleSwapTP.sol\":2425:2429  from */\n      dup5\n        /* \"contracts/SimpleSwapTP.sol\":2415:2430  balanceOf[from] */\n      0xffffffffffffffffffffffffffffffffffffffff\n      and\n      0xffffffffffffffffffffffffffffffffffffffff\n      and\n      dup2\n      mstore\n      0x20\n      add\n      swap1\n      dup2\n      mstore\n      0x20\n      add\n      0x00\n      keccak256\n      sload\n        /* \"contracts/SimpleSwapTP.sol\":2415:2440  balanceOf[from] >= amount */\n      lt\n      iszero\n        /* \"contracts/SimpleSwapTP.sol\":2407:2479  require(balanceOf[from] >= amount, \"ERC20: burn amount exceeds balance\") */\n      tag_255\n      jumpi\n      mload(0x40)\n      0x08c379a000000000000000000000000000000000000000000000000000000000\n      dup2\n      mstore\n      0x04\n      add\n      tag_256\n      swap1\n      tag_257\n      jump\t// in\n    tag_256:\n      mload(0x40)\n      dup1\n      swap2\n      sub\n      swap1\n      revert\n    tag_255:\n        /* \"contracts/SimpleSwapTP.sol\":2509:2515  amount */\n      dup1\n        /* \"contracts/SimpleSwapTP.sol\":2490:2499  balanceOf */\n      0x03\n        /* \"contracts/SimpleSwapTP.sol\":2490:2505  balanceOf[from] */\n      0x00\n        /* \"contracts/SimpleSwapTP.sol\":2500:2504  from */\n      dup5\n        /* \"contracts/SimpleSwapTP.sol\":2490:2505  balanceOf[from] */\n      0xffffffffffffffffffffffffffffffffffffffff\n      and\n      0xffffffffffffffffffffffffffffffffffffffff\n      and\n      dup2\n      mstore\n      0x20\n      add\n      swap1\n      dup2\n      mstore\n      0x20\n      add\n      0x00\n      keccak256\n      0x00\n        /* \"contracts/SimpleSwapTP.sol\":2490:2515  balanceOf[from] -= amount */\n      dup3\n      dup3\n      sload\n      tag_258\n      swap2\n      swap1\n      tag_106\n      jump\t// in\n    tag_258:\n      swap3\n      pop\n      pop\n      dup2\n      swap1\n      sstore\n      pop\n        /* \"contracts/SimpleSwapTP.sol\":2541:2547  amount */\n      dup1\n        /* \"contracts/SimpleSwapTP.sol\":2526:2537  totalSupply */\n      0x02\n      0x00\n        /* \"contracts/SimpleSwapTP.sol\":2526:2547  totalSupply -= amount */\n      dup3\n      dup3\n      sload\n      tag_259\n      swap2\n      swap1\n      tag_106\n      jump\t// in\n    tag_259:\n      swap3\n      pop\n      pop\n      dup2\n      swap1\n      sstore\n      pop\n        /* \"contracts/SimpleSwapTP.sol\":2586:2587  0 */\n      0x00\n        /* \"contracts/SimpleSwapTP.sol\":2563:2597  Transfer(from, address(0), amount) */\n      0xffffffffffffffffffffffffffffffffffffffff\n      and\n        /* \"contracts/SimpleSwapTP.sol\":2572:2576  from */\n      dup3\n        /* \"contracts/SimpleSwapTP.sol\":2563:2597  Transfer(from, address(0), amount) */\n      0xffffffffffffffffffffffffffffffffffffffff\n      and\n      0xddf252ad1be2c89b69c2b068fc378daa952ba7f163c4a11628f55a4df523b3ef\n        /* \"contracts/SimpleSwapTP.sol\":2590:2596  amount */\n      dup4\n        /* \"contracts/SimpleSwapTP.sol\":2563:2597  Transfer(from, address(0), amount) */\n      mload(0x40)\n      tag_260\n      swap2\n      swap1\n      tag_34\n      jump\t// in\n    tag_260:\n      mload(0x40)\n      dup1\n      swap2\n      sub\n      swap1\n      log3\n        /* \"contracts/SimpleSwapTP.sol\":2342:2605  function _burn(address from, uint256 amount) internal {... */\n      pop\n      pop\n      jump\t// out\n        /* \"contracts/SimpleSwapTP.sol\":7604:7907  function sqrt(uint y) internal pure returns (uint z) {... */\n    tag_215:\n        /* \"contracts/SimpleSwapTP.sol\":7649:7655  uint z */\n      0x00\n        /* \"contracts/SimpleSwapTP.sol\":7676:7677  3 */\n      0x03\n        /* \"contracts/SimpleSwapTP.sol\":7672:7673  y */\n      dup3\n        /* \"contracts/SimpleSwapTP.sol\":7672:7677  y > 3 */\n      gt\n        /* \"contracts/SimpleSwapTP.sol\":7668:7900  if (y > 3) {... */\n      iszero\n      tag_262\n      jumpi\n        /* \"contracts/SimpleSwapTP.sol\":7698:7699  y */\n      dup2\n        /* \"contracts/SimpleSwapTP.sol\":7694:7699  z = y */\n      swap1\n      pop\n        /* \"contracts/SimpleSwapTP.sol\":7714:7720  uint x */\n      0x00\n        /* \"contracts/SimpleSwapTP.sol\":7731:7732  1 */\n      0x01\n        /* \"contracts/SimpleSwapTP.sol\":7727:7728  2 */\n      0x02\n        /* \"contracts/SimpleSwapTP.sol\":7723:7724  y */\n      dup5\n        /* \"contracts/SimpleSwapTP.sol\":7723:7728  y / 2 */\n      tag_263\n      swap2\n      swap1\n      tag_139\n      jump\t// in\n    tag_263:\n        /* \"contracts/SimpleSwapTP.sol\":7723:7732  y / 2 + 1 */\n      tag_264\n      swap2\n      swap1\n      tag_109\n      jump\t// in\n    tag_264:\n        /* \"contracts/SimpleSwapTP.sol\":7714:7732  uint x = y / 2 + 1 */\n      swap1\n      pop\n        /* \"contracts/SimpleSwapTP.sol\":7747:7839  while (x < z) {... */\n    tag_265:\n        /* \"contracts/SimpleSwapTP.sol\":7758:7759  z */\n      dup2\n        /* \"contracts/SimpleSwapTP.sol\":7754:7755  x */\n      dup2\n        /* \"contracts/SimpleSwapTP.sol\":7754:7759  x < z */\n      lt\n        /* \"contracts/SimpleSwapTP.sol\":7747:7839  while (x < z) {... */\n      iszero\n      tag_266\n      jumpi\n        /* \"contracts/SimpleSwapTP.sol\":7784:7785  x */\n      dup1\n        /* \"contracts/SimpleSwapTP.sol\":7780:7785  z = x */\n      swap2\n      pop\n        /* \"contracts/SimpleSwapTP.sol\":7822:7823  2 */\n      0x02\n        /* \"contracts/SimpleSwapTP.sol\":7817:7818  x */\n      dup2\n        /* \"contracts/SimpleSwapTP.sol\":7813:7814  x */\n      dup3\n        /* \"contracts/SimpleSwapTP.sol\":7809:7810  y */\n      dup6\n        /* \"contracts/SimpleSwapTP.sol\":7809:7814  y / x */\n      tag_267\n      swap2\n      swap1\n      tag_139\n      jump\t// in\n    tag_267:\n        /* \"contracts/SimpleSwapTP.sol\":7809:7818  y / x + x */\n      tag_268\n      swap2\n      swap1\n      tag_109\n      jump\t// in\n    tag_268:\n        /* \"contracts/SimpleSwapTP.sol\":7808:7823  (y / x + x) / 2 */\n      tag_269\n      swap2\n      swap1\n      tag_139\n      jump\t// in\n    tag_269:\n        /* \"contracts/SimpleSwapTP.sol\":7804:7823  x = (y / x + x) / 2 */\n      swap1\n      pop\n        /* \"contracts/SimpleSwapTP.sol\":7747:7839  while (x < z) {... */\n      jump(tag_265)\n    tag_266:\n        /* \"contracts/SimpleSwapTP.sol\":7679:7850  {... */\n      pop\n        /* \"contracts/SimpleSwapTP.sol\":7668:7900  if (y > 3) {... */\n      jump(tag_270)\n    tag_262:\n        /* \"contracts/SimpleSwapTP.sol\":7865:7866  0 */\n      0x00\n        /* \"contracts/SimpleSwapTP.sol\":7860:7861  y */\n      dup3\n        /* \"contracts/SimpleSwapTP.sol\":7860:7866  y != 0 */\n      eq\n        /* \"contracts/SimpleSwapTP.sol\":7856:7900  if (y != 0) {... */\n      tag_271\n      jumpi\n        /* \"contracts/SimpleSwapTP.sol\":7887:7888  1 */\n      0x01\n        /* \"contracts/SimpleSwapTP.sol\":7883:7888  z = 1 */\n      swap1\n      pop\n        /* \"contracts/SimpleSwapTP.sol\":7856:7900  if (y != 0) {... */\n    tag_271:\n        /* \"contracts/SimpleSwapTP.sol\":7668:7900  if (y > 3) {... */\n    tag_270:\n        /* \"contracts/SimpleSwapTP.sol\":7604:7907  function sqrt(uint y) internal pure returns (uint z) {... */\n      swap2\n      swap1\n      pop\n      jump\t// out\n        /* \"contracts/SimpleSwapTP.sol\":7915:8012  function min(uint x, uint y) internal pure returns (uint) {... */\n    tag_237:\n        /* \"contracts/SimpleSwapTP.sol\":7967:7971  uint */\n      0x00\n        /* \"contracts/SimpleSwapTP.sol\":7995:7996  y */\n      dup2\n        /* \"contracts/SimpleSwapTP.sol\":7991:7992  x */\n      dup4\n        /* \"contracts/SimpleSwapTP.sol\":7991:7996  x < y */\n      lt\n        /* \"contracts/SimpleSwapTP.sol\":7991:8004  x < y ? x : y */\n      tag_273\n      jumpi\n        /* \"contracts/SimpleSwapTP.sol\":8003:8004  y */\n      dup2\n        /* \"contracts/SimpleSwapTP.sol\":7991:8004  x < y ? x : y */\n      jump(tag_274)\n    tag_273:\n        /* \"contracts/SimpleSwapTP.sol\":7999:8000  x */\n      dup3\n        /* \"contracts/SimpleSwapTP.sol\":7991:8004  x < y ? x : y */\n    tag_274:\n        /* \"contracts/SimpleSwapTP.sol\":7984:8004  return x < y ? x : y */\n      swap1\n      pop\n        /* \"contracts/SimpleSwapTP.sol\":7915:8012  function min(uint x, uint y) internal pure returns (uint) {... */\n      swap3\n      swap2\n      pop\n      pop\n      jump\t// out\n        /* \"contracts/SimpleSwapTP.sol\":2160:2334  function _mint(address to, uint256 amount) internal {... */\n    tag_253:\n        /* \"contracts/SimpleSwapTP.sol\":2238:2244  amount */\n      dup1\n        /* \"contracts/SimpleSwapTP.sol\":2223:2234  totalSupply */\n      0x02\n      0x00\n        /* \"contracts/SimpleSwapTP.sol\":2223:2244  totalSupply += amount */\n      dup3\n      dup3\n      sload\n      tag_276\n      swap2\n      swap1\n      tag_109\n      jump\t// in\n    tag_276:\n      swap3\n      pop\n      pop\n      dup2\n      swap1\n      sstore\n      pop\n        /* \"contracts/SimpleSwapTP.sol\":2272:2278  amount */\n      dup1\n        /* \"contracts/SimpleSwapTP.sol\":2255:2264  balanceOf */\n      0x03\n        /* \"contracts/SimpleSwapTP.sol\":2255:2268  balanceOf[to] */\n      0x00\n        /* \"contracts/SimpleSwapTP.sol\":2265:2267  to */\n      dup5\n        /* \"contracts/SimpleSwapTP.sol\":2255:2268  balanceOf[to] */\n      0xffffffffffffffffffffffffffffffffffffffff\n      and\n      0xffffffffffffffffffffffffffffffffffffffff\n      and\n      dup2\n      mstore\n      0x20\n      add\n      swap1\n      dup2\n      mstore\n      0x20\n      add\n      0x00\n      keccak256\n      0x00\n        /* \"contracts/SimpleSwapTP.sol\":2255:2278  balanceOf[to] += amount */\n      dup3\n      dup3\n      sload\n      tag_277\n      swap2\n      swap1\n      tag_109\n      jump\t// in\n    tag_277:\n      swap3\n      pop\n      pop\n      dup2\n      swap1\n      sstore\n      pop\n        /* \"contracts/SimpleSwapTP.sol\":2315:2317  to */\n      dup2\n        /* \"contracts/SimpleSwapTP.sol\":2294:2326  Transfer(address(0), to, amount) */\n      0xffffffffffffffffffffffffffffffffffffffff\n      and\n        /* \"contracts/SimpleSwapTP.sol\":2311:2312  0 */\n      0x00\n        /* \"contracts/SimpleSwapTP.sol\":2294:2326  Transfer(address(0), to, amount) */\n      0xffffffffffffffffffffffffffffffffffffffff\n      and\n      0xddf252ad1be2c89b69c2b068fc378daa952ba7f163c4a11628f55a4df523b3ef\n        /* \"contracts/SimpleSwapTP.sol\":2319:2325  amount */\n      dup4\n        /* \"contracts/SimpleSwapTP.sol\":2294:2326  Transfer(address(0), to, amount) */\n      mload(0x40)\n      tag_278\n      swap2\n      swap1\n      tag_34\n      jump\t// in\n    tag_278:\n      mload(0x40)\n      dup1\n      swap2\n      sub\n      swap1\n      log3\n        /* \"contracts/SimpleSwapTP.sol\":2160:2334  function _mint(address to, uint256 amount) internal {... */\n      pop\n      pop\n      jump\t// out\n        /* \"#utility.yul\":7:106   */\n    tag_279:\n        /* \"#utility.yul\":59:65   */\n      0x00\n        /* \"#utility.yul\":93:98   */\n      dup2\n        /* \"#utility.yul\":87:99   */\n      mload\n        /* \"#utility.yul\":77:99   */\n      swap1\n      pop\n        /* \"#utility.yul\":7:106   */\n      swap2\n      swap1\n      pop\n      jump\t// out\n        /* \"#utility.yul\":112:281   */\n    tag_280:\n        /* \"#utility.yul\":196:207   */\n      0x00\n        /* \"#utility.yul\":230:236   */\n      dup3\n        /* \"#utility.yul\":225:228   */\n      dup3\n        /* \"#utility.yul\":218:237   */\n      mstore\n        /* \"#utility.yul\":270:274   */\n      0x20\n        /* \"#utility.yul\":265:268   */\n      dup3\n        /* \"#utility.yul\":261:275   */\n      add\n        /* \"#utility.yul\":246:275   */\n      swap1\n      pop\n        /* \"#utility.yul\":112:281   */\n      swap3\n      swap2\n      pop\n      pop\n      jump\t// out\n        /* \"#utility.yul\":287:426   */\n    tag_281:\n        /* \"#utility.yul\":376:382   */\n      dup3\n        /* \"#utility.yul\":371:374   */\n      dup2\n        /* \"#utility.yul\":366:369   */\n      dup4\n        /* \"#utility.yul\":360:383   */\n      mcopy\n        /* \"#utility.yul\":417:418   */\n      0x00\n        /* \"#utility.yul\":408:414   */\n      dup4\n        /* \"#utility.yul\":403:406   */\n      dup4\n        /* \"#utility.yul\":399:415   */\n      add\n        /* \"#utility.yul\":392:419   */\n      mstore\n        /* \"#utility.yul\":287:426   */\n      pop\n      pop\n      pop\n      jump\t// out\n        /* \"#utility.yul\":432:534   */\n    tag_282:\n        /* \"#utility.yul\":473:479   */\n      0x00\n        /* \"#utility.yul\":524:526   */\n      0x1f\n        /* \"#utility.yul\":520:527   */\n      not\n        /* \"#utility.yul\":515:517   */\n      0x1f\n        /* \"#utility.yul\":508:513   */\n      dup4\n        /* \"#utility.yul\":504:518   */\n      add\n        /* \"#utility.yul\":500:528   */\n      and\n        /* \"#utility.yul\":490:528   */\n      swap1\n      pop\n        /* \"#utility.yul\":432:534   */\n      swap2\n      swap1\n      pop\n      jump\t// out\n        /* \"#utility.yul\":540:917   */\n    tag_283:\n        /* \"#utility.yul\":628:631   */\n      0x00\n        /* \"#utility.yul\":656:695   */\n      tag_354\n        /* \"#utility.yul\":689:694   */\n      dup3\n        /* \"#utility.yul\":656:695   */\n      tag_279\n      jump\t// in\n    tag_354:\n        /* \"#utility.yul\":711:782   */\n      tag_355\n        /* \"#utility.yul\":775:781   */\n      dup2\n        /* \"#utility.yul\":770:773   */\n      dup6\n        /* \"#utility.yul\":711:782   */\n      tag_280\n      jump\t// in\n    tag_355:\n        /* \"#utility.yul\":704:782   */\n      swap4\n      pop\n        /* \"#utility.yul\":791:856   */\n      tag_356\n        /* \"#utility.yul\":849:855   */\n      dup2\n        /* \"#utility.yul\":844:847   */\n      dup6\n        /* \"#utility.yul\":837:841   */\n      0x20\n        /* \"#utility.yul\":830:835   */\n      dup7\n        /* \"#utility.yul\":826:842   */\n      add\n        /* \"#utility.yul\":791:856   */\n      tag_281\n      jump\t// in\n    tag_356:\n        /* \"#utility.yul\":881:910   */\n      tag_357\n        /* \"#utility.yul\":903:909   */\n      dup2\n        /* \"#utility.yul\":881:910   */\n      tag_282\n      jump\t// in\n    tag_357:\n        /* \"#utility.yul\":876:879   */\n      dup5\n        /* \"#utility.yul\":872:911   */\n      add\n        /* \"#utility.yul\":865:911   */\n      swap2\n      pop\n        /* \"#utility.yul\":632:917   */\n      pop\n        /* \"#utility.yul\":540:917   */\n      swap3\n      swap2\n      pop\n      pop\n      jump\t// out\n        /* \"#utility.yul\":923:1236   */\n    tag_24:\n        /* \"#utility.yul\":1036:1040   */\n      0x00\n        /* \"#utility.yul\":1074:1076   */\n      0x20\n        /* \"#utility.yul\":1063:1072   */\n      dup3\n        /* \"#utility.yul\":1059:1077   */\n      add\n        /* \"#utility.yul\":1051:1077   */\n      swap1\n      pop\n        /* \"#utility.yul\":1123:1132   */\n      dup2\n        /* \"#utility.yul\":1117:1121   */\n      dup2\n        /* \"#utility.yul\":1113:1133   */\n      sub\n        /* \"#utility.yul\":1109:1110   */\n      0x00\n        /* \"#utility.yul\":1098:1107   */\n      dup4\n        /* \"#utility.yul\":1094:1111   */\n      add\n        /* \"#utility.yul\":1087:1134   */\n      mstore\n        /* \"#utility.yul\":1151:1229   */\n      tag_359\n        /* \"#utility.yul\":1224:1228   */\n      dup2\n        /* \"#utility.yul\":1215:1221   */\n      dup5\n        /* \"#utility.yul\":1151:1229   */\n      tag_283\n      jump\t// in\n    tag_359:\n        /* \"#utility.yul\":1143:1229   */\n      swap1\n      pop\n        /* \"#utility.yul\":923:1236   */\n      swap3\n      swap2\n      pop\n      pop\n      jump\t// out\n        /* \"#utility.yul\":1323:1440   */\n    tag_285:\n        /* \"#utility.yul\":1432:1433   */\n      0x00\n        /* \"#utility.yul\":1429:1430   */\n      0x00\n        /* \"#utility.yul\":1422:1434   */\n      revert\n        /* \"#utility.yul\":1446:1563   */\n    tag_286:\n        /* \"#utility.yul\":1555:1556   */\n      0x00\n        /* \"#utility.yul\":1552:1553   */\n      0x00\n        /* \"#utility.yul\":1545:1557   */\n      revert\n        /* \"#utility.yul\":1569:1695   */\n    tag_287:\n        /* \"#utility.yul\":1606:1613   */\n      0x00\n        /* \"#utility.yul\":1646:1688   */\n      0xffffffffffffffffffffffffffffffffffffffff\n        /* \"#utility.yul\":1639:1644   */\n      dup3\n        /* \"#utility.yul\":1635:1689   */\n      and\n        /* \"#utility.yul\":1624:1689   */\n      swap1\n      pop\n        /* \"#utility.yul\":1569:1695   */\n      swap2\n      swap1\n      pop\n      jump\t// out\n        /* \"#utility.yul\":1701:1797   */\n    tag_288:\n        /* \"#utility.yul\":1738:1745   */\n      0x00\n        /* \"#utility.yul\":1767:1791   */\n      tag_365\n        /* \"#utility.yul\":1785:1790   */\n      dup3\n        /* \"#utility.yul\":1767:1791   */\n      tag_287\n      jump\t// in\n    tag_365:\n        /* \"#utility.yul\":1756:1791   */\n      swap1\n      pop\n        /* \"#utility.yul\":1701:1797   */\n      swap2\n      swap1\n      pop\n      jump\t// out\n        /* \"#utility.yul\":1803:1925   */\n    tag_289:\n        /* \"#utility.yul\":1876:1900   */\n      tag_367\n        /* \"#utility.yul\":1894:1899   */\n      dup2\n        /* \"#utility.yul\":1876:1900   */\n      tag_288\n      jump\t// in\n    tag_367:\n        /* \"#utility.yul\":1869:1874   */\n      dup2\n        /* \"#utility.yul\":1866:1901   */\n      eq\n        /* \"#utility.yul\":1856:1919   */\n      tag_368\n      jumpi\n        /* \"#utility.yul\":1915:1916   */\n      0x00\n        /* \"#utility.yul\":1912:1913   */\n      0x00\n        /* \"#utility.yul\":1905:1917   */\n      revert\n        /* \"#utility.yul\":1856:1919   */\n    tag_368:\n        /* \"#utility.yul\":1803:1925   */\n      pop\n      jump\t// out\n        /* \"#utility.yul\":1931:2070   */\n    tag_290:\n        /* \"#utility.yul\":1977:1982   */\n      0x00\n        /* \"#utility.yul\":2015:2021   */\n      dup2\n        /* \"#utility.yul\":2002:2022   */\n      calldataload\n        /* \"#utility.yul\":1993:2022   */\n      swap1\n      pop\n        /* \"#utility.yul\":2031:2064   */\n      tag_370\n        /* \"#utility.yul\":2058:2063   */\n      dup2\n        /* \"#utility.yul\":2031:2064   */\n      tag_289\n      jump\t// in\n    tag_370:\n        /* \"#utility.yul\":1931:2070   */\n      swap3\n      swap2\n      pop\n      pop\n      jump\t// out\n        /* \"#utility.yul\":2076:2153   */\n    tag_291:\n        /* \"#utility.yul\":2113:2120   */\n      0x00\n        /* \"#utility.yul\":2142:2147   */\n      dup2\n        /* \"#utility.yul\":2131:2147   */\n      swap1\n      pop\n        /* \"#utility.yul\":2076:2153   */\n      swap2\n      swap1\n      pop\n      jump\t// out\n        /* \"#utility.yul\":2159:2281   */\n    tag_292:\n        /* \"#utility.yul\":2232:2256   */\n      tag_373\n        /* \"#utility.yul\":2250:2255   */\n      dup2\n        /* \"#utility.yul\":2232:2256   */\n      tag_291\n      jump\t// in\n    tag_373:\n        /* \"#utility.yul\":2225:2230   */\n      dup2\n        /* \"#utility.yul\":2222:2257   */\n      eq\n        /* \"#utility.yul\":2212:2275   */\n      tag_374\n      jumpi\n        /* \"#utility.yul\":2271:2272   */\n      0x00\n        /* \"#utility.yul\":2268:2269   */\n      0x00\n        /* \"#utility.yul\":2261:2273   */\n      revert\n        /* \"#utility.yul\":2212:2275   */\n    tag_374:\n        /* \"#utility.yul\":2159:2281   */\n      pop\n      jump\t// out\n        /* \"#utility.yul\":2287:2426   */\n    tag_293:\n        /* \"#utility.yul\":2333:2338   */\n      0x00\n        /* \"#utility.yul\":2371:2377   */\n      dup2\n        /* \"#utility.yul\":2358:2378   */\n      calldataload\n        /* \"#utility.yul\":2349:2378   */\n      swap1\n      pop\n        /* \"#utility.yul\":2387:2420   */\n      tag_376\n        /* \"#utility.yul\":2414:2419   */\n      dup2\n        /* \"#utility.yul\":2387:2420   */\n      tag_292\n      jump\t// in\n    tag_376:\n        /* \"#utility.yul\":2287:2426   */\n      swap3\n      swap2\n      pop\n      pop\n      jump\t// out\n        /* \"#utility.yul\":2432:2906   */\n    tag_27:\n        /* \"#utility.yul\":2500:2506   */\n      0x00\n        /* \"#utility.yul\":2508:2514   */\n      0x00\n        /* \"#utility.yul\":2557:2559   */\n      0x40\n        /* \"#utility.yul\":2545:2554   */\n      dup4\n        /* \"#utility.yul\":2536:2543   */\n      dup6\n        /* \"#utility.yul\":2532:2555   */\n      sub\n        /* \"#utility.yul\":2528:2560   */\n      slt\n        /* \"#utility.yul\":2525:2644   */\n      iszero\n      tag_378\n      jumpi\n        /* \"#utility.yul\":2563:2642   */\n      tag_379\n      tag_285\n      jump\t// in\n    tag_379:\n        /* \"#utility.yul\":2525:2644   */\n    tag_378:\n        /* \"#utility.yul\":2683:2684   */\n      0x00\n        /* \"#utility.yul\":2708:2761   */\n      tag_380\n        /* \"#utility.yul\":2753:2760   */\n      dup6\n        /* \"#utility.yul\":2744:2750   */\n      dup3\n        /* \"#utility.yul\":2733:2742   */\n      dup7\n        /* \"#utility.yul\":2729:2751   */\n      add\n        /* \"#utility.yul\":2708:2761   */\n      tag_290\n      jump\t// in\n    tag_380:\n        /* \"#utility.yul\":2698:2761   */\n      swap3\n      pop\n        /* \"#utility.yul\":2654:2771   */\n      pop\n        /* \"#utility.yul\":2810:2812   */\n      0x20\n        /* \"#utility.yul\":2836:2889   */\n      tag_381\n        /* \"#utility.yul\":2881:2888   */\n      dup6\n        /* \"#utility.yul\":2872:2878   */\n      dup3\n        /* \"#utility.yul\":2861:2870   */\n      dup7\n        /* \"#utility.yul\":2857:2879   */\n      add\n        /* \"#utility.yul\":2836:2889   */\n      tag_293\n      jump\t// in\n    tag_381:\n        /* \"#utility.yul\":2826:2889   */\n      swap2\n      pop\n        /* \"#utility.yul\":2781:2899   */\n      pop\n        /* \"#utility.yul\":2432:2906   */\n      swap3\n      pop\n      swap3\n      swap1\n      pop\n      jump\t// out\n        /* \"#utility.yul\":2912:3002   */\n    tag_294:\n        /* \"#utility.yul\":2946:2953   */\n      0x00\n        /* \"#utility.yul\":2989:2994   */\n      dup2\n        /* \"#utility.yul\":2982:2995   */\n      iszero\n        /* \"#utility.yul\":2975:2996   */\n      iszero\n        /* \"#utility.yul\":2964:2996   */\n      swap1\n      pop\n        /* \"#utility.yul\":2912:3002   */\n      swap2\n      swap1\n      pop\n      jump\t// out\n        /* \"#utility.yul\":3008:3117   */\n    tag_295:\n        /* \"#utility.yul\":3089:3110   */\n      tag_384\n        /* \"#utility.yul\":3104:3109   */\n      dup2\n        /* \"#utility.yul\":3089:3110   */\n      tag_294\n      jump\t// in\n    tag_384:\n        /* \"#utility.yul\":3084:3087   */\n      dup3\n        /* \"#utility.yul\":3077:3111   */\n      mstore\n        /* \"#utility.yul\":3008:3117   */\n      pop\n      pop\n      jump\t// out\n        /* \"#utility.yul\":3123:3333   */\n    tag_30:\n        /* \"#utility.yul\":3210:3214   */\n      0x00\n        /* \"#utility.yul\":3248:3250   */\n      0x20\n        /* \"#utility.yul\":3237:3246   */\n      dup3\n        /* \"#utility.yul\":3233:3251   */\n      add\n        /* \"#utility.yul\":3225:3251   */\n      swap1\n      pop\n        /* \"#utility.yul\":3261:3326   */\n      tag_386\n        /* \"#utility.yul\":3323:3324   */\n      0x00\n        /* \"#utility.yul\":3312:3321   */\n      dup4\n        /* \"#utility.yul\":3308:3325   */\n      add\n        /* \"#utility.yul\":3299:3305   */\n      dup5\n        /* \"#utility.yul\":3261:3326   */\n      tag_295\n      jump\t// in\n    tag_386:\n        /* \"#utility.yul\":3123:3333   */\n      swap3\n      swap2\n      pop\n      pop\n      jump\t// out\n        /* \"#utility.yul\":3339:3457   */\n    tag_296:\n        /* \"#utility.yul\":3426:3450   */\n      tag_388\n        /* \"#utility.yul\":3444:3449   */\n      dup2\n        /* \"#utility.yul\":3426:3450   */\n      tag_291\n      jump\t// in\n    tag_388:\n        /* \"#utility.yul\":3421:3424   */\n      dup3\n        /* \"#utility.yul\":3414:3451   */\n      mstore\n        /* \"#utility.yul\":3339:3457   */\n      pop\n      pop\n      jump\t// out\n        /* \"#utility.yul\":3463:3685   */\n    tag_34:\n        /* \"#utility.yul\":3556:3560   */\n      0x00\n        /* \"#utility.yul\":3594:3596   */\n      0x20\n        /* \"#utility.yul\":3583:3592   */\n      dup3\n        /* \"#utility.yul\":3579:3597   */\n      add\n        /* \"#utility.yul\":3571:3597   */\n      swap1\n      pop\n        /* \"#utility.yul\":3607:3678   */\n      tag_390\n        /* \"#utility.yul\":3675:3676   */\n      0x00\n        /* \"#utility.yul\":3664:3673   */\n      dup4\n        /* \"#utility.yul\":3660:3677   */\n      add\n        /* \"#utility.yul\":3651:3657   */\n      dup5\n        /* \"#utility.yul\":3607:3678   */\n      tag_296\n      jump\t// in\n    tag_390:\n        /* \"#utility.yul\":3463:3685   */\n      swap3\n      swap2\n      pop\n      pop\n      jump\t// out\n        /* \"#utility.yul\":3691:4310   */\n    tag_37:\n        /* \"#utility.yul\":3768:3774   */\n      0x00\n        /* \"#utility.yul\":3776:3782   */\n      0x00\n        /* \"#utility.yul\":3784:3790   */\n      0x00\n        /* \"#utility.yul\":3833:3835   */\n      0x60\n        /* \"#utility.yul\":3821:3830   */\n      dup5\n        /* \"#utility.yul\":3812:3819   */\n      dup7\n        /* \"#utility.yul\":3808:3831   */\n      sub\n        /* \"#utility.yul\":3804:3836   */\n      slt\n        /* \"#utility.yul\":3801:3920   */\n      iszero\n      tag_392\n      jumpi\n        /* \"#utility.yul\":3839:3918   */\n      tag_393\n      tag_285\n      jump\t// in\n    tag_393:\n        /* \"#utility.yul\":3801:3920   */\n    tag_392:\n        /* \"#utility.yul\":3959:3960   */\n      0x00\n        /* \"#utility.yul\":3984:4037   */\n      tag_394\n        /* \"#utility.yul\":4029:4036   */\n      dup7\n        /* \"#utility.yul\":4020:4026   */\n      dup3\n        /* \"#utility.yul\":4009:4018   */\n      dup8\n        /* \"#utility.yul\":4005:4027   */\n      add\n        /* \"#utility.yul\":3984:4037   */\n      tag_290\n      jump\t// in\n    tag_394:\n        /* \"#utility.yul\":3974:4037   */\n      swap4\n      pop\n        /* \"#utility.yul\":3930:4047   */\n      pop\n        /* \"#utility.yul\":4086:4088   */\n      0x20\n        /* \"#utility.yul\":4112:4165   */\n      tag_395\n        /* \"#utility.yul\":4157:4164   */\n      dup7\n        /* \"#utility.yul\":4148:4154   */\n      dup3\n        /* \"#utility.yul\":4137:4146   */\n      dup8\n        /* \"#utility.yul\":4133:4155   */\n      add\n        /* \"#utility.yul\":4112:4165   */\n      tag_290\n      jump\t// in\n    tag_395:\n        /* \"#utility.yul\":4102:4165   */\n      swap3\n      pop\n        /* \"#utility.yul\":4057:4175   */\n      pop\n        /* \"#utility.yul\":4214:4216   */\n      0x40\n        /* \"#utility.yul\":4240:4293   */\n      tag_396\n        /* \"#utility.yul\":4285:4292   */\n      dup7\n        /* \"#utility.yul\":4276:4282   */\n      dup3\n        /* \"#utility.yul\":4265:4274   */\n      dup8\n        /* \"#utility.yul\":4261:4283   */\n      add\n        /* \"#utility.yul\":4240:4293   */\n      tag_293\n      jump\t// in\n    tag_396:\n        /* \"#utility.yul\":4230:4293   */\n      swap2\n      pop\n        /* \"#utility.yul\":4185:4303   */\n      pop\n        /* \"#utility.yul\":3691:4310   */\n      swap3\n      pop\n      swap3\n      pop\n      swap3\n      jump\t// out\n        /* \"#utility.yul\":4316:4402   */\n    tag_297:\n        /* \"#utility.yul\":4351:4358   */\n      0x00\n        /* \"#utility.yul\":4391:4395   */\n      0xff\n        /* \"#utility.yul\":4384:4389   */\n      dup3\n        /* \"#utility.yul\":4380:4396   */\n      and\n        /* \"#utility.yul\":4369:4396   */\n      swap1\n      pop\n        /* \"#utility.yul\":4316:4402   */\n      swap2\n      swap1\n      pop\n      jump\t// out\n        /* \"#utility.yul\":4408:4520   */\n    tag_298:\n        /* \"#utility.yul\":4491:4513   */\n      tag_399\n        /* \"#utility.yul\":4507:4512   */\n      dup2\n        /* \"#utility.yul\":4491:4513   */\n      tag_297\n      jump\t// in\n    tag_399:\n        /* \"#utility.yul\":4486:4489   */\n      dup3\n        /* \"#utility.yul\":4479:4514   */\n      mstore\n        /* \"#utility.yul\":4408:4520   */\n      pop\n      pop\n      jump\t// out\n        /* \"#utility.yul\":4526:4740   */\n    tag_43:\n        /* \"#utility.yul\":4615:4619   */\n      0x00\n        /* \"#utility.yul\":4653:4655   */\n      0x20\n        /* \"#utility.yul\":4642:4651   */\n      dup3\n        /* \"#utility.yul\":4638:4656   */\n      add\n        /* \"#utility.yul\":4630:4656   */\n      swap1\n      pop\n        /* \"#utility.yul\":4666:4733   */\n      tag_401\n        /* \"#utility.yul\":4730:4731   */\n      0x00\n        /* \"#utility.yul\":4719:4728   */\n      dup4\n        /* \"#utility.yul\":4715:4732   */\n      add\n        /* \"#utility.yul\":4706:4712   */\n      dup5\n        /* \"#utility.yul\":4666:4733   */\n      tag_298\n      jump\t// in\n    tag_401:\n        /* \"#utility.yul\":4526:4740   */\n      swap3\n      swap2\n      pop\n      pop\n      jump\t// out\n        /* \"#utility.yul\":4746:4863   */\n    tag_299:\n        /* \"#utility.yul\":4855:4856   */\n      0x00\n        /* \"#utility.yul\":4852:4853   */\n      0x00\n        /* \"#utility.yul\":4845:4857   */\n      revert\n        /* \"#utility.yul\":4869:4986   */\n    tag_300:\n        /* \"#utility.yul\":4978:4979   */\n      0x00\n        /* \"#utility.yul\":4975:4976   */\n      0x00\n        /* \"#utility.yul\":4968:4980   */\n      revert\n        /* \"#utility.yul\":4992:5109   */\n    tag_301:\n        /* \"#utility.yul\":5101:5102   */\n      0x00\n        /* \"#utility.yul\":5098:5099   */\n      0x00\n        /* \"#utility.yul\":5091:5103   */\n      revert\n        /* \"#utility.yul\":5132:5700   */\n    tag_302:\n        /* \"#utility.yul\":5205:5213   */\n      0x00\n        /* \"#utility.yul\":5215:5221   */\n      0x00\n        /* \"#utility.yul\":5265:5268   */\n      dup4\n        /* \"#utility.yul\":5258:5262   */\n      0x1f\n        /* \"#utility.yul\":5250:5256   */\n      dup5\n        /* \"#utility.yul\":5246:5263   */\n      add\n        /* \"#utility.yul\":5242:5269   */\n      slt\n        /* \"#utility.yul\":5232:5354   */\n      tag_406\n      jumpi\n        /* \"#utility.yul\":5273:5352   */\n      tag_407\n      tag_299\n      jump\t// in\n    tag_407:\n        /* \"#utility.yul\":5232:5354   */\n    tag_406:\n        /* \"#utility.yul\":5386:5392   */\n      dup3\n        /* \"#utility.yul\":5373:5393   */\n      calldataload\n        /* \"#utility.yul\":5363:5393   */\n      swap1\n      pop\n        /* \"#utility.yul\":5416:5434   */\n      0xffffffffffffffff\n        /* \"#utility.yul\":5408:5414   */\n      dup2\n        /* \"#utility.yul\":5405:5435   */\n      gt\n        /* \"#utility.yul\":5402:5519   */\n      iszero\n      tag_408\n      jumpi\n        /* \"#utility.yul\":5438:5517   */\n      tag_409\n      tag_300\n      jump\t// in\n    tag_409:\n        /* \"#utility.yul\":5402:5519   */\n    tag_408:\n        /* \"#utility.yul\":5552:5556   */\n      0x20\n        /* \"#utility.yul\":5544:5550   */\n      dup4\n        /* \"#utility.yul\":5540:5557   */\n      add\n        /* \"#utility.yul\":5528:5557   */\n      swap2\n      pop\n        /* \"#utility.yul\":5606:5609   */\n      dup4\n        /* \"#utility.yul\":5598:5602   */\n      0x20\n        /* \"#utility.yul\":5590:5596   */\n      dup3\n        /* \"#utility.yul\":5586:5603   */\n      mul\n        /* \"#utility.yul\":5576:5584   */\n      dup4\n        /* \"#utility.yul\":5572:5604   */\n      add\n        /* \"#utility.yul\":5569:5610   */\n      gt\n        /* \"#utility.yul\":5566:5694   */\n      iszero\n      tag_410\n      jumpi\n        /* \"#utility.yul\":5613:5692   */\n      tag_411\n      tag_301\n      jump\t// in\n    tag_411:\n        /* \"#utility.yul\":5566:5694   */\n    tag_410:\n        /* \"#utility.yul\":5132:5700   */\n      swap3\n      pop\n      swap3\n      swap1\n      pop\n      jump\t// out\n        /* \"#utility.yul\":5706:6847   */\n    tag_46:\n        /* \"#utility.yul\":5828:5834   */\n      0x00\n        /* \"#utility.yul\":5836:5842   */\n      0x00\n        /* \"#utility.yul\":5844:5850   */\n      0x00\n        /* \"#utility.yul\":5852:5858   */\n      0x00\n        /* \"#utility.yul\":5860:5866   */\n      0x00\n        /* \"#utility.yul\":5868:5874   */\n      0x00\n        /* \"#utility.yul\":5917:5920   */\n      0xa0\n        /* \"#utility.yul\":5905:5914   */\n      dup8\n        /* \"#utility.yul\":5896:5903   */\n      dup10\n        /* \"#utility.yul\":5892:5915   */\n      sub\n        /* \"#utility.yul\":5888:5921   */\n      slt\n        /* \"#utility.yul\":5885:6005   */\n      iszero\n      tag_413\n      jumpi\n        /* \"#utility.yul\":5924:6003   */\n      tag_414\n      tag_285\n      jump\t// in\n    tag_414:\n        /* \"#utility.yul\":5885:6005   */\n    tag_413:\n        /* \"#utility.yul\":6044:6045   */\n      0x00\n        /* \"#utility.yul\":6069:6122   */\n      tag_415\n        /* \"#utility.yul\":6114:6121   */\n      dup10\n        /* \"#utility.yul\":6105:6111   */\n      dup3\n        /* \"#utility.yul\":6094:6103   */\n      dup11\n        /* \"#utility.yul\":6090:6112   */\n      add\n        /* \"#utility.yul\":6069:6122   */\n      tag_293\n      jump\t// in\n    tag_415:\n        /* \"#utility.yul\":6059:6122   */\n      swap7\n      pop\n        /* \"#utility.yul\":6015:6132   */\n      pop\n        /* \"#utility.yul\":6171:6173   */\n      0x20\n        /* \"#utility.yul\":6197:6250   */\n      tag_416\n        /* \"#utility.yul\":6242:6249   */\n      dup10\n        /* \"#utility.yul\":6233:6239   */\n      dup3\n        /* \"#utility.yul\":6222:6231   */\n      dup11\n        /* \"#utility.yul\":6218:6240   */\n      add\n        /* \"#utility.yul\":6197:6250   */\n      tag_293\n      jump\t// in\n    tag_416:\n        /* \"#utility.yul\":6187:6250   */\n      swap6\n      pop\n        /* \"#utility.yul\":6142:6260   */\n      pop\n        /* \"#utility.yul\":6327:6329   */\n      0x40\n        /* \"#utility.yul\":6316:6325   */\n      dup8\n        /* \"#utility.yul\":6312:6330   */\n      add\n        /* \"#utility.yul\":6299:6331   */\n      calldataload\n        /* \"#utility.yul\":6358:6376   */\n      0xffffffffffffffff\n        /* \"#utility.yul\":6350:6356   */\n      dup2\n        /* \"#utility.yul\":6347:6377   */\n      gt\n        /* \"#utility.yul\":6344:6461   */\n      iszero\n      tag_417\n      jumpi\n        /* \"#utility.yul\":6380:6459   */\n      tag_418\n      tag_286\n      jump\t// in\n    tag_418:\n        /* \"#utility.yul\":6344:6461   */\n    tag_417:\n        /* \"#utility.yul\":6493:6573   */\n      tag_419\n        /* \"#utility.yul\":6565:6572   */\n      dup10\n        /* \"#utility.yul\":6556:6562   */\n      dup3\n        /* \"#utility.yul\":6545:6554   */\n      dup11\n        /* \"#utility.yul\":6541:6563   */\n      add\n        /* \"#utility.yul\":6493:6573   */\n      tag_302\n      jump\t// in\n    tag_419:\n        /* \"#utility.yul\":6475:6573   */\n      swap5\n      pop\n      swap5\n      pop\n        /* \"#utility.yul\":6270:6583   */\n      pop\n        /* \"#utility.yul\":6622:6624   */\n      0x60\n        /* \"#utility.yul\":6648:6701   */\n      tag_420\n        /* \"#utility.yul\":6693:6700   */\n      dup10\n        /* \"#utility.yul\":6684:6690   */\n      dup3\n        /* \"#utility.yul\":6673:6682   */\n      dup11\n        /* \"#utility.yul\":6669:6691   */\n      add\n        /* \"#utility.yul\":6648:6701   */\n      tag_290\n      jump\t// in\n    tag_420:\n        /* \"#utility.yul\":6638:6701   */\n      swap3\n      pop\n        /* \"#utility.yul\":6593:6711   */\n      pop\n        /* \"#utility.yul\":6750:6753   */\n      0x80\n        /* \"#utility.yul\":6777:6830   */\n      tag_421\n        /* \"#utility.yul\":6822:6829   */\n      dup10\n        /* \"#utility.yul\":6813:6819   */\n      dup3\n        /* \"#utility.yul\":6802:6811   */\n      dup11\n        /* \"#utility.yul\":6798:6820   */\n      add\n        /* \"#utility.yul\":6777:6830   */\n      tag_293\n      jump\t// in\n    tag_421:\n        /* \"#utility.yul\":6767:6830   */\n      swap2\n      pop\n        /* \"#utility.yul\":6721:6840   */\n      pop\n        /* \"#utility.yul\":5706:6847   */\n      swap3\n      swap6\n      pop\n      swap3\n      swap6\n      pop\n      swap3\n      swap6\n      jump\t// out\n        /* \"#utility.yul\":6853:6967   */\n    tag_303:\n        /* \"#utility.yul\":6920:6926   */\n      0x00\n        /* \"#utility.yul\":6954:6959   */\n      dup2\n        /* \"#utility.yul\":6948:6960   */\n      mload\n        /* \"#utility.yul\":6938:6960   */\n      swap1\n      pop\n        /* \"#utility.yul\":6853:6967   */\n      swap2\n      swap1\n      pop\n      jump\t// out\n        /* \"#utility.yul\":6973:7157   */\n    tag_304:\n        /* \"#utility.yul\":7072:7083   */\n      0x00\n        /* \"#utility.yul\":7106:7112   */\n      dup3\n        /* \"#utility.yul\":7101:7104   */\n      dup3\n        /* \"#utility.yul\":7094:7113   */\n      mstore\n        /* \"#utility.yul\":7146:7150   */\n      0x20\n        /* \"#utility.yul\":7141:7144   */\n      dup3\n        /* \"#utility.yul\":7137:7151   */\n      add\n        /* \"#utility.yul\":7122:7151   */\n      swap1\n      pop\n        /* \"#utility.yul\":6973:7157   */\n      swap3\n      swap2\n      pop\n      pop\n      jump\t// out\n        /* \"#utility.yul\":7163:7295   */\n    tag_305:\n        /* \"#utility.yul\":7230:7234   */\n      0x00\n        /* \"#utility.yul\":7253:7256   */\n      dup2\n        /* \"#utility.yul\":7245:7256   */\n      swap1\n      pop\n        /* \"#utility.yul\":7283:7287   */\n      0x20\n        /* \"#utility.yul\":7278:7281   */\n      dup3\n        /* \"#utility.yul\":7274:7288   */\n      add\n        /* \"#utility.yul\":7266:7288   */\n      swap1\n      pop\n        /* \"#utility.yul\":7163:7295   */\n      swap2\n      swap1\n      pop\n      jump\t// out\n        /* \"#utility.yul\":7301:7409   */\n    tag_306:\n        /* \"#utility.yul\":7378:7402   */\n      tag_426\n        /* \"#utility.yul\":7396:7401   */\n      dup2\n        /* \"#utility.yul\":7378:7402   */\n      tag_291\n      jump\t// in\n    tag_426:\n        /* \"#utility.yul\":7373:7376   */\n      dup3\n        /* \"#utility.yul\":7366:7403   */\n      mstore\n        /* \"#utility.yul\":7301:7409   */\n      pop\n      pop\n      jump\t// out\n        /* \"#utility.yul\":7415:7594   */\n    tag_307:\n        /* \"#utility.yul\":7484:7494   */\n      0x00\n        /* \"#utility.yul\":7505:7551   */\n      tag_428\n        /* \"#utility.yul\":7547:7550   */\n      dup4\n        /* \"#utility.yul\":7539:7545   */\n      dup4\n        /* \"#utility.yul\":7505:7551   */\n      tag_306\n      jump\t// in\n    tag_428:\n        /* \"#utility.yul\":7583:7587   */\n      0x20\n        /* \"#utility.yul\":7578:7581   */\n      dup4\n        /* \"#utility.yul\":7574:7588   */\n      add\n        /* \"#utility.yul\":7560:7588   */\n      swap1\n      pop\n        /* \"#utility.yul\":7415:7594   */\n      swap3\n      swap2\n      pop\n      pop\n      jump\t// out\n        /* \"#utility.yul\":7600:7713   */\n    tag_308:\n        /* \"#utility.yul\":7670:7674   */\n      0x00\n        /* \"#utility.yul\":7702:7706   */\n      0x20\n        /* \"#utility.yul\":7697:7700   */\n      dup3\n        /* \"#utility.yul\":7693:7707   */\n      add\n        /* \"#utility.yul\":7685:7707   */\n      swap1\n      pop\n        /* \"#utility.yul\":7600:7713   */\n      swap2\n      swap1\n      pop\n      jump\t// out\n        /* \"#utility.yul\":7749:8481   */\n    tag_309:\n        /* \"#utility.yul\":7868:7871   */\n      0x00\n        /* \"#utility.yul\":7897:7951   */\n      tag_431\n        /* \"#utility.yul\":7945:7950   */\n      dup3\n        /* \"#utility.yul\":7897:7951   */\n      tag_303\n      jump\t// in\n    tag_431:\n        /* \"#utility.yul\":7967:8053   */\n      tag_432\n        /* \"#utility.yul\":8046:8052   */\n      dup2\n        /* \"#utility.yul\":8041:8044   */\n      dup6\n        /* \"#utility.yul\":7967:8053   */\n      tag_304\n      jump\t// in\n    tag_432:\n        /* \"#utility.yul\":7960:8053   */\n      swap4\n      pop\n        /* \"#utility.yul\":8077:8133   */\n      tag_433\n        /* \"#utility.yul\":8127:8132   */\n      dup4\n        /* \"#utility.yul\":8077:8133   */\n      tag_305\n      jump\t// in\n    tag_433:\n        /* \"#utility.yul\":8156:8163   */\n      dup1\n        /* \"#utility.yul\":8187:8188   */\n      0x00\n        /* \"#utility.yul\":8172:8456   */\n    tag_434:\n        /* \"#utility.yul\":8197:8203   */\n      dup4\n        /* \"#utility.yul\":8194:8195   */\n      dup2\n        /* \"#utility.yul\":8191:8204   */\n      lt\n        /* \"#utility.yul\":8172:8456   */\n      iszero\n      tag_436\n      jumpi\n        /* \"#utility.yul\":8273:8279   */\n      dup2\n        /* \"#utility.yul\":8267:8280   */\n      mload\n        /* \"#utility.yul\":8300:8363   */\n      tag_437\n        /* \"#utility.yul\":8359:8362   */\n      dup9\n        /* \"#utility.yul\":8344:8357   */\n      dup3\n        /* \"#utility.yul\":8300:8363   */\n      tag_307\n      jump\t// in\n    tag_437:\n        /* \"#utility.yul\":8293:8363   */\n      swap8\n      pop\n        /* \"#utility.yul\":8386:8446   */\n      tag_438\n        /* \"#utility.yul\":8439:8445   */\n      dup4\n        /* \"#utility.yul\":8386:8446   */\n      tag_308\n      jump\t// in\n    tag_438:\n        /* \"#utility.yul\":8376:8446   */\n      swap3\n      pop\n        /* \"#utility.yul\":8232:8456   */\n      pop\n        /* \"#utility.yul\":8219:8220   */\n      0x01\n        /* \"#utility.yul\":8216:8217   */\n      dup2\n        /* \"#utility.yul\":8212:8221   */\n      add\n        /* \"#utility.yul\":8207:8221   */\n      swap1\n      pop\n        /* \"#utility.yul\":8172:8456   */\n      jump(tag_434)\n    tag_436:\n        /* \"#utility.yul\":8176:8190   */\n      pop\n        /* \"#utility.yul\":8472:8475   */\n      dup6\n        /* \"#utility.yul\":8465:8475   */\n      swap4\n      pop\n        /* \"#utility.yul\":7873:8481   */\n      pop\n      pop\n      pop\n        /* \"#utility.yul\":7749:8481   */\n      swap3\n      swap2\n      pop\n      pop\n      jump\t// out\n        /* \"#utility.yul\":8487:8860   */\n    tag_49:\n        /* \"#utility.yul\":8630:8634   */\n      0x00\n        /* \"#utility.yul\":8668:8670   */\n      0x20\n        /* \"#utility.yul\":8657:8666   */\n      dup3\n        /* \"#utility.yul\":8653:8671   */\n      add\n        /* \"#utility.yul\":8645:8671   */\n      swap1\n      pop\n        /* \"#utility.yul\":8717:8726   */\n      dup2\n        /* \"#utility.yul\":8711:8715   */\n      dup2\n        /* \"#utility.yul\":8707:8727   */\n      sub\n        /* \"#utility.yul\":8703:8704   */\n      0x00\n        /* \"#utility.yul\":8692:8701   */\n      dup4\n        /* \"#utility.yul\":8688:8705   */\n      add\n        /* \"#utility.yul\":8681:8728   */\n      mstore\n        /* \"#utility.yul\":8745:8853   */\n      tag_440\n        /* \"#utility.yul\":8848:8852   */\n      dup2\n        /* \"#utility.yul\":8839:8845   */\n      dup5\n        /* \"#utility.yul\":8745:8853   */\n      tag_309\n      jump\t// in\n    tag_440:\n        /* \"#utility.yul\":8737:8853   */\n      swap1\n      pop\n        /* \"#utility.yul\":8487:8860   */\n      swap3\n      swap2\n      pop\n      pop\n      jump\t// out\n        /* \"#utility.yul\":8866:9195   */\n    tag_52:\n        /* \"#utility.yul\":8925:8931   */\n      0x00\n        /* \"#utility.yul\":8974:8976   */\n      0x20\n        /* \"#utility.yul\":8962:8971   */\n      dup3\n        /* \"#utility.yul\":8953:8960   */\n      dup5\n        /* \"#utility.yul\":8949:8972   */\n      sub\n        /* \"#utility.yul\":8945:8977   */\n      slt\n        /* \"#utility.yul\":8942:9061   */\n      iszero\n      tag_442\n      jumpi\n        /* \"#utility.yul\":8980:9059   */\n      tag_443\n      tag_285\n      jump\t// in\n    tag_443:\n        /* \"#utility.yul\":8942:9061   */\n    tag_442:\n        /* \"#utility.yul\":9100:9101   */\n      0x00\n        /* \"#utility.yul\":9125:9178   */\n      tag_444\n        /* \"#utility.yul\":9170:9177   */\n      dup5\n        /* \"#utility.yul\":9161:9167   */\n      dup3\n        /* \"#utility.yul\":9150:9159   */\n      dup6\n        /* \"#utility.yul\":9146:9168   */\n      add\n        /* \"#utility.yul\":9125:9178   */\n      tag_290\n      jump\t// in\n    tag_444:\n        /* \"#utility.yul\":9115:9178   */\n      swap2\n      pop\n        /* \"#utility.yul\":9071:9188   */\n      pop\n        /* \"#utility.yul\":8866:9195   */\n      swap3\n      swap2\n      pop\n      pop\n      jump\t// out\n        /* \"#utility.yul\":9201:9675   */\n    tag_60:\n        /* \"#utility.yul\":9269:9275   */\n      0x00\n        /* \"#utility.yul\":9277:9283   */\n      0x00\n        /* \"#utility.yul\":9326:9328   */\n      0x40\n        /* \"#utility.yul\":9314:9323   */\n      dup4\n        /* \"#utility.yul\":9305:9312   */\n      dup6\n        /* \"#utility.yul\":9301:9324   */\n      sub\n        /* \"#utility.yul\":9297:9329   */\n      slt\n        /* \"#utility.yul\":9294:9413   */\n      iszero\n      tag_446\n      jumpi\n        /* \"#utility.yul\":9332:9411   */\n      tag_447\n      tag_285\n      jump\t// in\n    tag_447:\n        /* \"#utility.yul\":9294:9413   */\n    tag_446:\n        /* \"#utility.yul\":9452:9453   */\n      0x00\n        /* \"#utility.yul\":9477:9530   */\n      tag_448\n        /* \"#utility.yul\":9522:9529   */\n      dup6\n        /* \"#utility.yul\":9513:9519   */\n      dup3\n        /* \"#utility.yul\":9502:9511   */\n      dup7\n        /* \"#utility.yul\":9498:9520   */\n      add\n        /* \"#utility.yul\":9477:9530   */\n      tag_290\n      jump\t// in\n    tag_448:\n        /* \"#utility.yul\":9467:9530   */\n      swap3\n      pop\n        /* \"#utility.yul\":9423:9540   */\n      pop\n        /* \"#utility.yul\":9579:9581   */\n      0x20\n        /* \"#utility.yul\":9605:9658   */\n      tag_449\n        /* \"#utility.yul\":9650:9657   */\n      dup6\n        /* \"#utility.yul\":9641:9647   */\n      dup3\n        /* \"#utility.yul\":9630:9639   */\n      dup7\n        /* \"#utility.yul\":9626:9648   */\n      add\n        /* \"#utility.yul\":9605:9658   */\n      tag_290\n      jump\t// in\n    tag_449:\n        /* \"#utility.yul\":9595:9658   */\n      swap2\n      pop\n        /* \"#utility.yul\":9550:9668   */\n      pop\n        /* \"#utility.yul\":9201:9675   */\n      swap3\n      pop\n      swap3\n      swap1\n      pop\n      jump\t// out\n        /* \"#utility.yul\":9681:10884   */\n    tag_76:\n        /* \"#utility.yul\":9794:9800   */\n      0x00\n        /* \"#utility.yul\":9802:9808   */\n      0x00\n        /* \"#utility.yul\":9810:9816   */\n      0x00\n        /* \"#utility.yul\":9818:9824   */\n      0x00\n        /* \"#utility.yul\":9826:9832   */\n      0x00\n        /* \"#utility.yul\":9834:9840   */\n      0x00\n        /* \"#utility.yul\":9842:9848   */\n      0x00\n        /* \"#utility.yul\":9891:9894   */\n      0xe0\n        /* \"#utility.yul\":9879:9888   */\n      dup9\n        /* \"#utility.yul\":9870:9877   */\n      dup11\n        /* \"#utility.yul\":9866:9889   */\n      sub\n        /* \"#utility.yul\":9862:9895   */\n      slt\n        /* \"#utility.yul\":9859:9979   */\n      iszero\n      tag_451\n      jumpi\n        /* \"#utility.yul\":9898:9977   */\n      tag_452\n      tag_285\n      jump\t// in\n    tag_452:\n        /* \"#utility.yul\":9859:9979   */\n    tag_451:\n        /* \"#utility.yul\":10018:10019   */\n      0x00\n        /* \"#utility.yul\":10043:10096   */\n      tag_453\n        /* \"#utility.yul\":10088:10095   */\n      dup11\n        /* \"#utility.yul\":10079:10085   */\n      dup3\n        /* \"#utility.yul\":10068:10077   */\n      dup12\n        /* \"#utility.yul\":10064:10086   */\n      add\n        /* \"#utility.yul\":10043:10096   */\n      tag_290\n      jump\t// in\n    tag_453:\n        /* \"#utility.yul\":10033:10096   */\n      swap8\n      pop\n        /* \"#utility.yul\":9989:10106   */\n      pop\n        /* \"#utility.yul\":10145:10147   */\n      0x20\n        /* \"#utility.yul\":10171:10224   */\n      tag_454\n        /* \"#utility.yul\":10216:10223   */\n      dup11\n        /* \"#utility.yul\":10207:10213   */\n      dup3\n        /* \"#utility.yul\":10196:10205   */\n      dup12\n        /* \"#utility.yul\":10192:10214   */\n      add\n        /* \"#utility.yul\":10171:10224   */\n      tag_290\n      jump\t// in\n    tag_454:\n        /* \"#utility.yul\":10161:10224   */\n      swap7\n      pop\n        /* \"#utility.yul\":10116:10234   */\n      pop\n        /* \"#utility.yul\":10273:10275   */\n      0x40\n        /* \"#utility.yul\":10299:10352   */\n      tag_455\n        /* \"#utility.yul\":10344:10351   */\n      dup11\n        /* \"#utility.yul\":10335:10341   */\n      dup3\n        /* \"#utility.yul\":10324:10333   */\n      dup12\n        /* \"#utility.yul\":10320:10342   */\n      add\n        /* \"#utility.yul\":10299:10352   */\n      tag_293\n      jump\t// in\n    tag_455:\n        /* \"#utility.yul\":10289:10352   */\n      swap6\n      pop\n        /* \"#utility.yul\":10244:10362   */\n      pop\n        /* \"#utility.yul\":10401:10403   */\n      0x60\n        /* \"#utility.yul\":10427:10480   */\n      tag_456\n        /* \"#utility.yul\":10472:10479   */\n      dup11\n        /* \"#utility.yul\":10463:10469   */\n      dup3\n        /* \"#utility.yul\":10452:10461   */\n      dup12\n        /* \"#utility.yul\":10448:10470   */\n      add\n        /* \"#utility.yul\":10427:10480   */\n      tag_293\n      jump\t// in\n    tag_456:\n        /* \"#utility.yul\":10417:10480   */\n      swap5\n      pop\n        /* \"#utility.yul\":10372:10490   */\n      pop\n        /* \"#utility.yul\":10529:10532   */\n      0x80\n        /* \"#utility.yul\":10556:10609   */\n      tag_457\n        /* \"#utility.yul\":10601:10608   */\n      dup11\n        /* \"#utility.yul\":10592:10598   */\n      dup3\n        /* \"#utility.yul\":10581:10590   */\n      dup12\n        /* \"#utility.yul\":10577:10599   */\n      add\n        /* \"#utility.yul\":10556:10609   */\n      tag_293\n      jump\t// in\n    tag_457:\n        /* \"#utility.yul\":10546:10609   */\n      swap4\n      pop\n        /* \"#utility.yul\":10500:10619   */\n      pop\n        /* \"#utility.yul\":10658:10661   */\n      0xa0\n        /* \"#utility.yul\":10685:10738   */\n      tag_458\n        /* \"#utility.yul\":10730:10737   */\n      dup11\n        /* \"#utility.yul\":10721:10727   */\n      dup3\n        /* \"#utility.yul\":10710:10719   */\n      dup12\n        /* \"#utility.yul\":10706:10728   */\n      add\n        /* \"#utility.yul\":10685:10738   */\n      tag_290\n      jump\t// in\n    tag_458:\n        /* \"#utility.yul\":10675:10738   */\n      swap3\n      pop\n        /* \"#utility.yul\":10629:10748   */\n      pop\n        /* \"#utility.yul\":10787:10790   */\n      0xc0\n        /* \"#utility.yul\":10814:10867   */\n      tag_459\n        /* \"#utility.yul\":10859:10866   */\n      dup11\n        /* \"#utility.yul\":10850:10856   */\n      dup3\n        /* \"#utility.yul\":10839:10848   */\n      dup12\n        /* \"#utility.yul\":10835:10857   */\n      add\n        /* \"#utility.yul\":10814:10867   */\n      tag_293\n      jump\t// in\n    tag_459:\n        /* \"#utility.yul\":10804:10867   */\n      swap2\n      pop\n        /* \"#utility.yul\":10758:10877   */\n      pop\n        /* \"#utility.yul\":9681:10884   */\n      swap3\n      swap6\n      swap9\n      swap2\n      swap5\n      swap8\n      pop\n      swap3\n      swap6\n      pop\n      jump\t// out\n        /* \"#utility.yul\":10890:11222   */\n    tag_79:\n        /* \"#utility.yul\":11011:11015   */\n      0x00\n        /* \"#utility.yul\":11049:11051   */\n      0x40\n        /* \"#utility.yul\":11038:11047   */\n      dup3\n        /* \"#utility.yul\":11034:11052   */\n      add\n        /* \"#utility.yul\":11026:11052   */\n      swap1\n      pop\n        /* \"#utility.yul\":11062:11133   */\n      tag_461\n        /* \"#utility.yul\":11130:11131   */\n      0x00\n        /* \"#utility.yul\":11119:11128   */\n      dup4\n        /* \"#utility.yul\":11115:11132   */\n      add\n        /* \"#utility.yul\":11106:11112   */\n      dup6\n        /* \"#utility.yul\":11062:11133   */\n      tag_296\n      jump\t// in\n    tag_461:\n        /* \"#utility.yul\":11143:11215   */\n      tag_462\n        /* \"#utility.yul\":11211:11213   */\n      0x20\n        /* \"#utility.yul\":11200:11209   */\n      dup4\n        /* \"#utility.yul\":11196:11214   */\n      add\n        /* \"#utility.yul\":11187:11193   */\n      dup5\n        /* \"#utility.yul\":11143:11215   */\n      tag_296\n      jump\t// in\n    tag_462:\n        /* \"#utility.yul\":10890:11222   */\n      swap4\n      swap3\n      pop\n      pop\n      pop\n      jump\t// out\n        /* \"#utility.yul\":11228:12577   */\n    tag_86:\n        /* \"#utility.yul\":11350:11356   */\n      0x00\n        /* \"#utility.yul\":11358:11364   */\n      0x00\n        /* \"#utility.yul\":11366:11372   */\n      0x00\n        /* \"#utility.yul\":11374:11380   */\n      0x00\n        /* \"#utility.yul\":11382:11388   */\n      0x00\n        /* \"#utility.yul\":11390:11396   */\n      0x00\n        /* \"#utility.yul\":11398:11404   */\n      0x00\n        /* \"#utility.yul\":11406:11412   */\n      0x00\n        /* \"#utility.yul\":11455:11458   */\n      0x0100\n        /* \"#utility.yul\":11443:11452   */\n      dup10\n        /* \"#utility.yul\":11434:11441   */\n      dup12\n        /* \"#utility.yul\":11430:11453   */\n      sub\n        /* \"#utility.yul\":11426:11459   */\n      slt\n        /* \"#utility.yul\":11423:11543   */\n      iszero\n      tag_464\n      jumpi\n        /* \"#utility.yul\":11462:11541   */\n      tag_465\n      tag_285\n      jump\t// in\n    tag_465:\n        /* \"#utility.yul\":11423:11543   */\n    tag_464:\n        /* \"#utility.yul\":11582:11583   */\n      0x00\n        /* \"#utility.yul\":11607:11660   */\n      tag_466\n        /* \"#utility.yul\":11652:11659   */\n      dup12\n        /* \"#utility.yul\":11643:11649   */\n      dup3\n        /* \"#utility.yul\":11632:11641   */\n      dup13\n        /* \"#utility.yul\":11628:11650   */\n      add\n        /* \"#utility.yul\":11607:11660   */\n      tag_290\n      jump\t// in\n    tag_466:\n        /* \"#utility.yul\":11597:11660   */\n      swap9\n      pop\n        /* \"#utility.yul\":11553:11670   */\n      pop\n        /* \"#utility.yul\":11709:11711   */\n      0x20\n        /* \"#utility.yul\":11735:11788   */\n      tag_467\n        /* \"#utility.yul\":11780:11787   */\n      dup12\n        /* \"#utility.yul\":11771:11777   */\n      dup3\n        /* \"#utility.yul\":11760:11769   */\n      dup13\n        /* \"#utility.yul\":11756:11778   */\n      add\n        /* \"#utility.yul\":11735:11788   */\n      tag_290\n      jump\t// in\n    tag_467:\n        /* \"#utility.yul\":11725:11788   */\n      swap8\n      pop\n        /* \"#utility.yul\":11680:11798   */\n      pop\n        /* \"#utility.yul\":11837:11839   */\n      0x40\n        /* \"#utility.yul\":11863:11916   */\n      tag_468\n        /* \"#utility.yul\":11908:11915   */\n      dup12\n        /* \"#utility.yul\":11899:11905   */\n      dup3\n        /* \"#utility.yul\":11888:11897   */\n      dup13\n        /* \"#utility.yul\":11884:11906   */\n      add\n        /* \"#utility.yul\":11863:11916   */\n      tag_293\n      jump\t// in\n    tag_468:\n        /* \"#utility.yul\":11853:11916   */\n      swap7\n      pop\n        /* \"#utility.yul\":11808:11926   */\n      pop\n        /* \"#utility.yul\":11965:11967   */\n      0x60\n        /* \"#utility.yul\":11991:12044   */\n      tag_469\n        /* \"#utility.yul\":12036:12043   */\n      dup12\n        /* \"#utility.yul\":12027:12033   */\n      dup3\n        /* \"#utility.yul\":12016:12025   */\n      dup13\n        /* \"#utility.yul\":12012:12034   */\n      add\n        /* \"#utility.yul\":11991:12044   */\n      tag_293\n      jump\t// in\n    tag_469:\n        /* \"#utility.yul\":11981:12044   */\n      swap6\n      pop\n        /* \"#utility.yul\":11936:12054   */\n      pop\n        /* \"#utility.yul\":12093:12096   */\n      0x80\n        /* \"#utility.yul\":12120:12173   */\n      tag_470\n        /* \"#utility.yul\":12165:12172   */\n      dup12\n        /* \"#utility.yul\":12156:12162   */\n      dup3\n        /* \"#utility.yul\":12145:12154   */\n      dup13\n        /* \"#utility.yul\":12141:12163   */\n      add\n        /* \"#utility.yul\":12120:12173   */\n      tag_293\n      jump\t// in\n    tag_470:\n        /* \"#utility.yul\":12110:12173   */\n      swap5\n      pop\n        /* \"#utility.yul\":12064:12183   */\n      pop\n        /* \"#utility.yul\":12222:12225   */\n      0xa0\n        /* \"#utility.yul\":12249:12302   */\n      tag_471\n        /* \"#utility.yul\":12294:12301   */\n      dup12\n        /* \"#utility.yul\":12285:12291   */\n      dup3\n        /* \"#utility.yul\":12274:12283   */\n      dup13\n        /* \"#utility.yul\":12270:12292   */\n      add\n        /* \"#utility.yul\":12249:12302   */\n      tag_293\n      jump\t// in\n    tag_471:\n        /* \"#utility.yul\":12239:12302   */\n      swap4\n      pop\n        /* \"#utility.yul\":12193:12312   */\n      pop\n        /* \"#utility.yul\":12351:12354   */\n      0xc0\n        /* \"#utility.yul\":12378:12431   */\n      tag_472\n        /* \"#utility.yul\":12423:12430   */\n      dup12\n        /* \"#utility.yul\":12414:12420   */\n      dup3\n        /* \"#utility.yul\":12403:12412   */\n      dup13\n        /* \"#utility.yul\":12399:12421   */\n      add\n        /* \"#utility.yul\":12378:12431   */\n      tag_290\n      jump\t// in\n    tag_472:\n        /* \"#utility.yul\":12368:12431   */\n      swap3\n      pop\n        /* \"#utility.yul\":12322:12441   */\n      pop\n        /* \"#utility.yul\":12480:12483   */\n      0xe0\n        /* \"#utility.yul\":12507:12560   */\n      tag_473\n        /* \"#utility.yul\":12552:12559   */\n      dup12\n        /* \"#utility.yul\":12543:12549   */\n      dup3\n        /* \"#utility.yul\":12532:12541   */\n      dup13\n        /* \"#utility.yul\":12528:12550   */\n      add\n        /* \"#utility.yul\":12507:12560   */\n      tag_293\n      jump\t// in\n    tag_473:\n        /* \"#utility.yul\":12497:12560   */\n      swap2\n      pop\n        /* \"#utility.yul\":12451:12570   */\n      pop\n        /* \"#utility.yul\":11228:12577   */\n      swap3\n      swap6\n      swap9\n      pop\n      swap3\n      swap6\n      swap9\n      swap1\n      swap4\n      swap7\n      pop\n      jump\t// out\n        /* \"#utility.yul\":12583:13025   */\n    tag_89:\n        /* \"#utility.yul\":12732:12736   */\n      0x00\n        /* \"#utility.yul\":12770:12772   */\n      0x60\n        /* \"#utility.yul\":12759:12768   */\n      dup3\n        /* \"#utility.yul\":12755:12773   */\n      add\n        /* \"#utility.yul\":12747:12773   */\n      swap1\n      pop\n        /* \"#utility.yul\":12783:12854   */\n      tag_475\n        /* \"#utility.yul\":12851:12852   */\n      0x00\n        /* \"#utility.yul\":12840:12849   */\n      dup4\n        /* \"#utility.yul\":12836:12853   */\n      add\n        /* \"#utility.yul\":12827:12833   */\n      dup7\n        /* \"#utility.yul\":12783:12854   */\n      tag_296\n      jump\t// in\n    tag_475:\n        /* \"#utility.yul\":12864:12936   */\n      tag_476\n        /* \"#utility.yul\":12932:12934   */\n      0x20\n        /* \"#utility.yul\":12921:12930   */\n      dup4\n        /* \"#utility.yul\":12917:12935   */\n      add\n        /* \"#utility.yul\":12908:12914   */\n      dup6\n        /* \"#utility.yul\":12864:12936   */\n      tag_296\n      jump\t// in\n    tag_476:\n        /* \"#utility.yul\":12946:13018   */\n      tag_477\n        /* \"#utility.yul\":13014:13016   */\n      0x40\n        /* \"#utility.yul\":13003:13012   */\n      dup4\n        /* \"#utility.yul\":12999:13017   */\n      add\n        /* \"#utility.yul\":12990:12996   */\n      dup5\n        /* \"#utility.yul\":12946:13018   */\n      tag_296\n      jump\t// in\n    tag_477:\n        /* \"#utility.yul\":12583:13025   */\n      swap5\n      swap4\n      pop\n      pop\n      pop\n      pop\n      jump\t// out\n        /* \"#utility.yul\":13031:13211   */\n    tag_310:\n        /* \"#utility.yul\":13079:13156   */\n      0x4e487b7100000000000000000000000000000000000000000000000000000000\n        /* \"#utility.yul\":13076:13077   */\n      0x00\n        /* \"#utility.yul\":13069:13157   */\n      mstore\n        /* \"#utility.yul\":13176:13180   */\n      0x22\n        /* \"#utility.yul\":13173:13174   */\n      0x04\n        /* \"#utility.yul\":13166:13181   */\n      mstore\n        /* \"#utility.yul\":13200:13204   */\n      0x24\n        /* \"#utility.yul\":13197:13198   */\n      0x00\n        /* \"#utility.yul\":13190:13205   */\n      revert\n        /* \"#utility.yul\":13217:13537   */\n    tag_91:\n        /* \"#utility.yul\":13261:13267   */\n      0x00\n        /* \"#utility.yul\":13298:13299   */\n      0x02\n        /* \"#utility.yul\":13292:13296   */\n      dup3\n        /* \"#utility.yul\":13288:13300   */\n      div\n        /* \"#utility.yul\":13278:13300   */\n      swap1\n      pop\n        /* \"#utility.yul\":13345:13346   */\n      0x01\n        /* \"#utility.yul\":13339:13343   */\n      dup3\n        /* \"#utility.yul\":13335:13347   */\n      and\n        /* \"#utility.yul\":13366:13384   */\n      dup1\n        /* \"#utility.yul\":13356:13437   */\n      tag_480\n      jumpi\n        /* \"#utility.yul\":13422:13426   */\n      0x7f\n        /* \"#utility.yul\":13414:13420   */\n      dup3\n        /* \"#utility.yul\":13410:13427   */\n      and\n        /* \"#utility.yul\":13400:13427   */\n      swap2\n      pop\n        /* \"#utility.yul\":13356:13437   */\n    tag_480:\n        /* \"#utility.yul\":13484:13486   */\n      0x20\n        /* \"#utility.yul\":13476:13482   */\n      dup3\n        /* \"#utility.yul\":13473:13487   */\n      lt\n        /* \"#utility.yul\":13453:13471   */\n      dup2\n        /* \"#utility.yul\":13450:13488   */\n      sub\n        /* \"#utility.yul\":13447:13531   */\n      tag_481\n      jumpi\n        /* \"#utility.yul\":13503:13521   */\n      tag_482\n      tag_310\n      jump\t// in\n    tag_482:\n        /* \"#utility.yul\":13447:13531   */\n    tag_481:\n        /* \"#utility.yul\":13268:13537   */\n      pop\n        /* \"#utility.yul\":13217:13537   */\n      swap2\n      swap1\n      pop\n      jump\t// out\n        /* \"#utility.yul\":13543:13768   */\n    tag_311:\n        /* \"#utility.yul\":13683:13717   */\n      0x45524332303a207472616e7366657220616d6f756e7420657863656564732062\n        /* \"#utility.yul\":13679:13680   */\n      0x00\n        /* \"#utility.yul\":13671:13677   */\n      dup3\n        /* \"#utility.yul\":13667:13681   */\n      add\n        /* \"#utility.yul\":13660:13718   */\n      mstore\n        /* \"#utility.yul\":13752:13760   */\n      0x616c616e63650000000000000000000000000000000000000000000000000000\n        /* \"#utility.yul\":13747:13749   */\n      0x20\n        /* \"#utility.yul\":13739:13745   */\n      dup3\n        /* \"#utility.yul\":13735:13750   */\n      add\n        /* \"#utility.yul\":13728:13761   */\n      mstore\n        /* \"#utility.yul\":13543:13768   */\n      pop\n      jump\t// out\n        /* \"#utility.yul\":13774:14140   */\n    tag_312:\n        /* \"#utility.yul\":13916:13919   */\n      0x00\n        /* \"#utility.yul\":13937:14004   */\n      tag_485\n        /* \"#utility.yul\":14001:14003   */\n      0x26\n        /* \"#utility.yul\":13996:13999   */\n      dup4\n        /* \"#utility.yul\":13937:14004   */\n      tag_280\n      jump\t// in\n    tag_485:\n        /* \"#utility.yul\":13930:14004   */\n      swap2\n      pop\n        /* \"#utility.yul\":14013:14106   */\n      tag_486\n        /* \"#utility.yul\":14102:14105   */\n      dup3\n        /* \"#utility.yul\":14013:14106   */\n      tag_311\n      jump\t// in\n    tag_486:\n        /* \"#utility.yul\":14131:14133   */\n      0x40\n        /* \"#utility.yul\":14126:14129   */\n      dup3\n        /* \"#utility.yul\":14122:14134   */\n      add\n        /* \"#utility.yul\":14115:14134   */\n      swap1\n      pop\n        /* \"#utility.yul\":13774:14140   */\n      swap2\n      swap1\n      pop\n      jump\t// out\n        /* \"#utility.yul\":14146:14565   */\n    tag_101:\n        /* \"#utility.yul\":14312:14316   */\n      0x00\n        /* \"#utility.yul\":14350:14352   */\n      0x20\n        /* \"#utility.yul\":14339:14348   */\n      dup3\n        /* \"#utility.yul\":14335:14353   */\n      add\n        /* \"#utility.yul\":14327:14353   */\n      swap1\n      pop\n        /* \"#utility.yul\":14399:14408   */\n      dup2\n        /* \"#utility.yul\":14393:14397   */\n      dup2\n        /* \"#utility.yul\":14389:14409   */\n      sub\n        /* \"#utility.yul\":14385:14386   */\n      0x00\n        /* \"#utility.yul\":14374:14383   */\n      dup4\n        /* \"#utility.yul\":14370:14387   */\n      add\n        /* \"#utility.yul\":14363:14410   */\n      mstore\n        /* \"#utility.yul\":14427:14558   */\n      tag_488\n        /* \"#utility.yul\":14553:14557   */\n      dup2\n        /* \"#utility.yul\":14427:14558   */\n      tag_312\n      jump\t// in\n    tag_488:\n        /* \"#utility.yul\":14419:14558   */\n      swap1\n      pop\n        /* \"#utility.yul\":14146:14565   */\n      swap2\n      swap1\n      pop\n      jump\t// out\n        /* \"#utility.yul\":14571:14750   */\n    tag_313:\n        /* \"#utility.yul\":14711:14742   */\n      0x45524332303a20696e73756666696369656e7420616c6c6f77616e6365000000\n        /* \"#utility.yul\":14707:14708   */\n      0x00\n        /* \"#utility.yul\":14699:14705   */\n      dup3\n        /* \"#utility.yul\":14695:14709   */\n      add\n        /* \"#utility.yul\":14688:14743   */\n      mstore\n        /* \"#utility.yul\":14571:14750   */\n      pop\n      jump\t// out\n        /* \"#utility.yul\":14756:15122   */\n    tag_314:\n        /* \"#utility.yul\":14898:14901   */\n      0x00\n        /* \"#utility.yul\":14919:14986   */\n      tag_491\n        /* \"#utility.yul\":14983:14985   */\n      0x1d\n        /* \"#utility.yul\":14978:14981   */\n      dup4\n        /* \"#utility.yul\":14919:14986   */\n      tag_280\n      jump\t// in\n    tag_491:\n        /* \"#utility.yul\":14912:14986   */\n      swap2\n      pop\n        /* \"#utility.yul\":14995:15088   */\n      tag_492\n        /* \"#utility.yul\":15084:15087   */\n      dup3\n        /* \"#utility.yul\":14995:15088   */\n      tag_313\n      jump\t// in\n    tag_492:\n        /* \"#utility.yul\":15113:15115   */\n      0x20\n        /* \"#utility.yul\":15108:15111   */\n      dup3\n        /* \"#utility.yul\":15104:15116   */\n      add\n        /* \"#utility.yul\":15097:15116   */\n      swap1\n      pop\n        /* \"#utility.yul\":14756:15122   */\n      swap2\n      swap1\n      pop\n      jump\t// out\n        /* \"#utility.yul\":15128:15547   */\n    tag_104:\n        /* \"#utility.yul\":15294:15298   */\n      0x00\n        /* \"#utility.yul\":15332:15334   */\n      0x20\n        /* \"#utility.yul\":15321:15330   */\n      dup3\n        /* \"#utility.yul\":15317:15335   */\n      add\n        /* \"#utility.yul\":15309:15335   */\n      swap1\n      pop\n        /* \"#utility.yul\":15381:15390   */\n      dup2\n        /* \"#utility.yul\":15375:15379   */\n      dup2\n        /* \"#utility.yul\":15371:15391   */\n      sub\n        /* \"#utility.yul\":15367:15368   */\n      0x00\n        /* \"#utility.yul\":15356:15365   */\n      dup4\n        /* \"#utility.yul\":15352:15369   */\n      add\n        /* \"#utility.yul\":15345:15392   */\n      mstore\n        /* \"#utility.yul\":15409:15540   */\n      tag_494\n        /* \"#utility.yul\":15535:15539   */\n      dup2\n        /* \"#utility.yul\":15409:15540   */\n      tag_314\n      jump\t// in\n    tag_494:\n        /* \"#utility.yul\":15401:15540   */\n      swap1\n      pop\n        /* \"#utility.yul\":15128:15547   */\n      swap2\n      swap1\n      pop\n      jump\t// out\n        /* \"#utility.yul\":15553:15733   */\n    tag_315:\n        /* \"#utility.yul\":15601:15678   */\n      0x4e487b7100000000000000000000000000000000000000000000000000000000\n        /* \"#utility.yul\":15598:15599   */\n      0x00\n        /* \"#utility.yul\":15591:15679   */\n      mstore\n        /* \"#utility.yul\":15698:15702   */\n      0x11\n        /* \"#utility.yul\":15695:15696   */\n      0x04\n        /* \"#utility.yul\":15688:15703   */\n      mstore\n        /* \"#utility.yul\":15722:15726   */\n      0x24\n        /* \"#utility.yul\":15719:15720   */\n      0x00\n        /* \"#utility.yul\":15712:15727   */\n      revert\n        /* \"#utility.yul\":15739:15933   */\n    tag_106:\n        /* \"#utility.yul\":15779:15783   */\n      0x00\n        /* \"#utility.yul\":15799:15819   */\n      tag_497\n        /* \"#utility.yul\":15817:15818   */\n      dup3\n        /* \"#utility.yul\":15799:15819   */\n      tag_291\n      jump\t// in\n    tag_497:\n        /* \"#utility.yul\":15794:15819   */\n      swap2\n      pop\n        /* \"#utility.yul\":15833:15853   */\n      tag_498\n        /* \"#utility.yul\":15851:15852   */\n      dup4\n        /* \"#utility.yul\":15833:15853   */\n      tag_291\n      jump\t// in\n    tag_498:\n        /* \"#utility.yul\":15828:15853   */\n      swap3\n      pop\n        /* \"#utility.yul\":15877:15878   */\n      dup3\n        /* \"#utility.yul\":15874:15875   */\n      dup3\n        /* \"#utility.yul\":15870:15879   */\n      sub\n        /* \"#utility.yul\":15862:15879   */\n      swap1\n      pop\n        /* \"#utility.yul\":15901:15902   */\n      dup2\n        /* \"#utility.yul\":15895:15899   */\n      dup2\n        /* \"#utility.yul\":15892:15903   */\n      gt\n        /* \"#utility.yul\":15889:15926   */\n      iszero\n      tag_499\n      jumpi\n        /* \"#utility.yul\":15906:15924   */\n      tag_500\n      tag_315\n      jump\t// in\n    tag_500:\n        /* \"#utility.yul\":15889:15926   */\n    tag_499:\n        /* \"#utility.yul\":15739:15933   */\n      swap3\n      swap2\n      pop\n      pop\n      jump\t// out\n        /* \"#utility.yul\":15939:16130   */\n    tag_109:\n        /* \"#utility.yul\":15979:15982   */\n      0x00\n        /* \"#utility.yul\":15998:16018   */\n      tag_502\n        /* \"#utility.yul\":16016:16017   */\n      dup3\n        /* \"#utility.yul\":15998:16018   */\n      tag_291\n      jump\t// in\n    tag_502:\n        /* \"#utility.yul\":15993:16018   */\n      swap2\n      pop\n        /* \"#utility.yul\":16032:16052   */\n      tag_503\n        /* \"#utility.yul\":16050:16051   */\n      dup4\n        /* \"#utility.yul\":16032:16052   */\n      tag_291\n      jump\t// in\n    tag_503:\n        /* \"#utility.yul\":16027:16052   */\n      swap3\n      pop\n        /* \"#utility.yul\":16075:16076   */\n      dup3\n        /* \"#utility.yul\":16072:16073   */\n      dup3\n        /* \"#utility.yul\":16068:16077   */\n      add\n        /* \"#utility.yul\":16061:16077   */\n      swap1\n      pop\n        /* \"#utility.yul\":16096:16099   */\n      dup1\n        /* \"#utility.yul\":16093:16094   */\n      dup3\n        /* \"#utility.yul\":16090:16100   */\n      gt\n        /* \"#utility.yul\":16087:16123   */\n      iszero\n      tag_504\n      jumpi\n        /* \"#utility.yul\":16103:16121   */\n      tag_505\n      tag_315\n      jump\t// in\n    tag_505:\n        /* \"#utility.yul\":16087:16123   */\n    tag_504:\n        /* \"#utility.yul\":15939:16130   */\n      swap3\n      swap2\n      pop\n      pop\n      jump\t// out\n        /* \"#utility.yul\":16136:16313   */\n    tag_316:\n        /* \"#utility.yul\":16276:16305   */\n      0x4f6e6c792064697265637420737761707320737570706f727465640000000000\n        /* \"#utility.yul\":16272:16273   */\n      0x00\n        /* \"#utility.yul\":16264:16270   */\n      dup3\n        /* \"#utility.yul\":16260:16274   */\n      add\n        /* \"#utility.yul\":16253:16306   */\n      mstore\n        /* \"#utility.yul\":16136:16313   */\n      pop\n      jump\t// out\n        /* \"#utility.yul\":16319:16685   */\n    tag_317:\n        /* \"#utility.yul\":16461:16464   */\n      0x00\n        /* \"#utility.yul\":16482:16549   */\n      tag_508\n        /* \"#utility.yul\":16546:16548   */\n      0x1b\n        /* \"#utility.yul\":16541:16544   */\n      dup4\n        /* \"#utility.yul\":16482:16549   */\n      tag_280\n      jump\t// in\n    tag_508:\n        /* \"#utility.yul\":16475:16549   */\n      swap2\n      pop\n        /* \"#utility.yul\":16558:16651   */\n      tag_509\n        /* \"#utility.yul\":16647:16650   */\n      dup3\n        /* \"#utility.yul\":16558:16651   */\n      tag_316\n      jump\t// in\n    tag_509:\n        /* \"#utility.yul\":16676:16678   */\n      0x20\n        /* \"#utility.yul\":16671:16674   */\n      dup3\n        /* \"#utility.yul\":16667:16679   */\n      add\n        /* \"#utility.yul\":16660:16679   */\n      swap1\n      pop\n        /* \"#utility.yul\":16319:16685   */\n      swap2\n      swap1\n      pop\n      jump\t// out\n        /* \"#utility.yul\":16691:17110   */\n    tag_114:\n        /* \"#utility.yul\":16857:16861   */\n      0x00\n        /* \"#utility.yul\":16895:16897   */\n      0x20\n        /* \"#utility.yul\":16884:16893   */\n      dup3\n        /* \"#utility.yul\":16880:16898   */\n      add\n        /* \"#utility.yul\":16872:16898   */\n      swap1\n      pop\n        /* \"#utility.yul\":16944:16953   */\n      dup2\n        /* \"#utility.yul\":16938:16942   */\n      dup2\n        /* \"#utility.yul\":16934:16954   */\n      sub\n        /* \"#utility.yul\":16930:16931   */\n      0x00\n        /* \"#utility.yul\":16919:16928   */\n      dup4\n        /* \"#utility.yul\":16915:16932   */\n      add\n        /* \"#utility.yul\":16908:16955   */\n      mstore\n        /* \"#utility.yul\":16972:17103   */\n      tag_511\n        /* \"#utility.yul\":17098:17102   */\n      dup2\n        /* \"#utility.yul\":16972:17103   */\n      tag_317\n      jump\t// in\n    tag_511:\n        /* \"#utility.yul\":16964:17103   */\n      swap1\n      pop\n        /* \"#utility.yul\":16691:17110   */\n      swap2\n      swap1\n      pop\n      jump\t// out\n        /* \"#utility.yul\":17116:17285   */\n    tag_318:\n        /* \"#utility.yul\":17256:17277   */\n      0x5472616e73616374696f6e206578706972656400000000000000000000000000\n        /* \"#utility.yul\":17252:17253   */\n      0x00\n        /* \"#utility.yul\":17244:17250   */\n      dup3\n        /* \"#utility.yul\":17240:17254   */\n      add\n        /* \"#utility.yul\":17233:17278   */\n      mstore\n        /* \"#utility.yul\":17116:17285   */\n      pop\n      jump\t// out\n        /* \"#utility.yul\":17291:17657   */\n    tag_319:\n        /* \"#utility.yul\":17433:17436   */\n      0x00\n        /* \"#utility.yul\":17454:17521   */\n      tag_514\n        /* \"#utility.yul\":17518:17520   */\n      0x13\n        /* \"#utility.yul\":17513:17516   */\n      dup4\n        /* \"#utility.yul\":17454:17521   */\n      tag_280\n      jump\t// in\n    tag_514:\n        /* \"#utility.yul\":17447:17521   */\n      swap2\n      pop\n        /* \"#utility.yul\":17530:17623   */\n      tag_515\n        /* \"#utility.yul\":17619:17622   */\n      dup3\n        /* \"#utility.yul\":17530:17623   */\n      tag_318\n      jump\t// in\n    tag_515:\n        /* \"#utility.yul\":17648:17650   */\n      0x20\n        /* \"#utility.yul\":17643:17646   */\n      dup3\n        /* \"#utility.yul\":17639:17651   */\n      add\n        /* \"#utility.yul\":17632:17651   */\n      swap1\n      pop\n        /* \"#utility.yul\":17291:17657   */\n      swap2\n      swap1\n      pop\n      jump\t// out\n        /* \"#utility.yul\":17663:18082   */\n    tag_117:\n        /* \"#utility.yul\":17829:17833   */\n      0x00\n        /* \"#utility.yul\":17867:17869   */\n      0x20\n        /* \"#utility.yul\":17856:17865   */\n      dup3\n        /* \"#utility.yul\":17852:17870   */\n      add\n        /* \"#utility.yul\":17844:17870   */\n      swap1\n      pop\n        /* \"#utility.yul\":17916:17925   */\n      dup2\n        /* \"#utility.yul\":17910:17914   */\n      dup2\n        /* \"#utility.yul\":17906:17926   */\n      sub\n        /* \"#utility.yul\":17902:17903   */\n      0x00\n        /* \"#utility.yul\":17891:17900   */\n      dup4\n        /* \"#utility.yul\":17887:17904   */\n      add\n        /* \"#utility.yul\":17880:17927   */\n      mstore\n        /* \"#utility.yul\":17944:18075   */\n      tag_517\n        /* \"#utility.yul\":18070:18074   */\n      dup2\n        /* \"#utility.yul\":17944:18075   */\n      tag_319\n      jump\t// in\n    tag_517:\n        /* \"#utility.yul\":17936:18075   */\n      swap1\n      pop\n        /* \"#utility.yul\":17663:18082   */\n      swap2\n      swap1\n      pop\n      jump\t// out\n        /* \"#utility.yul\":18088:18268   */\n    tag_120:\n        /* \"#utility.yul\":18136:18213   */\n      0x4e487b7100000000000000000000000000000000000000000000000000000000\n        /* \"#utility.yul\":18133:18134   */\n      0x00\n        /* \"#utility.yul\":18126:18214   */\n      mstore\n        /* \"#utility.yul\":18233:18237   */\n      0x32\n        /* \"#utility.yul\":18230:18231   */\n      0x04\n        /* \"#utility.yul\":18223:18238   */\n      mstore\n        /* \"#utility.yul\":18257:18261   */\n      0x24\n        /* \"#utility.yul\":18254:18255   */\n      0x00\n        /* \"#utility.yul\":18247:18262   */\n      revert\n        /* \"#utility.yul\":18274:18442   */\n    tag_320:\n        /* \"#utility.yul\":18414:18434   */\n      0x506f6f6c20646f65736e27742065786973740000000000000000000000000000\n        /* \"#utility.yul\":18410:18411   */\n      0x00\n        /* \"#utility.yul\":18402:18408   */\n      dup3\n        /* \"#utility.yul\":18398:18412   */\n      add\n        /* \"#utility.yul\":18391:18435   */\n      mstore\n        /* \"#utility.yul\":18274:18442   */\n      pop\n      jump\t// out\n        /* \"#utility.yul\":18448:18814   */\n    tag_321:\n        /* \"#utility.yul\":18590:18593   */\n      0x00\n        /* \"#utility.yul\":18611:18678   */\n      tag_521\n        /* \"#utility.yul\":18675:18677   */\n      0x12\n        /* \"#utility.yul\":18670:18673   */\n      dup4\n        /* \"#utility.yul\":18611:18678   */\n      tag_280\n      jump\t// in\n    tag_521:\n        /* \"#utility.yul\":18604:18678   */\n      swap2\n      pop\n        /* \"#utility.yul\":18687:18780   */\n      tag_522\n        /* \"#utility.yul\":18776:18779   */\n      dup3\n        /* \"#utility.yul\":18687:18780   */\n      tag_320\n      jump\t// in\n    tag_522:\n        /* \"#utility.yul\":18805:18807   */\n      0x20\n        /* \"#utility.yul\":18800:18803   */\n      dup3\n        /* \"#utility.yul\":18796:18808   */\n      add\n        /* \"#utility.yul\":18789:18808   */\n      swap1\n      pop\n        /* \"#utility.yul\":18448:18814   */\n      swap2\n      swap1\n      pop\n      jump\t// out\n        /* \"#utility.yul\":18820:19239   */\n    tag_128:\n        /* \"#utility.yul\":18986:18990   */\n      0x00\n        /* \"#utility.yul\":19024:19026   */\n      0x20\n        /* \"#utility.yul\":19013:19022   */\n      dup3\n        /* \"#utility.yul\":19009:19027   */\n      add\n        /* \"#utility.yul\":19001:19027   */\n      swap1\n      pop\n        /* \"#utility.yul\":19073:19082   */\n      dup2\n        /* \"#utility.yul\":19067:19071   */\n      dup2\n        /* \"#utility.yul\":19063:19083   */\n      sub\n        /* \"#utility.yul\":19059:19060   */\n      0x00\n        /* \"#utility.yul\":19048:19057   */\n      dup4\n        /* \"#utility.yul\":19044:19061   */\n      add\n        /* \"#utility.yul\":19037:19084   */\n      mstore\n        /* \"#utility.yul\":19101:19232   */\n      tag_524\n        /* \"#utility.yul\":19227:19231   */\n      dup2\n        /* \"#utility.yul\":19101:19232   */\n      tag_321\n      jump\t// in\n    tag_524:\n        /* \"#utility.yul\":19093:19232   */\n      swap1\n      pop\n        /* \"#utility.yul\":18820:19239   */\n      swap2\n      swap1\n      pop\n      jump\t// out\n        /* \"#utility.yul\":19245:19363   */\n    tag_322:\n        /* \"#utility.yul\":19332:19356   */\n      tag_526\n        /* \"#utility.yul\":19350:19355   */\n      dup2\n        /* \"#utility.yul\":19332:19356   */\n      tag_288\n      jump\t// in\n    tag_526:\n        /* \"#utility.yul\":19327:19330   */\n      dup3\n        /* \"#utility.yul\":19320:19357   */\n      mstore\n        /* \"#utility.yul\":19245:19363   */\n      pop\n      pop\n      jump\t// out\n        /* \"#utility.yul\":19369:19811   */\n    tag_130:\n        /* \"#utility.yul\":19518:19522   */\n      0x00\n        /* \"#utility.yul\":19556:19558   */\n      0x60\n        /* \"#utility.yul\":19545:19554   */\n      dup3\n        /* \"#utility.yul\":19541:19559   */\n      add\n        /* \"#utility.yul\":19533:19559   */\n      swap1\n      pop\n        /* \"#utility.yul\":19569:19640   */\n      tag_528\n        /* \"#utility.yul\":19637:19638   */\n      0x00\n        /* \"#utility.yul\":19626:19635   */\n      dup4\n        /* \"#utility.yul\":19622:19639   */\n      add\n        /* \"#utility.yul\":19613:19619   */\n      dup7\n        /* \"#utility.yul\":19569:19640   */\n      tag_322\n      jump\t// in\n    tag_528:\n        /* \"#utility.yul\":19650:19722   */\n      tag_529\n        /* \"#utility.yul\":19718:19720   */\n      0x20\n        /* \"#utility.yul\":19707:19716   */\n      dup4\n        /* \"#utility.yul\":19703:19721   */\n      add\n        /* \"#utility.yul\":19694:19700   */\n      dup6\n        /* \"#utility.yul\":19650:19722   */\n      tag_322\n      jump\t// in\n    tag_529:\n        /* \"#utility.yul\":19732:19804   */\n      tag_530\n        /* \"#utility.yul\":19800:19802   */\n      0x40\n        /* \"#utility.yul\":19789:19798   */\n      dup4\n        /* \"#utility.yul\":19785:19803   */\n      add\n        /* \"#utility.yul\":19776:19782   */\n      dup5\n        /* \"#utility.yul\":19732:19804   */\n      tag_296\n      jump\t// in\n    tag_530:\n        /* \"#utility.yul\":19369:19811   */\n      swap5\n      swap4\n      pop\n      pop\n      pop\n      pop\n      jump\t// out\n        /* \"#utility.yul\":19817:19933   */\n    tag_323:\n        /* \"#utility.yul\":19887:19908   */\n      tag_532\n        /* \"#utility.yul\":19902:19907   */\n      dup2\n        /* \"#utility.yul\":19887:19908   */\n      tag_294\n      jump\t// in\n    tag_532:\n        /* \"#utility.yul\":19880:19885   */\n      dup2\n        /* \"#utility.yul\":19877:19909   */\n      eq\n        /* \"#utility.yul\":19867:19927   */\n      tag_533\n      jumpi\n        /* \"#utility.yul\":19923:19924   */\n      0x00\n        /* \"#utility.yul\":19920:19921   */\n      0x00\n        /* \"#utility.yul\":19913:19925   */\n      revert\n        /* \"#utility.yul\":19867:19927   */\n    tag_533:\n        /* \"#utility.yul\":19817:19933   */\n      pop\n      jump\t// out\n        /* \"#utility.yul\":19939:20076   */\n    tag_324:\n        /* \"#utility.yul\":19993:19998   */\n      0x00\n        /* \"#utility.yul\":20024:20030   */\n      dup2\n        /* \"#utility.yul\":20018:20031   */\n      mload\n        /* \"#utility.yul\":20009:20031   */\n      swap1\n      pop\n        /* \"#utility.yul\":20040:20070   */\n      tag_535\n        /* \"#utility.yul\":20064:20069   */\n      dup2\n        /* \"#utility.yul\":20040:20070   */\n      tag_323\n      jump\t// in\n    tag_535:\n        /* \"#utility.yul\":19939:20076   */\n      swap3\n      swap2\n      pop\n      pop\n      jump\t// out\n        /* \"#utility.yul\":20082:20427   */\n    tag_134:\n        /* \"#utility.yul\":20149:20155   */\n      0x00\n        /* \"#utility.yul\":20198:20200   */\n      0x20\n        /* \"#utility.yul\":20186:20195   */\n      dup3\n        /* \"#utility.yul\":20177:20184   */\n      dup5\n        /* \"#utility.yul\":20173:20196   */\n      sub\n        /* \"#utility.yul\":20169:20201   */\n      slt\n        /* \"#utility.yul\":20166:20285   */\n      iszero\n      tag_537\n      jumpi\n        /* \"#utility.yul\":20204:20283   */\n      tag_538\n      tag_285\n      jump\t// in\n    tag_538:\n        /* \"#utility.yul\":20166:20285   */\n    tag_537:\n        /* \"#utility.yul\":20324:20325   */\n      0x00\n        /* \"#utility.yul\":20349:20410   */\n      tag_539\n        /* \"#utility.yul\":20402:20409   */\n      dup5\n        /* \"#utility.yul\":20393:20399   */\n      dup3\n        /* \"#utility.yul\":20382:20391   */\n      dup6\n        /* \"#utility.yul\":20378:20400   */\n      add\n        /* \"#utility.yul\":20349:20410   */\n      tag_324\n      jump\t// in\n    tag_539:\n        /* \"#utility.yul\":20339:20410   */\n      swap2\n      pop\n        /* \"#utility.yul\":20295:20420   */\n      pop\n        /* \"#utility.yul\":20082:20427   */\n      swap3\n      swap2\n      pop\n      pop\n      jump\t// out\n        /* \"#utility.yul\":20433:20843   */\n    tag_137:\n        /* \"#utility.yul\":20473:20480   */\n      0x00\n        /* \"#utility.yul\":20496:20516   */\n      tag_541\n        /* \"#utility.yul\":20514:20515   */\n      dup3\n        /* \"#utility.yul\":20496:20516   */\n      tag_291\n      jump\t// in\n    tag_541:\n        /* \"#utility.yul\":20491:20516   */\n      swap2\n      pop\n        /* \"#utility.yul\":20530:20550   */\n      tag_542\n        /* \"#utility.yul\":20548:20549   */\n      dup4\n        /* \"#utility.yul\":20530:20550   */\n      tag_291\n      jump\t// in\n    tag_542:\n        /* \"#utility.yul\":20525:20550   */\n      swap3\n      pop\n        /* \"#utility.yul\":20585:20586   */\n      dup3\n        /* \"#utility.yul\":20582:20583   */\n      dup3\n        /* \"#utility.yul\":20578:20587   */\n      mul\n        /* \"#utility.yul\":20607:20637   */\n      tag_543\n        /* \"#utility.yul\":20625:20636   */\n      dup2\n        /* \"#utility.yul\":20607:20637   */\n      tag_291\n      jump\t// in\n    tag_543:\n        /* \"#utility.yul\":20596:20637   */\n      swap2\n      pop\n        /* \"#utility.yul\":20786:20787   */\n      dup3\n        /* \"#utility.yul\":20777:20784   */\n      dup3\n        /* \"#utility.yul\":20773:20788   */\n      div\n        /* \"#utility.yul\":20770:20771   */\n      dup5\n        /* \"#utility.yul\":20767:20789   */\n      eq\n        /* \"#utility.yul\":20747:20748   */\n      dup4\n        /* \"#utility.yul\":20740:20749   */\n      iszero\n        /* \"#utility.yul\":20720:20803   */\n      or\n        /* \"#utility.yul\":20697:20836   */\n      tag_544\n      jumpi\n        /* \"#utility.yul\":20816:20834   */\n      tag_545\n      tag_315\n      jump\t// in\n    tag_545:\n        /* \"#utility.yul\":20697:20836   */\n    tag_544:\n        /* \"#utility.yul\":20481:20843   */\n      pop\n        /* \"#utility.yul\":20433:20843   */\n      swap3\n      swap2\n      pop\n      pop\n      jump\t// out\n        /* \"#utility.yul\":20849:21029   */\n    tag_325:\n        /* \"#utility.yul\":20897:20974   */\n      0x4e487b7100000000000000000000000000000000000000000000000000000000\n        /* \"#utility.yul\":20894:20895   */\n      0x00\n        /* \"#utility.yul\":20887:20975   */\n      mstore\n        /* \"#utility.yul\":20994:20998   */\n      0x12\n        /* \"#utility.yul\":20991:20992   */\n      0x04\n        /* \"#utility.yul\":20984:20999   */\n      mstore\n        /* \"#utility.yul\":21018:21022   */\n      0x24\n        /* \"#utility.yul\":21015:21016   */\n      0x00\n        /* \"#utility.yul\":21008:21023   */\n      revert\n        /* \"#utility.yul\":21035:21220   */\n    tag_139:\n        /* \"#utility.yul\":21075:21076   */\n      0x00\n        /* \"#utility.yul\":21092:21112   */\n      tag_548\n        /* \"#utility.yul\":21110:21111   */\n      dup3\n        /* \"#utility.yul\":21092:21112   */\n      tag_291\n      jump\t// in\n    tag_548:\n        /* \"#utility.yul\":21087:21112   */\n      swap2\n      pop\n        /* \"#utility.yul\":21126:21146   */\n      tag_549\n        /* \"#utility.yul\":21144:21145   */\n      dup4\n        /* \"#utility.yul\":21126:21146   */\n      tag_291\n      jump\t// in\n    tag_549:\n        /* \"#utility.yul\":21121:21146   */\n      swap3\n      pop\n        /* \"#utility.yul\":21165:21166   */\n      dup3\n        /* \"#utility.yul\":21155:21190   */\n      tag_550\n      jumpi\n        /* \"#utility.yul\":21170:21188   */\n      tag_551\n      tag_325\n      jump\t// in\n    tag_551:\n        /* \"#utility.yul\":21155:21190   */\n    tag_550:\n        /* \"#utility.yul\":21212:21213   */\n      dup3\n        /* \"#utility.yul\":21209:21210   */\n      dup3\n        /* \"#utility.yul\":21205:21214   */\n      div\n        /* \"#utility.yul\":21200:21214   */\n      swap1\n      pop\n        /* \"#utility.yul\":21035:21220   */\n      swap3\n      swap2\n      pop\n      pop\n      jump\t// out\n        /* \"#utility.yul\":21226:21402   */\n    tag_326:\n        /* \"#utility.yul\":21366:21394   */\n      0x496e73756666696369656e74206f757470757420616d6f756e74000000000000\n        /* \"#utility.yul\":21362:21363   */\n      0x00\n        /* \"#utility.yul\":21354:21360   */\n      dup3\n        /* \"#utility.yul\":21350:21364   */\n      add\n        /* \"#utility.yul\":21343:21395   */\n      mstore\n        /* \"#utility.yul\":21226:21402   */\n      pop\n      jump\t// out\n        /* \"#utility.yul\":21408:21774   */\n    tag_327:\n        /* \"#utility.yul\":21550:21553   */\n      0x00\n        /* \"#utility.yul\":21571:21638   */\n      tag_554\n        /* \"#utility.yul\":21635:21637   */\n      0x1a\n        /* \"#utility.yul\":21630:21633   */\n      dup4\n        /* \"#utility.yul\":21571:21638   */\n      tag_280\n      jump\t// in\n    tag_554:\n        /* \"#utility.yul\":21564:21638   */\n      swap2\n      pop\n        /* \"#utility.yul\":21647:21740   */\n      tag_555\n        /* \"#utility.yul\":21736:21739   */\n      dup3\n        /* \"#utility.yul\":21647:21740   */\n      tag_326\n      jump\t// in\n    tag_555:\n        /* \"#utility.yul\":21765:21767   */\n      0x20\n        /* \"#utility.yul\":21760:21763   */\n      dup3\n        /* \"#utility.yul\":21756:21768   */\n      add\n        /* \"#utility.yul\":21749:21768   */\n      swap1\n      pop\n        /* \"#utility.yul\":21408:21774   */\n      swap2\n      swap1\n      pop\n      jump\t// out\n        /* \"#utility.yul\":21780:22199   */\n    tag_142:\n        /* \"#utility.yul\":21946:21950   */\n      0x00\n        /* \"#utility.yul\":21984:21986   */\n      0x20\n        /* \"#utility.yul\":21973:21982   */\n      dup3\n        /* \"#utility.yul\":21969:21987   */\n      add\n        /* \"#utility.yul\":21961:21987   */\n      swap1\n      pop\n        /* \"#utility.yul\":22033:22042   */\n      dup2\n        /* \"#utility.yul\":22027:22031   */\n      dup2\n        /* \"#utility.yul\":22023:22043   */\n      sub\n        /* \"#utility.yul\":22019:22020   */\n      0x00\n        /* \"#utility.yul\":22008:22017   */\n      dup4\n        /* \"#utility.yul\":22004:22021   */\n      add\n        /* \"#utility.yul\":21997:22044   */\n      mstore\n        /* \"#utility.yul\":22061:22192   */\n      tag_557\n        /* \"#utility.yul\":22187:22191   */\n      dup2\n        /* \"#utility.yul\":22061:22192   */\n      tag_327\n      jump\t// in\n    tag_557:\n        /* \"#utility.yul\":22053:22192   */\n      swap1\n      pop\n        /* \"#utility.yul\":21780:22199   */\n      swap2\n      swap1\n      pop\n      jump\t// out\n        /* \"#utility.yul\":22205:22537   */\n    tag_144:\n        /* \"#utility.yul\":22326:22330   */\n      0x00\n        /* \"#utility.yul\":22364:22366   */\n      0x40\n        /* \"#utility.yul\":22353:22362   */\n      dup3\n        /* \"#utility.yul\":22349:22367   */\n      add\n        /* \"#utility.yul\":22341:22367   */\n      swap1\n      pop\n        /* \"#utility.yul\":22377:22448   */\n      tag_559\n        /* \"#utility.yul\":22445:22446   */\n      0x00\n        /* \"#utility.yul\":22434:22443   */\n      dup4\n        /* \"#utility.yul\":22430:22447   */\n      add\n        /* \"#utility.yul\":22421:22427   */\n      dup6\n        /* \"#utility.yul\":22377:22448   */\n      tag_322\n      jump\t// in\n    tag_559:\n        /* \"#utility.yul\":22458:22530   */\n      tag_560\n        /* \"#utility.yul\":22526:22528   */\n      0x20\n        /* \"#utility.yul\":22515:22524   */\n      dup4\n        /* \"#utility.yul\":22511:22529   */\n      add\n        /* \"#utility.yul\":22502:22508   */\n      dup5\n        /* \"#utility.yul\":22458:22530   */\n      tag_296\n      jump\t// in\n    tag_560:\n        /* \"#utility.yul\":22205:22537   */\n      swap4\n      swap3\n      pop\n      pop\n      pop\n      jump\t// out\n        /* \"#utility.yul\":22543:22723   */\n    tag_152:\n        /* \"#utility.yul\":22591:22668   */\n      0x4e487b7100000000000000000000000000000000000000000000000000000000\n        /* \"#utility.yul\":22588:22589   */\n      0x00\n        /* \"#utility.yul\":22581:22669   */\n      mstore\n        /* \"#utility.yul\":22688:22692   */\n      0x41\n        /* \"#utility.yul\":22685:22686   */\n      0x04\n        /* \"#utility.yul\":22678:22693   */\n      mstore\n        /* \"#utility.yul\":22712:22716   */\n      0x24\n        /* \"#utility.yul\":22709:22710   */\n      0x00\n        /* \"#utility.yul\":22702:22717   */\n      revert\n        /* \"#utility.yul\":22729:22895   */\n    tag_328:\n        /* \"#utility.yul\":22869:22887   */\n      0x4964656e746963616c20746f6b656e7300000000000000000000000000000000\n        /* \"#utility.yul\":22865:22866   */\n      0x00\n        /* \"#utility.yul\":22857:22863   */\n      dup3\n        /* \"#utility.yul\":22853:22867   */\n      add\n        /* \"#utility.yul\":22846:22888   */\n      mstore\n        /* \"#utility.yul\":22729:22895   */\n      pop\n      jump\t// out\n        /* \"#utility.yul\":22901:23267   */\n    tag_329:\n        /* \"#utility.yul\":23043:23046   */\n      0x00\n        /* \"#utility.yul\":23064:23131   */\n      tag_564\n        /* \"#utility.yul\":23128:23130   */\n      0x10\n        /* \"#utility.yul\":23123:23126   */\n      dup4\n        /* \"#utility.yul\":23064:23131   */\n      tag_280\n      jump\t// in\n    tag_564:\n        /* \"#utility.yul\":23057:23131   */\n      swap2\n      pop\n        /* \"#utility.yul\":23140:23233   */\n      tag_565\n        /* \"#utility.yul\":23229:23232   */\n      dup3\n        /* \"#utility.yul\":23140:23233   */\n      tag_328\n      jump\t// in\n    tag_565:\n        /* \"#utility.yul\":23258:23260   */\n      0x20\n        /* \"#utility.yul\":23253:23256   */\n      dup3\n        /* \"#utility.yul\":23249:23261   */\n      add\n        /* \"#utility.yul\":23242:23261   */\n      swap1\n      pop\n        /* \"#utility.yul\":22901:23267   */\n      swap2\n      swap1\n      pop\n      jump\t// out\n        /* \"#utility.yul\":23273:23692   */\n    tag_174:\n        /* \"#utility.yul\":23439:23443   */\n      0x00\n        /* \"#utility.yul\":23477:23479   */\n      0x20\n        /* \"#utility.yul\":23466:23475   */\n      dup3\n        /* \"#utility.yul\":23462:23480   */\n      add\n        /* \"#utility.yul\":23454:23480   */\n      swap1\n      pop\n        /* \"#utility.yul\":23526:23535   */\n      dup2\n        /* \"#utility.yul\":23520:23524   */\n      dup2\n        /* \"#utility.yul\":23516:23536   */\n      sub\n        /* \"#utility.yul\":23512:23513   */\n      0x00\n        /* \"#utility.yul\":23501:23510   */\n      dup4\n        /* \"#utility.yul\":23497:23514   */\n      add\n        /* \"#utility.yul\":23490:23537   */\n      mstore\n        /* \"#utility.yul\":23554:23685   */\n      tag_567\n        /* \"#utility.yul\":23680:23684   */\n      dup2\n        /* \"#utility.yul\":23554:23685   */\n      tag_329\n      jump\t// in\n    tag_567:\n        /* \"#utility.yul\":23546:23685   */\n      swap1\n      pop\n        /* \"#utility.yul\":23273:23692   */\n      swap2\n      swap1\n      pop\n      jump\t// out\n        /* \"#utility.yul\":23698:23868   */\n    tag_330:\n        /* \"#utility.yul\":23838:23860   */\n      0x4e6f7420656e6f756768204c5020746f6b656e73000000000000000000000000\n        /* \"#utility.yul\":23834:23835   */\n      0x00\n        /* \"#utility.yul\":23826:23832   */\n      dup3\n        /* \"#utility.yul\":23822:23836   */\n      add\n        /* \"#utility.yul\":23815:23861   */\n      mstore\n        /* \"#utility.yul\":23698:23868   */\n      pop\n      jump\t// out\n        /* \"#utility.yul\":23874:24240   */\n    tag_331:\n        /* \"#utility.yul\":24016:24019   */\n      0x00\n        /* \"#utility.yul\":24037:24104   */\n      tag_570\n        /* \"#utility.yul\":24101:24103   */\n      0x14\n        /* \"#utility.yul\":24096:24099   */\n      dup4\n        /* \"#utility.yul\":24037:24104   */\n      tag_280\n      jump\t// in\n    tag_570:\n        /* \"#utility.yul\":24030:24104   */\n      swap2\n      pop\n        /* \"#utility.yul\":24113:24206   */\n      tag_571\n        /* \"#utility.yul\":24202:24205   */\n      dup3\n        /* \"#utility.yul\":24113:24206   */\n      tag_330\n      jump\t// in\n    tag_571:\n        /* \"#utility.yul\":24231:24233   */\n      0x20\n        /* \"#utility.yul\":24226:24229   */\n      dup3\n        /* \"#utility.yul\":24222:24234   */\n      add\n        /* \"#utility.yul\":24215:24234   */\n      swap1\n      pop\n        /* \"#utility.yul\":23874:24240   */\n      swap2\n      swap1\n      pop\n      jump\t// out\n        /* \"#utility.yul\":24246:24665   */\n    tag_177:\n        /* \"#utility.yul\":24412:24416   */\n      0x00\n        /* \"#utility.yul\":24450:24452   */\n      0x20\n        /* \"#utility.yul\":24439:24448   */\n      dup3\n        /* \"#utility.yul\":24435:24453   */\n      add\n        /* \"#utility.yul\":24427:24453   */\n      swap1\n      pop\n        /* \"#utility.yul\":24499:24508   */\n      dup2\n        /* \"#utility.yul\":24493:24497   */\n      dup2\n        /* \"#utility.yul\":24489:24509   */\n      sub\n        /* \"#utility.yul\":24485:24486   */\n      0x00\n        /* \"#utility.yul\":24474:24483   */\n      dup4\n        /* \"#utility.yul\":24470:24487   */\n      add\n        /* \"#utility.yul\":24463:24510   */\n      mstore\n        /* \"#utility.yul\":24527:24658   */\n      tag_573\n        /* \"#utility.yul\":24653:24657   */\n      dup2\n        /* \"#utility.yul\":24527:24658   */\n      tag_331\n      jump\t// in\n    tag_573:\n        /* \"#utility.yul\":24519:24658   */\n      swap1\n      pop\n        /* \"#utility.yul\":24246:24665   */\n      swap2\n      swap1\n      pop\n      jump\t// out\n        /* \"#utility.yul\":24671:24837   */\n    tag_332:\n        /* \"#utility.yul\":24811:24829   */\n      0x416d6f756e74204120746f6f206c6f7700000000000000000000000000000000\n        /* \"#utility.yul\":24807:24808   */\n      0x00\n        /* \"#utility.yul\":24799:24805   */\n      dup3\n        /* \"#utility.yul\":24795:24809   */\n      add\n        /* \"#utility.yul\":24788:24830   */\n      mstore\n        /* \"#utility.yul\":24671:24837   */\n      pop\n      jump\t// out\n        /* \"#utility.yul\":24843:25209   */\n    tag_333:\n        /* \"#utility.yul\":24985:24988   */\n      0x00\n        /* \"#utility.yul\":25006:25073   */\n      tag_576\n        /* \"#utility.yul\":25070:25072   */\n      0x10\n        /* \"#utility.yul\":25065:25068   */\n      dup4\n        /* \"#utility.yul\":25006:25073   */\n      tag_280\n      jump\t// in\n    tag_576:\n        /* \"#utility.yul\":24999:25073   */\n      swap2\n      pop\n        /* \"#utility.yul\":25082:25175   */\n      tag_577\n        /* \"#utility.yul\":25171:25174   */\n      dup3\n        /* \"#utility.yul\":25082:25175   */\n      tag_332\n      jump\t// in\n    tag_577:\n        /* \"#utility.yul\":25200:25202   */\n      0x20\n        /* \"#utility.yul\":25195:25198   */\n      dup3\n        /* \"#utility.yul\":25191:25203   */\n      add\n        /* \"#utility.yul\":25184:25203   */\n      swap1\n      pop\n        /* \"#utility.yul\":24843:25209   */\n      swap2\n      swap1\n      pop\n      jump\t// out\n        /* \"#utility.yul\":25215:25634   */\n    tag_184:\n        /* \"#utility.yul\":25381:25385   */\n      0x00\n        /* \"#utility.yul\":25419:25421   */\n      0x20\n        /* \"#utility.yul\":25408:25417   */\n      dup3\n        /* \"#utility.yul\":25404:25422   */\n      add\n        /* \"#utility.yul\":25396:25422   */\n      swap1\n      pop\n        /* \"#utility.yul\":25468:25477   */\n      dup2\n        /* \"#utility.yul\":25462:25466   */\n      dup2\n        /* \"#utility.yul\":25458:25478   */\n      sub\n        /* \"#utility.yul\":25454:25455   */\n      0x00\n        /* \"#utility.yul\":25443:25452   */\n      dup4\n        /* \"#utility.yul\":25439:25456   */\n      add\n        /* \"#utility.yul\":25432:25479   */\n      mstore\n        /* \"#utility.yul\":25496:25627   */\n      tag_579\n        /* \"#utility.yul\":25622:25626   */\n      dup2\n        /* \"#utility.yul\":25496:25627   */\n      tag_333\n      jump\t// in\n    tag_579:\n        /* \"#utility.yul\":25488:25627   */\n      swap1\n      pop\n        /* \"#utility.yul\":25215:25634   */\n      swap2\n      swap1\n      pop\n      jump\t// out\n        /* \"#utility.yul\":25640:25806   */\n    tag_334:\n        /* \"#utility.yul\":25780:25798   */\n      0x416d6f756e74204220746f6f206c6f7700000000000000000000000000000000\n        /* \"#utility.yul\":25776:25777   */\n      0x00\n        /* \"#utility.yul\":25768:25774   */\n      dup3\n        /* \"#utility.yul\":25764:25778   */\n      add\n        /* \"#utility.yul\":25757:25799   */\n      mstore\n        /* \"#utility.yul\":25640:25806   */\n      pop\n      jump\t// out\n        /* \"#utility.yul\":25812:26178   */\n    tag_335:\n        /* \"#utility.yul\":25954:25957   */\n      0x00\n        /* \"#utility.yul\":25975:26042   */\n      tag_582\n        /* \"#utility.yul\":26039:26041   */\n      0x10\n        /* \"#utility.yul\":26034:26037   */\n      dup4\n        /* \"#utility.yul\":25975:26042   */\n      tag_280\n      jump\t// in\n    tag_582:\n        /* \"#utility.yul\":25968:26042   */\n      swap2\n      pop\n        /* \"#utility.yul\":26051:26144   */\n      tag_583\n        /* \"#utility.yul\":26140:26143   */\n      dup3\n        /* \"#utility.yul\":26051:26144   */\n      tag_334\n      jump\t// in\n    tag_583:\n        /* \"#utility.yul\":26169:26171   */\n      0x20\n        /* \"#utility.yul\":26164:26167   */\n      dup3\n        /* \"#utility.yul\":26160:26172   */\n      add\n        /* \"#utility.yul\":26153:26172   */\n      swap1\n      pop\n        /* \"#utility.yul\":25812:26178   */\n      swap2\n      swap1\n      pop\n      jump\t// out\n        /* \"#utility.yul\":26184:26603   */\n    tag_187:\n        /* \"#utility.yul\":26350:26354   */\n      0x00\n        /* \"#utility.yul\":26388:26390   */\n      0x20\n        /* \"#utility.yul\":26377:26386   */\n      dup3\n        /* \"#utility.yul\":26373:26391   */\n      add\n        /* \"#utility.yul\":26365:26391   */\n      swap1\n      pop\n        /* \"#utility.yul\":26437:26446   */\n      dup2\n        /* \"#utility.yul\":26431:26435   */\n      dup2\n        /* \"#utility.yul\":26427:26447   */\n      sub\n        /* \"#utility.yul\":26423:26424   */\n      0x00\n        /* \"#utility.yul\":26412:26421   */\n      dup4\n        /* \"#utility.yul\":26408:26425   */\n      add\n        /* \"#utility.yul\":26401:26448   */\n      mstore\n        /* \"#utility.yul\":26465:26596   */\n      tag_585\n        /* \"#utility.yul\":26591:26595   */\n      dup2\n        /* \"#utility.yul\":26465:26596   */\n      tag_335\n      jump\t// in\n    tag_585:\n        /* \"#utility.yul\":26457:26596   */\n      swap1\n      pop\n        /* \"#utility.yul\":26184:26603   */\n      swap2\n      swap1\n      pop\n      jump\t// out\n        /* \"#utility.yul\":26609:26776   */\n    tag_336:\n        /* \"#utility.yul\":26749:26768   */\n      0x5472616e736665722041206661696c6564000000000000000000000000000000\n        /* \"#utility.yul\":26745:26746   */\n      0x00\n        /* \"#utility.yul\":26737:26743   */\n      dup3\n        /* \"#utility.yul\":26733:26747   */\n      add\n        /* \"#utility.yul\":26726:26769   */\n      mstore\n        /* \"#utility.yul\":26609:26776   */\n      pop\n      jump\t// out\n        /* \"#utility.yul\":26782:27148   */\n    tag_337:\n        /* \"#utility.yul\":26924:26927   */\n      0x00\n        /* \"#utility.yul\":26945:27012   */\n      tag_588\n        /* \"#utility.yul\":27009:27011   */\n      0x11\n        /* \"#utility.yul\":27004:27007   */\n      dup4\n        /* \"#utility.yul\":26945:27012   */\n      tag_280\n      jump\t// in\n    tag_588:\n        /* \"#utility.yul\":26938:27012   */\n      swap2\n      pop\n        /* \"#utility.yul\":27021:27114   */\n      tag_589\n        /* \"#utility.yul\":27110:27113   */\n      dup3\n        /* \"#utility.yul\":27021:27114   */\n      tag_336\n      jump\t// in\n    tag_589:\n        /* \"#utility.yul\":27139:27141   */\n      0x20\n        /* \"#utility.yul\":27134:27137   */\n      dup3\n        /* \"#utility.yul\":27130:27142   */\n      add\n        /* \"#utility.yul\":27123:27142   */\n      swap1\n      pop\n        /* \"#utility.yul\":26782:27148   */\n      swap2\n      swap1\n      pop\n      jump\t// out\n        /* \"#utility.yul\":27154:27573   */\n    tag_198:\n        /* \"#utility.yul\":27320:27324   */\n      0x00\n        /* \"#utility.yul\":27358:27360   */\n      0x20\n        /* \"#utility.yul\":27347:27356   */\n      dup3\n        /* \"#utility.yul\":27343:27361   */\n      add\n        /* \"#utility.yul\":27335:27361   */\n      swap1\n      pop\n        /* \"#utility.yul\":27407:27416   */\n      dup2\n        /* \"#utility.yul\":27401:27405   */\n      dup2\n        /* \"#utility.yul\":27397:27417   */\n      sub\n        /* \"#utility.yul\":27393:27394   */\n      0x00\n        /* \"#utility.yul\":27382:27391   */\n      dup4\n        /* \"#utility.yul\":27378:27395   */\n      add\n        /* \"#utility.yul\":27371:27418   */\n      mstore\n        /* \"#utility.yul\":27435:27566   */\n      tag_591\n        /* \"#utility.yul\":27561:27565   */\n      dup2\n        /* \"#utility.yul\":27435:27566   */\n      tag_337\n      jump\t// in\n    tag_591:\n        /* \"#utility.yul\":27427:27566   */\n      swap1\n      pop\n        /* \"#utility.yul\":27154:27573   */\n      swap2\n      swap1\n      pop\n      jump\t// out\n        /* \"#utility.yul\":27579:27746   */\n    tag_338:\n        /* \"#utility.yul\":27719:27738   */\n      0x5472616e736665722042206661696c6564000000000000000000000000000000\n        /* \"#utility.yul\":27715:27716   */\n      0x00\n        /* \"#utility.yul\":27707:27713   */\n      dup3\n        /* \"#utility.yul\":27703:27717   */\n      add\n        /* \"#utility.yul\":27696:27739   */\n      mstore\n        /* \"#utility.yul\":27579:27746   */\n      pop\n      jump\t// out\n        /* \"#utility.yul\":27752:28118   */\n    tag_339:\n        /* \"#utility.yul\":27894:27897   */\n      0x00\n        /* \"#utility.yul\":27915:27982   */\n      tag_594\n        /* \"#utility.yul\":27979:27981   */\n      0x11\n        /* \"#utility.yul\":27974:27977   */\n      dup4\n        /* \"#utility.yul\":27915:27982   */\n      tag_280\n      jump\t// in\n    tag_594:\n        /* \"#utility.yul\":27908:27982   */\n      swap2\n      pop\n        /* \"#utility.yul\":27991:28084   */\n      tag_595\n        /* \"#utility.yul\":28080:28083   */\n      dup3\n        /* \"#utility.yul\":27991:28084   */\n      tag_338\n      jump\t// in\n    tag_595:\n        /* \"#utility.yul\":28109:28111   */\n      0x20\n        /* \"#utility.yul\":28104:28107   */\n      dup3\n        /* \"#utility.yul\":28100:28112   */\n      add\n        /* \"#utility.yul\":28093:28112   */\n      swap1\n      pop\n        /* \"#utility.yul\":27752:28118   */\n      swap2\n      swap1\n      pop\n      jump\t// out\n        /* \"#utility.yul\":28124:28543   */\n    tag_205:\n        /* \"#utility.yul\":28290:28294   */\n      0x00\n        /* \"#utility.yul\":28328:28330   */\n      0x20\n        /* \"#utility.yul\":28317:28326   */\n      dup3\n        /* \"#utility.yul\":28313:28331   */\n      add\n        /* \"#utility.yul\":28305:28331   */\n      swap1\n      pop\n        /* \"#utility.yul\":28377:28386   */\n      dup2\n        /* \"#utility.yul\":28371:28375   */\n      dup2\n        /* \"#utility.yul\":28367:28387   */\n      sub\n        /* \"#utility.yul\":28363:28364   */\n      0x00\n        /* \"#utility.yul\":28352:28361   */\n      dup4\n        /* \"#utility.yul\":28348:28365   */\n      add\n        /* \"#utility.yul\":28341:28388   */\n      mstore\n        /* \"#utility.yul\":28405:28536   */\n      tag_597\n        /* \"#utility.yul\":28531:28535   */\n      dup2\n        /* \"#utility.yul\":28405:28536   */\n      tag_339\n      jump\t// in\n    tag_597:\n        /* \"#utility.yul\":28397:28536   */\n      swap1\n      pop\n        /* \"#utility.yul\":28124:28543   */\n      swap2\n      swap1\n      pop\n      jump\t// out\n        /* \"#utility.yul\":28549:28729   */\n    tag_340:\n        /* \"#utility.yul\":28689:28721   */\n      0x496e73756666696369656e7420696e697469616c206c69717569646974790000\n        /* \"#utility.yul\":28685:28686   */\n      0x00\n        /* \"#utility.yul\":28677:28683   */\n      dup3\n        /* \"#utility.yul\":28673:28687   */\n      add\n        /* \"#utility.yul\":28666:28722   */\n      mstore\n        /* \"#utility.yul\":28549:28729   */\n      pop\n      jump\t// out\n        /* \"#utility.yul\":28735:29101   */\n    tag_341:\n        /* \"#utility.yul\":28877:28880   */\n      0x00\n        /* \"#utility.yul\":28898:28965   */\n      tag_600\n        /* \"#utility.yul\":28962:28964   */\n      0x1e\n        /* \"#utility.yul\":28957:28960   */\n      dup4\n        /* \"#utility.yul\":28898:28965   */\n      tag_280\n      jump\t// in\n    tag_600:\n        /* \"#utility.yul\":28891:28965   */\n      swap2\n      pop\n        /* \"#utility.yul\":28974:29067   */\n      tag_601\n        /* \"#utility.yul\":29063:29066   */\n      dup3\n        /* \"#utility.yul\":28974:29067   */\n      tag_340\n      jump\t// in\n    tag_601:\n        /* \"#utility.yul\":29092:29094   */\n      0x20\n        /* \"#utility.yul\":29087:29090   */\n      dup3\n        /* \"#utility.yul\":29083:29095   */\n      add\n        /* \"#utility.yul\":29076:29095   */\n      swap1\n      pop\n        /* \"#utility.yul\":28735:29101   */\n      swap2\n      swap1\n      pop\n      jump\t// out\n        /* \"#utility.yul\":29107:29526   */\n    tag_218:\n        /* \"#utility.yul\":29273:29277   */\n      0x00\n        /* \"#utility.yul\":29311:29313   */\n      0x20\n        /* \"#utility.yul\":29300:29309   */\n      dup3\n        /* \"#utility.yul\":29296:29314   */\n      add\n        /* \"#utility.yul\":29288:29314   */\n      swap1\n      pop\n        /* \"#utility.yul\":29360:29369   */\n      dup2\n        /* \"#utility.yul\":29354:29358   */\n      dup2\n        /* \"#utility.yul\":29350:29370   */\n      sub\n        /* \"#utility.yul\":29346:29347   */\n      0x00\n        /* \"#utility.yul\":29335:29344   */\n      dup4\n        /* \"#utility.yul\":29331:29348   */\n      add\n        /* \"#utility.yul\":29324:29371   */\n      mstore\n        /* \"#utility.yul\":29388:29519   */\n      tag_603\n        /* \"#utility.yul\":29514:29518   */\n      dup2\n        /* \"#utility.yul\":29388:29519   */\n      tag_341\n      jump\t// in\n    tag_603:\n        /* \"#utility.yul\":29380:29519   */\n      swap1\n      pop\n        /* \"#utility.yul\":29107:29526   */\n      swap2\n      swap1\n      pop\n      jump\t// out\n        /* \"#utility.yul\":29532:29703   */\n    tag_342:\n        /* \"#utility.yul\":29672:29695   */\n      0x496e73756666696369656e74204220616d6f756e740000000000000000000000\n        /* \"#utility.yul\":29668:29669   */\n      0x00\n        /* \"#utility.yul\":29660:29666   */\n      dup3\n        /* \"#utility.yul\":29656:29670   */\n      add\n        /* \"#utility.yul\":29649:29696   */\n      mstore\n        /* \"#utility.yul\":29532:29703   */\n      pop\n      jump\t// out\n        /* \"#utility.yul\":29709:30075   */\n    tag_343:\n        /* \"#utility.yul\":29851:29854   */\n      0x00\n        /* \"#utility.yul\":29872:29939   */\n      tag_606\n        /* \"#utility.yul\":29936:29938   */\n      0x15\n        /* \"#utility.yul\":29931:29934   */\n      dup4\n        /* \"#utility.yul\":29872:29939   */\n      tag_280\n      jump\t// in\n    tag_606:\n        /* \"#utility.yul\":29865:29939   */\n      swap2\n      pop\n        /* \"#utility.yul\":29948:30041   */\n      tag_607\n        /* \"#utility.yul\":30037:30040   */\n      dup3\n        /* \"#utility.yul\":29948:30041   */\n      tag_342\n      jump\t// in\n    tag_607:\n        /* \"#utility.yul\":30066:30068   */\n      0x20\n        /* \"#utility.yul\":30061:30064   */\n      dup3\n        /* \"#utility.yul\":30057:30069   */\n      add\n        /* \"#utility.yul\":30050:30069   */\n      swap1\n      pop\n        /* \"#utility.yul\":29709:30075   */\n      swap2\n      swap1\n      pop\n      jump\t// out\n        /* \"#utility.yul\":30081:30500   */\n    tag_225:\n        /* \"#utility.yul\":30247:30251   */\n      0x00\n        /* \"#utility.yul\":30285:30287   */\n      0x20\n        /* \"#utility.yul\":30274:30283   */\n      dup3\n        /* \"#utility.yul\":30270:30288   */\n      add\n        /* \"#utility.yul\":30262:30288   */\n      swap1\n      pop\n        /* \"#utility.yul\":30334:30343   */\n      dup2\n        /* \"#utility.yul\":30328:30332   */\n      dup2\n        /* \"#utility.yul\":30324:30344   */\n      sub\n        /* \"#utility.yul\":30320:30321   */\n      0x00\n        /* \"#utility.yul\":30309:30318   */\n      dup4\n        /* \"#utility.yul\":30305:30322   */\n      add\n        /* \"#utility.yul\":30298:30345   */\n      mstore\n        /* \"#utility.yul\":30362:30493   */\n      tag_609\n        /* \"#utility.yul\":30488:30492   */\n      dup2\n        /* \"#utility.yul\":30362:30493   */\n      tag_343\n      jump\t// in\n    tag_609:\n        /* \"#utility.yul\":30354:30493   */\n      swap1\n      pop\n        /* \"#utility.yul\":30081:30500   */\n      swap2\n      swap1\n      pop\n      jump\t// out\n        /* \"#utility.yul\":30506:30677   */\n    tag_344:\n        /* \"#utility.yul\":30646:30669   */\n      0x496e73756666696369656e74204120616d6f756e740000000000000000000000\n        /* \"#utility.yul\":30642:30643   */\n      0x00\n        /* \"#utility.yul\":30634:30640   */\n      dup3\n        /* \"#utility.yul\":30630:30644   */\n      add\n        /* \"#utility.yul\":30623:30670   */\n      mstore\n        /* \"#utility.yul\":30506:30677   */\n      pop\n      jump\t// out\n        /* \"#utility.yul\":30683:31049   */\n    tag_345:\n        /* \"#utility.yul\":30825:30828   */\n      0x00\n        /* \"#utility.yul\":30846:30913   */\n      tag_612\n        /* \"#utility.yul\":30910:30912   */\n      0x15\n        /* \"#utility.yul\":30905:30908   */\n      dup4\n        /* \"#utility.yul\":30846:30913   */\n      tag_280\n      jump\t// in\n    tag_612:\n        /* \"#utility.yul\":30839:30913   */\n      swap2\n      pop\n        /* \"#utility.yul\":30922:31015   */\n      tag_613\n        /* \"#utility.yul\":31011:31014   */\n      dup3\n        /* \"#utility.yul\":30922:31015   */\n      tag_344\n      jump\t// in\n    tag_613:\n        /* \"#utility.yul\":31040:31042   */\n      0x20\n        /* \"#utility.yul\":31035:31038   */\n      dup3\n        /* \"#utility.yul\":31031:31043   */\n      add\n        /* \"#utility.yul\":31024:31043   */\n      swap1\n      pop\n        /* \"#utility.yul\":30683:31049   */\n      swap2\n      swap1\n      pop\n      jump\t// out\n        /* \"#utility.yul\":31055:31474   */\n    tag_231:\n        /* \"#utility.yul\":31221:31225   */\n      0x00\n        /* \"#utility.yul\":31259:31261   */\n      0x20\n        /* \"#utility.yul\":31248:31257   */\n      dup3\n        /* \"#utility.yul\":31244:31262   */\n      add\n        /* \"#utility.yul\":31236:31262   */\n      swap1\n      pop\n        /* \"#utility.yul\":31308:31317   */\n      dup2\n        /* \"#utility.yul\":31302:31306   */\n      dup2\n        /* \"#utility.yul\":31298:31318   */\n      sub\n        /* \"#utility.yul\":31294:31295   */\n      0x00\n        /* \"#utility.yul\":31283:31292   */\n      dup4\n        /* \"#utility.yul\":31279:31296   */\n      add\n        /* \"#utility.yul\":31272:31319   */\n      mstore\n        /* \"#utility.yul\":31336:31467   */\n      tag_615\n        /* \"#utility.yul\":31462:31466   */\n      dup2\n        /* \"#utility.yul\":31336:31467   */\n      tag_345\n      jump\t// in\n    tag_615:\n        /* \"#utility.yul\":31328:31467   */\n      swap1\n      pop\n        /* \"#utility.yul\":31055:31474   */\n      swap2\n      swap1\n      pop\n      jump\t// out\n        /* \"#utility.yul\":31480:31701   */\n    tag_346:\n        /* \"#utility.yul\":31620:31654   */\n      0x45524332303a206275726e20616d6f756e7420657863656564732062616c616e\n        /* \"#utility.yul\":31616:31617   */\n      0x00\n        /* \"#utility.yul\":31608:31614   */\n      dup3\n        /* \"#utility.yul\":31604:31618   */\n      add\n        /* \"#utility.yul\":31597:31655   */\n      mstore\n        /* \"#utility.yul\":31689:31693   */\n      0x6365000000000000000000000000000000000000000000000000000000000000\n        /* \"#utility.yul\":31684:31686   */\n      0x20\n        /* \"#utility.yul\":31676:31682   */\n      dup3\n        /* \"#utility.yul\":31672:31687   */\n      add\n        /* \"#utility.yul\":31665:31694   */\n      mstore\n        /* \"#utility.yul\":31480:31701   */\n      pop\n      jump\t// out\n        /* \"#utility.yul\":31707:32073   */\n    tag_347:\n        /* \"#utility.yul\":31849:31852   */\n      0x00\n        /* \"#utility.yul\":31870:31937   */\n      tag_618\n        /* \"#utility.yul\":31934:31936   */\n      0x22\n        /* \"#utility.yul\":31929:31932   */\n      dup4\n        /* \"#utility.yul\":31870:31937   */\n      tag_280\n      jump\t// in\n    tag_618:\n        /* \"#utility.yul\":31863:31937   */\n      swap2\n      pop\n        /* \"#utility.yul\":31946:32039   */\n      tag_619\n        /* \"#utility.yul\":32035:32038   */\n      dup3\n        /* \"#utility.yul\":31946:32039   */\n      tag_346\n      jump\t// in\n    tag_619:\n        /* \"#utility.yul\":32064:32066   */\n      0x40\n        /* \"#utility.yul\":32059:32062   */\n      dup3\n        /* \"#utility.yul\":32055:32067   */\n      add\n        /* \"#utility.yul\":32048:32067   */\n      swap1\n      pop\n        /* \"#utility.yul\":31707:32073   */\n      swap2\n      swap1\n      pop\n      jump\t// out\n        /* \"#utility.yul\":32079:32498   */\n    tag_257:\n        /* \"#utility.yul\":32245:32249   */\n      0x00\n        /* \"#utility.yul\":32283:32285   */\n      0x20\n        /* \"#utility.yul\":32272:32281   */\n      dup3\n        /* \"#utility.yul\":32268:32286   */\n      add\n        /* \"#utility.yul\":32260:32286   */\n      swap1\n      pop\n        /* \"#utility.yul\":32332:32341   */\n      dup2\n        /* \"#utility.yul\":32326:32330   */\n      dup2\n        /* \"#utility.yul\":32322:32342   */\n      sub\n        /* \"#utility.yul\":32318:32319   */\n      0x00\n        /* \"#utility.yul\":32307:32316   */\n      dup4\n        /* \"#utility.yul\":32303:32320   */\n      add\n        /* \"#utility.yul\":32296:32343   */\n      mstore\n        /* \"#utility.yul\":32360:32491   */\n      tag_621\n        /* \"#utility.yul\":32486:32490   */\n      dup2\n        /* \"#utility.yul\":32360:32491   */\n      tag_347\n      jump\t// in\n    tag_621:\n        /* \"#utility.yul\":32352:32491   */\n      swap1\n      pop\n        /* \"#utility.yul\":32079:32498   */\n      swap2\n      swap1\n      pop\n      jump\t// out\n\n    auxdata: 0xa264697066735822122025493e94cd8598365efed3f95e9aa6367b0f194559008e1b48629c9455432a4364736f6c634300081e0033\n}\n",
				"bytecode": {
					"linkReferences": {},
					"object": "60a0604052601260ff1660809060ff1681525034801561001d575f5ffd5b506040518060400160405280600f81526020017f53696d706c65204c5020546f6b656e00000000000000000000000000000000008152506040518060400160405280600381526020017f534c500000000000000000000000000000000000000000000000000000000000815250815f908161009891906102ed565b5080600190816100a891906102ed565b5050506103bc565b5f81519050919050565b7f4e487b71000000000000000000000000000000000000000000000000000000005f52604160045260245ffd5b7f4e487b71000000000000000000000000000000000000000000000000000000005f52602260045260245ffd5b5f600282049050600182168061012b57607f821691505b60208210810361013e5761013d6100e7565b5b50919050565b5f819050815f5260205f209050919050565b5f6020601f8301049050919050565b5f82821b905092915050565b5f600883026101a07fffffffffffffffffffffffffffffffffffffffffffffffffffffffffffffffff82610165565b6101aa8683610165565b95508019841693508086168417925050509392505050565b5f819050919050565b5f819050919050565b5f6101ee6101e96101e4846101c2565b6101cb565b6101c2565b9050919050565b5f819050919050565b610207836101d4565b61021b610213826101f5565b848454610171565b825550505050565b5f5f905090565b610232610223565b61023d8184846101fe565b505050565b5b81811015610260576102555f8261022a565b600181019050610243565b5050565b601f8211156102a55761027681610144565b61027f84610156565b8101602085101561028e578190505b6102a261029a85610156565b830182610242565b50505b505050565b5f82821c905092915050565b5f6102c55f19846008026102aa565b1980831691505092915050565b5f6102dd83836102b6565b9150826002028217905092915050565b6102f6826100b0565b67ffffffffffffffff81111561030f5761030e6100ba565b5b6103198254610114565b610324828285610264565b5f60209050601f831160018114610355575f8415610343578287015190505b61034d85826102d2565b8655506103b4565b601f19841661036386610144565b5f5b8281101561038a57848901518255600182019150602085019450602081019050610365565b868310156103a757848901516103a3601f8916826102b6565b8355505b6001600288020188555050505b505050505050565b608051612ebe6103d45f395f6107d00152612ebe5ff3fe608060405234801561000f575f5ffd5b50600436106100f3575f3560e01c806395d89b4111610095578063ba9a7a5611610064578063ba9a7a56146102bf578063baa2abde146102dd578063dd62ed3e1461030e578063e8e337001461033e576100f3565b806395d89b4114610211578063961e50d31461022f5780639876077a1461025f578063a9059cbb1461028f576100f3565b806323b872dd116100d157806323b872dd14610163578063313ce5671461019357806338ed1739146101b157806370a08231146101e1576100f3565b806306fdde03146100f7578063095ea7b31461011557806318160ddd14610145575b5f5ffd5b6100ff610370565b60405161010c9190611f61565b60405180910390f35b61012f600480360381019061012a9190612016565b6103fb565b60405161013c919061206e565b60405180910390f35b61014d6104e8565b60405161015a9190612096565b60405180910390f35b61017d600480360381019061017891906120af565b6104ee565b60405161018a919061206e565b60405180910390f35b61019b6107ce565b6040516101a8919061211a565b60405180910390f35b6101cb60048036038101906101c69190612194565b6107f2565b6040516101d891906122e1565b60405180910390f35b6101fb60048036038101906101f69190612301565b610e23565b6040516102089190612096565b60405180910390f35b610219610e38565b6040516102269190611f61565b60405180910390f35b6102496004803603810190610244919061232c565b610ec4565b6040516102569190612096565b60405180910390f35b6102796004803603810190610274919061232c565b610ee4565b6040516102869190612096565b60405180910390f35b6102a960048036038101906102a49190612016565b610f04565b6040516102b6919061206e565b60405180910390f35b6102c761109a565b6040516102d49190612096565b60405180910390f35b6102f760048036038101906102f2919061236a565b6110a0565b604051610305929190612407565b60405180910390f35b6103286004803603810190610323919061232c565b611628565b6040516103359190612096565b60405180910390f35b6103586004803603810190610353919061242e565b611648565b604051610367939291906124df565b60405180910390f35b5f805461037c90612541565b80601f01602080910402602001604051908101604052809291908181526020018280546103a890612541565b80156103f35780601f106103ca576101008083540402835291602001916103f3565b820191905f5260205f20905b8154815290600101906020018083116103d657829003601f168201915b505050505081565b5f8160045f3373ffffffffffffffffffffffffffffffffffffffff1673ffffffffffffffffffffffffffffffffffffffff1681526020019081526020015f205f8573ffffffffffffffffffffffffffffffffffffffff1673ffffffffffffffffffffffffffffffffffffffff1681526020019081526020015f20819055508273ffffffffffffffffffffffffffffffffffffffff163373ffffffffffffffffffffffffffffffffffffffff167f8c5be1e5ebec7d5bd14f71427d1e84f3dd0314c0f7b2291e5b200ac8c7c3b925846040516104d69190612096565b60405180910390a36001905092915050565b60025481565b5f8160035f8673ffffffffffffffffffffffffffffffffffffffff1673ffffffffffffffffffffffffffffffffffffffff1681526020019081526020015f2054101561056f576040517f08c379a0000000000000000000000000000000000000000000000000000000008152600401610566906125e1565b60405180910390fd5b8160045f8673ffffffffffffffffffffffffffffffffffffffff1673ffffffffffffffffffffffffffffffffffffffff1681526020019081526020015f205f3373ffffffffffffffffffffffffffffffffffffffff1673ffffffffffffffffffffffffffffffffffffffff1681526020019081526020015f2054101561062a576040517f08c379a000000000000000000000000000000000000000000000000000000000815260040161062190612649565b60405180910390fd5b8160045f8673ffffffffffffffffffffffffffffffffffffffff1673ffffffffffffffffffffffffffffffffffffffff1681526020019081526020015f205f3373ffffffffffffffffffffffffffffffffffffffff1673ffffffffffffffffffffffffffffffffffffffff1681526020019081526020015f205f8282546106b19190612694565b925050819055508160035f8673ffffffffffffffffffffffffffffffffffffffff1673ffffffffffffffffffffffffffffffffffffffff1681526020019081526020015f205f8282546107049190612694565b925050819055508160035f8573ffffffffffffffffffffffffffffffffffffffff1673ffffffffffffffffffffffffffffffffffffffff1681526020019081526020015f205f82825461075791906126c7565b925050819055508273ffffffffffffffffffffffffffffffffffffffff168473ffffffffffffffffffffffffffffffffffffffff167fddf252ad1be2c89b69c2b068fc378daa952ba7f163c4a11628f55a4df523b3ef846040516107bb9190612096565b60405180910390a3600190509392505050565b7f000000000000000000000000000000000000000000000000000000000000000081565b60606002858590501461083a576040517f08c379a000000000000000000000000000000000000000000000000000000000815260040161083190612744565b60405180910390fd5b8142111561087d576040517f08c379a0000000000000000000000000000000000000000000000000000000008152600401610874906127ac565b60405180910390fd5b5f85855f818110610891576108906127ca565b5b90506020020160208101906108a69190612301565b90505f868660018181106108bd576108bc6127ca565b5b90506020020160208101906108d29190612301565b90505f60055f8473ffffffffffffffffffffffffffffffffffffffff1673ffffffffffffffffffffffffffffffffffffffff1681526020019081526020015f205f8373ffffffffffffffffffffffffffffffffffffffff1673ffffffffffffffffffffffffffffffffffffffff1681526020019081526020015f20541180156109d257505f60065f8473ffffffffffffffffffffffffffffffffffffffff1673ffffffffffffffffffffffffffffffffffffffff1681526020019081526020015f205f8373ffffffffffffffffffffffffffffffffffffffff1673ffffffffffffffffffffffffffffffffffffffff1681526020019081526020015f2054115b610a11576040517f08c379a0000000000000000000000000000000000000000000000000000000008152600401610a0890612841565b60405180910390fd5b8173ffffffffffffffffffffffffffffffffffffffff166323b872dd33308c6040518463ffffffff1660e01b8152600401610a4e9392919061286e565b6020604051808303815f875af1158015610a6a573d5f5f3e3d5ffd5b505050506040513d601f19601f82011682018060405250810190610a8e91906128cd565b505f60055f8473ffffffffffffffffffffffffffffffffffffffff1673ffffffffffffffffffffffffffffffffffffffff1681526020019081526020015f205f8373ffffffffffffffffffffffffffffffffffffffff1673ffffffffffffffffffffffffffffffffffffffff1681526020019081526020015f205490505f60065f8573ffffffffffffffffffffffffffffffffffffffff1673ffffffffffffffffffffffffffffffffffffffff1681526020019081526020015f205f8473ffffffffffffffffffffffffffffffffffffffff1673ffffffffffffffffffffffffffffffffffffffff1681526020019081526020015f205490505f8b83610b9491906126c7565b828d610ba091906128f8565b610baa9190612966565b90508a811015610bef576040517f08c379a0000000000000000000000000000000000000000000000000000000008152600401610be6906129e0565b60405180910390fd5b8373ffffffffffffffffffffffffffffffffffffffff1663a9059cbb89836040518363ffffffff1660e01b8152600401610c2a9291906129fe565b6020604051808303815f875af1158015610c46573d5f5f3e3d5ffd5b505050506040513d601f19601f82011682018060405250810190610c6a91906128cd565b508b60055f8773ffffffffffffffffffffffffffffffffffffffff1673ffffffffffffffffffffffffffffffffffffffff1681526020019081526020015f205f8673ffffffffffffffffffffffffffffffffffffffff1673ffffffffffffffffffffffffffffffffffffffff1681526020019081526020015f205f828254610cf291906126c7565b925050819055508060065f8773ffffffffffffffffffffffffffffffffffffffff1673ffffffffffffffffffffffffffffffffffffffff1681526020019081526020015f205f8673ffffffffffffffffffffffffffffffffffffffff1673ffffffffffffffffffffffffffffffffffffffff1681526020019081526020015f205f828254610d809190612694565b92505081905550600267ffffffffffffffff811115610da257610da1612a25565b5b604051908082528060200260200182016040528015610dd05781602001602082028036833780820191505090505b5095508b865f81518110610de757610de66127ca565b5b6020026020010181815250508086600181518110610e0857610e076127ca565b5b60200260200101818152505050505050509695505050505050565b6003602052805f5260405f205f915090505481565b60018054610e4590612541565b80601f0160208091040260200160405190810160405280929190818152602001828054610e7190612541565b8015610ebc5780601f10610e9357610100808354040283529160200191610ebc565b820191905f5260205f20905b815481529060010190602001808311610e9f57829003601f168201915b505050505081565b6005602052815f5260405f20602052805f5260405f205f91509150505481565b6006602052815f5260405f20602052805f5260405f205f91509150505481565b5f8160035f3373ffffffffffffffffffffffffffffffffffffffff1673ffffffffffffffffffffffffffffffffffffffff1681526020019081526020015f20541015610f85576040517f08c379a0000000000000000000000000000000000000000000000000000000008152600401610f7c906125e1565b60405180910390fd5b8160035f3373ffffffffffffffffffffffffffffffffffffffff1673ffffffffffffffffffffffffffffffffffffffff1681526020019081526020015f205f828254610fd19190612694565b925050819055508160035f8573ffffffffffffffffffffffffffffffffffffffff1673ffffffffffffffffffffffffffffffffffffffff1681526020019081526020015f205f82825461102491906126c7565b925050819055508273ffffffffffffffffffffffffffffffffffffffff163373ffffffffffffffffffffffffffffffffffffffff167fddf252ad1be2c89b69c2b068fc378daa952ba7f163c4a11628f55a4df523b3ef846040516110889190612096565b60405180910390a36001905092915050565b6103e881565b5f5f824211156110e5576040517f08c379a00000000000000000000000000000000000000000000000000000000081526004016110dc906127ac565b60405180910390fd5b8773ffffffffffffffffffffffffffffffffffffffff168973ffffffffffffffffffffffffffffffffffffffff1603611153576040517f08c379a000000000000000000000000000000000000000000000000000000000815260040161114a90612a9c565b60405180910390fd5b8660035f3373ffffffffffffffffffffffffffffffffffffffff1673ffffffffffffffffffffffffffffffffffffffff1681526020019081526020015f205410156111d3576040517f08c379a00000000000000000000000000000000000000000000000000000000081526004016111ca90612b04565b60405180910390fd5b5f60025490508060055f8c73ffffffffffffffffffffffffffffffffffffffff1673ffffffffffffffffffffffffffffffffffffffff1681526020019081526020015f205f8b73ffffffffffffffffffffffffffffffffffffffff1673ffffffffffffffffffffffffffffffffffffffff1681526020019081526020015f20548961125e91906128f8565b6112689190612966565b92508060065f8c73ffffffffffffffffffffffffffffffffffffffff1673ffffffffffffffffffffffffffffffffffffffff1681526020019081526020015f205f8b73ffffffffffffffffffffffffffffffffffffffff1673ffffffffffffffffffffffffffffffffffffffff1681526020019081526020015f2054896112ef91906128f8565b6112f99190612966565b91508683101561133e576040517f08c379a000000000000000000000000000000000000000000000000000000000815260040161133590612b6c565b60405180910390fd5b85821015611381576040517f08c379a000000000000000000000000000000000000000000000000000000000815260040161137890612bd4565b60405180910390fd5b61138b3389611c3a565b8260055f8c73ffffffffffffffffffffffffffffffffffffffff1673ffffffffffffffffffffffffffffffffffffffff1681526020019081526020015f205f8b73ffffffffffffffffffffffffffffffffffffffff1673ffffffffffffffffffffffffffffffffffffffff1681526020019081526020015f205f8282546114129190612694565b925050819055508160065f8c73ffffffffffffffffffffffffffffffffffffffff1673ffffffffffffffffffffffffffffffffffffffff1681526020019081526020015f205f8b73ffffffffffffffffffffffffffffffffffffffff1673ffffffffffffffffffffffffffffffffffffffff1681526020019081526020015f205f8282546114a09190612694565b925050819055508973ffffffffffffffffffffffffffffffffffffffff1663a9059cbb86856040518363ffffffff1660e01b81526004016114e29291906129fe565b6020604051808303815f875af11580156114fe573d5f5f3e3d5ffd5b505050506040513d601f19601f8201168201806040525081019061152291906128cd565b611561576040517f08c379a000000000000000000000000000000000000000000000000000000000815260040161155890612c3c565b60405180910390fd5b8873ffffffffffffffffffffffffffffffffffffffff1663a9059cbb86846040518363ffffffff1660e01b815260040161159c9291906129fe565b6020604051808303815f875af11580156115b8573d5f5f3e3d5ffd5b505050506040513d601f19601f820116820180604052508101906115dc91906128cd565b61161b576040517f08c379a000000000000000000000000000000000000000000000000000000000815260040161161290612ca4565b60405180910390fd5b5097509795505050505050565b6004602052815f5260405f20602052805f5260405f205f91509150505481565b5f5f5f8342111561168e576040517f08c379a0000000000000000000000000000000000000000000000000000000008152600401611685906127ac565b60405180910390fd5b8973ffffffffffffffffffffffffffffffffffffffff168b73ffffffffffffffffffffffffffffffffffffffff16036116fc576040517f08c379a00000000000000000000000000000000000000000000000000000000081526004016116f390612a9c565b60405180910390fd5b5f60055f8d73ffffffffffffffffffffffffffffffffffffffff1673ffffffffffffffffffffffffffffffffffffffff1681526020019081526020015f205f8c73ffffffffffffffffffffffffffffffffffffffff1673ffffffffffffffffffffffffffffffffffffffff1681526020019081526020015f205490505f60065f8e73ffffffffffffffffffffffffffffffffffffffff1673ffffffffffffffffffffffffffffffffffffffff1681526020019081526020015f205f8d73ffffffffffffffffffffffffffffffffffffffff1673ffffffffffffffffffffffffffffffffffffffff1681526020019081526020015f205490505f8214801561180257505f81145b1561186d578a9450899350611821848661181c91906128f8565b611d8e565b92506103e8831015611868576040517f08c379a000000000000000000000000000000000000000000000000000000000815260040161185f90612d0c565b60405180910390fd5b61198c565b5f60025490505f83838e61188191906128f8565b61188b9190612966565b90508b81116118e257898110156118d7576040517f08c379a00000000000000000000000000000000000000000000000000000000081526004016118ce90612d74565b60405180910390fd5b8c9650809550611947565b5f83858e6118f091906128f8565b6118fa9190612966565b90508b81101561193f576040517f08c379a000000000000000000000000000000000000000000000000000000000815260040161193690612ddc565b60405180910390fd5b8097508c9650505b5f84838961195591906128f8565b61195f9190612966565b90505f84848961196f91906128f8565b6119799190612966565b90506119858282611e05565b9650505050505b8c73ffffffffffffffffffffffffffffffffffffffff166323b872dd3330886040518463ffffffff1660e01b81526004016119c99392919061286e565b6020604051808303815f875af11580156119e5573d5f5f3e3d5ffd5b505050506040513d601f19601f82011682018060405250810190611a0991906128cd565b611a48576040517f08c379a0000000000000000000000000000000000000000000000000000000008152600401611a3f90612c3c565b60405180910390fd5b8b73ffffffffffffffffffffffffffffffffffffffff166323b872dd3330876040518463ffffffff1660e01b8152600401611a859392919061286e565b6020604051808303815f875af1158015611aa1573d5f5f3e3d5ffd5b505050506040513d601f19601f82011682018060405250810190611ac591906128cd565b611b04576040517f08c379a0000000000000000000000000000000000000000000000000000000008152600401611afb90612ca4565b60405180910390fd5b8460055f8f73ffffffffffffffffffffffffffffffffffffffff1673ffffffffffffffffffffffffffffffffffffffff1681526020019081526020015f205f8e73ffffffffffffffffffffffffffffffffffffffff1673ffffffffffffffffffffffffffffffffffffffff1681526020019081526020015f205f828254611b8b91906126c7565b925050819055508360065f8f73ffffffffffffffffffffffffffffffffffffffff1673ffffffffffffffffffffffffffffffffffffffff1681526020019081526020015f205f8e73ffffffffffffffffffffffffffffffffffffffff1673ffffffffffffffffffffffffffffffffffffffff1681526020019081526020015f205f828254611c1991906126c7565b92505081905550611c2a8784611e1d565b5050985098509895505050505050565b8060035f8473ffffffffffffffffffffffffffffffffffffffff1673ffffffffffffffffffffffffffffffffffffffff1681526020019081526020015f20541015611cba576040517f08c379a0000000000000000000000000000000000000000000000000000000008152600401611cb190612e6a565b60405180910390fd5b8060035f8473ffffffffffffffffffffffffffffffffffffffff1673ffffffffffffffffffffffffffffffffffffffff1681526020019081526020015f205f828254611d069190612694565b925050819055508060025f828254611d1e9190612694565b925050819055505f73ffffffffffffffffffffffffffffffffffffffff168273ffffffffffffffffffffffffffffffffffffffff167fddf252ad1be2c89b69c2b068fc378daa952ba7f163c4a11628f55a4df523b3ef83604051611d829190612096565b60405180910390a35050565b5f6003821115611df3578190505f6001600284611dab9190612966565b611db591906126c7565b90505b81811015611ded578091506002818285611dd29190612966565b611ddc91906126c7565b611de69190612966565b9050611db8565b50611e00565b5f8214611dff57600190505b5b919050565b5f818310611e135781611e15565b825b905092915050565b8060025f828254611e2e91906126c7565b925050819055508060035f8473ffffffffffffffffffffffffffffffffffffffff1673ffffffffffffffffffffffffffffffffffffffff1681526020019081526020015f205f828254611e8191906126c7565b925050819055508173ffffffffffffffffffffffffffffffffffffffff165f73ffffffffffffffffffffffffffffffffffffffff167fddf252ad1be2c89b69c2b068fc378daa952ba7f163c4a11628f55a4df523b3ef83604051611ee59190612096565b60405180910390a35050565b5f81519050919050565b5f82825260208201905092915050565b8281835e5f83830152505050565b5f601f19601f8301169050919050565b5f611f3382611ef1565b611f3d8185611efb565b9350611f4d818560208601611f0b565b611f5681611f19565b840191505092915050565b5f6020820190508181035f830152611f798184611f29565b905092915050565b5f5ffd5b5f5ffd5b5f73ffffffffffffffffffffffffffffffffffffffff82169050919050565b5f611fb282611f89565b9050919050565b611fc281611fa8565b8114611fcc575f5ffd5b50565b5f81359050611fdd81611fb9565b92915050565b5f819050919050565b611ff581611fe3565b8114611fff575f5ffd5b50565b5f8135905061201081611fec565b92915050565b5f5f6040838503121561202c5761202b611f81565b5b5f61203985828601611fcf565b925050602061204a85828601612002565b9150509250929050565b5f8115159050919050565b61206881612054565b82525050565b5f6020820190506120815f83018461205f565b92915050565b61209081611fe3565b82525050565b5f6020820190506120a95f830184612087565b92915050565b5f5f5f606084860312156120c6576120c5611f81565b5b5f6120d386828701611fcf565b93505060206120e486828701611fcf565b92505060406120f586828701612002565b9150509250925092565b5f60ff82169050919050565b612114816120ff565b82525050565b5f60208201905061212d5f83018461210b565b92915050565b5f5ffd5b5f5ffd5b5f5ffd5b5f5f83601f84011261215457612153612133565b5b8235905067ffffffffffffffff81111561217157612170612137565b5b60208301915083602082028301111561218d5761218c61213b565b5b9250929050565b5f5f5f5f5f5f60a087890312156121ae576121ad611f81565b5b5f6121bb89828a01612002565b96505060206121cc89828a01612002565b955050604087013567ffffffffffffffff8111156121ed576121ec611f85565b5b6121f989828a0161213f565b9450945050606061220c89828a01611fcf565b925050608061221d89828a01612002565b9150509295509295509295565b5f81519050919050565b5f82825260208201905092915050565b5f819050602082019050919050565b61225c81611fe3565b82525050565b5f61226d8383612253565b60208301905092915050565b5f602082019050919050565b5f61228f8261222a565b6122998185612234565b93506122a483612244565b805f5b838110156122d45781516122bb8882612262565b97506122c683612279565b9250506001810190506122a7565b5085935050505092915050565b5f6020820190508181035f8301526122f98184612285565b905092915050565b5f6020828403121561231657612315611f81565b5b5f61232384828501611fcf565b91505092915050565b5f5f6040838503121561234257612341611f81565b5b5f61234f85828601611fcf565b925050602061236085828601611fcf565b9150509250929050565b5f5f5f5f5f5f5f60e0888a03121561238557612384611f81565b5b5f6123928a828b01611fcf565b97505060206123a38a828b01611fcf565b96505060406123b48a828b01612002565b95505060606123c58a828b01612002565b94505060806123d68a828b01612002565b93505060a06123e78a828b01611fcf565b92505060c06123f88a828b01612002565b91505092959891949750929550565b5f60408201905061241a5f830185612087565b6124276020830184612087565b9392505050565b5f5f5f5f5f5f5f5f610100898b03121561244b5761244a611f81565b5b5f6124588b828c01611fcf565b98505060206124698b828c01611fcf565b975050604061247a8b828c01612002565b965050606061248b8b828c01612002565b955050608061249c8b828c01612002565b94505060a06124ad8b828c01612002565b93505060c06124be8b828c01611fcf565b92505060e06124cf8b828c01612002565b9150509295985092959890939650565b5f6060820190506124f25f830186612087565b6124ff6020830185612087565b61250c6040830184612087565b949350505050565b7f4e487b71000000000000000000000000000000000000000000000000000000005f52602260045260245ffd5b5f600282049050600182168061255857607f821691505b60208210810361256b5761256a612514565b5b50919050565b7f45524332303a207472616e7366657220616d6f756e74206578636565647320625f8201527f616c616e63650000000000000000000000000000000000000000000000000000602082015250565b5f6125cb602683611efb565b91506125d682612571565b604082019050919050565b5f6020820190508181035f8301526125f8816125bf565b9050919050565b7f45524332303a20696e73756666696369656e7420616c6c6f77616e63650000005f82015250565b5f612633601d83611efb565b915061263e826125ff565b602082019050919050565b5f6020820190508181035f83015261266081612627565b9050919050565b7f4e487b71000000000000000000000000000000000000000000000000000000005f52601160045260245ffd5b5f61269e82611fe3565b91506126a983611fe3565b92508282039050818111156126c1576126c0612667565b5b92915050565b5f6126d182611fe3565b91506126dc83611fe3565b92508282019050808211156126f4576126f3612667565b5b92915050565b7f4f6e6c792064697265637420737761707320737570706f7274656400000000005f82015250565b5f61272e601b83611efb565b9150612739826126fa565b602082019050919050565b5f6020820190508181035f83015261275b81612722565b9050919050565b7f5472616e73616374696f6e2065787069726564000000000000000000000000005f82015250565b5f612796601383611efb565b91506127a182612762565b602082019050919050565b5f6020820190508181035f8301526127c38161278a565b9050919050565b7f4e487b71000000000000000000000000000000000000000000000000000000005f52603260045260245ffd5b7f506f6f6c20646f65736e277420657869737400000000000000000000000000005f82015250565b5f61282b601283611efb565b9150612836826127f7565b602082019050919050565b5f6020820190508181035f8301526128588161281f565b9050919050565b61286881611fa8565b82525050565b5f6060820190506128815f83018661285f565b61288e602083018561285f565b61289b6040830184612087565b949350505050565b6128ac81612054565b81146128b6575f5ffd5b50565b5f815190506128c7816128a3565b92915050565b5f602082840312156128e2576128e1611f81565b5b5f6128ef848285016128b9565b91505092915050565b5f61290282611fe3565b915061290d83611fe3565b925082820261291b81611fe3565b9150828204841483151761293257612931612667565b5b5092915050565b7f4e487b71000000000000000000000000000000000000000000000000000000005f52601260045260245ffd5b5f61297082611fe3565b915061297b83611fe3565b92508261298b5761298a612939565b5b828204905092915050565b7f496e73756666696369656e74206f757470757420616d6f756e740000000000005f82015250565b5f6129ca601a83611efb565b91506129d582612996565b602082019050919050565b5f6020820190508181035f8301526129f7816129be565b9050919050565b5f604082019050612a115f83018561285f565b612a1e6020830184612087565b9392505050565b7f4e487b71000000000000000000000000000000000000000000000000000000005f52604160045260245ffd5b7f4964656e746963616c20746f6b656e73000000000000000000000000000000005f82015250565b5f612a86601083611efb565b9150612a9182612a52565b602082019050919050565b5f6020820190508181035f830152612ab381612a7a565b9050919050565b7f4e6f7420656e6f756768204c5020746f6b656e730000000000000000000000005f82015250565b5f612aee601483611efb565b9150612af982612aba565b602082019050919050565b5f6020820190508181035f830152612b1b81612ae2565b9050919050565b7f416d6f756e74204120746f6f206c6f77000000000000000000000000000000005f82015250565b5f612b56601083611efb565b9150612b6182612b22565b602082019050919050565b5f6020820190508181035f830152612b8381612b4a565b9050919050565b7f416d6f756e74204220746f6f206c6f77000000000000000000000000000000005f82015250565b5f612bbe601083611efb565b9150612bc982612b8a565b602082019050919050565b5f6020820190508181035f830152612beb81612bb2565b9050919050565b7f5472616e736665722041206661696c65640000000000000000000000000000005f82015250565b5f612c26601183611efb565b9150612c3182612bf2565b602082019050919050565b5f6020820190508181035f830152612c5381612c1a565b9050919050565b7f5472616e736665722042206661696c65640000000000000000000000000000005f82015250565b5f612c8e601183611efb565b9150612c9982612c5a565b602082019050919050565b5f6020820190508181035f830152612cbb81612c82565b9050919050565b7f496e73756666696369656e7420696e697469616c206c697175696469747900005f82015250565b5f612cf6601e83611efb565b9150612d0182612cc2565b602082019050919050565b5f6020820190508181035f830152612d2381612cea565b9050919050565b7f496e73756666696369656e74204220616d6f756e7400000000000000000000005f82015250565b5f612d5e601583611efb565b9150612d6982612d2a565b602082019050919050565b5f6020820190508181035f830152612d8b81612d52565b9050919050565b7f496e73756666696369656e74204120616d6f756e7400000000000000000000005f82015250565b5f612dc6601583611efb565b9150612dd182612d92565b602082019050919050565b5f6020820190508181035f830152612df381612dba565b9050919050565b7f45524332303a206275726e20616d6f756e7420657863656564732062616c616e5f8201527f6365000000000000000000000000000000000000000000000000000000000000602082015250565b5f612e54602283611efb565b9150612e5f82612dfa565b604082019050919050565b5f6020820190508181035f830152612e8181612e48565b905091905056fea264697066735822122025493e94cd8598365efed3f95e9aa6367b0f194559008e1b48629c9455432a4364736f6c634300081e0033",
					"opcodes": "PUSH1 0xA0 PUSH1 0x40 MSTORE PUSH1 0x12 PUSH1 0xFF AND PUSH1 0x80 SWAP1 PUSH1 0xFF AND DUP2 MSTORE POP CALLVALUE DUP1 ISZERO PUSH2 0x1D JUMPI PUSH0 PUSH0 REVERT JUMPDEST POP PUSH1 0x40 MLOAD DUP1 PUSH1 0x40 ADD PUSH1 0x40 MSTORE DUP1 PUSH1 0xF DUP2 MSTORE PUSH1 0x20 ADD PUSH32 0x53696D706C65204C5020546F6B656E0000000000000000000000000000000000 DUP2 MSTORE POP PUSH1 0x40 MLOAD DUP1 PUSH1 0x40 ADD PUSH1 0x40 MSTORE DUP1 PUSH1 0x3 DUP2 MSTORE PUSH1 0x20 ADD PUSH32 0x534C500000000000000000000000000000000000000000000000000000000000 DUP2 MSTORE POP DUP2 PUSH0 SWAP1 DUP2 PUSH2 0x98 SWAP2 SWAP1 PUSH2 0x2ED JUMP JUMPDEST POP DUP1 PUSH1 0x1 SWAP1 DUP2 PUSH2 0xA8 SWAP2 SWAP1 PUSH2 0x2ED JUMP JUMPDEST POP POP POP PUSH2 0x3BC JUMP JUMPDEST PUSH0 DUP2 MLOAD SWAP1 POP SWAP2 SWAP1 POP JUMP JUMPDEST PUSH32 0x4E487B7100000000000000000000000000000000000000000000000000000000 PUSH0 MSTORE PUSH1 0x41 PUSH1 0x4 MSTORE PUSH1 0x24 PUSH0 REVERT JUMPDEST PUSH32 0x4E487B7100000000000000000000000000000000000000000000000000000000 PUSH0 MSTORE PUSH1 0x22 PUSH1 0x4 MSTORE PUSH1 0x24 PUSH0 REVERT JUMPDEST PUSH0 PUSH1 0x2 DUP3 DIV SWAP1 POP PUSH1 0x1 DUP3 AND DUP1 PUSH2 0x12B JUMPI PUSH1 0x7F DUP3 AND SWAP2 POP JUMPDEST PUSH1 0x20 DUP3 LT DUP2 SUB PUSH2 0x13E JUMPI PUSH2 0x13D PUSH2 0xE7 JUMP JUMPDEST JUMPDEST POP SWAP2 SWAP1 POP JUMP JUMPDEST PUSH0 DUP2 SWAP1 POP DUP2 PUSH0 MSTORE PUSH1 0x20 PUSH0 KECCAK256 SWAP1 POP SWAP2 SWAP1 POP JUMP JUMPDEST PUSH0 PUSH1 0x20 PUSH1 0x1F DUP4 ADD DIV SWAP1 POP SWAP2 SWAP1 POP JUMP JUMPDEST PUSH0 DUP3 DUP3 SHL SWAP1 POP SWAP3 SWAP2 POP POP JUMP JUMPDEST PUSH0 PUSH1 0x8 DUP4 MUL PUSH2 0x1A0 PUSH32 0xFFFFFFFFFFFFFFFFFFFFFFFFFFFFFFFFFFFFFFFFFFFFFFFFFFFFFFFFFFFFFFFF DUP3 PUSH2 0x165 JUMP JUMPDEST PUSH2 0x1AA DUP7 DUP4 PUSH2 0x165 JUMP JUMPDEST SWAP6 POP DUP1 NOT DUP5 AND SWAP4 POP DUP1 DUP7 AND DUP5 OR SWAP3 POP POP POP SWAP4 SWAP3 POP POP POP JUMP JUMPDEST PUSH0 DUP2 SWAP1 POP SWAP2 SWAP1 POP JUMP JUMPDEST PUSH0 DUP2 SWAP1 POP SWAP2 SWAP1 POP JUMP JUMPDEST PUSH0 PUSH2 0x1EE PUSH2 0x1E9 PUSH2 0x1E4 DUP5 PUSH2 0x1C2 JUMP JUMPDEST PUSH2 0x1CB JUMP JUMPDEST PUSH2 0x1C2 JUMP JUMPDEST SWAP1 POP SWAP2 SWAP1 POP JUMP JUMPDEST PUSH0 DUP2 SWAP1 POP SWAP2 SWAP1 POP JUMP JUMPDEST PUSH2 0x207 DUP4 PUSH2 0x1D4 JUMP JUMPDEST PUSH2 0x21B PUSH2 0x213 DUP3 PUSH2 0x1F5 JUMP JUMPDEST DUP5 DUP5 SLOAD PUSH2 0x171 JUMP JUMPDEST DUP3 SSTORE POP POP POP POP JUMP JUMPDEST PUSH0 PUSH0 SWAP1 POP SWAP1 JUMP JUMPDEST PUSH2 0x232 PUSH2 0x223 JUMP JUMPDEST PUSH2 0x23D DUP2 DUP5 DUP5 PUSH2 0x1FE JUMP JUMPDEST POP POP POP JUMP JUMPDEST JUMPDEST DUP2 DUP2 LT ISZERO PUSH2 0x260 JUMPI PUSH2 0x255 PUSH0 DUP3 PUSH2 0x22A JUMP JUMPDEST PUSH1 0x1 DUP2 ADD SWAP1 POP PUSH2 0x243 JUMP JUMPDEST POP POP JUMP JUMPDEST PUSH1 0x1F DUP3 GT ISZERO PUSH2 0x2A5 JUMPI PUSH2 0x276 DUP2 PUSH2 0x144 JUMP JUMPDEST PUSH2 0x27F DUP5 PUSH2 0x156 JUMP JUMPDEST DUP2 ADD PUSH1 0x20 DUP6 LT ISZERO PUSH2 0x28E JUMPI DUP2 SWAP1 POP JUMPDEST PUSH2 0x2A2 PUSH2 0x29A DUP6 PUSH2 0x156 JUMP JUMPDEST DUP4 ADD DUP3 PUSH2 0x242 JUMP JUMPDEST POP POP JUMPDEST POP POP POP JUMP JUMPDEST PUSH0 DUP3 DUP3 SHR SWAP1 POP SWAP3 SWAP2 POP POP JUMP JUMPDEST PUSH0 PUSH2 0x2C5 PUSH0 NOT DUP5 PUSH1 0x8 MUL PUSH2 0x2AA JUMP JUMPDEST NOT DUP1 DUP4 AND SWAP2 POP POP SWAP3 SWAP2 POP POP JUMP JUMPDEST PUSH0 PUSH2 0x2DD DUP4 DUP4 PUSH2 0x2B6 JUMP JUMPDEST SWAP2 POP DUP3 PUSH1 0x2 MUL DUP3 OR SWAP1 POP SWAP3 SWAP2 POP POP JUMP JUMPDEST PUSH2 0x2F6 DUP3 PUSH2 0xB0 JUMP JUMPDEST PUSH8 0xFFFFFFFFFFFFFFFF DUP2 GT ISZERO PUSH2 0x30F JUMPI PUSH2 0x30E PUSH2 0xBA JUMP JUMPDEST JUMPDEST PUSH2 0x319 DUP3 SLOAD PUSH2 0x114 JUMP JUMPDEST PUSH2 0x324 DUP3 DUP3 DUP6 PUSH2 0x264 JUMP JUMPDEST PUSH0 PUSH1 0x20 SWAP1 POP PUSH1 0x1F DUP4 GT PUSH1 0x1 DUP2 EQ PUSH2 0x355 JUMPI PUSH0 DUP5 ISZERO PUSH2 0x343 JUMPI DUP3 DUP8 ADD MLOAD SWAP1 POP JUMPDEST PUSH2 0x34D DUP6 DUP3 PUSH2 0x2D2 JUMP JUMPDEST DUP7 SSTORE POP PUSH2 0x3B4 JUMP JUMPDEST PUSH1 0x1F NOT DUP5 AND PUSH2 0x363 DUP7 PUSH2 0x144 JUMP JUMPDEST PUSH0 JUMPDEST DUP3 DUP2 LT ISZERO PUSH2 0x38A JUMPI DUP5 DUP10 ADD MLOAD DUP3 SSTORE PUSH1 0x1 DUP3 ADD SWAP2 POP PUSH1 0x20 DUP6 ADD SWAP5 POP PUSH1 0x20 DUP2 ADD SWAP1 POP PUSH2 0x365 JUMP JUMPDEST DUP7 DUP4 LT ISZERO PUSH2 0x3A7 JUMPI DUP5 DUP10 ADD MLOAD PUSH2 0x3A3 PUSH1 0x1F DUP10 AND DUP3 PUSH2 0x2B6 JUMP JUMPDEST DUP4 SSTORE POP JUMPDEST PUSH1 0x1 PUSH1 0x2 DUP9 MUL ADD DUP9 SSTORE POP POP POP JUMPDEST POP POP POP POP POP POP JUMP JUMPDEST PUSH1 0x80 MLOAD PUSH2 0x2EBE PUSH2 0x3D4 PUSH0 CODECOPY PUSH0 PUSH2 0x7D0 ADD MSTORE PUSH2 0x2EBE PUSH0 RETURN INVALID PUSH1 0x80 PUSH1 0x40 MSTORE CALLVALUE DUP1 ISZERO PUSH2 0xF JUMPI PUSH0 PUSH0 REVERT JUMPDEST POP PUSH1 0x4 CALLDATASIZE LT PUSH2 0xF3 JUMPI PUSH0 CALLDATALOAD PUSH1 0xE0 SHR DUP1 PUSH4 0x95D89B41 GT PUSH2 0x95 JUMPI DUP1 PUSH4 0xBA9A7A56 GT PUSH2 0x64 JUMPI DUP1 PUSH4 0xBA9A7A56 EQ PUSH2 0x2BF JUMPI DUP1 PUSH4 0xBAA2ABDE EQ PUSH2 0x2DD JUMPI DUP1 PUSH4 0xDD62ED3E EQ PUSH2 0x30E JUMPI DUP1 PUSH4 0xE8E33700 EQ PUSH2 0x33E JUMPI PUSH2 0xF3 JUMP JUMPDEST DUP1 PUSH4 0x95D89B41 EQ PUSH2 0x211 JUMPI DUP1 PUSH4 0x961E50D3 EQ PUSH2 0x22F JUMPI DUP1 PUSH4 0x9876077A EQ PUSH2 0x25F JUMPI DUP1 PUSH4 0xA9059CBB EQ PUSH2 0x28F JUMPI PUSH2 0xF3 JUMP JUMPDEST DUP1 PUSH4 0x23B872DD GT PUSH2 0xD1 JUMPI DUP1 PUSH4 0x23B872DD EQ PUSH2 0x163 JUMPI DUP1 PUSH4 0x313CE567 EQ PUSH2 0x193 JUMPI DUP1 PUSH4 0x38ED1739 EQ PUSH2 0x1B1 JUMPI DUP1 PUSH4 0x70A08231 EQ PUSH2 0x1E1 JUMPI PUSH2 0xF3 JUMP JUMPDEST DUP1 PUSH4 0x6FDDE03 EQ PUSH2 0xF7 JUMPI DUP1 PUSH4 0x95EA7B3 EQ PUSH2 0x115 JUMPI DUP1 PUSH4 0x18160DDD EQ PUSH2 0x145 JUMPI JUMPDEST PUSH0 PUSH0 REVERT JUMPDEST PUSH2 0xFF PUSH2 0x370 JUMP JUMPDEST PUSH1 0x40 MLOAD PUSH2 0x10C SWAP2 SWAP1 PUSH2 0x1F61 JUMP JUMPDEST PUSH1 0x40 MLOAD DUP1 SWAP2 SUB SWAP1 RETURN JUMPDEST PUSH2 0x12F PUSH1 0x4 DUP1 CALLDATASIZE SUB DUP2 ADD SWAP1 PUSH2 0x12A SWAP2 SWAP1 PUSH2 0x2016 JUMP JUMPDEST PUSH2 0x3FB JUMP JUMPDEST PUSH1 0x40 MLOAD PUSH2 0x13C SWAP2 SWAP1 PUSH2 0x206E JUMP JUMPDEST PUSH1 0x40 MLOAD DUP1 SWAP2 SUB SWAP1 RETURN JUMPDEST PUSH2 0x14D PUSH2 0x4E8 JUMP JUMPDEST PUSH1 0x40 MLOAD PUSH2 0x15A SWAP2 SWAP1 PUSH2 0x2096 JUMP JUMPDEST PUSH1 0x40 MLOAD DUP1 SWAP2 SUB SWAP1 RETURN JUMPDEST PUSH2 0x17D PUSH1 0x4 DUP1 CALLDATASIZE SUB DUP2 ADD SWAP1 PUSH2 0x178 SWAP2 SWAP1 PUSH2 0x20AF JUMP JUMPDEST PUSH2 0x4EE JUMP JUMPDEST PUSH1 0x40 MLOAD PUSH2 0x18A SWAP2 SWAP1 PUSH2 0x206E JUMP JUMPDEST PUSH1 0x40 MLOAD DUP1 SWAP2 SUB SWAP1 RETURN JUMPDEST PUSH2 0x19B PUSH2 0x7CE JUMP JUMPDEST PUSH1 0x40 MLOAD PUSH2 0x1A8 SWAP2 SWAP1 PUSH2 0x211A JUMP JUMPDEST PUSH1 0x40 MLOAD DUP1 SWAP2 SUB SWAP1 RETURN JUMPDEST PUSH2 0x1CB PUSH1 0x4 DUP1 CALLDATASIZE SUB DUP2 ADD SWAP1 PUSH2 0x1C6 SWAP2 SWAP1 PUSH2 0x2194 JUMP JUMPDEST PUSH2 0x7F2 JUMP JUMPDEST PUSH1 0x40 MLOAD PUSH2 0x1D8 SWAP2 SWAP1 PUSH2 0x22E1 JUMP JUMPDEST PUSH1 0x40 MLOAD DUP1 SWAP2 SUB SWAP1 RETURN JUMPDEST PUSH2 0x1FB PUSH1 0x4 DUP1 CALLDATASIZE SUB DUP2 ADD SWAP1 PUSH2 0x1F6 SWAP2 SWAP1 PUSH2 0x2301 JUMP JUMPDEST PUSH2 0xE23 JUMP JUMPDEST PUSH1 0x40 MLOAD PUSH2 0x208 SWAP2 SWAP1 PUSH2 0x2096 JUMP JUMPDEST PUSH1 0x40 MLOAD DUP1 SWAP2 SUB SWAP1 RETURN JUMPDEST PUSH2 0x219 PUSH2 0xE38 JUMP JUMPDEST PUSH1 0x40 MLOAD PUSH2 0x226 SWAP2 SWAP1 PUSH2 0x1F61 JUMP JUMPDEST PUSH1 0x40 MLOAD DUP1 SWAP2 SUB SWAP1 RETURN JUMPDEST PUSH2 0x249 PUSH1 0x4 DUP1 CALLDATASIZE SUB DUP2 ADD SWAP1 PUSH2 0x244 SWAP2 SWAP1 PUSH2 0x232C JUMP JUMPDEST PUSH2 0xEC4 JUMP JUMPDEST PUSH1 0x40 MLOAD PUSH2 0x256 SWAP2 SWAP1 PUSH2 0x2096 JUMP JUMPDEST PUSH1 0x40 MLOAD DUP1 SWAP2 SUB SWAP1 RETURN JUMPDEST PUSH2 0x279 PUSH1 0x4 DUP1 CALLDATASIZE SUB DUP2 ADD SWAP1 PUSH2 0x274 SWAP2 SWAP1 PUSH2 0x232C JUMP JUMPDEST PUSH2 0xEE4 JUMP JUMPDEST PUSH1 0x40 MLOAD PUSH2 0x286 SWAP2 SWAP1 PUSH2 0x2096 JUMP JUMPDEST PUSH1 0x40 MLOAD DUP1 SWAP2 SUB SWAP1 RETURN JUMPDEST PUSH2 0x2A9 PUSH1 0x4 DUP1 CALLDATASIZE SUB DUP2 ADD SWAP1 PUSH2 0x2A4 SWAP2 SWAP1 PUSH2 0x2016 JUMP JUMPDEST PUSH2 0xF04 JUMP JUMPDEST PUSH1 0x40 MLOAD PUSH2 0x2B6 SWAP2 SWAP1 PUSH2 0x206E JUMP JUMPDEST PUSH1 0x40 MLOAD DUP1 SWAP2 SUB SWAP1 RETURN JUMPDEST PUSH2 0x2C7 PUSH2 0x109A JUMP JUMPDEST PUSH1 0x40 MLOAD PUSH2 0x2D4 SWAP2 SWAP1 PUSH2 0x2096 JUMP JUMPDEST PUSH1 0x40 MLOAD DUP1 SWAP2 SUB SWAP1 RETURN JUMPDEST PUSH2 0x2F7 PUSH1 0x4 DUP1 CALLDATASIZE SUB DUP2 ADD SWAP1 PUSH2 0x2F2 SWAP2 SWAP1 PUSH2 0x236A JUMP JUMPDEST PUSH2 0x10A0 JUMP JUMPDEST PUSH1 0x40 MLOAD PUSH2 0x305 SWAP3 SWAP2 SWAP1 PUSH2 0x2407 JUMP JUMPDEST PUSH1 0x40 MLOAD DUP1 SWAP2 SUB SWAP1 RETURN JUMPDEST PUSH2 0x328 PUSH1 0x4 DUP1 CALLDATASIZE SUB DUP2 ADD SWAP1 PUSH2 0x323 SWAP2 SWAP1 PUSH2 0x232C JUMP JUMPDEST PUSH2 0x1628 JUMP JUMPDEST PUSH1 0x40 MLOAD PUSH2 0x335 SWAP2 SWAP1 PUSH2 0x2096 JUMP JUMPDEST PUSH1 0x40 MLOAD DUP1 SWAP2 SUB SWAP1 RETURN JUMPDEST PUSH2 0x358 PUSH1 0x4 DUP1 CALLDATASIZE SUB DUP2 ADD SWAP1 PUSH2 0x353 SWAP2 SWAP1 PUSH2 0x242E JUMP JUMPDEST PUSH2 0x1648 JUMP JUMPDEST PUSH1 0x40 MLOAD PUSH2 0x367 SWAP4 SWAP3 SWAP2 SWAP1 PUSH2 0x24DF JUMP JUMPDEST PUSH1 0x40 MLOAD DUP1 SWAP2 SUB SWAP1 RETURN JUMPDEST PUSH0 DUP1 SLOAD PUSH2 0x37C SWAP1 PUSH2 0x2541 JUMP JUMPDEST DUP1 PUSH1 0x1F ADD PUSH1 0x20 DUP1 SWAP2 DIV MUL PUSH1 0x20 ADD PUSH1 0x40 MLOAD SWAP1 DUP2 ADD PUSH1 0x40 MSTORE DUP1 SWAP3 SWAP2 SWAP1 DUP2 DUP2 MSTORE PUSH1 0x20 ADD DUP3 DUP1 SLOAD PUSH2 0x3A8 SWAP1 PUSH2 0x2541 JUMP JUMPDEST DUP1 ISZERO PUSH2 0x3F3 JUMPI DUP1 PUSH1 0x1F LT PUSH2 0x3CA JUMPI PUSH2 0x100 DUP1 DUP4 SLOAD DIV MUL DUP4 MSTORE SWAP2 PUSH1 0x20 ADD SWAP2 PUSH2 0x3F3 JUMP JUMPDEST DUP3 ADD SWAP2 SWAP1 PUSH0 MSTORE PUSH1 0x20 PUSH0 KECCAK256 SWAP1 JUMPDEST DUP2 SLOAD DUP2 MSTORE SWAP1 PUSH1 0x1 ADD SWAP1 PUSH1 0x20 ADD DUP1 DUP4 GT PUSH2 0x3D6 JUMPI DUP3 SWAP1 SUB PUSH1 0x1F AND DUP3 ADD SWAP2 JUMPDEST POP POP POP POP POP DUP2 JUMP JUMPDEST PUSH0 DUP2 PUSH1 0x4 PUSH0 CALLER PUSH20 0xFFFFFFFFFFFFFFFFFFFFFFFFFFFFFFFFFFFFFFFF AND PUSH20 0xFFFFFFFFFFFFFFFFFFFFFFFFFFFFFFFFFFFFFFFF AND DUP2 MSTORE PUSH1 0x20 ADD SWAP1 DUP2 MSTORE PUSH1 0x20 ADD PUSH0 KECCAK256 PUSH0 DUP6 PUSH20 0xFFFFFFFFFFFFFFFFFFFFFFFFFFFFFFFFFFFFFFFF AND PUSH20 0xFFFFFFFFFFFFFFFFFFFFFFFFFFFFFFFFFFFFFFFF AND DUP2 MSTORE PUSH1 0x20 ADD SWAP1 DUP2 MSTORE PUSH1 0x20 ADD PUSH0 KECCAK256 DUP2 SWAP1 SSTORE POP DUP3 PUSH20 0xFFFFFFFFFFFFFFFFFFFFFFFFFFFFFFFFFFFFFFFF AND CALLER PUSH20 0xFFFFFFFFFFFFFFFFFFFFFFFFFFFFFFFFFFFFFFFF AND PUSH32 0x8C5BE1E5EBEC7D5BD14F71427D1E84F3DD0314C0F7B2291E5B200AC8C7C3B925 DUP5 PUSH1 0x40 MLOAD PUSH2 0x4D6 SWAP2 SWAP1 PUSH2 0x2096 JUMP JUMPDEST PUSH1 0x40 MLOAD DUP1 SWAP2 SUB SWAP1 LOG3 PUSH1 0x1 SWAP1 POP SWAP3 SWAP2 POP POP JUMP JUMPDEST PUSH1 0x2 SLOAD DUP2 JUMP JUMPDEST PUSH0 DUP2 PUSH1 0x3 PUSH0 DUP7 PUSH20 0xFFFFFFFFFFFFFFFFFFFFFFFFFFFFFFFFFFFFFFFF AND PUSH20 0xFFFFFFFFFFFFFFFFFFFFFFFFFFFFFFFFFFFFFFFF AND DUP2 MSTORE PUSH1 0x20 ADD SWAP1 DUP2 MSTORE PUSH1 0x20 ADD PUSH0 KECCAK256 SLOAD LT ISZERO PUSH2 0x56F JUMPI PUSH1 0x40 MLOAD PUSH32 0x8C379A000000000000000000000000000000000000000000000000000000000 DUP2 MSTORE PUSH1 0x4 ADD PUSH2 0x566 SWAP1 PUSH2 0x25E1 JUMP JUMPDEST PUSH1 0x40 MLOAD DUP1 SWAP2 SUB SWAP1 REVERT JUMPDEST DUP2 PUSH1 0x4 PUSH0 DUP7 PUSH20 0xFFFFFFFFFFFFFFFFFFFFFFFFFFFFFFFFFFFFFFFF AND PUSH20 0xFFFFFFFFFFFFFFFFFFFFFFFFFFFFFFFFFFFFFFFF AND DUP2 MSTORE PUSH1 0x20 ADD SWAP1 DUP2 MSTORE PUSH1 0x20 ADD PUSH0 KECCAK256 PUSH0 CALLER PUSH20 0xFFFFFFFFFFFFFFFFFFFFFFFFFFFFFFFFFFFFFFFF AND PUSH20 0xFFFFFFFFFFFFFFFFFFFFFFFFFFFFFFFFFFFFFFFF AND DUP2 MSTORE PUSH1 0x20 ADD SWAP1 DUP2 MSTORE PUSH1 0x20 ADD PUSH0 KECCAK256 SLOAD LT ISZERO PUSH2 0x62A JUMPI PUSH1 0x40 MLOAD PUSH32 0x8C379A000000000000000000000000000000000000000000000000000000000 DUP2 MSTORE PUSH1 0x4 ADD PUSH2 0x621 SWAP1 PUSH2 0x2649 JUMP JUMPDEST PUSH1 0x40 MLOAD DUP1 SWAP2 SUB SWAP1 REVERT JUMPDEST DUP2 PUSH1 0x4 PUSH0 DUP7 PUSH20 0xFFFFFFFFFFFFFFFFFFFFFFFFFFFFFFFFFFFFFFFF AND PUSH20 0xFFFFFFFFFFFFFFFFFFFFFFFFFFFFFFFFFFFFFFFF AND DUP2 MSTORE PUSH1 0x20 ADD SWAP1 DUP2 MSTORE PUSH1 0x20 ADD PUSH0 KECCAK256 PUSH0 CALLER PUSH20 0xFFFFFFFFFFFFFFFFFFFFFFFFFFFFFFFFFFFFFFFF AND PUSH20 0xFFFFFFFFFFFFFFFFFFFFFFFFFFFFFFFFFFFFFFFF AND DUP2 MSTORE PUSH1 0x20 ADD SWAP1 DUP2 MSTORE PUSH1 0x20 ADD PUSH0 KECCAK256 PUSH0 DUP3 DUP3 SLOAD PUSH2 0x6B1 SWAP2 SWAP1 PUSH2 0x2694 JUMP JUMPDEST SWAP3 POP POP DUP2 SWAP1 SSTORE POP DUP2 PUSH1 0x3 PUSH0 DUP7 PUSH20 0xFFFFFFFFFFFFFFFFFFFFFFFFFFFFFFFFFFFFFFFF AND PUSH20 0xFFFFFFFFFFFFFFFFFFFFFFFFFFFFFFFFFFFFFFFF AND DUP2 MSTORE PUSH1 0x20 ADD SWAP1 DUP2 MSTORE PUSH1 0x20 ADD PUSH0 KECCAK256 PUSH0 DUP3 DUP3 SLOAD PUSH2 0x704 SWAP2 SWAP1 PUSH2 0x2694 JUMP JUMPDEST SWAP3 POP POP DUP2 SWAP1 SSTORE POP DUP2 PUSH1 0x3 PUSH0 DUP6 PUSH20 0xFFFFFFFFFFFFFFFFFFFFFFFFFFFFFFFFFFFFFFFF AND PUSH20 0xFFFFFFFFFFFFFFFFFFFFFFFFFFFFFFFFFFFFFFFF AND DUP2 MSTORE PUSH1 0x20 ADD SWAP1 DUP2 MSTORE PUSH1 0x20 ADD PUSH0 KECCAK256 PUSH0 DUP3 DUP3 SLOAD PUSH2 0x757 SWAP2 SWAP1 PUSH2 0x26C7 JUMP JUMPDEST SWAP3 POP POP DUP2 SWAP1 SSTORE POP DUP3 PUSH20 0xFFFFFFFFFFFFFFFFFFFFFFFFFFFFFFFFFFFFFFFF AND DUP5 PUSH20 0xFFFFFFFFFFFFFFFFFFFFFFFFFFFFFFFFFFFFFFFF AND PUSH32 0xDDF252AD1BE2C89B69C2B068FC378DAA952BA7F163C4A11628F55A4DF523B3EF DUP5 PUSH1 0x40 MLOAD PUSH2 0x7BB SWAP2 SWAP1 PUSH2 0x2096 JUMP JUMPDEST PUSH1 0x40 MLOAD DUP1 SWAP2 SUB SWAP1 LOG3 PUSH1 0x1 SWAP1 POP SWAP4 SWAP3 POP POP POP JUMP JUMPDEST PUSH32 0x0 DUP2 JUMP JUMPDEST PUSH1 0x60 PUSH1 0x2 DUP6 DUP6 SWAP1 POP EQ PUSH2 0x83A JUMPI PUSH1 0x40 MLOAD PUSH32 0x8C379A000000000000000000000000000000000000000000000000000000000 DUP2 MSTORE PUSH1 0x4 ADD PUSH2 0x831 SWAP1 PUSH2 0x2744 JUMP JUMPDEST PUSH1 0x40 MLOAD DUP1 SWAP2 SUB SWAP1 REVERT JUMPDEST DUP2 TIMESTAMP GT ISZERO PUSH2 0x87D JUMPI PUSH1 0x40 MLOAD PUSH32 0x8C379A000000000000000000000000000000000000000000000000000000000 DUP2 MSTORE PUSH1 0x4 ADD PUSH2 0x874 SWAP1 PUSH2 0x27AC JUMP JUMPDEST PUSH1 0x40 MLOAD DUP1 SWAP2 SUB SWAP1 REVERT JUMPDEST PUSH0 DUP6 DUP6 PUSH0 DUP2 DUP2 LT PUSH2 0x891 JUMPI PUSH2 0x890 PUSH2 0x27CA JUMP JUMPDEST JUMPDEST SWAP1 POP PUSH1 0x20 MUL ADD PUSH1 0x20 DUP2 ADD SWAP1 PUSH2 0x8A6 SWAP2 SWAP1 PUSH2 0x2301 JUMP JUMPDEST SWAP1 POP PUSH0 DUP7 DUP7 PUSH1 0x1 DUP2 DUP2 LT PUSH2 0x8BD JUMPI PUSH2 0x8BC PUSH2 0x27CA JUMP JUMPDEST JUMPDEST SWAP1 POP PUSH1 0x20 MUL ADD PUSH1 0x20 DUP2 ADD SWAP1 PUSH2 0x8D2 SWAP2 SWAP1 PUSH2 0x2301 JUMP JUMPDEST SWAP1 POP PUSH0 PUSH1 0x5 PUSH0 DUP5 PUSH20 0xFFFFFFFFFFFFFFFFFFFFFFFFFFFFFFFFFFFFFFFF AND PUSH20 0xFFFFFFFFFFFFFFFFFFFFFFFFFFFFFFFFFFFFFFFF AND DUP2 MSTORE PUSH1 0x20 ADD SWAP1 DUP2 MSTORE PUSH1 0x20 ADD PUSH0 KECCAK256 PUSH0 DUP4 PUSH20 0xFFFFFFFFFFFFFFFFFFFFFFFFFFFFFFFFFFFFFFFF AND PUSH20 0xFFFFFFFFFFFFFFFFFFFFFFFFFFFFFFFFFFFFFFFF AND DUP2 MSTORE PUSH1 0x20 ADD SWAP1 DUP2 MSTORE PUSH1 0x20 ADD PUSH0 KECCAK256 SLOAD GT DUP1 ISZERO PUSH2 0x9D2 JUMPI POP PUSH0 PUSH1 0x6 PUSH0 DUP5 PUSH20 0xFFFFFFFFFFFFFFFFFFFFFFFFFFFFFFFFFFFFFFFF AND PUSH20 0xFFFFFFFFFFFFFFFFFFFFFFFFFFFFFFFFFFFFFFFF AND DUP2 MSTORE PUSH1 0x20 ADD SWAP1 DUP2 MSTORE PUSH1 0x20 ADD PUSH0 KECCAK256 PUSH0 DUP4 PUSH20 0xFFFFFFFFFFFFFFFFFFFFFFFFFFFFFFFFFFFFFFFF AND PUSH20 0xFFFFFFFFFFFFFFFFFFFFFFFFFFFFFFFFFFFFFFFF AND DUP2 MSTORE PUSH1 0x20 ADD SWAP1 DUP2 MSTORE PUSH1 0x20 ADD PUSH0 KECCAK256 SLOAD GT JUMPDEST PUSH2 0xA11 JUMPI PUSH1 0x40 MLOAD PUSH32 0x8C379A000000000000000000000000000000000000000000000000000000000 DUP2 MSTORE PUSH1 0x4 ADD PUSH2 0xA08 SWAP1 PUSH2 0x2841 JUMP JUMPDEST PUSH1 0x40 MLOAD DUP1 SWAP2 SUB SWAP1 REVERT JUMPDEST DUP2 PUSH20 0xFFFFFFFFFFFFFFFFFFFFFFFFFFFFFFFFFFFFFFFF AND PUSH4 0x23B872DD CALLER ADDRESS DUP13 PUSH1 0x40 MLOAD DUP5 PUSH4 0xFFFFFFFF AND PUSH1 0xE0 SHL DUP2 MSTORE PUSH1 0x4 ADD PUSH2 0xA4E SWAP4 SWAP3 SWAP2 SWAP1 PUSH2 0x286E JUMP JUMPDEST PUSH1 0x20 PUSH1 0x40 MLOAD DUP1 DUP4 SUB DUP2 PUSH0 DUP8 GAS CALL ISZERO DUP1 ISZERO PUSH2 0xA6A JUMPI RETURNDATASIZE PUSH0 PUSH0 RETURNDATACOPY RETURNDATASIZE PUSH0 REVERT JUMPDEST POP POP POP POP PUSH1 0x40 MLOAD RETURNDATASIZE PUSH1 0x1F NOT PUSH1 0x1F DUP3 ADD AND DUP3 ADD DUP1 PUSH1 0x40 MSTORE POP DUP2 ADD SWAP1 PUSH2 0xA8E SWAP2 SWAP1 PUSH2 0x28CD JUMP JUMPDEST POP PUSH0 PUSH1 0x5 PUSH0 DUP5 PUSH20 0xFFFFFFFFFFFFFFFFFFFFFFFFFFFFFFFFFFFFFFFF AND PUSH20 0xFFFFFFFFFFFFFFFFFFFFFFFFFFFFFFFFFFFFFFFF AND DUP2 MSTORE PUSH1 0x20 ADD SWAP1 DUP2 MSTORE PUSH1 0x20 ADD PUSH0 KECCAK256 PUSH0 DUP4 PUSH20 0xFFFFFFFFFFFFFFFFFFFFFFFFFFFFFFFFFFFFFFFF AND PUSH20 0xFFFFFFFFFFFFFFFFFFFFFFFFFFFFFFFFFFFFFFFF AND DUP2 MSTORE PUSH1 0x20 ADD SWAP1 DUP2 MSTORE PUSH1 0x20 ADD PUSH0 KECCAK256 SLOAD SWAP1 POP PUSH0 PUSH1 0x6 PUSH0 DUP6 PUSH20 0xFFFFFFFFFFFFFFFFFFFFFFFFFFFFFFFFFFFFFFFF AND PUSH20 0xFFFFFFFFFFFFFFFFFFFFFFFFFFFFFFFFFFFFFFFF AND DUP2 MSTORE PUSH1 0x20 ADD SWAP1 DUP2 MSTORE PUSH1 0x20 ADD PUSH0 KECCAK256 PUSH0 DUP5 PUSH20 0xFFFFFFFFFFFFFFFFFFFFFFFFFFFFFFFFFFFFFFFF AND PUSH20 0xFFFFFFFFFFFFFFFFFFFFFFFFFFFFFFFFFFFFFFFF AND DUP2 MSTORE PUSH1 0x20 ADD SWAP1 DUP2 MSTORE PUSH1 0x20 ADD PUSH0 KECCAK256 SLOAD SWAP1 POP PUSH0 DUP12 DUP4 PUSH2 0xB94 SWAP2 SWAP1 PUSH2 0x26C7 JUMP JUMPDEST DUP3 DUP14 PUSH2 0xBA0 SWAP2 SWAP1 PUSH2 0x28F8 JUMP JUMPDEST PUSH2 0xBAA SWAP2 SWAP1 PUSH2 0x2966 JUMP JUMPDEST SWAP1 POP DUP11 DUP2 LT ISZERO PUSH2 0xBEF JUMPI PUSH1 0x40 MLOAD PUSH32 0x8C379A000000000000000000000000000000000000000000000000000000000 DUP2 MSTORE PUSH1 0x4 ADD PUSH2 0xBE6 SWAP1 PUSH2 0x29E0 JUMP JUMPDEST PUSH1 0x40 MLOAD DUP1 SWAP2 SUB SWAP1 REVERT JUMPDEST DUP4 PUSH20 0xFFFFFFFFFFFFFFFFFFFFFFFFFFFFFFFFFFFFFFFF AND PUSH4 0xA9059CBB DUP10 DUP4 PUSH1 0x40 MLOAD DUP4 PUSH4 0xFFFFFFFF AND PUSH1 0xE0 SHL DUP2 MSTORE PUSH1 0x4 ADD PUSH2 0xC2A SWAP3 SWAP2 SWAP1 PUSH2 0x29FE JUMP JUMPDEST PUSH1 0x20 PUSH1 0x40 MLOAD DUP1 DUP4 SUB DUP2 PUSH0 DUP8 GAS CALL ISZERO DUP1 ISZERO PUSH2 0xC46 JUMPI RETURNDATASIZE PUSH0 PUSH0 RETURNDATACOPY RETURNDATASIZE PUSH0 REVERT JUMPDEST POP POP POP POP PUSH1 0x40 MLOAD RETURNDATASIZE PUSH1 0x1F NOT PUSH1 0x1F DUP3 ADD AND DUP3 ADD DUP1 PUSH1 0x40 MSTORE POP DUP2 ADD SWAP1 PUSH2 0xC6A SWAP2 SWAP1 PUSH2 0x28CD JUMP JUMPDEST POP DUP12 PUSH1 0x5 PUSH0 DUP8 PUSH20 0xFFFFFFFFFFFFFFFFFFFFFFFFFFFFFFFFFFFFFFFF AND PUSH20 0xFFFFFFFFFFFFFFFFFFFFFFFFFFFFFFFFFFFFFFFF AND DUP2 MSTORE PUSH1 0x20 ADD SWAP1 DUP2 MSTORE PUSH1 0x20 ADD PUSH0 KECCAK256 PUSH0 DUP7 PUSH20 0xFFFFFFFFFFFFFFFFFFFFFFFFFFFFFFFFFFFFFFFF AND PUSH20 0xFFFFFFFFFFFFFFFFFFFFFFFFFFFFFFFFFFFFFFFF AND DUP2 MSTORE PUSH1 0x20 ADD SWAP1 DUP2 MSTORE PUSH1 0x20 ADD PUSH0 KECCAK256 PUSH0 DUP3 DUP3 SLOAD PUSH2 0xCF2 SWAP2 SWAP1 PUSH2 0x26C7 JUMP JUMPDEST SWAP3 POP POP DUP2 SWAP1 SSTORE POP DUP1 PUSH1 0x6 PUSH0 DUP8 PUSH20 0xFFFFFFFFFFFFFFFFFFFFFFFFFFFFFFFFFFFFFFFF AND PUSH20 0xFFFFFFFFFFFFFFFFFFFFFFFFFFFFFFFFFFFFFFFF AND DUP2 MSTORE PUSH1 0x20 ADD SWAP1 DUP2 MSTORE PUSH1 0x20 ADD PUSH0 KECCAK256 PUSH0 DUP7 PUSH20 0xFFFFFFFFFFFFFFFFFFFFFFFFFFFFFFFFFFFFFFFF AND PUSH20 0xFFFFFFFFFFFFFFFFFFFFFFFFFFFFFFFFFFFFFFFF AND DUP2 MSTORE PUSH1 0x20 ADD SWAP1 DUP2 MSTORE PUSH1 0x20 ADD PUSH0 KECCAK256 PUSH0 DUP3 DUP3 SLOAD PUSH2 0xD80 SWAP2 SWAP1 PUSH2 0x2694 JUMP JUMPDEST SWAP3 POP POP DUP2 SWAP1 SSTORE POP PUSH1 0x2 PUSH8 0xFFFFFFFFFFFFFFFF DUP2 GT ISZERO PUSH2 0xDA2 JUMPI PUSH2 0xDA1 PUSH2 0x2A25 JUMP JUMPDEST JUMPDEST PUSH1 0x40 MLOAD SWAP1 DUP1 DUP3 MSTORE DUP1 PUSH1 0x20 MUL PUSH1 0x20 ADD DUP3 ADD PUSH1 0x40 MSTORE DUP1 ISZERO PUSH2 0xDD0 JUMPI DUP2 PUSH1 0x20 ADD PUSH1 0x20 DUP3 MUL DUP1 CALLDATASIZE DUP4 CALLDATACOPY DUP1 DUP3 ADD SWAP2 POP POP SWAP1 POP JUMPDEST POP SWAP6 POP DUP12 DUP7 PUSH0 DUP2 MLOAD DUP2 LT PUSH2 0xDE7 JUMPI PUSH2 0xDE6 PUSH2 0x27CA JUMP JUMPDEST JUMPDEST PUSH1 0x20 MUL PUSH1 0x20 ADD ADD DUP2 DUP2 MSTORE POP POP DUP1 DUP7 PUSH1 0x1 DUP2 MLOAD DUP2 LT PUSH2 0xE08 JUMPI PUSH2 0xE07 PUSH2 0x27CA JUMP JUMPDEST JUMPDEST PUSH1 0x20 MUL PUSH1 0x20 ADD ADD DUP2 DUP2 MSTORE POP POP POP POP POP POP POP SWAP7 SWAP6 POP POP POP POP POP POP JUMP JUMPDEST PUSH1 0x3 PUSH1 0x20 MSTORE DUP1 PUSH0 MSTORE PUSH1 0x40 PUSH0 KECCAK256 PUSH0 SWAP2 POP SWAP1 POP SLOAD DUP2 JUMP JUMPDEST PUSH1 0x1 DUP1 SLOAD PUSH2 0xE45 SWAP1 PUSH2 0x2541 JUMP JUMPDEST DUP1 PUSH1 0x1F ADD PUSH1 0x20 DUP1 SWAP2 DIV MUL PUSH1 0x20 ADD PUSH1 0x40 MLOAD SWAP1 DUP2 ADD PUSH1 0x40 MSTORE DUP1 SWAP3 SWAP2 SWAP1 DUP2 DUP2 MSTORE PUSH1 0x20 ADD DUP3 DUP1 SLOAD PUSH2 0xE71 SWAP1 PUSH2 0x2541 JUMP JUMPDEST DUP1 ISZERO PUSH2 0xEBC JUMPI DUP1 PUSH1 0x1F LT PUSH2 0xE93 JUMPI PUSH2 0x100 DUP1 DUP4 SLOAD DIV MUL DUP4 MSTORE SWAP2 PUSH1 0x20 ADD SWAP2 PUSH2 0xEBC JUMP JUMPDEST DUP3 ADD SWAP2 SWAP1 PUSH0 MSTORE PUSH1 0x20 PUSH0 KECCAK256 SWAP1 JUMPDEST DUP2 SLOAD DUP2 MSTORE SWAP1 PUSH1 0x1 ADD SWAP1 PUSH1 0x20 ADD DUP1 DUP4 GT PUSH2 0xE9F JUMPI DUP3 SWAP1 SUB PUSH1 0x1F AND DUP3 ADD SWAP2 JUMPDEST POP POP POP POP POP DUP2 JUMP JUMPDEST PUSH1 0x5 PUSH1 0x20 MSTORE DUP2 PUSH0 MSTORE PUSH1 0x40 PUSH0 KECCAK256 PUSH1 0x20 MSTORE DUP1 PUSH0 MSTORE PUSH1 0x40 PUSH0 KECCAK256 PUSH0 SWAP2 POP SWAP2 POP POP SLOAD DUP2 JUMP JUMPDEST PUSH1 0x6 PUSH1 0x20 MSTORE DUP2 PUSH0 MSTORE PUSH1 0x40 PUSH0 KECCAK256 PUSH1 0x20 MSTORE DUP1 PUSH0 MSTORE PUSH1 0x40 PUSH0 KECCAK256 PUSH0 SWAP2 POP SWAP2 POP POP SLOAD DUP2 JUMP JUMPDEST PUSH0 DUP2 PUSH1 0x3 PUSH0 CALLER PUSH20 0xFFFFFFFFFFFFFFFFFFFFFFFFFFFFFFFFFFFFFFFF AND PUSH20 0xFFFFFFFFFFFFFFFFFFFFFFFFFFFFFFFFFFFFFFFF AND DUP2 MSTORE PUSH1 0x20 ADD SWAP1 DUP2 MSTORE PUSH1 0x20 ADD PUSH0 KECCAK256 SLOAD LT ISZERO PUSH2 0xF85 JUMPI PUSH1 0x40 MLOAD PUSH32 0x8C379A000000000000000000000000000000000000000000000000000000000 DUP2 MSTORE PUSH1 0x4 ADD PUSH2 0xF7C SWAP1 PUSH2 0x25E1 JUMP JUMPDEST PUSH1 0x40 MLOAD DUP1 SWAP2 SUB SWAP1 REVERT JUMPDEST DUP2 PUSH1 0x3 PUSH0 CALLER PUSH20 0xFFFFFFFFFFFFFFFFFFFFFFFFFFFFFFFFFFFFFFFF AND PUSH20 0xFFFFFFFFFFFFFFFFFFFFFFFFFFFFFFFFFFFFFFFF AND DUP2 MSTORE PUSH1 0x20 ADD SWAP1 DUP2 MSTORE PUSH1 0x20 ADD PUSH0 KECCAK256 PUSH0 DUP3 DUP3 SLOAD PUSH2 0xFD1 SWAP2 SWAP1 PUSH2 0x2694 JUMP JUMPDEST SWAP3 POP POP DUP2 SWAP1 SSTORE POP DUP2 PUSH1 0x3 PUSH0 DUP6 PUSH20 0xFFFFFFFFFFFFFFFFFFFFFFFFFFFFFFFFFFFFFFFF AND PUSH20 0xFFFFFFFFFFFFFFFFFFFFFFFFFFFFFFFFFFFFFFFF AND DUP2 MSTORE PUSH1 0x20 ADD SWAP1 DUP2 MSTORE PUSH1 0x20 ADD PUSH0 KECCAK256 PUSH0 DUP3 DUP3 SLOAD PUSH2 0x1024 SWAP2 SWAP1 PUSH2 0x26C7 JUMP JUMPDEST SWAP3 POP POP DUP2 SWAP1 SSTORE POP DUP3 PUSH20 0xFFFFFFFFFFFFFFFFFFFFFFFFFFFFFFFFFFFFFFFF AND CALLER PUSH20 0xFFFFFFFFFFFFFFFFFFFFFFFFFFFFFFFFFFFFFFFF AND PUSH32 0xDDF252AD1BE2C89B69C2B068FC378DAA952BA7F163C4A11628F55A4DF523B3EF DUP5 PUSH1 0x40 MLOAD PUSH2 0x1088 SWAP2 SWAP1 PUSH2 0x2096 JUMP JUMPDEST PUSH1 0x40 MLOAD DUP1 SWAP2 SUB SWAP1 LOG3 PUSH1 0x1 SWAP1 POP SWAP3 SWAP2 POP POP JUMP JUMPDEST PUSH2 0x3E8 DUP2 JUMP JUMPDEST PUSH0 PUSH0 DUP3 TIMESTAMP GT ISZERO PUSH2 0x10E5 JUMPI PUSH1 0x40 MLOAD PUSH32 0x8C379A000000000000000000000000000000000000000000000000000000000 DUP2 MSTORE PUSH1 0x4 ADD PUSH2 0x10DC SWAP1 PUSH2 0x27AC JUMP JUMPDEST PUSH1 0x40 MLOAD DUP1 SWAP2 SUB SWAP1 REVERT JUMPDEST DUP8 PUSH20 0xFFFFFFFFFFFFFFFFFFFFFFFFFFFFFFFFFFFFFFFF AND DUP10 PUSH20 0xFFFFFFFFFFFFFFFFFFFFFFFFFFFFFFFFFFFFFFFF AND SUB PUSH2 0x1153 JUMPI PUSH1 0x40 MLOAD PUSH32 0x8C379A000000000000000000000000000000000000000000000000000000000 DUP2 MSTORE PUSH1 0x4 ADD PUSH2 0x114A SWAP1 PUSH2 0x2A9C JUMP JUMPDEST PUSH1 0x40 MLOAD DUP1 SWAP2 SUB SWAP1 REVERT JUMPDEST DUP7 PUSH1 0x3 PUSH0 CALLER PUSH20 0xFFFFFFFFFFFFFFFFFFFFFFFFFFFFFFFFFFFFFFFF AND PUSH20 0xFFFFFFFFFFFFFFFFFFFFFFFFFFFFFFFFFFFFFFFF AND DUP2 MSTORE PUSH1 0x20 ADD SWAP1 DUP2 MSTORE PUSH1 0x20 ADD PUSH0 KECCAK256 SLOAD LT ISZERO PUSH2 0x11D3 JUMPI PUSH1 0x40 MLOAD PUSH32 0x8C379A000000000000000000000000000000000000000000000000000000000 DUP2 MSTORE PUSH1 0x4 ADD PUSH2 0x11CA SWAP1 PUSH2 0x2B04 JUMP JUMPDEST PUSH1 0x40 MLOAD DUP1 SWAP2 SUB SWAP1 REVERT JUMPDEST PUSH0 PUSH1 0x2 SLOAD SWAP1 POP DUP1 PUSH1 0x5 PUSH0 DUP13 PUSH20 0xFFFFFFFFFFFFFFFFFFFFFFFFFFFFFFFFFFFFFFFF AND PUSH20 0xFFFFFFFFFFFFFFFFFFFFFFFFFFFFFFFFFFFFFFFF AND DUP2 MSTORE PUSH1 0x20 ADD SWAP1 DUP2 MSTORE PUSH1 0x20 ADD PUSH0 KECCAK256 PUSH0 DUP12 PUSH20 0xFFFFFFFFFFFFFFFFFFFFFFFFFFFFFFFFFFFFFFFF AND PUSH20 0xFFFFFFFFFFFFFFFFFFFFFFFFFFFFFFFFFFFFFFFF AND DUP2 MSTORE PUSH1 0x20 ADD SWAP1 DUP2 MSTORE PUSH1 0x20 ADD PUSH0 KECCAK256 SLOAD DUP10 PUSH2 0x125E SWAP2 SWAP1 PUSH2 0x28F8 JUMP JUMPDEST PUSH2 0x1268 SWAP2 SWAP1 PUSH2 0x2966 JUMP JUMPDEST SWAP3 POP DUP1 PUSH1 0x6 PUSH0 DUP13 PUSH20 0xFFFFFFFFFFFFFFFFFFFFFFFFFFFFFFFFFFFFFFFF AND PUSH20 0xFFFFFFFFFFFFFFFFFFFFFFFFFFFFFFFFFFFFFFFF AND DUP2 MSTORE PUSH1 0x20 ADD SWAP1 DUP2 MSTORE PUSH1 0x20 ADD PUSH0 KECCAK256 PUSH0 DUP12 PUSH20 0xFFFFFFFFFFFFFFFFFFFFFFFFFFFFFFFFFFFFFFFF AND PUSH20 0xFFFFFFFFFFFFFFFFFFFFFFFFFFFFFFFFFFFFFFFF AND DUP2 MSTORE PUSH1 0x20 ADD SWAP1 DUP2 MSTORE PUSH1 0x20 ADD PUSH0 KECCAK256 SLOAD DUP10 PUSH2 0x12EF SWAP2 SWAP1 PUSH2 0x28F8 JUMP JUMPDEST PUSH2 0x12F9 SWAP2 SWAP1 PUSH2 0x2966 JUMP JUMPDEST SWAP2 POP DUP7 DUP4 LT ISZERO PUSH2 0x133E JUMPI PUSH1 0x40 MLOAD PUSH32 0x8C379A000000000000000000000000000000000000000000000000000000000 DUP2 MSTORE PUSH1 0x4 ADD PUSH2 0x1335 SWAP1 PUSH2 0x2B6C JUMP JUMPDEST PUSH1 0x40 MLOAD DUP1 SWAP2 SUB SWAP1 REVERT JUMPDEST DUP6 DUP3 LT ISZERO PUSH2 0x1381 JUMPI PUSH1 0x40 MLOAD PUSH32 0x8C379A000000000000000000000000000000000000000000000000000000000 DUP2 MSTORE PUSH1 0x4 ADD PUSH2 0x1378 SWAP1 PUSH2 0x2BD4 JUMP JUMPDEST PUSH1 0x40 MLOAD DUP1 SWAP2 SUB SWAP1 REVERT JUMPDEST PUSH2 0x138B CALLER DUP10 PUSH2 0x1C3A JUMP JUMPDEST DUP3 PUSH1 0x5 PUSH0 DUP13 PUSH20 0xFFFFFFFFFFFFFFFFFFFFFFFFFFFFFFFFFFFFFFFF AND PUSH20 0xFFFFFFFFFFFFFFFFFFFFFFFFFFFFFFFFFFFFFFFF AND DUP2 MSTORE PUSH1 0x20 ADD SWAP1 DUP2 MSTORE PUSH1 0x20 ADD PUSH0 KECCAK256 PUSH0 DUP12 PUSH20 0xFFFFFFFFFFFFFFFFFFFFFFFFFFFFFFFFFFFFFFFF AND PUSH20 0xFFFFFFFFFFFFFFFFFFFFFFFFFFFFFFFFFFFFFFFF AND DUP2 MSTORE PUSH1 0x20 ADD SWAP1 DUP2 MSTORE PUSH1 0x20 ADD PUSH0 KECCAK256 PUSH0 DUP3 DUP3 SLOAD PUSH2 0x1412 SWAP2 SWAP1 PUSH2 0x2694 JUMP JUMPDEST SWAP3 POP POP DUP2 SWAP1 SSTORE POP DUP2 PUSH1 0x6 PUSH0 DUP13 PUSH20 0xFFFFFFFFFFFFFFFFFFFFFFFFFFFFFFFFFFFFFFFF AND PUSH20 0xFFFFFFFFFFFFFFFFFFFFFFFFFFFFFFFFFFFFFFFF AND DUP2 MSTORE PUSH1 0x20 ADD SWAP1 DUP2 MSTORE PUSH1 0x20 ADD PUSH0 KECCAK256 PUSH0 DUP12 PUSH20 0xFFFFFFFFFFFFFFFFFFFFFFFFFFFFFFFFFFFFFFFF AND PUSH20 0xFFFFFFFFFFFFFFFFFFFFFFFFFFFFFFFFFFFFFFFF AND DUP2 MSTORE PUSH1 0x20 ADD SWAP1 DUP2 MSTORE PUSH1 0x20 ADD PUSH0 KECCAK256 PUSH0 DUP3 DUP3 SLOAD PUSH2 0x14A0 SWAP2 SWAP1 PUSH2 0x2694 JUMP JUMPDEST SWAP3 POP POP DUP2 SWAP1 SSTORE POP DUP10 PUSH20 0xFFFFFFFFFFFFFFFFFFFFFFFFFFFFFFFFFFFFFFFF AND PUSH4 0xA9059CBB DUP7 DUP6 PUSH1 0x40 MLOAD DUP4 PUSH4 0xFFFFFFFF AND PUSH1 0xE0 SHL DUP2 MSTORE PUSH1 0x4 ADD PUSH2 0x14E2 SWAP3 SWAP2 SWAP1 PUSH2 0x29FE JUMP JUMPDEST PUSH1 0x20 PUSH1 0x40 MLOAD DUP1 DUP4 SUB DUP2 PUSH0 DUP8 GAS CALL ISZERO DUP1 ISZERO PUSH2 0x14FE JUMPI RETURNDATASIZE PUSH0 PUSH0 RETURNDATACOPY RETURNDATASIZE PUSH0 REVERT JUMPDEST POP POP POP POP PUSH1 0x40 MLOAD RETURNDATASIZE PUSH1 0x1F NOT PUSH1 0x1F DUP3 ADD AND DUP3 ADD DUP1 PUSH1 0x40 MSTORE POP DUP2 ADD SWAP1 PUSH2 0x1522 SWAP2 SWAP1 PUSH2 0x28CD JUMP JUMPDEST PUSH2 0x1561 JUMPI PUSH1 0x40 MLOAD PUSH32 0x8C379A000000000000000000000000000000000000000000000000000000000 DUP2 MSTORE PUSH1 0x4 ADD PUSH2 0x1558 SWAP1 PUSH2 0x2C3C JUMP JUMPDEST PUSH1 0x40 MLOAD DUP1 SWAP2 SUB SWAP1 REVERT JUMPDEST DUP9 PUSH20 0xFFFFFFFFFFFFFFFFFFFFFFFFFFFFFFFFFFFFFFFF AND PUSH4 0xA9059CBB DUP7 DUP5 PUSH1 0x40 MLOAD DUP4 PUSH4 0xFFFFFFFF AND PUSH1 0xE0 SHL DUP2 MSTORE PUSH1 0x4 ADD PUSH2 0x159C SWAP3 SWAP2 SWAP1 PUSH2 0x29FE JUMP JUMPDEST PUSH1 0x20 PUSH1 0x40 MLOAD DUP1 DUP4 SUB DUP2 PUSH0 DUP8 GAS CALL ISZERO DUP1 ISZERO PUSH2 0x15B8 JUMPI RETURNDATASIZE PUSH0 PUSH0 RETURNDATACOPY RETURNDATASIZE PUSH0 REVERT JUMPDEST POP POP POP POP PUSH1 0x40 MLOAD RETURNDATASIZE PUSH1 0x1F NOT PUSH1 0x1F DUP3 ADD AND DUP3 ADD DUP1 PUSH1 0x40 MSTORE POP DUP2 ADD SWAP1 PUSH2 0x15DC SWAP2 SWAP1 PUSH2 0x28CD JUMP JUMPDEST PUSH2 0x161B JUMPI PUSH1 0x40 MLOAD PUSH32 0x8C379A000000000000000000000000000000000000000000000000000000000 DUP2 MSTORE PUSH1 0x4 ADD PUSH2 0x1612 SWAP1 PUSH2 0x2CA4 JUMP JUMPDEST PUSH1 0x40 MLOAD DUP1 SWAP2 SUB SWAP1 REVERT JUMPDEST POP SWAP8 POP SWAP8 SWAP6 POP POP POP POP POP POP JUMP JUMPDEST PUSH1 0x4 PUSH1 0x20 MSTORE DUP2 PUSH0 MSTORE PUSH1 0x40 PUSH0 KECCAK256 PUSH1 0x20 MSTORE DUP1 PUSH0 MSTORE PUSH1 0x40 PUSH0 KECCAK256 PUSH0 SWAP2 POP SWAP2 POP POP SLOAD DUP2 JUMP JUMPDEST PUSH0 PUSH0 PUSH0 DUP4 TIMESTAMP GT ISZERO PUSH2 0x168E JUMPI PUSH1 0x40 MLOAD PUSH32 0x8C379A000000000000000000000000000000000000000000000000000000000 DUP2 MSTORE PUSH1 0x4 ADD PUSH2 0x1685 SWAP1 PUSH2 0x27AC JUMP JUMPDEST PUSH1 0x40 MLOAD DUP1 SWAP2 SUB SWAP1 REVERT JUMPDEST DUP10 PUSH20 0xFFFFFFFFFFFFFFFFFFFFFFFFFFFFFFFFFFFFFFFF AND DUP12 PUSH20 0xFFFFFFFFFFFFFFFFFFFFFFFFFFFFFFFFFFFFFFFF AND SUB PUSH2 0x16FC JUMPI PUSH1 0x40 MLOAD PUSH32 0x8C379A000000000000000000000000000000000000000000000000000000000 DUP2 MSTORE PUSH1 0x4 ADD PUSH2 0x16F3 SWAP1 PUSH2 0x2A9C JUMP JUMPDEST PUSH1 0x40 MLOAD DUP1 SWAP2 SUB SWAP1 REVERT JUMPDEST PUSH0 PUSH1 0x5 PUSH0 DUP14 PUSH20 0xFFFFFFFFFFFFFFFFFFFFFFFFFFFFFFFFFFFFFFFF AND PUSH20 0xFFFFFFFFFFFFFFFFFFFFFFFFFFFFFFFFFFFFFFFF AND DUP2 MSTORE PUSH1 0x20 ADD SWAP1 DUP2 MSTORE PUSH1 0x20 ADD PUSH0 KECCAK256 PUSH0 DUP13 PUSH20 0xFFFFFFFFFFFFFFFFFFFFFFFFFFFFFFFFFFFFFFFF AND PUSH20 0xFFFFFFFFFFFFFFFFFFFFFFFFFFFFFFFFFFFFFFFF AND DUP2 MSTORE PUSH1 0x20 ADD SWAP1 DUP2 MSTORE PUSH1 0x20 ADD PUSH0 KECCAK256 SLOAD SWAP1 POP PUSH0 PUSH1 0x6 PUSH0 DUP15 PUSH20 0xFFFFFFFFFFFFFFFFFFFFFFFFFFFFFFFFFFFFFFFF AND PUSH20 0xFFFFFFFFFFFFFFFFFFFFFFFFFFFFFFFFFFFFFFFF AND DUP2 MSTORE PUSH1 0x20 ADD SWAP1 DUP2 MSTORE PUSH1 0x20 ADD PUSH0 KECCAK256 PUSH0 DUP14 PUSH20 0xFFFFFFFFFFFFFFFFFFFFFFFFFFFFFFFFFFFFFFFF AND PUSH20 0xFFFFFFFFFFFFFFFFFFFFFFFFFFFFFFFFFFFFFFFF AND DUP2 MSTORE PUSH1 0x20 ADD SWAP1 DUP2 MSTORE PUSH1 0x20 ADD PUSH0 KECCAK256 SLOAD SWAP1 POP PUSH0 DUP3 EQ DUP1 ISZERO PUSH2 0x1802 JUMPI POP PUSH0 DUP2 EQ JUMPDEST ISZERO PUSH2 0x186D JUMPI DUP11 SWAP5 POP DUP10 SWAP4 POP PUSH2 0x1821 DUP5 DUP7 PUSH2 0x181C SWAP2 SWAP1 PUSH2 0x28F8 JUMP JUMPDEST PUSH2 0x1D8E JUMP JUMPDEST SWAP3 POP PUSH2 0x3E8 DUP4 LT ISZERO PUSH2 0x1868 JUMPI PUSH1 0x40 MLOAD PUSH32 0x8C379A000000000000000000000000000000000000000000000000000000000 DUP2 MSTORE PUSH1 0x4 ADD PUSH2 0x185F SWAP1 PUSH2 0x2D0C JUMP JUMPDEST PUSH1 0x40 MLOAD DUP1 SWAP2 SUB SWAP1 REVERT JUMPDEST PUSH2 0x198C JUMP JUMPDEST PUSH0 PUSH1 0x2 SLOAD SWAP1 POP PUSH0 DUP4 DUP4 DUP15 PUSH2 0x1881 SWAP2 SWAP1 PUSH2 0x28F8 JUMP JUMPDEST PUSH2 0x188B SWAP2 SWAP1 PUSH2 0x2966 JUMP JUMPDEST SWAP1 POP DUP12 DUP2 GT PUSH2 0x18E2 JUMPI DUP10 DUP2 LT ISZERO PUSH2 0x18D7 JUMPI PUSH1 0x40 MLOAD PUSH32 0x8C379A000000000000000000000000000000000000000000000000000000000 DUP2 MSTORE PUSH1 0x4 ADD PUSH2 0x18CE SWAP1 PUSH2 0x2D74 JUMP JUMPDEST PUSH1 0x40 MLOAD DUP1 SWAP2 SUB SWAP1 REVERT JUMPDEST DUP13 SWAP7 POP DUP1 SWAP6 POP PUSH2 0x1947 JUMP JUMPDEST PUSH0 DUP4 DUP6 DUP15 PUSH2 0x18F0 SWAP2 SWAP1 PUSH2 0x28F8 JUMP JUMPDEST PUSH2 0x18FA SWAP2 SWAP1 PUSH2 0x2966 JUMP JUMPDEST SWAP1 POP DUP12 DUP2 LT ISZERO PUSH2 0x193F JUMPI PUSH1 0x40 MLOAD PUSH32 0x8C379A000000000000000000000000000000000000000000000000000000000 DUP2 MSTORE PUSH1 0x4 ADD PUSH2 0x1936 SWAP1 PUSH2 0x2DDC JUMP JUMPDEST PUSH1 0x40 MLOAD DUP1 SWAP2 SUB SWAP1 REVERT JUMPDEST DUP1 SWAP8 POP DUP13 SWAP7 POP POP JUMPDEST PUSH0 DUP5 DUP4 DUP10 PUSH2 0x1955 SWAP2 SWAP1 PUSH2 0x28F8 JUMP JUMPDEST PUSH2 0x195F SWAP2 SWAP1 PUSH2 0x2966 JUMP JUMPDEST SWAP1 POP PUSH0 DUP5 DUP5 DUP10 PUSH2 0x196F SWAP2 SWAP1 PUSH2 0x28F8 JUMP JUMPDEST PUSH2 0x1979 SWAP2 SWAP1 PUSH2 0x2966 JUMP JUMPDEST SWAP1 POP PUSH2 0x1985 DUP3 DUP3 PUSH2 0x1E05 JUMP JUMPDEST SWAP7 POP POP POP POP POP JUMPDEST DUP13 PUSH20 0xFFFFFFFFFFFFFFFFFFFFFFFFFFFFFFFFFFFFFFFF AND PUSH4 0x23B872DD CALLER ADDRESS DUP9 PUSH1 0x40 MLOAD DUP5 PUSH4 0xFFFFFFFF AND PUSH1 0xE0 SHL DUP2 MSTORE PUSH1 0x4 ADD PUSH2 0x19C9 SWAP4 SWAP3 SWAP2 SWAP1 PUSH2 0x286E JUMP JUMPDEST PUSH1 0x20 PUSH1 0x40 MLOAD DUP1 DUP4 SUB DUP2 PUSH0 DUP8 GAS CALL ISZERO DUP1 ISZERO PUSH2 0x19E5 JUMPI RETURNDATASIZE PUSH0 PUSH0 RETURNDATACOPY RETURNDATASIZE PUSH0 REVERT JUMPDEST POP POP POP POP PUSH1 0x40 MLOAD RETURNDATASIZE PUSH1 0x1F NOT PUSH1 0x1F DUP3 ADD AND DUP3 ADD DUP1 PUSH1 0x40 MSTORE POP DUP2 ADD SWAP1 PUSH2 0x1A09 SWAP2 SWAP1 PUSH2 0x28CD JUMP JUMPDEST PUSH2 0x1A48 JUMPI PUSH1 0x40 MLOAD PUSH32 0x8C379A000000000000000000000000000000000000000000000000000000000 DUP2 MSTORE PUSH1 0x4 ADD PUSH2 0x1A3F SWAP1 PUSH2 0x2C3C JUMP JUMPDEST PUSH1 0x40 MLOAD DUP1 SWAP2 SUB SWAP1 REVERT JUMPDEST DUP12 PUSH20 0xFFFFFFFFFFFFFFFFFFFFFFFFFFFFFFFFFFFFFFFF AND PUSH4 0x23B872DD CALLER ADDRESS DUP8 PUSH1 0x40 MLOAD DUP5 PUSH4 0xFFFFFFFF AND PUSH1 0xE0 SHL DUP2 MSTORE PUSH1 0x4 ADD PUSH2 0x1A85 SWAP4 SWAP3 SWAP2 SWAP1 PUSH2 0x286E JUMP JUMPDEST PUSH1 0x20 PUSH1 0x40 MLOAD DUP1 DUP4 SUB DUP2 PUSH0 DUP8 GAS CALL ISZERO DUP1 ISZERO PUSH2 0x1AA1 JUMPI RETURNDATASIZE PUSH0 PUSH0 RETURNDATACOPY RETURNDATASIZE PUSH0 REVERT JUMPDEST POP POP POP POP PUSH1 0x40 MLOAD RETURNDATASIZE PUSH1 0x1F NOT PUSH1 0x1F DUP3 ADD AND DUP3 ADD DUP1 PUSH1 0x40 MSTORE POP DUP2 ADD SWAP1 PUSH2 0x1AC5 SWAP2 SWAP1 PUSH2 0x28CD JUMP JUMPDEST PUSH2 0x1B04 JUMPI PUSH1 0x40 MLOAD PUSH32 0x8C379A000000000000000000000000000000000000000000000000000000000 DUP2 MSTORE PUSH1 0x4 ADD PUSH2 0x1AFB SWAP1 PUSH2 0x2CA4 JUMP JUMPDEST PUSH1 0x40 MLOAD DUP1 SWAP2 SUB SWAP1 REVERT JUMPDEST DUP5 PUSH1 0x5 PUSH0 DUP16 PUSH20 0xFFFFFFFFFFFFFFFFFFFFFFFFFFFFFFFFFFFFFFFF AND PUSH20 0xFFFFFFFFFFFFFFFFFFFFFFFFFFFFFFFFFFFFFFFF AND DUP2 MSTORE PUSH1 0x20 ADD SWAP1 DUP2 MSTORE PUSH1 0x20 ADD PUSH0 KECCAK256 PUSH0 DUP15 PUSH20 0xFFFFFFFFFFFFFFFFFFFFFFFFFFFFFFFFFFFFFFFF AND PUSH20 0xFFFFFFFFFFFFFFFFFFFFFFFFFFFFFFFFFFFFFFFF AND DUP2 MSTORE PUSH1 0x20 ADD SWAP1 DUP2 MSTORE PUSH1 0x20 ADD PUSH0 KECCAK256 PUSH0 DUP3 DUP3 SLOAD PUSH2 0x1B8B SWAP2 SWAP1 PUSH2 0x26C7 JUMP JUMPDEST SWAP3 POP POP DUP2 SWAP1 SSTORE POP DUP4 PUSH1 0x6 PUSH0 DUP16 PUSH20 0xFFFFFFFFFFFFFFFFFFFFFFFFFFFFFFFFFFFFFFFF AND PUSH20 0xFFFFFFFFFFFFFFFFFFFFFFFFFFFFFFFFFFFFFFFF AND DUP2 MSTORE PUSH1 0x20 ADD SWAP1 DUP2 MSTORE PUSH1 0x20 ADD PUSH0 KECCAK256 PUSH0 DUP15 PUSH20 0xFFFFFFFFFFFFFFFFFFFFFFFFFFFFFFFFFFFFFFFF AND PUSH20 0xFFFFFFFFFFFFFFFFFFFFFFFFFFFFFFFFFFFFFFFF AND DUP2 MSTORE PUSH1 0x20 ADD SWAP1 DUP2 MSTORE PUSH1 0x20 ADD PUSH0 KECCAK256 PUSH0 DUP3 DUP3 SLOAD PUSH2 0x1C19 SWAP2 SWAP1 PUSH2 0x26C7 JUMP JUMPDEST SWAP3 POP POP DUP2 SWAP1 SSTORE POP PUSH2 0x1C2A DUP8 DUP5 PUSH2 0x1E1D JUMP JUMPDEST POP POP SWAP9 POP SWAP9 POP SWAP9 SWAP6 POP POP POP POP POP POP JUMP JUMPDEST DUP1 PUSH1 0x3 PUSH0 DUP5 PUSH20 0xFFFFFFFFFFFFFFFFFFFFFFFFFFFFFFFFFFFFFFFF AND PUSH20 0xFFFFFFFFFFFFFFFFFFFFFFFFFFFFFFFFFFFFFFFF AND DUP2 MSTORE PUSH1 0x20 ADD SWAP1 DUP2 MSTORE PUSH1 0x20 ADD PUSH0 KECCAK256 SLOAD LT ISZERO PUSH2 0x1CBA JUMPI PUSH1 0x40 MLOAD PUSH32 0x8C379A000000000000000000000000000000000000000000000000000000000 DUP2 MSTORE PUSH1 0x4 ADD PUSH2 0x1CB1 SWAP1 PUSH2 0x2E6A JUMP JUMPDEST PUSH1 0x40 MLOAD DUP1 SWAP2 SUB SWAP1 REVERT JUMPDEST DUP1 PUSH1 0x3 PUSH0 DUP5 PUSH20 0xFFFFFFFFFFFFFFFFFFFFFFFFFFFFFFFFFFFFFFFF AND PUSH20 0xFFFFFFFFFFFFFFFFFFFFFFFFFFFFFFFFFFFFFFFF AND DUP2 MSTORE PUSH1 0x20 ADD SWAP1 DUP2 MSTORE PUSH1 0x20 ADD PUSH0 KECCAK256 PUSH0 DUP3 DUP3 SLOAD PUSH2 0x1D06 SWAP2 SWAP1 PUSH2 0x2694 JUMP JUMPDEST SWAP3 POP POP DUP2 SWAP1 SSTORE POP DUP1 PUSH1 0x2 PUSH0 DUP3 DUP3 SLOAD PUSH2 0x1D1E SWAP2 SWAP1 PUSH2 0x2694 JUMP JUMPDEST SWAP3 POP POP DUP2 SWAP1 SSTORE POP PUSH0 PUSH20 0xFFFFFFFFFFFFFFFFFFFFFFFFFFFFFFFFFFFFFFFF AND DUP3 PUSH20 0xFFFFFFFFFFFFFFFFFFFFFFFFFFFFFFFFFFFFFFFF AND PUSH32 0xDDF252AD1BE2C89B69C2B068FC378DAA952BA7F163C4A11628F55A4DF523B3EF DUP4 PUSH1 0x40 MLOAD PUSH2 0x1D82 SWAP2 SWAP1 PUSH2 0x2096 JUMP JUMPDEST PUSH1 0x40 MLOAD DUP1 SWAP2 SUB SWAP1 LOG3 POP POP JUMP JUMPDEST PUSH0 PUSH1 0x3 DUP3 GT ISZERO PUSH2 0x1DF3 JUMPI DUP2 SWAP1 POP PUSH0 PUSH1 0x1 PUSH1 0x2 DUP5 PUSH2 0x1DAB SWAP2 SWAP1 PUSH2 0x2966 JUMP JUMPDEST PUSH2 0x1DB5 SWAP2 SWAP1 PUSH2 0x26C7 JUMP JUMPDEST SWAP1 POP JUMPDEST DUP2 DUP2 LT ISZERO PUSH2 0x1DED JUMPI DUP1 SWAP2 POP PUSH1 0x2 DUP2 DUP3 DUP6 PUSH2 0x1DD2 SWAP2 SWAP1 PUSH2 0x2966 JUMP JUMPDEST PUSH2 0x1DDC SWAP2 SWAP1 PUSH2 0x26C7 JUMP JUMPDEST PUSH2 0x1DE6 SWAP2 SWAP1 PUSH2 0x2966 JUMP JUMPDEST SWAP1 POP PUSH2 0x1DB8 JUMP JUMPDEST POP PUSH2 0x1E00 JUMP JUMPDEST PUSH0 DUP3 EQ PUSH2 0x1DFF JUMPI PUSH1 0x1 SWAP1 POP JUMPDEST JUMPDEST SWAP2 SWAP1 POP JUMP JUMPDEST PUSH0 DUP2 DUP4 LT PUSH2 0x1E13 JUMPI DUP2 PUSH2 0x1E15 JUMP JUMPDEST DUP3 JUMPDEST SWAP1 POP SWAP3 SWAP2 POP POP JUMP JUMPDEST DUP1 PUSH1 0x2 PUSH0 DUP3 DUP3 SLOAD PUSH2 0x1E2E SWAP2 SWAP1 PUSH2 0x26C7 JUMP JUMPDEST SWAP3 POP POP DUP2 SWAP1 SSTORE POP DUP1 PUSH1 0x3 PUSH0 DUP5 PUSH20 0xFFFFFFFFFFFFFFFFFFFFFFFFFFFFFFFFFFFFFFFF AND PUSH20 0xFFFFFFFFFFFFFFFFFFFFFFFFFFFFFFFFFFFFFFFF AND DUP2 MSTORE PUSH1 0x20 ADD SWAP1 DUP2 MSTORE PUSH1 0x20 ADD PUSH0 KECCAK256 PUSH0 DUP3 DUP3 SLOAD PUSH2 0x1E81 SWAP2 SWAP1 PUSH2 0x26C7 JUMP JUMPDEST SWAP3 POP POP DUP2 SWAP1 SSTORE POP DUP2 PUSH20 0xFFFFFFFFFFFFFFFFFFFFFFFFFFFFFFFFFFFFFFFF AND PUSH0 PUSH20 0xFFFFFFFFFFFFFFFFFFFFFFFFFFFFFFFFFFFFFFFF AND PUSH32 0xDDF252AD1BE2C89B69C2B068FC378DAA952BA7F163C4A11628F55A4DF523B3EF DUP4 PUSH1 0x40 MLOAD PUSH2 0x1EE5 SWAP2 SWAP1 PUSH2 0x2096 JUMP JUMPDEST PUSH1 0x40 MLOAD DUP1 SWAP2 SUB SWAP1 LOG3 POP POP JUMP JUMPDEST PUSH0 DUP2 MLOAD SWAP1 POP SWAP2 SWAP1 POP JUMP JUMPDEST PUSH0 DUP3 DUP3 MSTORE PUSH1 0x20 DUP3 ADD SWAP1 POP SWAP3 SWAP2 POP POP JUMP JUMPDEST DUP3 DUP2 DUP4 MCOPY PUSH0 DUP4 DUP4 ADD MSTORE POP POP POP JUMP JUMPDEST PUSH0 PUSH1 0x1F NOT PUSH1 0x1F DUP4 ADD AND SWAP1 POP SWAP2 SWAP1 POP JUMP JUMPDEST PUSH0 PUSH2 0x1F33 DUP3 PUSH2 0x1EF1 JUMP JUMPDEST PUSH2 0x1F3D DUP2 DUP6 PUSH2 0x1EFB JUMP JUMPDEST SWAP4 POP PUSH2 0x1F4D DUP2 DUP6 PUSH1 0x20 DUP7 ADD PUSH2 0x1F0B JUMP JUMPDEST PUSH2 0x1F56 DUP2 PUSH2 0x1F19 JUMP JUMPDEST DUP5 ADD SWAP2 POP POP SWAP3 SWAP2 POP POP JUMP JUMPDEST PUSH0 PUSH1 0x20 DUP3 ADD SWAP1 POP DUP2 DUP2 SUB PUSH0 DUP4 ADD MSTORE PUSH2 0x1F79 DUP2 DUP5 PUSH2 0x1F29 JUMP JUMPDEST SWAP1 POP SWAP3 SWAP2 POP POP JUMP JUMPDEST PUSH0 PUSH0 REVERT JUMPDEST PUSH0 PUSH0 REVERT JUMPDEST PUSH0 PUSH20 0xFFFFFFFFFFFFFFFFFFFFFFFFFFFFFFFFFFFFFFFF DUP3 AND SWAP1 POP SWAP2 SWAP1 POP JUMP JUMPDEST PUSH0 PUSH2 0x1FB2 DUP3 PUSH2 0x1F89 JUMP JUMPDEST SWAP1 POP SWAP2 SWAP1 POP JUMP JUMPDEST PUSH2 0x1FC2 DUP2 PUSH2 0x1FA8 JUMP JUMPDEST DUP2 EQ PUSH2 0x1FCC JUMPI PUSH0 PUSH0 REVERT JUMPDEST POP JUMP JUMPDEST PUSH0 DUP2 CALLDATALOAD SWAP1 POP PUSH2 0x1FDD DUP2 PUSH2 0x1FB9 JUMP JUMPDEST SWAP3 SWAP2 POP POP JUMP JUMPDEST PUSH0 DUP2 SWAP1 POP SWAP2 SWAP1 POP JUMP JUMPDEST PUSH2 0x1FF5 DUP2 PUSH2 0x1FE3 JUMP JUMPDEST DUP2 EQ PUSH2 0x1FFF JUMPI PUSH0 PUSH0 REVERT JUMPDEST POP JUMP JUMPDEST PUSH0 DUP2 CALLDATALOAD SWAP1 POP PUSH2 0x2010 DUP2 PUSH2 0x1FEC JUMP JUMPDEST SWAP3 SWAP2 POP POP JUMP JUMPDEST PUSH0 PUSH0 PUSH1 0x40 DUP4 DUP6 SUB SLT ISZERO PUSH2 0x202C JUMPI PUSH2 0x202B PUSH2 0x1F81 JUMP JUMPDEST JUMPDEST PUSH0 PUSH2 0x2039 DUP6 DUP3 DUP7 ADD PUSH2 0x1FCF JUMP JUMPDEST SWAP3 POP POP PUSH1 0x20 PUSH2 0x204A DUP6 DUP3 DUP7 ADD PUSH2 0x2002 JUMP JUMPDEST SWAP2 POP POP SWAP3 POP SWAP3 SWAP1 POP JUMP JUMPDEST PUSH0 DUP2 ISZERO ISZERO SWAP1 POP SWAP2 SWAP1 POP JUMP JUMPDEST PUSH2 0x2068 DUP2 PUSH2 0x2054 JUMP JUMPDEST DUP3 MSTORE POP POP JUMP JUMPDEST PUSH0 PUSH1 0x20 DUP3 ADD SWAP1 POP PUSH2 0x2081 PUSH0 DUP4 ADD DUP5 PUSH2 0x205F JUMP JUMPDEST SWAP3 SWAP2 POP POP JUMP JUMPDEST PUSH2 0x2090 DUP2 PUSH2 0x1FE3 JUMP JUMPDEST DUP3 MSTORE POP POP JUMP JUMPDEST PUSH0 PUSH1 0x20 DUP3 ADD SWAP1 POP PUSH2 0x20A9 PUSH0 DUP4 ADD DUP5 PUSH2 0x2087 JUMP JUMPDEST SWAP3 SWAP2 POP POP JUMP JUMPDEST PUSH0 PUSH0 PUSH0 PUSH1 0x60 DUP5 DUP7 SUB SLT ISZERO PUSH2 0x20C6 JUMPI PUSH2 0x20C5 PUSH2 0x1F81 JUMP JUMPDEST JUMPDEST PUSH0 PUSH2 0x20D3 DUP7 DUP3 DUP8 ADD PUSH2 0x1FCF JUMP JUMPDEST SWAP4 POP POP PUSH1 0x20 PUSH2 0x20E4 DUP7 DUP3 DUP8 ADD PUSH2 0x1FCF JUMP JUMPDEST SWAP3 POP POP PUSH1 0x40 PUSH2 0x20F5 DUP7 DUP3 DUP8 ADD PUSH2 0x2002 JUMP JUMPDEST SWAP2 POP POP SWAP3 POP SWAP3 POP SWAP3 JUMP JUMPDEST PUSH0 PUSH1 0xFF DUP3 AND SWAP1 POP SWAP2 SWAP1 POP JUMP JUMPDEST PUSH2 0x2114 DUP2 PUSH2 0x20FF JUMP JUMPDEST DUP3 MSTORE POP POP JUMP JUMPDEST PUSH0 PUSH1 0x20 DUP3 ADD SWAP1 POP PUSH2 0x212D PUSH0 DUP4 ADD DUP5 PUSH2 0x210B JUMP JUMPDEST SWAP3 SWAP2 POP POP JUMP JUMPDEST PUSH0 PUSH0 REVERT JUMPDEST PUSH0 PUSH0 REVERT JUMPDEST PUSH0 PUSH0 REVERT JUMPDEST PUSH0 PUSH0 DUP4 PUSH1 0x1F DUP5 ADD SLT PUSH2 0x2154 JUMPI PUSH2 0x2153 PUSH2 0x2133 JUMP JUMPDEST JUMPDEST DUP3 CALLDATALOAD SWAP1 POP PUSH8 0xFFFFFFFFFFFFFFFF DUP2 GT ISZERO PUSH2 0x2171 JUMPI PUSH2 0x2170 PUSH2 0x2137 JUMP JUMPDEST JUMPDEST PUSH1 0x20 DUP4 ADD SWAP2 POP DUP4 PUSH1 0x20 DUP3 MUL DUP4 ADD GT ISZERO PUSH2 0x218D JUMPI PUSH2 0x218C PUSH2 0x213B JUMP JUMPDEST JUMPDEST SWAP3 POP SWAP3 SWAP1 POP JUMP JUMPDEST PUSH0 PUSH0 PUSH0 PUSH0 PUSH0 PUSH0 PUSH1 0xA0 DUP8 DUP10 SUB SLT ISZERO PUSH2 0x21AE JUMPI PUSH2 0x21AD PUSH2 0x1F81 JUMP JUMPDEST JUMPDEST PUSH0 PUSH2 0x21BB DUP10 DUP3 DUP11 ADD PUSH2 0x2002 JUMP JUMPDEST SWAP7 POP POP PUSH1 0x20 PUSH2 0x21CC DUP10 DUP3 DUP11 ADD PUSH2 0x2002 JUMP JUMPDEST SWAP6 POP POP PUSH1 0x40 DUP8 ADD CALLDATALOAD PUSH8 0xFFFFFFFFFFFFFFFF DUP2 GT ISZERO PUSH2 0x21ED JUMPI PUSH2 0x21EC PUSH2 0x1F85 JUMP JUMPDEST JUMPDEST PUSH2 0x21F9 DUP10 DUP3 DUP11 ADD PUSH2 0x213F JUMP JUMPDEST SWAP5 POP SWAP5 POP POP PUSH1 0x60 PUSH2 0x220C DUP10 DUP3 DUP11 ADD PUSH2 0x1FCF JUMP JUMPDEST SWAP3 POP POP PUSH1 0x80 PUSH2 0x221D DUP10 DUP3 DUP11 ADD PUSH2 0x2002 JUMP JUMPDEST SWAP2 POP POP SWAP3 SWAP6 POP SWAP3 SWAP6 POP SWAP3 SWAP6 JUMP JUMPDEST PUSH0 DUP2 MLOAD SWAP1 POP SWAP2 SWAP1 POP JUMP JUMPDEST PUSH0 DUP3 DUP3 MSTORE PUSH1 0x20 DUP3 ADD SWAP1 POP SWAP3 SWAP2 POP POP JUMP JUMPDEST PUSH0 DUP2 SWAP1 POP PUSH1 0x20 DUP3 ADD SWAP1 POP SWAP2 SWAP1 POP JUMP JUMPDEST PUSH2 0x225C DUP2 PUSH2 0x1FE3 JUMP JUMPDEST DUP3 MSTORE POP POP JUMP JUMPDEST PUSH0 PUSH2 0x226D DUP4 DUP4 PUSH2 0x2253 JUMP JUMPDEST PUSH1 0x20 DUP4 ADD SWAP1 POP SWAP3 SWAP2 POP POP JUMP JUMPDEST PUSH0 PUSH1 0x20 DUP3 ADD SWAP1 POP SWAP2 SWAP1 POP JUMP JUMPDEST PUSH0 PUSH2 0x228F DUP3 PUSH2 0x222A JUMP JUMPDEST PUSH2 0x2299 DUP2 DUP6 PUSH2 0x2234 JUMP JUMPDEST SWAP4 POP PUSH2 0x22A4 DUP4 PUSH2 0x2244 JUMP JUMPDEST DUP1 PUSH0 JUMPDEST DUP4 DUP2 LT ISZERO PUSH2 0x22D4 JUMPI DUP2 MLOAD PUSH2 0x22BB DUP9 DUP3 PUSH2 0x2262 JUMP JUMPDEST SWAP8 POP PUSH2 0x22C6 DUP4 PUSH2 0x2279 JUMP JUMPDEST SWAP3 POP POP PUSH1 0x1 DUP2 ADD SWAP1 POP PUSH2 0x22A7 JUMP JUMPDEST POP DUP6 SWAP4 POP POP POP POP SWAP3 SWAP2 POP POP JUMP JUMPDEST PUSH0 PUSH1 0x20 DUP3 ADD SWAP1 POP DUP2 DUP2 SUB PUSH0 DUP4 ADD MSTORE PUSH2 0x22F9 DUP2 DUP5 PUSH2 0x2285 JUMP JUMPDEST SWAP1 POP SWAP3 SWAP2 POP POP JUMP JUMPDEST PUSH0 PUSH1 0x20 DUP3 DUP5 SUB SLT ISZERO PUSH2 0x2316 JUMPI PUSH2 0x2315 PUSH2 0x1F81 JUMP JUMPDEST JUMPDEST PUSH0 PUSH2 0x2323 DUP5 DUP3 DUP6 ADD PUSH2 0x1FCF JUMP JUMPDEST SWAP2 POP POP SWAP3 SWAP2 POP POP JUMP JUMPDEST PUSH0 PUSH0 PUSH1 0x40 DUP4 DUP6 SUB SLT ISZERO PUSH2 0x2342 JUMPI PUSH2 0x2341 PUSH2 0x1F81 JUMP JUMPDEST JUMPDEST PUSH0 PUSH2 0x234F DUP6 DUP3 DUP7 ADD PUSH2 0x1FCF JUMP JUMPDEST SWAP3 POP POP PUSH1 0x20 PUSH2 0x2360 DUP6 DUP3 DUP7 ADD PUSH2 0x1FCF JUMP JUMPDEST SWAP2 POP POP SWAP3 POP SWAP3 SWAP1 POP JUMP JUMPDEST PUSH0 PUSH0 PUSH0 PUSH0 PUSH0 PUSH0 PUSH0 PUSH1 0xE0 DUP9 DUP11 SUB SLT ISZERO PUSH2 0x2385 JUMPI PUSH2 0x2384 PUSH2 0x1F81 JUMP JUMPDEST JUMPDEST PUSH0 PUSH2 0x2392 DUP11 DUP3 DUP12 ADD PUSH2 0x1FCF JUMP JUMPDEST SWAP8 POP POP PUSH1 0x20 PUSH2 0x23A3 DUP11 DUP3 DUP12 ADD PUSH2 0x1FCF JUMP JUMPDEST SWAP7 POP POP PUSH1 0x40 PUSH2 0x23B4 DUP11 DUP3 DUP12 ADD PUSH2 0x2002 JUMP JUMPDEST SWAP6 POP POP PUSH1 0x60 PUSH2 0x23C5 DUP11 DUP3 DUP12 ADD PUSH2 0x2002 JUMP JUMPDEST SWAP5 POP POP PUSH1 0x80 PUSH2 0x23D6 DUP11 DUP3 DUP12 ADD PUSH2 0x2002 JUMP JUMPDEST SWAP4 POP POP PUSH1 0xA0 PUSH2 0x23E7 DUP11 DUP3 DUP12 ADD PUSH2 0x1FCF JUMP JUMPDEST SWAP3 POP POP PUSH1 0xC0 PUSH2 0x23F8 DUP11 DUP3 DUP12 ADD PUSH2 0x2002 JUMP JUMPDEST SWAP2 POP POP SWAP3 SWAP6 SWAP9 SWAP2 SWAP5 SWAP8 POP SWAP3 SWAP6 POP JUMP JUMPDEST PUSH0 PUSH1 0x40 DUP3 ADD SWAP1 POP PUSH2 0x241A PUSH0 DUP4 ADD DUP6 PUSH2 0x2087 JUMP JUMPDEST PUSH2 0x2427 PUSH1 0x20 DUP4 ADD DUP5 PUSH2 0x2087 JUMP JUMPDEST SWAP4 SWAP3 POP POP POP JUMP JUMPDEST PUSH0 PUSH0 PUSH0 PUSH0 PUSH0 PUSH0 PUSH0 PUSH0 PUSH2 0x100 DUP10 DUP12 SUB SLT ISZERO PUSH2 0x244B JUMPI PUSH2 0x244A PUSH2 0x1F81 JUMP JUMPDEST JUMPDEST PUSH0 PUSH2 0x2458 DUP12 DUP3 DUP13 ADD PUSH2 0x1FCF JUMP JUMPDEST SWAP9 POP POP PUSH1 0x20 PUSH2 0x2469 DUP12 DUP3 DUP13 ADD PUSH2 0x1FCF JUMP JUMPDEST SWAP8 POP POP PUSH1 0x40 PUSH2 0x247A DUP12 DUP3 DUP13 ADD PUSH2 0x2002 JUMP JUMPDEST SWAP7 POP POP PUSH1 0x60 PUSH2 0x248B DUP12 DUP3 DUP13 ADD PUSH2 0x2002 JUMP JUMPDEST SWAP6 POP POP PUSH1 0x80 PUSH2 0x249C DUP12 DUP3 DUP13 ADD PUSH2 0x2002 JUMP JUMPDEST SWAP5 POP POP PUSH1 0xA0 PUSH2 0x24AD DUP12 DUP3 DUP13 ADD PUSH2 0x2002 JUMP JUMPDEST SWAP4 POP POP PUSH1 0xC0 PUSH2 0x24BE DUP12 DUP3 DUP13 ADD PUSH2 0x1FCF JUMP JUMPDEST SWAP3 POP POP PUSH1 0xE0 PUSH2 0x24CF DUP12 DUP3 DUP13 ADD PUSH2 0x2002 JUMP JUMPDEST SWAP2 POP POP SWAP3 SWAP6 SWAP9 POP SWAP3 SWAP6 SWAP9 SWAP1 SWAP4 SWAP7 POP JUMP JUMPDEST PUSH0 PUSH1 0x60 DUP3 ADD SWAP1 POP PUSH2 0x24F2 PUSH0 DUP4 ADD DUP7 PUSH2 0x2087 JUMP JUMPDEST PUSH2 0x24FF PUSH1 0x20 DUP4 ADD DUP6 PUSH2 0x2087 JUMP JUMPDEST PUSH2 0x250C PUSH1 0x40 DUP4 ADD DUP5 PUSH2 0x2087 JUMP JUMPDEST SWAP5 SWAP4 POP POP POP POP JUMP JUMPDEST PUSH32 0x4E487B7100000000000000000000000000000000000000000000000000000000 PUSH0 MSTORE PUSH1 0x22 PUSH1 0x4 MSTORE PUSH1 0x24 PUSH0 REVERT JUMPDEST PUSH0 PUSH1 0x2 DUP3 DIV SWAP1 POP PUSH1 0x1 DUP3 AND DUP1 PUSH2 0x2558 JUMPI PUSH1 0x7F DUP3 AND SWAP2 POP JUMPDEST PUSH1 0x20 DUP3 LT DUP2 SUB PUSH2 0x256B JUMPI PUSH2 0x256A PUSH2 0x2514 JUMP JUMPDEST JUMPDEST POP SWAP2 SWAP1 POP JUMP JUMPDEST PUSH32 0x45524332303A207472616E7366657220616D6F756E7420657863656564732062 PUSH0 DUP3 ADD MSTORE PUSH32 0x616C616E63650000000000000000000000000000000000000000000000000000 PUSH1 0x20 DUP3 ADD MSTORE POP JUMP JUMPDEST PUSH0 PUSH2 0x25CB PUSH1 0x26 DUP4 PUSH2 0x1EFB JUMP JUMPDEST SWAP2 POP PUSH2 0x25D6 DUP3 PUSH2 0x2571 JUMP JUMPDEST PUSH1 0x40 DUP3 ADD SWAP1 POP SWAP2 SWAP1 POP JUMP JUMPDEST PUSH0 PUSH1 0x20 DUP3 ADD SWAP1 POP DUP2 DUP2 SUB PUSH0 DUP4 ADD MSTORE PUSH2 0x25F8 DUP2 PUSH2 0x25BF JUMP JUMPDEST SWAP1 POP SWAP2 SWAP1 POP JUMP JUMPDEST PUSH32 0x45524332303A20696E73756666696369656E7420616C6C6F77616E6365000000 PUSH0 DUP3 ADD MSTORE POP JUMP JUMPDEST PUSH0 PUSH2 0x2633 PUSH1 0x1D DUP4 PUSH2 0x1EFB JUMP JUMPDEST SWAP2 POP PUSH2 0x263E DUP3 PUSH2 0x25FF JUMP JUMPDEST PUSH1 0x20 DUP3 ADD SWAP1 POP SWAP2 SWAP1 POP JUMP JUMPDEST PUSH0 PUSH1 0x20 DUP3 ADD SWAP1 POP DUP2 DUP2 SUB PUSH0 DUP4 ADD MSTORE PUSH2 0x2660 DUP2 PUSH2 0x2627 JUMP JUMPDEST SWAP1 POP SWAP2 SWAP1 POP JUMP JUMPDEST PUSH32 0x4E487B7100000000000000000000000000000000000000000000000000000000 PUSH0 MSTORE PUSH1 0x11 PUSH1 0x4 MSTORE PUSH1 0x24 PUSH0 REVERT JUMPDEST PUSH0 PUSH2 0x269E DUP3 PUSH2 0x1FE3 JUMP JUMPDEST SWAP2 POP PUSH2 0x26A9 DUP4 PUSH2 0x1FE3 JUMP JUMPDEST SWAP3 POP DUP3 DUP3 SUB SWAP1 POP DUP2 DUP2 GT ISZERO PUSH2 0x26C1 JUMPI PUSH2 0x26C0 PUSH2 0x2667 JUMP JUMPDEST JUMPDEST SWAP3 SWAP2 POP POP JUMP JUMPDEST PUSH0 PUSH2 0x26D1 DUP3 PUSH2 0x1FE3 JUMP JUMPDEST SWAP2 POP PUSH2 0x26DC DUP4 PUSH2 0x1FE3 JUMP JUMPDEST SWAP3 POP DUP3 DUP3 ADD SWAP1 POP DUP1 DUP3 GT ISZERO PUSH2 0x26F4 JUMPI PUSH2 0x26F3 PUSH2 0x2667 JUMP JUMPDEST JUMPDEST SWAP3 SWAP2 POP POP JUMP JUMPDEST PUSH32 0x4F6E6C792064697265637420737761707320737570706F727465640000000000 PUSH0 DUP3 ADD MSTORE POP JUMP JUMPDEST PUSH0 PUSH2 0x272E PUSH1 0x1B DUP4 PUSH2 0x1EFB JUMP JUMPDEST SWAP2 POP PUSH2 0x2739 DUP3 PUSH2 0x26FA JUMP JUMPDEST PUSH1 0x20 DUP3 ADD SWAP1 POP SWAP2 SWAP1 POP JUMP JUMPDEST PUSH0 PUSH1 0x20 DUP3 ADD SWAP1 POP DUP2 DUP2 SUB PUSH0 DUP4 ADD MSTORE PUSH2 0x275B DUP2 PUSH2 0x2722 JUMP JUMPDEST SWAP1 POP SWAP2 SWAP1 POP JUMP JUMPDEST PUSH32 0x5472616E73616374696F6E206578706972656400000000000000000000000000 PUSH0 DUP3 ADD MSTORE POP JUMP JUMPDEST PUSH0 PUSH2 0x2796 PUSH1 0x13 DUP4 PUSH2 0x1EFB JUMP JUMPDEST SWAP2 POP PUSH2 0x27A1 DUP3 PUSH2 0x2762 JUMP JUMPDEST PUSH1 0x20 DUP3 ADD SWAP1 POP SWAP2 SWAP1 POP JUMP JUMPDEST PUSH0 PUSH1 0x20 DUP3 ADD SWAP1 POP DUP2 DUP2 SUB PUSH0 DUP4 ADD MSTORE PUSH2 0x27C3 DUP2 PUSH2 0x278A JUMP JUMPDEST SWAP1 POP SWAP2 SWAP1 POP JUMP JUMPDEST PUSH32 0x4E487B7100000000000000000000000000000000000000000000000000000000 PUSH0 MSTORE PUSH1 0x32 PUSH1 0x4 MSTORE PUSH1 0x24 PUSH0 REVERT JUMPDEST PUSH32 0x506F6F6C20646F65736E27742065786973740000000000000000000000000000 PUSH0 DUP3 ADD MSTORE POP JUMP JUMPDEST PUSH0 PUSH2 0x282B PUSH1 0x12 DUP4 PUSH2 0x1EFB JUMP JUMPDEST SWAP2 POP PUSH2 0x2836 DUP3 PUSH2 0x27F7 JUMP JUMPDEST PUSH1 0x20 DUP3 ADD SWAP1 POP SWAP2 SWAP1 POP JUMP JUMPDEST PUSH0 PUSH1 0x20 DUP3 ADD SWAP1 POP DUP2 DUP2 SUB PUSH0 DUP4 ADD MSTORE PUSH2 0x2858 DUP2 PUSH2 0x281F JUMP JUMPDEST SWAP1 POP SWAP2 SWAP1 POP JUMP JUMPDEST PUSH2 0x2868 DUP2 PUSH2 0x1FA8 JUMP JUMPDEST DUP3 MSTORE POP POP JUMP JUMPDEST PUSH0 PUSH1 0x60 DUP3 ADD SWAP1 POP PUSH2 0x2881 PUSH0 DUP4 ADD DUP7 PUSH2 0x285F JUMP JUMPDEST PUSH2 0x288E PUSH1 0x20 DUP4 ADD DUP6 PUSH2 0x285F JUMP JUMPDEST PUSH2 0x289B PUSH1 0x40 DUP4 ADD DUP5 PUSH2 0x2087 JUMP JUMPDEST SWAP5 SWAP4 POP POP POP POP JUMP JUMPDEST PUSH2 0x28AC DUP2 PUSH2 0x2054 JUMP JUMPDEST DUP2 EQ PUSH2 0x28B6 JUMPI PUSH0 PUSH0 REVERT JUMPDEST POP JUMP JUMPDEST PUSH0 DUP2 MLOAD SWAP1 POP PUSH2 0x28C7 DUP2 PUSH2 0x28A3 JUMP JUMPDEST SWAP3 SWAP2 POP POP JUMP JUMPDEST PUSH0 PUSH1 0x20 DUP3 DUP5 SUB SLT ISZERO PUSH2 0x28E2 JUMPI PUSH2 0x28E1 PUSH2 0x1F81 JUMP JUMPDEST JUMPDEST PUSH0 PUSH2 0x28EF DUP5 DUP3 DUP6 ADD PUSH2 0x28B9 JUMP JUMPDEST SWAP2 POP POP SWAP3 SWAP2 POP POP JUMP JUMPDEST PUSH0 PUSH2 0x2902 DUP3 PUSH2 0x1FE3 JUMP JUMPDEST SWAP2 POP PUSH2 0x290D DUP4 PUSH2 0x1FE3 JUMP JUMPDEST SWAP3 POP DUP3 DUP3 MUL PUSH2 0x291B DUP2 PUSH2 0x1FE3 JUMP JUMPDEST SWAP2 POP DUP3 DUP3 DIV DUP5 EQ DUP4 ISZERO OR PUSH2 0x2932 JUMPI PUSH2 0x2931 PUSH2 0x2667 JUMP JUMPDEST JUMPDEST POP SWAP3 SWAP2 POP POP JUMP JUMPDEST PUSH32 0x4E487B7100000000000000000000000000000000000000000000000000000000 PUSH0 MSTORE PUSH1 0x12 PUSH1 0x4 MSTORE PUSH1 0x24 PUSH0 REVERT JUMPDEST PUSH0 PUSH2 0x2970 DUP3 PUSH2 0x1FE3 JUMP JUMPDEST SWAP2 POP PUSH2 0x297B DUP4 PUSH2 0x1FE3 JUMP JUMPDEST SWAP3 POP DUP3 PUSH2 0x298B JUMPI PUSH2 0x298A PUSH2 0x2939 JUMP JUMPDEST JUMPDEST DUP3 DUP3 DIV SWAP1 POP SWAP3 SWAP2 POP POP JUMP JUMPDEST PUSH32 0x496E73756666696369656E74206F757470757420616D6F756E74000000000000 PUSH0 DUP3 ADD MSTORE POP JUMP JUMPDEST PUSH0 PUSH2 0x29CA PUSH1 0x1A DUP4 PUSH2 0x1EFB JUMP JUMPDEST SWAP2 POP PUSH2 0x29D5 DUP3 PUSH2 0x2996 JUMP JUMPDEST PUSH1 0x20 DUP3 ADD SWAP1 POP SWAP2 SWAP1 POP JUMP JUMPDEST PUSH0 PUSH1 0x20 DUP3 ADD SWAP1 POP DUP2 DUP2 SUB PUSH0 DUP4 ADD MSTORE PUSH2 0x29F7 DUP2 PUSH2 0x29BE JUMP JUMPDEST SWAP1 POP SWAP2 SWAP1 POP JUMP JUMPDEST PUSH0 PUSH1 0x40 DUP3 ADD SWAP1 POP PUSH2 0x2A11 PUSH0 DUP4 ADD DUP6 PUSH2 0x285F JUMP JUMPDEST PUSH2 0x2A1E PUSH1 0x20 DUP4 ADD DUP5 PUSH2 0x2087 JUMP JUMPDEST SWAP4 SWAP3 POP POP POP JUMP JUMPDEST PUSH32 0x4E487B7100000000000000000000000000000000000000000000000000000000 PUSH0 MSTORE PUSH1 0x41 PUSH1 0x4 MSTORE PUSH1 0x24 PUSH0 REVERT JUMPDEST PUSH32 0x4964656E746963616C20746F6B656E7300000000000000000000000000000000 PUSH0 DUP3 ADD MSTORE POP JUMP JUMPDEST PUSH0 PUSH2 0x2A86 PUSH1 0x10 DUP4 PUSH2 0x1EFB JUMP JUMPDEST SWAP2 POP PUSH2 0x2A91 DUP3 PUSH2 0x2A52 JUMP JUMPDEST PUSH1 0x20 DUP3 ADD SWAP1 POP SWAP2 SWAP1 POP JUMP JUMPDEST PUSH0 PUSH1 0x20 DUP3 ADD SWAP1 POP DUP2 DUP2 SUB PUSH0 DUP4 ADD MSTORE PUSH2 0x2AB3 DUP2 PUSH2 0x2A7A JUMP JUMPDEST SWAP1 POP SWAP2 SWAP1 POP JUMP JUMPDEST PUSH32 0x4E6F7420656E6F756768204C5020746F6B656E73000000000000000000000000 PUSH0 DUP3 ADD MSTORE POP JUMP JUMPDEST PUSH0 PUSH2 0x2AEE PUSH1 0x14 DUP4 PUSH2 0x1EFB JUMP JUMPDEST SWAP2 POP PUSH2 0x2AF9 DUP3 PUSH2 0x2ABA JUMP JUMPDEST PUSH1 0x20 DUP3 ADD SWAP1 POP SWAP2 SWAP1 POP JUMP JUMPDEST PUSH0 PUSH1 0x20 DUP3 ADD SWAP1 POP DUP2 DUP2 SUB PUSH0 DUP4 ADD MSTORE PUSH2 0x2B1B DUP2 PUSH2 0x2AE2 JUMP JUMPDEST SWAP1 POP SWAP2 SWAP1 POP JUMP JUMPDEST PUSH32 0x416D6F756E74204120746F6F206C6F7700000000000000000000000000000000 PUSH0 DUP3 ADD MSTORE POP JUMP JUMPDEST PUSH0 PUSH2 0x2B56 PUSH1 0x10 DUP4 PUSH2 0x1EFB JUMP JUMPDEST SWAP2 POP PUSH2 0x2B61 DUP3 PUSH2 0x2B22 JUMP JUMPDEST PUSH1 0x20 DUP3 ADD SWAP1 POP SWAP2 SWAP1 POP JUMP JUMPDEST PUSH0 PUSH1 0x20 DUP3 ADD SWAP1 POP DUP2 DUP2 SUB PUSH0 DUP4 ADD MSTORE PUSH2 0x2B83 DUP2 PUSH2 0x2B4A JUMP JUMPDEST SWAP1 POP SWAP2 SWAP1 POP JUMP JUMPDEST PUSH32 0x416D6F756E74204220746F6F206C6F7700000000000000000000000000000000 PUSH0 DUP3 ADD MSTORE POP JUMP JUMPDEST PUSH0 PUSH2 0x2BBE PUSH1 0x10 DUP4 PUSH2 0x1EFB JUMP JUMPDEST SWAP2 POP PUSH2 0x2BC9 DUP3 PUSH2 0x2B8A JUMP JUMPDEST PUSH1 0x20 DUP3 ADD SWAP1 POP SWAP2 SWAP1 POP JUMP JUMPDEST PUSH0 PUSH1 0x20 DUP3 ADD SWAP1 POP DUP2 DUP2 SUB PUSH0 DUP4 ADD MSTORE PUSH2 0x2BEB DUP2 PUSH2 0x2BB2 JUMP JUMPDEST SWAP1 POP SWAP2 SWAP1 POP JUMP JUMPDEST PUSH32 0x5472616E736665722041206661696C6564000000000000000000000000000000 PUSH0 DUP3 ADD MSTORE POP JUMP JUMPDEST PUSH0 PUSH2 0x2C26 PUSH1 0x11 DUP4 PUSH2 0x1EFB JUMP JUMPDEST SWAP2 POP PUSH2 0x2C31 DUP3 PUSH2 0x2BF2 JUMP JUMPDEST PUSH1 0x20 DUP3 ADD SWAP1 POP SWAP2 SWAP1 POP JUMP JUMPDEST PUSH0 PUSH1 0x20 DUP3 ADD SWAP1 POP DUP2 DUP2 SUB PUSH0 DUP4 ADD MSTORE PUSH2 0x2C53 DUP2 PUSH2 0x2C1A JUMP JUMPDEST SWAP1 POP SWAP2 SWAP1 POP JUMP JUMPDEST PUSH32 0x5472616E736665722042206661696C6564000000000000000000000000000000 PUSH0 DUP3 ADD MSTORE POP JUMP JUMPDEST PUSH0 PUSH2 0x2C8E PUSH1 0x11 DUP4 PUSH2 0x1EFB JUMP JUMPDEST SWAP2 POP PUSH2 0x2C99 DUP3 PUSH2 0x2C5A JUMP JUMPDEST PUSH1 0x20 DUP3 ADD SWAP1 POP SWAP2 SWAP1 POP JUMP JUMPDEST PUSH0 PUSH1 0x20 DUP3 ADD SWAP1 POP DUP2 DUP2 SUB PUSH0 DUP4 ADD MSTORE PUSH2 0x2CBB DUP2 PUSH2 0x2C82 JUMP JUMPDEST SWAP1 POP SWAP2 SWAP1 POP JUMP JUMPDEST PUSH32 0x496E73756666696369656E7420696E697469616C206C69717569646974790000 PUSH0 DUP3 ADD MSTORE POP JUMP JUMPDEST PUSH0 PUSH2 0x2CF6 PUSH1 0x1E DUP4 PUSH2 0x1EFB JUMP JUMPDEST SWAP2 POP PUSH2 0x2D01 DUP3 PUSH2 0x2CC2 JUMP JUMPDEST PUSH1 0x20 DUP3 ADD SWAP1 POP SWAP2 SWAP1 POP JUMP JUMPDEST PUSH0 PUSH1 0x20 DUP3 ADD SWAP1 POP DUP2 DUP2 SUB PUSH0 DUP4 ADD MSTORE PUSH2 0x2D23 DUP2 PUSH2 0x2CEA JUMP JUMPDEST SWAP1 POP SWAP2 SWAP1 POP JUMP JUMPDEST PUSH32 0x496E73756666696369656E74204220616D6F756E740000000000000000000000 PUSH0 DUP3 ADD MSTORE POP JUMP JUMPDEST PUSH0 PUSH2 0x2D5E PUSH1 0x15 DUP4 PUSH2 0x1EFB JUMP JUMPDEST SWAP2 POP PUSH2 0x2D69 DUP3 PUSH2 0x2D2A JUMP JUMPDEST PUSH1 0x20 DUP3 ADD SWAP1 POP SWAP2 SWAP1 POP JUMP JUMPDEST PUSH0 PUSH1 0x20 DUP3 ADD SWAP1 POP DUP2 DUP2 SUB PUSH0 DUP4 ADD MSTORE PUSH2 0x2D8B DUP2 PUSH2 0x2D52 JUMP JUMPDEST SWAP1 POP SWAP2 SWAP1 POP JUMP JUMPDEST PUSH32 0x496E73756666696369656E74204120616D6F756E740000000000000000000000 PUSH0 DUP3 ADD MSTORE POP JUMP JUMPDEST PUSH0 PUSH2 0x2DC6 PUSH1 0x15 DUP4 PUSH2 0x1EFB JUMP JUMPDEST SWAP2 POP PUSH2 0x2DD1 DUP3 PUSH2 0x2D92 JUMP JUMPDEST PUSH1 0x20 DUP3 ADD SWAP1 POP SWAP2 SWAP1 POP JUMP JUMPDEST PUSH0 PUSH1 0x20 DUP3 ADD SWAP1 POP DUP2 DUP2 SUB PUSH0 DUP4 ADD MSTORE PUSH2 0x2DF3 DUP2 PUSH2 0x2DBA JUMP JUMPDEST SWAP1 POP SWAP2 SWAP1 POP JUMP JUMPDEST PUSH32 0x45524332303A206275726E20616D6F756E7420657863656564732062616C616E PUSH0 DUP3 ADD MSTORE PUSH32 0x6365000000000000000000000000000000000000000000000000000000000000 PUSH1 0x20 DUP3 ADD MSTORE POP JUMP JUMPDEST PUSH0 PUSH2 0x2E54 PUSH1 0x22 DUP4 PUSH2 0x1EFB JUMP JUMPDEST SWAP2 POP PUSH2 0x2E5F DUP3 PUSH2 0x2DFA JUMP JUMPDEST PUSH1 0x40 DUP3 ADD SWAP1 POP SWAP2 SWAP1 POP JUMP JUMPDEST PUSH0 PUSH1 0x20 DUP3 ADD SWAP1 POP DUP2 DUP2 SUB PUSH0 DUP4 ADD MSTORE PUSH2 0x2E81 DUP2 PUSH2 0x2E48 JUMP JUMPDEST SWAP1 POP SWAP2 SWAP1 POP JUMP INVALID LOG2 PUSH5 0x6970667358 0x22 SLT KECCAK256 0x25 BLOBHASH RETURNDATACOPY SWAP5 0xCD DUP6 SWAP9 CALLDATASIZE MCOPY INVALID 0xD3 EXTDELEGATECALL MCOPY SWAP11 0xA6 CALLDATASIZE PUSH28 0xF194559008E1B48629C9455432A4364736F6C634300081E00330000 "
				},
				"gasEstimates": {
					"creation": {
						"codeDepositCost": "2393200",
						"executionCost": "infinite",
						"totalCost": "infinite"
					},
					"external": {
						"MINIMUM_LIQUIDITY()": "347",
						"addLiquidity(address,address,uint256,uint256,uint256,uint256,address,uint256)": "infinite",
						"allowance(address,address)": "infinite",
						"approve(address,uint256)": "infinite",
						"balanceOf(address)": "2891",
						"decimals()": "infinite",
						"name()": "infinite",
						"removeLiquidity(address,address,uint256,uint256,uint256,address,uint256)": "infinite",
						"reserveA(address,address)": "infinite",
						"reserveB(address,address)": "infinite",
						"swapExactTokensForTokens(uint256,uint256,address[],address,uint256)": "infinite",
						"symbol()": "infinite",
						"totalSupply()": "2493",
						"transfer(address,uint256)": "infinite",
						"transferFrom(address,address,uint256)": "infinite"
					},
					"internal": {
						"min(uint256,uint256)": "63",
						"sqrt(uint256)": "infinite"
					}
				},
				"methodIdentifiers": {
					"MINIMUM_LIQUIDITY()": "ba9a7a56",
					"addLiquidity(address,address,uint256,uint256,uint256,uint256,address,uint256)": "e8e33700",
					"allowance(address,address)": "dd62ed3e",
					"approve(address,uint256)": "095ea7b3",
					"balanceOf(address)": "70a08231",
					"decimals()": "313ce567",
					"name()": "06fdde03",
					"removeLiquidity(address,address,uint256,uint256,uint256,address,uint256)": "baa2abde",
					"reserveA(address,address)": "961e50d3",
					"reserveB(address,address)": "9876077a",
					"swapExactTokensForTokens(uint256,uint256,address[],address,uint256)": "38ed1739",
					"symbol()": "95d89b41",
					"totalSupply()": "18160ddd",
					"transfer(address,uint256)": "a9059cbb",
					"transferFrom(address,address,uint256)": "23b872dd"
				}
			},
			"storageLayout": {
				"storage": [
					{
						"astId": 58,
						"contract": "contracts/SimpleSwapTP.sol:SimpleSwap",
						"label": "name",
						"offset": 0,
						"slot": "0",
						"type": "t_string_storage"
					},
					{
						"astId": 60,
						"contract": "contracts/SimpleSwapTP.sol:SimpleSwap",
						"label": "symbol",
						"offset": 0,
						"slot": "1",
						"type": "t_string_storage"
					},
					{
						"astId": 66,
						"contract": "contracts/SimpleSwapTP.sol:SimpleSwap",
						"label": "totalSupply",
						"offset": 0,
						"slot": "2",
						"type": "t_uint256"
					},
					{
						"astId": 71,
						"contract": "contracts/SimpleSwapTP.sol:SimpleSwap",
						"label": "balanceOf",
						"offset": 0,
						"slot": "3",
						"type": "t_mapping(t_address,t_uint256)"
					},
					{
						"astId": 78,
						"contract": "contracts/SimpleSwapTP.sol:SimpleSwap",
						"label": "allowance",
						"offset": 0,
						"slot": "4",
						"type": "t_mapping(t_address,t_mapping(t_address,t_uint256))"
					},
					{
						"astId": 318,
						"contract": "contracts/SimpleSwapTP.sol:SimpleSwap",
						"label": "reserveA",
						"offset": 0,
						"slot": "5",
						"type": "t_mapping(t_address,t_mapping(t_address,t_uint256))"
					},
					{
						"astId": 324,
						"contract": "contracts/SimpleSwapTP.sol:SimpleSwap",
						"label": "reserveB",
						"offset": 0,
						"slot": "6",
						"type": "t_mapping(t_address,t_mapping(t_address,t_uint256))"
					}
				],
				"types": {
					"t_address": {
						"encoding": "inplace",
						"label": "address",
						"numberOfBytes": "20"
					},
					"t_mapping(t_address,t_mapping(t_address,t_uint256))": {
						"encoding": "mapping",
						"key": "t_address",
						"label": "mapping(address => mapping(address => uint256))",
						"numberOfBytes": "32",
						"value": "t_mapping(t_address,t_uint256)"
					},
					"t_mapping(t_address,t_uint256)": {
						"encoding": "mapping",
						"key": "t_address",
						"label": "mapping(address => uint256)",
						"numberOfBytes": "32",
						"value": "t_uint256"
					},
					"t_string_storage": {
						"encoding": "bytes",
						"label": "string",
						"numberOfBytes": "32"
					},
					"t_uint256": {
						"encoding": "inplace",
						"label": "uint256",
						"numberOfBytes": "32"
					}
				}
			},
			"userdoc": {
				"kind": "user",
				"methods": {
					"addLiquidity(address,address,uint256,uint256,uint256,uint256,address,uint256)": {
						"notice": "Adds liquidity to the pool"
					},
					"removeLiquidity(address,address,uint256,uint256,uint256,address,uint256)": {
						"notice": "Removes liquidity and burns LP tokens"
					},
					"swapExactTokensForTokens(uint256,uint256,address[],address,uint256)": {
						"notice": "Swaps exact amount of tokens for tokens from a pool"
					}
				},
				"notice": "A decentralized exchange contract with liquidity provision and token swapping.",
				"version": 1
			}
		}
	}
}